{
  "_format": "hh-sol-artifact-1",
  "contractName": "ETH_XMR",
  "sourceName": "contracts/Master.sol",
  "abi": [
    {
      "inputs": [],
      "name": "ReentrancyGuardReentrantCall",
      "type": "error"
    },
    {
      "anonymous": false,
      "inputs": [],
      "name": "SwapFailureConfirmation",
      "type": "event"
    },
    {
      "anonymous": false,
      "inputs": [
        {
          "indexed": false,
          "internalType": "string",
          "name": "TxID",
          "type": "string"
        }
      ],
      "name": "SwapSuccessConfirmation",
      "type": "event"
    },
    {
      "inputs": [],
      "name": "ConfirmSwapFailure",
      "outputs": [],
      "stateMutability": "nonpayable",
      "type": "function"
    },
    {
      "inputs": [
        {
          "internalType": "string",
          "name": "tx_hash",
          "type": "string"
        }
      ],
      "name": "ConfirmSwapSuccess",
      "outputs": [],
      "stateMutability": "nonpayable",
      "type": "function"
    },
    {
      "inputs": [],
      "name": "ReclaimDeposit",
      "outputs": [],
      "stateMutability": "nonpayable",
      "type": "function"
    },
    {
      "inputs": [],
      "name": "depositTimestamp",
      "outputs": [
        {
          "internalType": "uint256",
          "name": "",
          "type": "uint256"
        }
      ],
      "stateMutability": "view",
      "type": "function"
    },
    {
      "inputs": [],
      "name": "depositor",
      "outputs": [
        {
          "internalType": "address",
          "name": "",
          "type": "address"
        }
      ],
      "stateMutability": "view",
      "type": "function"
    },
    {
      "inputs": [],
      "name": "hashedMoneroAddress",
      "outputs": [
        {
          "internalType": "string",
          "name": "",
          "type": "string"
        }
      ],
      "stateMutability": "view",
      "type": "function"
    },
    {
      "inputs": [
        {
          "internalType": "address",
          "name": "_depositor",
          "type": "address"
        },
        {
          "internalType": "string",
          "name": "_hashedMoneroAddress",
          "type": "string"
        },
        {
          "internalType": "address",
          "name": "_master",
          "type": "address"
        },
        {
          "internalType": "address",
          "name": "_oracle",
          "type": "address"
        }
      ],
      "name": "initialize",
      "outputs": [],
      "stateMutability": "nonpayable",
      "type": "function"
    },
    {
      "inputs": [],
      "name": "master",
      "outputs": [
        {
          "internalType": "address",
          "name": "",
          "type": "address"
        }
      ],
      "stateMutability": "view",
      "type": "function"
    },
    {
      "inputs": [],
      "name": "oracle",
      "outputs": [
        {
          "internalType": "address",
          "name": "",
          "type": "address"
        }
      ],
      "stateMutability": "view",
      "type": "function"
    },
    {
      "stateMutability": "payable",
      "type": "receive"
    }
  ],
  "bytecode": "0x6080604052348015600f57600080fd5b506001600081905550611737806100276000396000f3fe60806040526004361061008a5760003560e01c8063a585412311610059578063a58541231461036a578063b8f88d6414610395578063bfd71a14146103be578063c7c4ff46146103d5578063ee97f7f314610400576102cf565b8063085ff733146102d45780633814895b146102eb5780633fb1c6a9146103145780637dc0d1d01461033f576102cf565b366102cf57600160009054906101000a900473ffffffffffffffffffffffffffffffffffffffff1673ffffffffffffffffffffffffffffffffffffffff163373ffffffffffffffffffffffffffffffffffffffff161461011f576040517f08c379a000000000000000000000000000000000000000000000000000000000815260040161011690610c06565b60405180910390fd5b61012761042b565b600660059054906101000a900460ff1615610177576040517f08c379a000000000000000000000000000000000000000000000000000000000815260040161016e90610c72565b60405180910390fd5b600660019054906101000a900460ff16156101c7576040517f08c379a00000000000000000000000000000000000000000000000000000000081526004016101be90610d2a565b60405180910390fd5b66071afd498d0000341015610211576040517f08c379a000000000000000000000000000000000000000000000000000000000815260040161020890610dbc565b60405180910390fd5b6001600660016101000a81548160ff02191690831515021790555042600581905550600260009054906101000a900473ffffffffffffffffffffffffffffffffffffffff1673ffffffffffffffffffffffffffffffffffffffff16630f4273cb303460046040518463ffffffff1660e01b815260040161029393929190610f2f565b600060405180830381600087803b1580156102ad57600080fd5b505af11580156102c1573d6000803e3d6000fd5b505050506102cd610471565b005b600080fd5b3480156102e057600080fd5b506102e961047b565b005b3480156102f757600080fd5b50610312600480360381019061030d91906110c7565b6106ae565b005b34801561032057600080fd5b506103296107d8565b604051610336919061117e565b60405180910390f35b34801561034b57600080fd5b50610354610866565b60405161036191906111a0565b60405180910390f35b34801561037657600080fd5b5061037f61088c565b60405161038c91906111bb565b60405180910390f35b3480156103a157600080fd5b506103bc60048036038101906103b79190611202565b610892565b005b3480156103ca57600080fd5b506103d36109d6565b005b3480156103e157600080fd5b506103ea610b5d565b6040516103f791906111a0565b60405180910390f35b34801561040c57600080fd5b50610415610b83565b60405161042291906111a0565b60405180910390f35b600260005403610467576040517f3ee5aeb500000000000000000000000000000000000000000000000000000000815260040160405180910390fd5b6002600081905550565b6001600081905550565b600160009054906101000a900473ffffffffffffffffffffffffffffffffffffffff1673ffffffffffffffffffffffffffffffffffffffff163373ffffffffffffffffffffffffffffffffffffffff161461050b576040517f08c379a000000000000000000000000000000000000000000000000000000000815260040161050290610c06565b60405180910390fd5b61051361042b565b600660059054906101000a900460ff1615610563576040517f08c379a000000000000000000000000000000000000000000000000000000000815260040161055a90610c72565b60405180910390fd5b600660049054906101000a900460ff16156105b3576040517f08c379a00000000000000000000000000000000000000000000000000000000081526004016105aa906112d1565b60405180910390fd5b610e106005546105c39190611320565b421015610605576040517f08c379a00000000000000000000000000000000000000000000000000000000081526004016105fc906113a0565b60405180910390fd5b6001600660046101000a81548160ff021916908315150217905550600160009054906101000a900473ffffffffffffffffffffffffffffffffffffffff1673ffffffffffffffffffffffffffffffffffffffff166108fc479081150290604051600060405180830381858888f19350505050158015610688573d6000803e3d6000fd5b506001600660056101000a81548160ff0219169083151502179055506106ac610471565b565b600360009054906101000a900473ffffffffffffffffffffffffffffffffffffffff1673ffffffffffffffffffffffffffffffffffffffff163373ffffffffffffffffffffffffffffffffffffffff161461073e576040517f08c379a00000000000000000000000000000000000000000000000000000000081526004016107359061140c565b60405180910390fd5b61074661042b565b600660059054906101000a900460ff1615610796576040517f08c379a000000000000000000000000000000000000000000000000000000000815260040161078d90610c72565b60405180910390fd5b7f414290ff5dba1f464d6f5a155e0704fa2f325323bde1ba864f4a970feb98bb4c816040516107c5919061117e565b60405180910390a16107d5610471565b50565b600480546107e590610e65565b80601f016020809104026020016040519081016040528092919081815260200182805461081190610e65565b801561085e5780601f106108335761010080835404028352916020019161085e565b820191906000526020600020905b81548152906001019060200180831161084157829003601f168201915b505050505081565b600360009054906101000a900473ffffffffffffffffffffffffffffffffffffffff1681565b60055481565b600660009054906101000a900460ff16156108e2576040517f08c379a00000000000000000000000000000000000000000000000000000000081526004016108d990611478565b60405180910390fd5b6001600660006101000a81548160ff02191690831515021790555083600160006101000a81548173ffffffffffffffffffffffffffffffffffffffff021916908373ffffffffffffffffffffffffffffffffffffffff160217905550826004908161094d919061162f565b5081600260006101000a81548173ffffffffffffffffffffffffffffffffffffffff021916908373ffffffffffffffffffffffffffffffffffffffff16021790555080600360006101000a81548173ffffffffffffffffffffffffffffffffffffffff021916908373ffffffffffffffffffffffffffffffffffffffff16021790555050505050565b600360009054906101000a900473ffffffffffffffffffffffffffffffffffffffff1673ffffffffffffffffffffffffffffffffffffffff163373ffffffffffffffffffffffffffffffffffffffff1614610a66576040517f08c379a0000000000000000000000000000000000000000000000000000000008152600401610a5d9061140c565b60405180910390fd5b610a6e61042b565b600660059054906101000a900460ff1615610abe576040517f08c379a0000000000000000000000000000000000000000000000000000000008152600401610ab590610c72565b60405180910390fd5b7fd83c33436f5e4559a651af3ad4b0ce1a34a251c8aecaa4ca1f94eb3b07c00ac060405160405180910390a1600160009054906101000a900473ffffffffffffffffffffffffffffffffffffffff1673ffffffffffffffffffffffffffffffffffffffff166108fc479081150290604051600060405180830381858888f19350505050158015610b52573d6000803e3d6000fd5b50610b5b610471565b565b600160009054906101000a900473ffffffffffffffffffffffffffffffffffffffff1681565b600260009054906101000a900473ffffffffffffffffffffffffffffffffffffffff1681565b600082825260208201905092915050565b7f43616c6c6572206973206e6f7420746865206465706f7369746f720000000000600082015250565b6000610bf0601b83610ba9565b9150610bfb82610bba565b602082019050919050565b60006020820190508181036000830152610c1f81610be3565b9050919050565b7f436f6e74726163742069732064697361626c6564000000000000000000000000600082015250565b6000610c5c601483610ba9565b9150610c6782610c26565b602082019050919050565b60006020820190508181036000830152610c8b81610c4f565b9050919050565b7f436f6e74726163742063616e206f6e6c792062652070616964206f6e63652c2060008201527f74686973206d617920626520616d6d656e64656420696e20612066757475726560208201527f2075706461746500000000000000000000000000000000000000000000000000604082015250565b6000610d14604783610ba9565b9150610d1f82610c92565b606082019050919050565b60006020820190508181036000830152610d4381610d07565b9050919050565b7f596f75206d7573742073656e642061206d696e696d756d206f66202e3030322060008201527f4554480000000000000000000000000000000000000000000000000000000000602082015250565b6000610da6602383610ba9565b9150610db182610d4a565b604082019050919050565b60006020820190508181036000830152610dd581610d99565b9050919050565b600073ffffffffffffffffffffffffffffffffffffffff82169050919050565b6000610e0782610ddc565b9050919050565b610e1781610dfc565b82525050565b6000819050919050565b610e3081610e1d565b82525050565b7f4e487b7100000000000000000000000000000000000000000000000000000000600052602260045260246000fd5b60006002820490506001821680610e7d57607f821691505b602082108103610e9057610e8f610e36565b5b50919050565b60008190508160005260206000209050919050565b60008154610eb881610e65565b610ec28186610ba9565b94506001821660008114610edd5760018114610ef357610f26565b60ff198316865281151560200286019350610f26565b610efc85610e96565b60005b83811015610f1e57815481890152600182019150602081019050610eff565b808801955050505b50505092915050565b6000606082019050610f446000830186610e0e565b610f516020830185610e27565b8181036040830152610f638184610eab565b9050949350505050565b6000604051905090565b600080fd5b600080fd5b600080fd5b600080fd5b6000601f19601f8301169050919050565b7f4e487b7100000000000000000000000000000000000000000000000000000000600052604160045260246000fd5b610fd482610f8b565b810181811067ffffffffffffffff82111715610ff357610ff2610f9c565b5b80604052505050565b6000611006610f6d565b90506110128282610fcb565b919050565b600067ffffffffffffffff82111561103257611031610f9c565b5b61103b82610f8b565b9050602081019050919050565b82818337600083830152505050565b600061106a61106584611017565b610ffc565b90508281526020810184848401111561108657611085610f86565b5b611091848285611048565b509392505050565b600082601f8301126110ae576110ad610f81565b5b81356110be848260208601611057565b91505092915050565b6000602082840312156110dd576110dc610f77565b5b600082013567ffffffffffffffff8111156110fb576110fa610f7c565b5b61110784828501611099565b91505092915050565b600081519050919050565b60005b8381101561113957808201518184015260208101905061111e565b60008484015250505050565b600061115082611110565b61115a8185610ba9565b935061116a81856020860161111b565b61117381610f8b565b840191505092915050565b600060208201905081810360008301526111988184611145565b905092915050565b60006020820190506111b56000830184610e0e565b92915050565b60006020820190506111d06000830184610e27565b92915050565b6111df81610dfc565b81146111ea57600080fd5b50565b6000813590506111fc816111d6565b92915050565b6000806000806080858703121561121c5761121b610f77565b5b600061122a878288016111ed565b945050602085013567ffffffffffffffff81111561124b5761124a610f7c565b5b61125787828801611099565b9350506040611268878288016111ed565b9250506060611279878288016111ed565b91505092959194509250565b7f46756e6374696f6e2063616e206f6e6c792062652063616c6c6564206f6e6365600082015250565b60006112bb602083610ba9565b91506112c682611285565b602082019050919050565b600060208201905081810360008301526112ea816112ae565b9050919050565b7f4e487b7100000000000000000000000000000000000000000000000000000000600052601160045260246000fd5b600061132b82610e1d565b915061133683610e1d565b925082820190508082111561134e5761134d6112f1565b5b92915050565b7f43616e6e6f74207265636c61696d207965740000000000000000000000000000600082015250565b600061138a601283610ba9565b915061139582611354565b602082019050919050565b600060208201905081810360008301526113b98161137d565b9050919050565b7f43616c6c6572206973206e6f7420746865206f7261636c650000000000000000600082015250565b60006113f6601883610ba9565b9150611401826113c0565b602082019050919050565b60006020820190508181036000830152611425816113e9565b9050919050565b7f416c726561647920696e697469616c697a656400000000000000000000000000600082015250565b6000611462601383610ba9565b915061146d8261142c565b602082019050919050565b6000602082019050818103600083015261149181611455565b9050919050565b60006020601f8301049050919050565b600082821b905092915050565b6000600883026114e57fffffffffffffffffffffffffffffffffffffffffffffffffffffffffffffffff826114a8565b6114ef86836114a8565b95508019841693508086168417925050509392505050565b6000819050919050565b600061152c61152761152284610e1d565b611507565b610e1d565b9050919050565b6000819050919050565b61154683611511565b61155a61155282611533565b8484546114b5565b825550505050565b600090565b61156f611562565b61157a81848461153d565b505050565b5b8181101561159e57611593600082611567565b600181019050611580565b5050565b601f8211156115e3576115b481610e96565b6115bd84611498565b810160208510156115cc578190505b6115e06115d885611498565b83018261157f565b50505b505050565b600082821c905092915050565b6000611606600019846008026115e8565b1980831691505092915050565b600061161f83836115f5565b9150826002028217905092915050565b61163882611110565b67ffffffffffffffff81111561165157611650610f9c565b5b61165b8254610e65565b6116668282856115a2565b600060209050601f8311600181146116995760008415611687578287015190505b6116918582611613565b8655506116f9565b601f1984166116a786610e96565b60005b828110156116cf578489015182556001820191506020850194506020810190506116aa565b868310156116ec57848901516116e8601f8916826115f5565b8355505b6001600288020188555050505b50505050505056fea264697066735822122048a72757e177fea15cf142cb0bf86462e1934b19418e7296dc6fceeccc43670864736f6c634300081b0033",
  "linkReferences": {},
  "deployedLinkReferences": {}
}