{
  "_format": "hh-sol-artifact-1",
  "contractName": "MASTER",
  "sourceName": "contracts/Master.sol",
  "abi": [
    {
      "inputs": [
        {
          "internalType": "address",
          "name": "_implementation1",
          "type": "address"
        },
        {
          "internalType": "address",
          "name": "_implementation2",
          "type": "address"
        },
        {
          "internalType": "address",
          "name": "_eth_usd_address",
          "type": "address"
        },
        {
          "internalType": "address",
          "name": "_xmr_usd_address",
          "type": "address"
        }
      ],
      "stateMutability": "nonpayable",
      "type": "constructor"
    },
    {
      "inputs": [],
      "name": "FailedDeployment",
      "type": "error"
    },
    {
      "inputs": [
        {
          "internalType": "uint256",
          "name": "balance",
          "type": "uint256"
        },
        {
          "internalType": "uint256",
          "name": "needed",
          "type": "uint256"
        }
      ],
      "name": "InsufficientBalance",
      "type": "error"
    },
    {
      "inputs": [],
      "name": "ReentrancyGuardReentrantCall",
      "type": "error"
    },
    {
      "anonymous": false,
      "inputs": [
        {
          "indexed": true,
          "internalType": "address",
          "name": "depositAddress",
          "type": "address"
        },
        {
          "indexed": false,
          "internalType": "uint256",
          "name": "amount",
          "type": "uint256"
        },
        {
          "indexed": false,
          "internalType": "string",
          "name": "encryptedMoneroAddress",
          "type": "string"
        },
        {
          "indexed": false,
          "internalType": "uint256",
          "name": "rate",
          "type": "uint256"
        }
      ],
      "name": "EthDeposit",
      "type": "event"
    },
    {
      "anonymous": false,
      "inputs": [
        {
          "indexed": true,
          "internalType": "address",
          "name": "depositAddress",
          "type": "address"
        },
        {
          "indexed": false,
          "internalType": "string",
          "name": "encryptedMoneroAddress",
          "type": "string"
        }
      ],
      "name": "EthXmrContractCreation",
      "type": "event"
    },
    {
      "anonymous": false,
      "inputs": [
        {
          "indexed": true,
          "internalType": "address",
          "name": "destination",
          "type": "address"
        },
        {
          "indexed": false,
          "internalType": "uint256",
          "name": "amount",
          "type": "uint256"
        }
      ],
      "name": "EthereumWithdrawal",
      "type": "event"
    },
    {
      "anonymous": false,
      "inputs": [
        {
          "indexed": true,
          "internalType": "address",
          "name": "subcontractAddress",
          "type": "address"
        },
        {
          "indexed": true,
          "internalType": "address",
          "name": "withdrawalAddress",
          "type": "address"
        }
      ],
      "name": "XmrEthContractCreation",
      "type": "event"
    },
    {
      "inputs": [],
      "name": "CalculateExchangeRate",
      "outputs": [
        {
          "internalType": "uint256",
          "name": "exchangeRate",
          "type": "uint256"
        }
      ],
      "stateMutability": "view",
      "type": "function"
    },
    {
      "inputs": [
        {
          "internalType": "string",
          "name": "hashedMoneroAddress",
          "type": "string"
        }
      ],
      "name": "CreateEthXmrContract",
      "outputs": [],
      "stateMutability": "nonpayable",
      "type": "function"
    },
    {
      "inputs": [
        {
          "internalType": "address",
          "name": "withdrawalAddress",
          "type": "address"
        }
      ],
      "name": "CreateXmrEthContract",
      "outputs": [],
      "stateMutability": "nonpayable",
      "type": "function"
    },
    {
      "inputs": [
        {
          "internalType": "address",
          "name": "",
          "type": "address"
        }
      ],
      "name": "ETH_XMR_CONTRACTS",
      "outputs": [
        {
          "internalType": "address",
          "name": "",
          "type": "address"
        }
      ],
      "stateMutability": "view",
      "type": "function"
    },
    {
      "inputs": [
        {
          "internalType": "address",
          "name": "depositAddress",
          "type": "address"
        },
        {
          "internalType": "uint256",
          "name": "amount",
          "type": "uint256"
        },
        {
          "internalType": "string",
          "name": "encryptedMoneroAddress",
          "type": "string"
        }
      ],
      "name": "EthereumReceived",
      "outputs": [],
      "stateMutability": "nonpayable",
      "type": "function"
    },
    {
      "inputs": [
        {
          "internalType": "uint256",
          "name": "amountReceived",
          "type": "uint256"
        },
        {
          "internalType": "address",
          "name": "withdrawalAddress",
          "type": "address"
        }
      ],
      "name": "MoneroReceived",
      "outputs": [
        {
          "internalType": "uint256",
          "name": "",
          "type": "uint256"
        },
        {
          "internalType": "uint256",
          "name": "",
          "type": "uint256"
        }
      ],
      "stateMutability": "nonpayable",
      "type": "function"
    },
    {
      "inputs": [
        {
          "internalType": "address",
          "name": "",
          "type": "address"
        }
      ],
      "name": "XMR_ETH_CONTRACTS",
      "outputs": [
        {
          "internalType": "address",
          "name": "",
          "type": "address"
        }
      ],
      "stateMutability": "view",
      "type": "function"
    },
    {
      "inputs": [],
      "name": "eth_usd_price",
      "outputs": [
        {
          "internalType": "contract AggregatorV3Interface",
          "name": "",
          "type": "address"
        }
      ],
      "stateMutability": "view",
      "type": "function"
    },
    {
      "inputs": [],
      "name": "implementation1",
      "outputs": [
        {
          "internalType": "address",
          "name": "",
          "type": "address"
        }
      ],
      "stateMutability": "view",
      "type": "function"
    },
    {
      "inputs": [],
      "name": "implementation2",
      "outputs": [
        {
          "internalType": "address",
          "name": "",
          "type": "address"
        }
      ],
      "stateMutability": "view",
      "type": "function"
    },
    {
      "inputs": [],
      "name": "oracle",
      "outputs": [
        {
          "internalType": "address",
          "name": "",
          "type": "address"
        }
      ],
      "stateMutability": "view",
      "type": "function"
    },
    {
      "inputs": [],
      "name": "xmr_usd_price",
      "outputs": [
        {
          "internalType": "contract AggregatorV3Interface",
          "name": "",
          "type": "address"
        }
      ],
      "stateMutability": "view",
      "type": "function"
    }
  ],
  "bytecode": "0x608060405234801561001057600080fd5b50604051611d9a380380611d9a833981810160405281019061003291906101eb565b600160008190555083600160006101000a81548173ffffffffffffffffffffffffffffffffffffffff021916908373ffffffffffffffffffffffffffffffffffffffff16021790555082600260006101000a81548173ffffffffffffffffffffffffffffffffffffffff021916908373ffffffffffffffffffffffffffffffffffffffff16021790555081600360006101000a81548173ffffffffffffffffffffffffffffffffffffffff021916908373ffffffffffffffffffffffffffffffffffffffff16021790555080600460006101000a81548173ffffffffffffffffffffffffffffffffffffffff021916908373ffffffffffffffffffffffffffffffffffffffff16021790555033600560006101000a81548173ffffffffffffffffffffffffffffffffffffffff021916908373ffffffffffffffffffffffffffffffffffffffff16021790555050505050610252565b600080fd5b600073ffffffffffffffffffffffffffffffffffffffff82169050919050565b60006101b88261018d565b9050919050565b6101c8816101ad565b81146101d357600080fd5b50565b6000815190506101e5816101bf565b92915050565b6000806000806080858703121561020557610204610188565b5b6000610213878288016101d6565b9450506020610224878288016101d6565b9350506040610235878288016101d6565b9250506060610246878288016101d6565b91505092959194509250565b611b39806102616000396000f3fe608060405234801561001057600080fd5b50600436106100b45760003560e01c8063b8d9093e11610071578063b8d9093e1461017d578063d16b304a1461019b578063d2007f10146101b7578063d533a06b146101e8578063f948e51a14610218578063fad494cb14610236576100b4565b80630f4273cb146100b9578063345ba24b146100d557806349d19efe146100f35780634f812858146101115780637dc0d1d0146101415780638faba8421461015f575b600080fd5b6100d360048036038101906100ce919061110b565b610252565b005b6100dd61040a565b6040516100ea91906111d9565b60405180910390f35b6100fb610430565b60405161010891906111d9565b60405180910390f35b61012b600480360381019061012691906111f4565b610456565b6040516101389190611230565b60405180910390f35b610149610489565b6040516101569190611230565b60405180910390f35b6101676104af565b604051610174919061125a565b60405180910390f35b6101856107d5565b6040516101929190611230565b60405180910390f35b6101b560048036038101906101b09190611275565b6107fb565b005b6101d160048036038101906101cc91906112be565b61098d565b6040516101df9291906112fe565b60405180910390f35b61020260048036038101906101fd91906111f4565b610bcc565b60405161020f9190611230565b60405180910390f35b610220610bff565b60405161022d9190611230565b60405180910390f35b610250600480360381019061024b91906111f4565b610c25565b005b600073ffffffffffffffffffffffffffffffffffffffff16600660003373ffffffffffffffffffffffffffffffffffffffff1673ffffffffffffffffffffffffffffffffffffffff16815260200190815260200160002060009054906101000a900473ffffffffffffffffffffffffffffffffffffffff1673ffffffffffffffffffffffffffffffffffffffff1603610320576040517f08c379a000000000000000000000000000000000000000000000000000000000815260040161031790611384565b60405180910390fd5b60008211610363576040517f08c379a000000000000000000000000000000000000000000000000000000000815260040161035a906113f0565b60405180910390fd5b600061036d6104af565b9050600081116103b2576040517f08c379a00000000000000000000000000000000000000000000000000000000081526004016103a99061145c565b60405180910390fd5b8373ffffffffffffffffffffffffffffffffffffffff167f836c043dd45879bec98712b94000af7b89d5b136a949ece2701c2a7468f09be18484846040516103fc939291906114ea565b60405180910390a250505050565b600360009054906101000a900473ffffffffffffffffffffffffffffffffffffffff1681565b600460009054906101000a900473ffffffffffffffffffffffffffffffffffffffff1681565b60076020528060005260406000206000915054906101000a900473ffffffffffffffffffffffffffffffffffffffff1681565b600560009054906101000a900473ffffffffffffffffffffffffffffffffffffffff1681565b600080600360009054906101000a900473ffffffffffffffffffffffffffffffffffffffff1673ffffffffffffffffffffffffffffffffffffffff1663feaf968c6040518163ffffffff1660e01b815260040160a060405180830381865afa15801561051f573d6000803e3d6000fd5b505050506040513d601f19601f8201168201806040525081019061054391906115b5565b5050509150506000600460009054906101000a900473ffffffffffffffffffffffffffffffffffffffff1673ffffffffffffffffffffffffffffffffffffffff1663feaf968c6040518163ffffffff1660e01b815260040160a060405180830381865afa1580156105b8573d6000803e3d6000fd5b505050506040513d601f19601f820116820180604052508101906105dc91906115b5565b5050509150506000821380156105f25750600081135b610631576040517f08c379a00000000000000000000000000000000000000000000000000000000081526004016106289061167c565b60405180910390fd5b6000600360009054906101000a900473ffffffffffffffffffffffffffffffffffffffff1673ffffffffffffffffffffffffffffffffffffffff1663313ce5676040518163ffffffff1660e01b8152600401602060405180830381865afa1580156106a0573d6000803e3d6000fd5b505050506040513d601f19601f820116820180604052508101906106c491906116d5565b90506000600460009054906101000a900473ffffffffffffffffffffffffffffffffffffffff1673ffffffffffffffffffffffffffffffffffffffff1663313ce5676040518163ffffffff1660e01b8152600401602060405180830381865afa158015610735573d6000803e3d6000fd5b505050506040513d601f19601f8201168201806040525081019061075991906116d5565b9050600082601261076a9190611731565b600a6107769190611899565b8561078191906118e4565b905060008260126107929190611731565b600a61079e9190611899565b856107a991906118e4565b905081670de0b6b3a7640000826107c091906118e4565b6107ca9190611955565b965050505050505090565b600160009054906101000a900473ffffffffffffffffffffffffffffffffffffffff1681565b6000610828600160009054906101000a900473ffffffffffffffffffffffffffffffffffffffff16610dc1565b905033600660008373ffffffffffffffffffffffffffffffffffffffff1673ffffffffffffffffffffffffffffffffffffffff16815260200190815260200160002060006101000a81548173ffffffffffffffffffffffffffffffffffffffff021916908373ffffffffffffffffffffffffffffffffffffffff1602179055508073ffffffffffffffffffffffffffffffffffffffff1663b8f88d64338430600560009054906101000a900473ffffffffffffffffffffffffffffffffffffffff166040518563ffffffff1660e01b81526004016109099493929190611986565b600060405180830381600087803b15801561092357600080fd5b505af1158015610937573d6000803e3d6000fd5b505050508073ffffffffffffffffffffffffffffffffffffffff167fed9b820341d69b311d4b24c6b294fef4da3746d1bc99f3e93e92703f913d80b08360405161098191906119d2565b60405180910390a25050565b600080600073ffffffffffffffffffffffffffffffffffffffff16600760003373ffffffffffffffffffffffffffffffffffffffff1673ffffffffffffffffffffffffffffffffffffffff16815260200190815260200160002060009054906101000a900473ffffffffffffffffffffffffffffffffffffffff1673ffffffffffffffffffffffffffffffffffffffff1603610a5e576040517f08c379a0000000000000000000000000000000000000000000000000000000008152600401610a5590611a40565b60405180910390fd5b610a66610dd5565b6000610a706104af565b905060008111610ab5576040517f08c379a0000000000000000000000000000000000000000000000000000000008152600401610aac9061145c565b60405180910390fd5b6000606482610ac491906118e4565b606387610ad191906118e4565b610adb9190611955565b905080471015610b20576040517f08c379a0000000000000000000000000000000000000000000000000000000008152600401610b1790611aac565b60405180910390fd5b8473ffffffffffffffffffffffffffffffffffffffff166108fc829081150290604051600060405180830381858888f19350505050158015610b66573d6000803e3d6000fd5b508473ffffffffffffffffffffffffffffffffffffffff167fc214b61456a4afa996b84ace2c1921a32f11ff0318e96b8ce1dfc2a3b0ab52f982604051610bad919061125a565b60405180910390a24281935093505050610bc5610e1b565b9250929050565b60066020528060005260406000206000915054906101000a900473ffffffffffffffffffffffffffffffffffffffff1681565b600260009054906101000a900473ffffffffffffffffffffffffffffffffffffffff1681565b6000610c52600260009054906101000a900473ffffffffffffffffffffffffffffffffffffffff16610dc1565b905033600760008373ffffffffffffffffffffffffffffffffffffffff1673ffffffffffffffffffffffffffffffffffffffff16815260200190815260200160002060006101000a81548173ffffffffffffffffffffffffffffffffffffffff021916908373ffffffffffffffffffffffffffffffffffffffff1602179055508073ffffffffffffffffffffffffffffffffffffffff1663c0c53b8b8330600560009054906101000a900473ffffffffffffffffffffffffffffffffffffffff166040518463ffffffff1660e01b8152600401610d3193929190611acc565b600060405180830381600087803b158015610d4b57600080fd5b505af1158015610d5f573d6000803e3d6000fd5b505050508173ffffffffffffffffffffffffffffffffffffffff168173ffffffffffffffffffffffffffffffffffffffff167fe79f779f4abbe35b362e83f3db412565bcb485e9c3acd4794e355034e8067b1060405160405180910390a35050565b6000610dce826000610e25565b9050919050565b600260005403610e11576040517f3ee5aeb500000000000000000000000000000000000000000000000000000000815260040160405180910390fd5b6002600081905550565b6001600081905550565b600081471015610e6e5747826040517fcf479181000000000000000000000000000000000000000000000000000000008152600401610e659291906112fe565b60405180910390fd5b763d602d80600a3d3981f3363d3d373d3d3d363d730000008360601b60e81c176000526e5af43d82803e903d91602b57fd5bf38360781b176020526037600983f09050600073ffffffffffffffffffffffffffffffffffffffff168173ffffffffffffffffffffffffffffffffffffffff1603610f17576040517fb06ebf3d00000000000000000000000000000000000000000000000000000000815260040160405180910390fd5b92915050565b6000604051905090565b600080fd5b600080fd5b600073ffffffffffffffffffffffffffffffffffffffff82169050919050565b6000610f5c82610f31565b9050919050565b610f6c81610f51565b8114610f7757600080fd5b50565b600081359050610f8981610f63565b92915050565b6000819050919050565b610fa281610f8f565b8114610fad57600080fd5b50565b600081359050610fbf81610f99565b92915050565b600080fd5b600080fd5b6000601f19601f8301169050919050565b7f4e487b7100000000000000000000000000000000000000000000000000000000600052604160045260246000fd5b61101882610fcf565b810181811067ffffffffffffffff8211171561103757611036610fe0565b5b80604052505050565b600061104a610f1d565b9050611056828261100f565b919050565b600067ffffffffffffffff82111561107657611075610fe0565b5b61107f82610fcf565b9050602081019050919050565b82818337600083830152505050565b60006110ae6110a98461105b565b611040565b9050828152602081018484840111156110ca576110c9610fca565b5b6110d584828561108c565b509392505050565b600082601f8301126110f2576110f1610fc5565b5b813561110284826020860161109b565b91505092915050565b60008060006060848603121561112457611123610f27565b5b600061113286828701610f7a565b935050602061114386828701610fb0565b925050604084013567ffffffffffffffff81111561116457611163610f2c565b5b611170868287016110dd565b9150509250925092565b6000819050919050565b600061119f61119a61119584610f31565b61117a565b610f31565b9050919050565b60006111b182611184565b9050919050565b60006111c3826111a6565b9050919050565b6111d3816111b8565b82525050565b60006020820190506111ee60008301846111ca565b92915050565b60006020828403121561120a57611209610f27565b5b600061121884828501610f7a565b91505092915050565b61122a81610f51565b82525050565b60006020820190506112456000830184611221565b92915050565b61125481610f8f565b82525050565b600060208201905061126f600083018461124b565b92915050565b60006020828403121561128b5761128a610f27565b5b600082013567ffffffffffffffff8111156112a9576112a8610f2c565b5b6112b5848285016110dd565b91505092915050565b600080604083850312156112d5576112d4610f27565b5b60006112e385828601610fb0565b92505060206112f485828601610f7a565b9150509250929050565b6000604082019050611313600083018561124b565b611320602083018461124b565b9392505050565b600082825260208201905092915050565b7f4e6f7420612076616c6964204554482f584d5220636f6e747261637400000000600082015250565b600061136e601c83611327565b915061137982611338565b602082019050919050565b6000602082019050818103600083015261139d81611361565b9050919050565b7f6e6f20657468206465706f736974656400000000000000000000000000000000600082015250565b60006113da601083611327565b91506113e5826113a4565b602082019050919050565b60006020820190508181036000830152611409816113cd565b9050919050565b7f6661696c656420746f206765742065786368616e676520726174650000000000600082015250565b6000611446601b83611327565b915061145182611410565b602082019050919050565b6000602082019050818103600083015261147581611439565b9050919050565b600081519050919050565b60005b838110156114a557808201518184015260208101905061148a565b60008484015250505050565b60006114bc8261147c565b6114c68185611327565b93506114d6818560208601611487565b6114df81610fcf565b840191505092915050565b60006060820190506114ff600083018661124b565b818103602083015261151181856114b1565b9050611520604083018461124b565b949350505050565b600069ffffffffffffffffffff82169050919050565b61154781611528565b811461155257600080fd5b50565b6000815190506115648161153e565b92915050565b6000819050919050565b61157d8161156a565b811461158857600080fd5b50565b60008151905061159a81611574565b92915050565b6000815190506115af81610f99565b92915050565b600080600080600060a086880312156115d1576115d0610f27565b5b60006115df88828901611555565b95505060206115f08882890161158b565b9450506040611601888289016115a0565b9350506060611612888289016115a0565b925050608061162388828901611555565b9150509295509295909350565b7f496e76616c696420707269636520646174610000000000000000000000000000600082015250565b6000611666601283611327565b915061167182611630565b602082019050919050565b6000602082019050818103600083015261169581611659565b9050919050565b600060ff82169050919050565b6116b28161169c565b81146116bd57600080fd5b50565b6000815190506116cf816116a9565b92915050565b6000602082840312156116eb576116ea610f27565b5b60006116f9848285016116c0565b91505092915050565b7f4e487b7100000000000000000000000000000000000000000000000000000000600052601160045260246000fd5b600061173c8261169c565b91506117478361169c565b9250828203905060ff8111156117605761175f611702565b5b92915050565b60008160011c9050919050565b6000808291508390505b60018511156117bd5780860481111561179957611798611702565b5b60018516156117a85780820291505b80810290506117b685611766565b945061177d565b94509492505050565b6000826117d65760019050611892565b816117e45760009050611892565b81600181146117fa576002811461180457611833565b6001915050611892565b60ff84111561181657611815611702565b5b8360020a91508482111561182d5761182c611702565b5b50611892565b5060208310610133831016604e8410600b84101617156118685782820a90508381111561186357611862611702565b5b611892565b6118758484846001611773565b9250905081840481111561188c5761188b611702565b5b81810290505b9392505050565b60006118a482610f8f565b91506118af8361169c565b92506118dc7fffffffffffffffffffffffffffffffffffffffffffffffffffffffffffffffff84846117c6565b905092915050565b60006118ef82610f8f565b91506118fa83610f8f565b925082820261190881610f8f565b9150828204841483151761191f5761191e611702565b5b5092915050565b7f4e487b7100000000000000000000000000000000000000000000000000000000600052601260045260246000fd5b600061196082610f8f565b915061196b83610f8f565b92508261197b5761197a611926565b5b828204905092915050565b600060808201905061199b6000830187611221565b81810360208301526119ad81866114b1565b90506119bc6040830185611221565b6119c96060830184611221565b95945050505050565b600060208201905081810360008301526119ec81846114b1565b905092915050565b7f4e6f7420612076616c696420584d522f45544820636f6e747261637400000000600082015250565b6000611a2a601c83611327565b9150611a35826119f4565b602082019050919050565b60006020820190508181036000830152611a5981611a1d565b9050919050565b7f496e73756666696369656e74204554482042616c616e63650000000000000000600082015250565b6000611a96601883611327565b9150611aa182611a60565b602082019050919050565b60006020820190508181036000830152611ac581611a89565b9050919050565b6000606082019050611ae16000830186611221565b611aee6020830185611221565b611afb6040830184611221565b94935050505056fea2646970667358221220d50df5a7e2d2018ebe24cc24a6b44562d6c1430cf4972c783f847ac95dcd2f7764736f6c634300081b0033",
  "linkReferences": {},
  "deployedLinkReferences": {}
}