{
  "_format": "hh-sol-artifact-1",
  "contractName": "XMR_ETH",
  "sourceName": "contracts/Master.sol",
  "abi": [
    {
      "inputs": [],
      "name": "ReentrancyGuardReentrantCall",
      "type": "error"
    },
    {
      "anonymous": false,
      "inputs": [],
      "name": "DontHaveMoneroAddress",
      "type": "event"
    },
    {
      "anonymous": false,
      "inputs": [
        {
          "indexed": false,
          "internalType": "uint256",
          "name": "timestamp",
          "type": "uint256"
        },
        {
          "indexed": false,
          "internalType": "uint256",
          "name": "withdrawalAmount",
          "type": "uint256"
        }
      ],
      "name": "EthSentEvent",
      "type": "event"
    },
    {
      "anonymous": false,
      "inputs": [
        {
          "indexed": false,
          "internalType": "string",
          "name": "encryptedMoneroAddress",
          "type": "string"
        }
      ],
      "name": "HaveMoneroAddress",
      "type": "event"
    },
    {
      "anonymous": false,
      "inputs": [
        {
          "indexed": false,
          "internalType": "uint256",
          "name": "amountReceived",
          "type": "uint256"
        }
      ],
      "name": "MoneroReceived",
      "type": "event"
    },
    {
      "anonymous": false,
      "inputs": [
        {
          "indexed": false,
          "internalType": "uint256",
          "name": "amount",
          "type": "uint256"
        },
        {
          "indexed": true,
          "internalType": "address",
          "name": "recipient",
          "type": "address"
        }
      ],
      "name": "SwapCompleted",
      "type": "event"
    },
    {
      "anonymous": false,
      "inputs": [
        {
          "indexed": false,
          "internalType": "string",
          "name": "errorMessage",
          "type": "string"
        }
      ],
      "name": "SwapFailed",
      "type": "event"
    },
    {
      "inputs": [],
      "name": "AddressGenerationFailure",
      "outputs": [],
      "stateMutability": "nonpayable",
      "type": "function"
    },
    {
      "inputs": [
        {
          "internalType": "string",
          "name": "_encryptedMoneroAddress",
          "type": "string"
        }
      ],
      "name": "AddressGenerationSuccess",
      "outputs": [],
      "stateMutability": "nonpayable",
      "type": "function"
    },
    {
      "inputs": [
        {
          "internalType": "string",
          "name": "errorMessage",
          "type": "string"
        }
      ],
      "name": "SwapFailureConfirmation",
      "outputs": [],
      "stateMutability": "nonpayable",
      "type": "function"
    },
    {
      "inputs": [
        {
          "internalType": "uint256",
          "name": "amountReceived",
          "type": "uint256"
        }
      ],
      "name": "TransmitMoneroReceived",
      "outputs": [],
      "stateMutability": "nonpayable",
      "type": "function"
    },
    {
      "inputs": [],
      "name": "encryptedMoneroAddress",
      "outputs": [
        {
          "internalType": "string",
          "name": "",
          "type": "string"
        }
      ],
      "stateMutability": "view",
      "type": "function"
    },
    {
      "inputs": [
        {
          "internalType": "address",
          "name": "_withdrawalAddress",
          "type": "address"
        },
        {
          "internalType": "address",
          "name": "_master",
          "type": "address"
        },
        {
          "internalType": "address",
          "name": "_oracle",
          "type": "address"
        }
      ],
      "name": "initialize",
      "outputs": [],
      "stateMutability": "nonpayable",
      "type": "function"
    },
    {
      "inputs": [],
      "name": "master",
      "outputs": [
        {
          "internalType": "address",
          "name": "",
          "type": "address"
        }
      ],
      "stateMutability": "view",
      "type": "function"
    },
    {
      "inputs": [],
      "name": "oracle",
      "outputs": [
        {
          "internalType": "address",
          "name": "",
          "type": "address"
        }
      ],
      "stateMutability": "view",
      "type": "function"
    },
    {
      "inputs": [],
      "name": "withdrawalAddress",
      "outputs": [
        {
          "internalType": "address",
          "name": "",
          "type": "address"
        }
      ],
      "stateMutability": "view",
      "type": "function"
    },
    {
      "inputs": [],
      "name": "withdrawalConfirmation",
      "outputs": [
        {
          "internalType": "address",
          "name": "",
          "type": "address"
        }
      ],
      "stateMutability": "view",
      "type": "function"
    }
  ],
  "bytecode": "0x6080604052348015600f57600080fd5b50600160008190555061118f806100276000396000f3fe608060405234801561001057600080fd5b506004361061009e5760003560e01c8063c66e903a11610066578063c66e903a1461011f578063d53b39f41461013b578063e4fd6a6c14610159578063ee97f7f314610177578063f2bcd022146101955761009e565b8063308e39f4146100a35780636ccfcb10146100bf57806378ef5ffe146100c95780637dc0d1d0146100e5578063c0c53b8b14610103575b600080fd5b6100bd60048036038101906100b891906108ce565b6101b3565b005b6100c76103d3565b005b6100e360048036038101906100de9190610a41565b610491565b005b6100ed61056b565b6040516100fa9190610acb565b60405180910390f35b61011d60048036038101906101189190610b12565b610591565b005b61013960048036038101906101349190610a41565b610659565b005b610143610734565b6040516101509190610be4565b60405180910390f35b6101616107c2565b60405161016e9190610acb565b60405180910390f35b61017f6107e8565b60405161018c9190610acb565b60405180910390f35b61019d61080e565b6040516101aa9190610acb565b60405180910390f35b600560009054906101000a900473ffffffffffffffffffffffffffffffffffffffff1673ffffffffffffffffffffffffffffffffffffffff163373ffffffffffffffffffffffffffffffffffffffff1614610243576040517f08c379a000000000000000000000000000000000000000000000000000000000815260040161023a90610c52565b60405180910390fd5b61024b610834565b6000811161028e576040517f08c379a000000000000000000000000000000000000000000000000000000000815260040161028590610ce4565b60405180910390fd5b7f2ce4322fe29e83ca8758b93053add080d7b235b60aaa34225b6e5e98a12d09b6816040516102bd9190610d13565b60405180910390a1600080600460009054906101000a900473ffffffffffffffffffffffffffffffffffffffff1673ffffffffffffffffffffffffffffffffffffffff1663d2007f1084600260009054906101000a900473ffffffffffffffffffffffffffffffffffffffff166040518363ffffffff1660e01b8152600401610347929190610d2e565b60408051808303816000875af1158015610365573d6000803e3d6000fd5b505050506040513d601f19601f820116820180604052508101906103899190610d6c565b915091507fcb80121580900cab4e381aa8e4d496ecda8381959740c233f4276a0d98233ee682826040516103be929190610dac565b60405180910390a150506103d061087a565b50565b600560009054906101000a900473ffffffffffffffffffffffffffffffffffffffff1673ffffffffffffffffffffffffffffffffffffffff163373ffffffffffffffffffffffffffffffffffffffff1614610463576040517f08c379a000000000000000000000000000000000000000000000000000000000815260040161045a90610c52565b60405180910390fd5b7f4f841aea6a8b78601596ad9b737ffe9a7393de75534c533f41b35f8b1ff0ba8c60405160405180910390a1565b600560009054906101000a900473ffffffffffffffffffffffffffffffffffffffff1673ffffffffffffffffffffffffffffffffffffffff163373ffffffffffffffffffffffffffffffffffffffff1614610521576040517f08c379a000000000000000000000000000000000000000000000000000000000815260040161051890610c52565b60405180910390fd5b610529610834565b7f4ecb9b6d2e2efee3f1b1b86927f5895fc3f627ac91d5ebfe344df8ae1eec0723816040516105589190610be4565b60405180910390a161056861087a565b50565b600560009054906101000a900473ffffffffffffffffffffffffffffffffffffffff1681565b82600260006101000a81548173ffffffffffffffffffffffffffffffffffffffff021916908373ffffffffffffffffffffffffffffffffffffffff16021790555081600460006101000a81548173ffffffffffffffffffffffffffffffffffffffff021916908373ffffffffffffffffffffffffffffffffffffffff16021790555080600560006101000a81548173ffffffffffffffffffffffffffffffffffffffff021916908373ffffffffffffffffffffffffffffffffffffffff160217905550505050565b600560009054906101000a900473ffffffffffffffffffffffffffffffffffffffff1673ffffffffffffffffffffffffffffffffffffffff163373ffffffffffffffffffffffffffffffffffffffff16146106e9576040517f08c379a00000000000000000000000000000000000000000000000000000000081526004016106e090610c52565b60405180910390fd5b80600190816106f89190610fe1565b507f0326f6cfcc2461ed08d13f3a1122e6818563b0b5dff401f21236901bd4c08a9560016040516107299190611137565b60405180910390a150565b6001805461074190610e04565b80601f016020809104026020016040519081016040528092919081815260200182805461076d90610e04565b80156107ba5780601f1061078f576101008083540402835291602001916107ba565b820191906000526020600020905b81548152906001019060200180831161079d57829003601f168201915b505050505081565b600360009054906101000a900473ffffffffffffffffffffffffffffffffffffffff1681565b600460009054906101000a900473ffffffffffffffffffffffffffffffffffffffff1681565b600260009054906101000a900473ffffffffffffffffffffffffffffffffffffffff1681565b600260005403610870576040517f3ee5aeb500000000000000000000000000000000000000000000000000000000815260040160405180910390fd5b6002600081905550565b6001600081905550565b6000604051905090565b600080fd5b600080fd5b6000819050919050565b6108ab81610898565b81146108b657600080fd5b50565b6000813590506108c8816108a2565b92915050565b6000602082840312156108e4576108e361088e565b5b60006108f2848285016108b9565b91505092915050565b600080fd5b600080fd5b6000601f19601f8301169050919050565b7f4e487b7100000000000000000000000000000000000000000000000000000000600052604160045260246000fd5b61094e82610905565b810181811067ffffffffffffffff8211171561096d5761096c610916565b5b80604052505050565b6000610980610884565b905061098c8282610945565b919050565b600067ffffffffffffffff8211156109ac576109ab610916565b5b6109b582610905565b9050602081019050919050565b82818337600083830152505050565b60006109e46109df84610991565b610976565b905082815260208101848484011115610a00576109ff610900565b5b610a0b8482856109c2565b509392505050565b600082601f830112610a2857610a276108fb565b5b8135610a388482602086016109d1565b91505092915050565b600060208284031215610a5757610a5661088e565b5b600082013567ffffffffffffffff811115610a7557610a74610893565b5b610a8184828501610a13565b91505092915050565b600073ffffffffffffffffffffffffffffffffffffffff82169050919050565b6000610ab582610a8a565b9050919050565b610ac581610aaa565b82525050565b6000602082019050610ae06000830184610abc565b92915050565b610aef81610aaa565b8114610afa57600080fd5b50565b600081359050610b0c81610ae6565b92915050565b600080600060608486031215610b2b57610b2a61088e565b5b6000610b3986828701610afd565b9350506020610b4a86828701610afd565b9250506040610b5b86828701610afd565b9150509250925092565b600081519050919050565b600082825260208201905092915050565b60005b83811015610b9f578082015181840152602081019050610b84565b60008484015250505050565b6000610bb682610b65565b610bc08185610b70565b9350610bd0818560208601610b81565b610bd981610905565b840191505092915050565b60006020820190508181036000830152610bfe8184610bab565b905092915050565b7f43616c6c6572206973206e6f7420746865206f7261636c650000000000000000600082015250565b6000610c3c601883610b70565b9150610c4782610c06565b602082019050919050565b60006020820190508181036000830152610c6b81610c2f565b9050919050565b7f496e76616c69642066756e6374696f6e2063616c6c2c206d6f6e65726f20726560008201527f6365697665642068617320746f2062652067726561746572207468616e203000602082015250565b6000610cce603f83610b70565b9150610cd982610c72565b604082019050919050565b60006020820190508181036000830152610cfd81610cc1565b9050919050565b610d0d81610898565b82525050565b6000602082019050610d286000830184610d04565b92915050565b6000604082019050610d436000830185610d04565b610d506020830184610abc565b9392505050565b600081519050610d66816108a2565b92915050565b60008060408385031215610d8357610d8261088e565b5b6000610d9185828601610d57565b9250506020610da285828601610d57565b9150509250929050565b6000604082019050610dc16000830185610d04565b610dce6020830184610d04565b9392505050565b7f4e487b7100000000000000000000000000000000000000000000000000000000600052602260045260246000fd5b60006002820490506001821680610e1c57607f821691505b602082108103610e2f57610e2e610dd5565b5b50919050565b60008190508160005260206000209050919050565b60006020601f8301049050919050565b600082821b905092915050565b600060088302610e977fffffffffffffffffffffffffffffffffffffffffffffffffffffffffffffffff82610e5a565b610ea18683610e5a565b95508019841693508086168417925050509392505050565b6000819050919050565b6000610ede610ed9610ed484610898565b610eb9565b610898565b9050919050565b6000819050919050565b610ef883610ec3565b610f0c610f0482610ee5565b848454610e67565b825550505050565b600090565b610f21610f14565b610f2c818484610eef565b505050565b5b81811015610f5057610f45600082610f19565b600181019050610f32565b5050565b601f821115610f9557610f6681610e35565b610f6f84610e4a565b81016020851015610f7e578190505b610f92610f8a85610e4a565b830182610f31565b50505b505050565b600082821c905092915050565b6000610fb860001984600802610f9a565b1980831691505092915050565b6000610fd18383610fa7565b9150826002028217905092915050565b610fea82610b65565b67ffffffffffffffff81111561100357611002610916565b5b61100d8254610e04565b611018828285610f54565b600060209050601f83116001811461104b5760008415611039578287015190505b6110438582610fc5565b8655506110ab565b601f19841661105986610e35565b60005b828110156110815784890151825560018201915060208501945060208101905061105c565b8683101561109e578489015161109a601f891682610fa7565b8355505b6001600288020188555050505b505050505050565b600081546110c081610e04565b6110ca8186610b70565b945060018216600081146110e557600181146110fb5761112e565b60ff19831686528115156020028601935061112e565b61110485610e35565b60005b8381101561112657815481890152600182019150602081019050611107565b808801955050505b50505092915050565b6000602082019050818103600083015261115181846110b3565b90509291505056fea2646970667358221220e8618bc25fddc59da141ff521081cb438b6ecdf674649b30888acef4368c170a64736f6c634300081b0033",
  "linkReferences": {},
  "deployedLinkReferences": {}
}