{
  "_format": "hh-sol-artifact-1",
  "contractName": "ETHZK",
  "sourceName": "contracts/zk/ETHZK.sol",
  "abi": [
    {
      "inputs": [
        {
          "internalType": "contract IVerifier",
          "name": "_verifier",
          "type": "address"
        },
        {
          "internalType": "contract IHasher",
          "name": "_hasher",
          "type": "address"
        },
        {
          "internalType": "uint256",
          "name": "_denomination",
          "type": "uint256"
        },
        {
          "internalType": "uint32",
          "name": "_merkleTreeHeight",
          "type": "uint32"
        }
      ],
      "stateMutability": "nonpayable",
      "type": "constructor"
    },
    {
      "inputs": [],
      "name": "ReentrancyGuardReentrantCall",
      "type": "error"
    },
    {
      "anonymous": false,
      "inputs": [
        {
          "indexed": true,
          "internalType": "bytes32",
          "name": "commitment",
          "type": "bytes32"
        },
        {
          "indexed": false,
          "internalType": "uint32",
          "name": "leafIndex",
          "type": "uint32"
        },
        {
          "indexed": false,
          "internalType": "uint256",
          "name": "timestamp",
          "type": "uint256"
        }
      ],
      "name": "DepositEvent",
      "type": "event"
    },
    {
      "anonymous": false,
      "inputs": [
        {
          "indexed": false,
          "internalType": "address",
          "name": "to",
          "type": "address"
        },
        {
          "indexed": false,
          "internalType": "bytes32",
          "name": "nullifierHash",
          "type": "bytes32"
        }
      ],
      "name": "WithdrawEvent",
      "type": "event"
    },
    {
      "inputs": [],
      "name": "Denomination",
      "outputs": [
        {
          "internalType": "uint256",
          "name": "",
          "type": "uint256"
        }
      ],
      "stateMutability": "view",
      "type": "function"
    },
    {
      "inputs": [],
      "name": "FIELD_SIZE",
      "outputs": [
        {
          "internalType": "uint256",
          "name": "",
          "type": "uint256"
        }
      ],
      "stateMutability": "view",
      "type": "function"
    },
    {
      "inputs": [],
      "name": "Oracle",
      "outputs": [
        {
          "internalType": "address",
          "name": "",
          "type": "address"
        }
      ],
      "stateMutability": "view",
      "type": "function"
    },
    {
      "inputs": [],
      "name": "ROOT_HISTORY_SIZE",
      "outputs": [
        {
          "internalType": "uint32",
          "name": "",
          "type": "uint32"
        }
      ],
      "stateMutability": "view",
      "type": "function"
    },
    {
      "inputs": [
        {
          "internalType": "bytes",
          "name": "Proof",
          "type": "bytes"
        },
        {
          "internalType": "address",
          "name": "Destination",
          "type": "address"
        }
      ],
      "name": "RelayerWithdrawal",
      "outputs": [],
      "stateMutability": "nonpayable",
      "type": "function"
    },
    {
      "inputs": [
        {
          "internalType": "bytes32",
          "name": "Commitment",
          "type": "bytes32"
        }
      ],
      "name": "USERDeposit",
      "outputs": [],
      "stateMutability": "payable",
      "type": "function"
    },
    {
      "inputs": [
        {
          "internalType": "bytes",
          "name": "Proof",
          "type": "bytes"
        }
      ],
      "name": "USERWithdrawal",
      "outputs": [],
      "stateMutability": "nonpayable",
      "type": "function"
    },
    {
      "inputs": [
        {
          "internalType": "string",
          "name": "Variable",
          "type": "string"
        }
      ],
      "name": "UpdateData",
      "outputs": [],
      "stateMutability": "nonpayable",
      "type": "function"
    },
    {
      "inputs": [],
      "name": "ZERO_VALUE",
      "outputs": [
        {
          "internalType": "uint256",
          "name": "",
          "type": "uint256"
        }
      ],
      "stateMutability": "view",
      "type": "function"
    },
    {
      "inputs": [],
      "name": "currentRootIndex",
      "outputs": [
        {
          "internalType": "uint32",
          "name": "",
          "type": "uint32"
        }
      ],
      "stateMutability": "view",
      "type": "function"
    },
    {
      "inputs": [
        {
          "internalType": "uint256",
          "name": "",
          "type": "uint256"
        }
      ],
      "name": "filledSubtrees",
      "outputs": [
        {
          "internalType": "bytes32",
          "name": "",
          "type": "bytes32"
        }
      ],
      "stateMutability": "view",
      "type": "function"
    },
    {
      "inputs": [],
      "name": "getLastRoot",
      "outputs": [
        {
          "internalType": "bytes32",
          "name": "",
          "type": "bytes32"
        }
      ],
      "stateMutability": "view",
      "type": "function"
    },
    {
      "inputs": [
        {
          "internalType": "contract IHasher",
          "name": "_hasher",
          "type": "address"
        },
        {
          "internalType": "bytes32",
          "name": "_left",
          "type": "bytes32"
        },
        {
          "internalType": "bytes32",
          "name": "_right",
          "type": "bytes32"
        }
      ],
      "name": "hashLeftRight",
      "outputs": [
        {
          "internalType": "bytes32",
          "name": "",
          "type": "bytes32"
        }
      ],
      "stateMutability": "pure",
      "type": "function"
    },
    {
      "inputs": [],
      "name": "hasher",
      "outputs": [
        {
          "internalType": "contract IHasher",
          "name": "",
          "type": "address"
        }
      ],
      "stateMutability": "view",
      "type": "function"
    },
    {
      "inputs": [
        {
          "internalType": "bytes32",
          "name": "_root",
          "type": "bytes32"
        }
      ],
      "name": "isKnownRoot",
      "outputs": [
        {
          "internalType": "bool",
          "name": "",
          "type": "bool"
        }
      ],
      "stateMutability": "view",
      "type": "function"
    },
    {
      "inputs": [],
      "name": "levels",
      "outputs": [
        {
          "internalType": "uint32",
          "name": "",
          "type": "uint32"
        }
      ],
      "stateMutability": "view",
      "type": "function"
    },
    {
      "inputs": [],
      "name": "merkle",
      "outputs": [
        {
          "internalType": "bytes32",
          "name": "",
          "type": "bytes32"
        }
      ],
      "stateMutability": "view",
      "type": "function"
    },
    {
      "inputs": [],
      "name": "nextIndex",
      "outputs": [
        {
          "internalType": "uint32",
          "name": "",
          "type": "uint32"
        }
      ],
      "stateMutability": "view",
      "type": "function"
    },
    {
      "inputs": [
        {
          "internalType": "uint256",
          "name": "",
          "type": "uint256"
        }
      ],
      "name": "roots",
      "outputs": [
        {
          "internalType": "bytes32",
          "name": "",
          "type": "bytes32"
        }
      ],
      "stateMutability": "view",
      "type": "function"
    },
    {
      "inputs": [],
      "name": "verifier",
      "outputs": [
        {
          "internalType": "contract IVerifier",
          "name": "",
          "type": "address"
        }
      ],
      "stateMutability": "view",
      "type": "function"
    },
    {
      "inputs": [
        {
          "internalType": "uint256",
          "name": "i",
          "type": "uint256"
        }
      ],
      "name": "zeros",
      "outputs": [
        {
          "internalType": "bytes32",
          "name": "",
          "type": "bytes32"
        }
      ],
      "stateMutability": "pure",
      "type": "function"
    }
  ],
  "bytecode": "0x60c06040526000600360006101000a81548163ffffffff021916908363ffffffff1602179055506000600360046101000a81548163ffffffff021916908363ffffffff16021790555034801561005457600080fd5b5060405161408538038061408583398181016040528101906100769190610a4a565b83838383808360008263ffffffff16116100c5576040517f08c379a00000000000000000000000000000000000000000000000000000000081526004016100bc90610b34565b60405180910390fd5b60208263ffffffff161061010e576040517f08c379a000000000000000000000000000000000000000000000000000000000815260040161010590610ba0565b60405180910390fd5b816000806101000a81548163ffffffff021916908363ffffffff1602179055508073ffffffffffffffffffffffffffffffffffffffff1660808173ffffffffffffffffffffffffffffffffffffffff168152505060005b8263ffffffff168163ffffffff1610156101b85761018e8163ffffffff1661028660201b60201c565b600160008363ffffffff168152602001908152602001600020819055508080600101915050610165565b506101da6001836101c99190610bef565b63ffffffff1661028660201b60201c565b6002600080815260200190815260200160002081905550505060016004819055506000821161023e576040517f08c379a000000000000000000000000000000000000000000000000000000000815260040161023590610c99565b60405180910390fd5b8373ffffffffffffffffffffffffffffffffffffffff1660a08173ffffffffffffffffffffffffffffffffffffffff1681525050816006819055505050505050505050610d25565b60008082036102ba577f2fe54c60d3acabf3343a35b6eba15db4821b340f76e741e2249685ed4899af6c60001b9050610920565b600182036102ed577f256a6135777eee2fd26f54b8b7037a25439d5235caee224154186d2b8a52e31d60001b9050610920565b60028203610320577f1151949895e82ab19924de92c40a3d6f7bcb60d92b00504b8199613683f0c20060001b9050610920565b60038203610353577f20121ee811489ff8d61f09fb89e313f14959a0f28bb428a20dba6b0b068b3bdb60001b9050610920565b60048203610386577f0a89ca6ffa14cc462cfedb842c30ed221a50a3d6bf022a6a57dc82ab24c157c960001b9050610920565b600582036103b9577f24ca05c2b5cd42e890d6be94c68d0689f4f21c9cec9c0f13fe41d566dfb5495960001b9050610920565b600682036103ec577f1ccb97c932565a92c60156bdba2d08f3bf1377464e025cee765679e604a7315c60001b9050610920565b6007820361041f577f19156fbd7d1a8bf5cba8909367de1b624534ebab4f0f79e003bccdd1b182bdb460001b9050610920565b60088203610452577f261af8c1f0912e465744641409f622d466c3920ac6e5ff37e36604cb11dfff8060001b9050610920565b60098203610484577e58459724ff6ca5a1652fcbc3e82b93895cf08e975b19beab3f54c217d1c00760001b9050610920565b600a82036104b7577f1f04ef20dee48d39984d8eabe768a70eafa6310ad20849d4573c3c40c2ad1e3060001b9050610920565b600b82036104ea577f1bea3dec5dab51567ce7e200a30f7ba6d4276aeaa53e2686f962a46c66d511e560001b9050610920565b600c820361051d577f0ee0f941e2da4b9e31c3ca97a40d8fa9ce68d97c084177071b3cb46cd3372f0f60001b9050610920565b600d8203610550577f1ca9503e8935884501bbaf20be14eb4c46b89772c97b96e3b2ebf3a36a948bbd60001b9050610920565b600e8203610583577f133a80e30697cd55d8f7d4b0965b7be24057ba5dc3da898ee2187232446cb10860001b9050610920565b600f82036105b6577f13e6d8fc88839ed76e182c2a779af5b2c0da9dd18c90427a644f7e148a6253b660001b9050610920565b601082036105e9577f1eb16b057a477f4bc8f572ea6bee39561098f78f15bfb3699dcbb7bd8db6185460001b9050610920565b6011820361061c577f0da2cb16a1ceaabf1c16b838f7a9e3f2a3a3088d9e0a6debaa748114620696ea60001b9050610920565b6012820361064f577f24a3b3d822420b14b5d8cb6c28a574f01e98ea9e940551d2ebd75cee12649f9d60001b9050610920565b60138203610682577f198622acbd783d1b0d9064105b1fc8e4d8889de95c4c519b3f635809fe6afc0560001b9050610920565b601482036106b5577f29d7ed391256ccc3ea596c86e933b89ff339d25ea8ddced975ae2fe30b5296d460001b9050610920565b601582036106e8577f19be59f2f0413ce78c0c3703a3a5451b1d7f39629fa33abd11548a76065b296760001b9050610920565b6016820361071b577f1ff3f61797e538b70e619310d33f2a063e7eb59104e112e95738da1254dc345360001b9050610920565b6017820361074e577f10c16ae9959cf8358980d9dd9616e48228737310a10e2b6b731c1a548f036c4860001b9050610920565b60188203610781577f0ba433a63174a90ac20992e75e3095496812b652685b5e1a2eae0b1bf4e8fcd160001b9050610920565b601982036107b4577f019ddb9df2bc98d987d0dfeca9d2b643deafab8f7036562e627c3667266a044c60001b9050610920565b601a82036107e7577f2d3c88b23175c5a5565db928414c66d1912b11acf974b2e644caaac04739ce9960001b9050610920565b601b820361081a577f2eab55f6ae4e66e32c5189eed5c470840863445760f5ed7e7b69b2a62600f35460001b9050610920565b601c820361084c577e2df37a2642621802383cf952bf4dd1f32e05433beeb1fd41031fb7eace979d60001b9050610920565b601d820361087f577f104aeb41435db66c3e62feccc1d6f5d98d0a0ed75d1374db457cf462e3a1f42760001b9050610920565b601e82036108b2577f1f3c6fd858e9a7d4b0d1f38e256a09d81d5a5e3c963987e2d4b814cfab7c6ebb60001b9050610920565b601f82036108e5577f2c7a07d20dff79d01fecedc1134284a8d08436606c93693b67e333f671bf69cc60001b9050610920565b6040517f08c379a000000000000000000000000000000000000000000000000000000000815260040161091790610d05565b60405180910390fd5b919050565b600080fd5b600073ffffffffffffffffffffffffffffffffffffffff82169050919050565b60006109558261092a565b9050919050565b60006109678261094a565b9050919050565b6109778161095c565b811461098257600080fd5b50565b6000815190506109948161096e565b92915050565b60006109a58261094a565b9050919050565b6109b58161099a565b81146109c057600080fd5b50565b6000815190506109d2816109ac565b92915050565b6000819050919050565b6109eb816109d8565b81146109f657600080fd5b50565b600081519050610a08816109e2565b92915050565b600063ffffffff82169050919050565b610a2781610a0e565b8114610a3257600080fd5b50565b600081519050610a4481610a1e565b92915050565b60008060008060808587031215610a6457610a63610925565b5b6000610a7287828801610985565b9450506020610a83878288016109c3565b9350506040610a94878288016109f9565b9250506060610aa587828801610a35565b91505092959194509250565b600082825260208201905092915050565b7f5f6c6576656c732073686f756c642062652067726561746572207468616e207a60008201527f65726f0000000000000000000000000000000000000000000000000000000000602082015250565b6000610b1e602383610ab1565b9150610b2982610ac2565b604082019050919050565b60006020820190508181036000830152610b4d81610b11565b9050919050565b7f5f6c6576656c732073686f756c64206265206c657373207468616e2033320000600082015250565b6000610b8a601e83610ab1565b9150610b9582610b54565b602082019050919050565b60006020820190508181036000830152610bb981610b7d565b9050919050565b7f4e487b7100000000000000000000000000000000000000000000000000000000600052601160045260246000fd5b6000610bfa82610a0e565b9150610c0583610a0e565b9250828203905063ffffffff811115610c2157610c20610bc0565b5b92915050565b7f64656e6f6d696e6174696f6e2073686f756c642062652067726561746572207460008201527f68616e2030000000000000000000000000000000000000000000000000000000602082015250565b6000610c83602583610ab1565b9150610c8e82610c27565b604082019050919050565b60006020820190508181036000830152610cb281610c76565b9050919050565b7f496e646578206f7574206f6620626f756e647300000000000000000000000000600082015250565b6000610cef601383610ab1565b9150610cfa82610cb9565b602082019050919050565b60006020820190508181036000830152610d1e81610ce2565b9050919050565b60805160a051613326610d5f600039600081816106010152818161079b0152610c2d0152600081816115c80152611b6701526133266000f3fe60806040526004361061012a5760003560e01c8063c584b9b5116100ab578063ec7329591161006f578063ec732959146103e9578063ed33639f14610414578063f178e47c1461043f578063f24a534e1461047c578063f68065a4146104a7578063fc7e9c6f146104d05761012a565b8063c584b9b514610311578063c7fb252f1461033c578063cd87a3b414610365578063e829558814610390578063ea3394d2146103cd5761012a565b8063808fe6a1116100f2578063808fe6a1146102165780638ea3099e1461024157806390eeb02b1461027e578063ba70f757146102a9578063c2b40ae4146102d45761012a565b80630321072e1461012f5780632b7ac3f314610158578063414a37ba146101835780634ecf518b146101ae5780636d9833e3146101d9575b600080fd5b34801561013b57600080fd5b5061015660048036038101906101519190611d14565b6104fb565b005b34801561016457600080fd5b5061016d610799565b60405161017a9190611de0565b60405180910390f35b34801561018f57600080fd5b506101986107bd565b6040516101a59190611e14565b60405180910390f35b3480156101ba57600080fd5b506101c36107e1565b6040516101d09190611e4e565b60405180910390f35b3480156101e557600080fd5b5061020060048036038101906101fb9190611e9f565b6107f5565b60405161020d9190611ee7565b60405180910390f35b34801561022257600080fd5b5061022b610892565b6040516102389190611e14565b60405180910390f35b34801561024d57600080fd5b5061026860048036038101906102639190611f52565b610898565b6040516102759190611fb4565b60405180910390f35b34801561028a57600080fd5b50610293610ac0565b6040516102a09190611e4e565b60405180910390f35b3480156102b557600080fd5b506102be610ad6565b6040516102cb9190611fb4565b60405180910390f35b3480156102e057600080fd5b506102fb60048036038101906102f69190611ffb565b610b09565b6040516103089190611fb4565b60405180910390f35b34801561031d57600080fd5b50610326610b21565b6040516103339190611fb4565b60405180910390f35b34801561034857600080fd5b50610363600480360381019061035e9190612054565b610b27565b005b34801561037157600080fd5b5061037a610dca565b6040516103879190611e4e565b60405180910390f35b34801561039c57600080fd5b506103b760048036038101906103b29190611ffb565b610dcf565b6040516103c49190611fb4565b60405180910390f35b6103e760048036038101906103e29190611e9f565b61146e565b005b3480156103f557600080fd5b506103fe6115a2565b60405161040b9190611e14565b60405180910390f35b34801561042057600080fd5b506104296115c6565b60405161043691906120d5565b60405180910390f35b34801561044b57600080fd5b5061046660048036038101906104619190611ffb565b6115ea565b6040516104739190611fb4565b60405180910390f35b34801561048857600080fd5b50610491611602565b60405161049e91906120ff565b60405180910390f35b3480156104b357600080fd5b506104ce60048036038101906104c9919061225b565b611628565b005b3480156104dc57600080fd5b506104e56116bb565b6040516104f29190611e4e565b60405180910390f35b6105036116d1565b60008060008085858101906105189190612406565b9350935093509350600a6000826001600281106105385761053761246f565b5b602002015160001b815260200190815260200160002060009054906101000a900460ff161561059c576040517f08c379a000000000000000000000000000000000000000000000000000000000815260040161059390612521565b60405180910390fd5b6105c0816000600281106105b3576105b261246f565b5b602002015160001b6107f5565b6105ff576040517f08c379a00000000000000000000000000000000000000000000000000000000081526004016105f69061258d565b60405180910390fd5b7f000000000000000000000000000000000000000000000000000000000000000073ffffffffffffffffffffffffffffffffffffffff1663f5c9d69e858585856040518563ffffffff1660e01b815260040161065e9493929190612756565b602060405180830381865afa15801561067b573d6000803e3d6000fd5b505050506040513d601f19601f8201168201806040525081019061069f91906127c9565b6106de576040517f08c379a00000000000000000000000000000000000000000000000000000000081526004016106d590612842565b60405180910390fd5b6001600a6000836001600281106106f8576106f761246f565b5b602002015160001b815260200190815260200160002060006101000a81548160ff021916908315150217905550600080610733338383611717565b7fa4686f775721f0a967a53c2f4b2c217c2273ae626114079908aaa39e56b062e233846001600281106107695761076861246f565b5b602002015160001b60405161077f929190612862565b60405180910390a1505050505050610795611a31565b5050565b7f000000000000000000000000000000000000000000000000000000000000000081565b7f30644e72e131a029b85045b68181585d2833e84879b9709143e1f593f000000181565b60008054906101000a900463ffffffff1681565b60008060001b820361080a576000905061088d565b6000600360009054906101000a900463ffffffff16905060008190505b600260008263ffffffff1681526020019081526020016000205484036108525760019250505061088d565b60008163ffffffff160361086557601e90505b8080610870906128ba565b9150508163ffffffff168163ffffffff1603610827576000925050505b919050565b60065481565b60007f30644e72e131a029b85045b68181585d2833e84879b9709143e1f593f00000018360001c106108ff576040517f08c379a00000000000000000000000000000000000000000000000000000000081526004016108f69061292f565b60405180910390fd5b7f30644e72e131a029b85045b68181585d2833e84879b9709143e1f593f00000018260001c10610964576040517f08c379a000000000000000000000000000000000000000000000000000000000815260040161095b906129c1565b60405180910390fd5b60008360001c90506000808673ffffffffffffffffffffffffffffffffffffffff16633f1a11878484846040518463ffffffff1660e01b81526004016109ac939291906129e1565b6040805180830381865afa1580156109c8573d6000803e3d6000fd5b505050506040513d601f19601f820116820180604052508101906109ec9190612a2d565b80935081945050507f30644e72e131a029b85045b68181585d2833e84879b9709143e1f593f000000180610a2357610a22612a6d565b5b8560001c840892508673ffffffffffffffffffffffffffffffffffffffff16633f1a11878484846040518463ffffffff1660e01b8152600401610a68939291906129e1565b6040805180830381865afa158015610a84573d6000803e3d6000fd5b505050506040513d601f19601f82011682018060405250810190610aa89190612a2d565b80935081945050508260001b93505050509392505050565b600360009054906101000a900463ffffffff1681565b600060026000600360009054906101000a900463ffffffff1663ffffffff16815260200190815260200160002054905090565b60026020528060005260406000206000915090505481565b60095481565b610b2f6116d1565b6000806000808686810190610b449190612406565b9350935093509350600a600082600160028110610b6457610b6361246f565b5b602002015160001b815260200190815260200160002060009054906101000a900460ff1615610bc8576040517f08c379a0000000000000000000000000000000000000000000000000000000008152600401610bbf90612521565b60405180910390fd5b610bec81600060028110610bdf57610bde61246f565b5b602002015160001b6107f5565b610c2b576040517f08c379a0000000000000000000000000000000000000000000000000000000008152600401610c229061258d565b60405180910390fd5b7f000000000000000000000000000000000000000000000000000000000000000073ffffffffffffffffffffffffffffffffffffffff1663f5c9d69e858585856040518563ffffffff1660e01b8152600401610c8a9493929190612756565b602060405180830381865afa158015610ca7573d6000803e3d6000fd5b505050506040513d601f19601f82011682018060405250810190610ccb91906127c9565b610d0a576040517f08c379a0000000000000000000000000000000000000000000000000000000008152600401610d0190612842565b60405180910390fd5b6001600a600083600160028110610d2457610d2361246f565b5b602002015160001b815260200190815260200160002060006101000a81548160ff02191690831515021790555060008060019050610d63878383611717565b7fa4686f775721f0a967a53c2f4b2c217c2273ae626114079908aaa39e56b062e28784600160028110610d9957610d9861246f565b5b602002015160001b604051610daf929190612862565b60405180910390a1505050505050610dc5611a31565b505050565b601e81565b6000808203610e03577f2fe54c60d3acabf3343a35b6eba15db4821b340f76e741e2249685ed4899af6c60001b9050611469565b60018203610e36577f256a6135777eee2fd26f54b8b7037a25439d5235caee224154186d2b8a52e31d60001b9050611469565b60028203610e69577f1151949895e82ab19924de92c40a3d6f7bcb60d92b00504b8199613683f0c20060001b9050611469565b60038203610e9c577f20121ee811489ff8d61f09fb89e313f14959a0f28bb428a20dba6b0b068b3bdb60001b9050611469565b60048203610ecf577f0a89ca6ffa14cc462cfedb842c30ed221a50a3d6bf022a6a57dc82ab24c157c960001b9050611469565b60058203610f02577f24ca05c2b5cd42e890d6be94c68d0689f4f21c9cec9c0f13fe41d566dfb5495960001b9050611469565b60068203610f35577f1ccb97c932565a92c60156bdba2d08f3bf1377464e025cee765679e604a7315c60001b9050611469565b60078203610f68577f19156fbd7d1a8bf5cba8909367de1b624534ebab4f0f79e003bccdd1b182bdb460001b9050611469565b60088203610f9b577f261af8c1f0912e465744641409f622d466c3920ac6e5ff37e36604cb11dfff8060001b9050611469565b60098203610fcd577e58459724ff6ca5a1652fcbc3e82b93895cf08e975b19beab3f54c217d1c00760001b9050611469565b600a8203611000577f1f04ef20dee48d39984d8eabe768a70eafa6310ad20849d4573c3c40c2ad1e3060001b9050611469565b600b8203611033577f1bea3dec5dab51567ce7e200a30f7ba6d4276aeaa53e2686f962a46c66d511e560001b9050611469565b600c8203611066577f0ee0f941e2da4b9e31c3ca97a40d8fa9ce68d97c084177071b3cb46cd3372f0f60001b9050611469565b600d8203611099577f1ca9503e8935884501bbaf20be14eb4c46b89772c97b96e3b2ebf3a36a948bbd60001b9050611469565b600e82036110cc577f133a80e30697cd55d8f7d4b0965b7be24057ba5dc3da898ee2187232446cb10860001b9050611469565b600f82036110ff577f13e6d8fc88839ed76e182c2a779af5b2c0da9dd18c90427a644f7e148a6253b660001b9050611469565b60108203611132577f1eb16b057a477f4bc8f572ea6bee39561098f78f15bfb3699dcbb7bd8db6185460001b9050611469565b60118203611165577f0da2cb16a1ceaabf1c16b838f7a9e3f2a3a3088d9e0a6debaa748114620696ea60001b9050611469565b60128203611198577f24a3b3d822420b14b5d8cb6c28a574f01e98ea9e940551d2ebd75cee12649f9d60001b9050611469565b601382036111cb577f198622acbd783d1b0d9064105b1fc8e4d8889de95c4c519b3f635809fe6afc0560001b9050611469565b601482036111fe577f29d7ed391256ccc3ea596c86e933b89ff339d25ea8ddced975ae2fe30b5296d460001b9050611469565b60158203611231577f19be59f2f0413ce78c0c3703a3a5451b1d7f39629fa33abd11548a76065b296760001b9050611469565b60168203611264577f1ff3f61797e538b70e619310d33f2a063e7eb59104e112e95738da1254dc345360001b9050611469565b60178203611297577f10c16ae9959cf8358980d9dd9616e48228737310a10e2b6b731c1a548f036c4860001b9050611469565b601882036112ca577f0ba433a63174a90ac20992e75e3095496812b652685b5e1a2eae0b1bf4e8fcd160001b9050611469565b601982036112fd577f019ddb9df2bc98d987d0dfeca9d2b643deafab8f7036562e627c3667266a044c60001b9050611469565b601a8203611330577f2d3c88b23175c5a5565db928414c66d1912b11acf974b2e644caaac04739ce9960001b9050611469565b601b8203611363577f2eab55f6ae4e66e32c5189eed5c470840863445760f5ed7e7b69b2a62600f35460001b9050611469565b601c8203611395577e2df37a2642621802383cf952bf4dd1f32e05433beeb1fd41031fb7eace979d60001b9050611469565b601d82036113c8577f104aeb41435db66c3e62feccc1d6f5d98d0a0ed75d1374db457cf462e3a1f42760001b9050611469565b601e82036113fb577f1f3c6fd858e9a7d4b0d1f38e256a09d81d5a5e3c963987e2d4b814cfab7c6ebb60001b9050611469565b601f820361142e577f2c7a07d20dff79d01fecedc1134284a8d08436606c93693b67e333f671bf69cc60001b9050611469565b6040517f08c379a000000000000000000000000000000000000000000000000000000000815260040161146090612ae8565b60405180910390fd5b919050565b6114766116d1565b60065434146114ba576040517f08c379a00000000000000000000000000000000000000000000000000000000081526004016114b190612b7a565b60405180910390fd5b600b600082815260200190815260200160002060009054906101000a900460ff161561151b576040517f08c379a000000000000000000000000000000000000000000000000000000000815260040161151290612c0c565b60405180910390fd5b600061152682611a3b565b90506001600b600084815260200190815260200160002060006101000a81548160ff02191690831515021790555061155c611c55565b817f1a16ad198d1b9dab85897102e5032021a5f59b1ebdaf7c92538ab1c88a69ea12824260405161158e929190612c2c565b60405180910390a25061159f611a31565b50565b7f2fe54c60d3acabf3343a35b6eba15db4821b340f76e741e2249685ed4899af6c81565b7f000000000000000000000000000000000000000000000000000000000000000081565b60016020528060005260406000206000915090505481565b600560009054906101000a900473ffffffffffffffffffffffffffffffffffffffff1681565b600560009054906101000a900473ffffffffffffffffffffffffffffffffffffffff1673ffffffffffffffffffffffffffffffffffffffff163373ffffffffffffffffffffffffffffffffffffffff16146116b8576040517f08c379a00000000000000000000000000000000000000000000000000000000081526004016116af90612ca1565b60405180910390fd5b50565b600360049054906101000a900463ffffffff1681565b60026004540361170d576040517f3ee5aeb500000000000000000000000000000000000000000000000000000000815260040160405180910390fd5b6002600481905550565b6000341461175a576040517f08c379a000000000000000000000000000000000000000000000000000000000815260040161175190612d33565b60405180910390fd5b80156118ed5760006103e860065460026117749190612d53565b61177e9190612d95565b905060008373ffffffffffffffffffffffffffffffffffffffff16826006546117a79190612dc6565b6040516117b390612e2b565b60006040518083038185875af1925050503d80600081146117f0576040519150601f19603f3d011682016040523d82523d6000602084013e6117f5565b606091505b5050905080611839576040517f08c379a000000000000000000000000000000000000000000000000000000000815260040161183090612eb2565b60405180910390fd5b60008473ffffffffffffffffffffffffffffffffffffffff168360405161185f90612e2b565b60006040518083038185875af1925050503d806000811461189c576040519150601f19603f3d011682016040523d82523d6000602084013e6118a1565b606091505b50509050806118e5576040517f08c379a00000000000000000000000000000000000000000000000000000000081526004016118dc90612eb2565b60405180910390fd5b505050611a2c565b600073ffffffffffffffffffffffffffffffffffffffff168273ffffffffffffffffffffffffffffffffffffffff160361195c576040517f08c379a000000000000000000000000000000000000000000000000000000000815260040161195390612f1e565b60405180910390fd5b60006103e860065461196e9190612d95565b905060008473ffffffffffffffffffffffffffffffffffffffff16826006546119979190612dc6565b6040516119a390612e2b565b60006040518083038185875af1925050503d80600081146119e0576040519150601f19603f3d011682016040523d82523d6000602084013e6119e5565b606091505b5050905080611a29576040517f08c379a0000000000000000000000000000000000000000000000000000000008152600401611a2090612fb0565b60405180910390fd5b50505b505050565b6001600481905550565b600080600360049054906101000a900463ffffffff16905060008054906101000a900463ffffffff166002611a709190613103565b63ffffffff168163ffffffff1603611abd576040517f08c379a0000000000000000000000000000000000000000000000000000000008152600401611ab4906131a4565b60405180910390fd5b6000819050600084905060008060005b60008054906101000a900463ffffffff1663ffffffff168163ffffffff161015611bab576000600286611b0091906131c4565b63ffffffff1603611b4257839250611b1d8163ffffffff16610dcf565b915083600160008363ffffffff16815260200190815260200160002081905550611b62565b600160008263ffffffff1681526020019081526020016000205492508391505b611b8d7f00000000000000000000000000000000000000000000000000000000000000008484610898565b9350600285611b9c91906131f5565b94508080600101915050611acd565b506000601e6001600360009054906101000a900463ffffffff16611bcf9190613226565b611bd991906131c4565b905080600360006101000a81548163ffffffff021916908363ffffffff16021790555083600260008363ffffffff16815260200190815260200160002081905550600186611c279190613226565b600360046101000a81548163ffffffff021916908363ffffffff160217905550859650505050505050919050565b6006543414611c99576040517f08c379a0000000000000000000000000000000000000000000000000000000008152600401611c90906132d0565b60405180910390fd5b565b6000604051905090565b600080fd5b600080fd5b600080fd5b600080fd5b600080fd5b60008083601f840112611cd457611cd3611caf565b5b8235905067ffffffffffffffff811115611cf157611cf0611cb4565b5b602083019150836001820283011115611d0d57611d0c611cb9565b5b9250929050565b60008060208385031215611d2b57611d2a611ca5565b5b600083013567ffffffffffffffff811115611d4957611d48611caa565b5b611d5585828601611cbe565b92509250509250929050565b600073ffffffffffffffffffffffffffffffffffffffff82169050919050565b6000819050919050565b6000611da6611da1611d9c84611d61565b611d81565b611d61565b9050919050565b6000611db882611d8b565b9050919050565b6000611dca82611dad565b9050919050565b611dda81611dbf565b82525050565b6000602082019050611df56000830184611dd1565b92915050565b6000819050919050565b611e0e81611dfb565b82525050565b6000602082019050611e296000830184611e05565b92915050565b600063ffffffff82169050919050565b611e4881611e2f565b82525050565b6000602082019050611e636000830184611e3f565b92915050565b6000819050919050565b611e7c81611e69565b8114611e8757600080fd5b50565b600081359050611e9981611e73565b92915050565b600060208284031215611eb557611eb4611ca5565b5b6000611ec384828501611e8a565b91505092915050565b60008115159050919050565b611ee181611ecc565b82525050565b6000602082019050611efc6000830184611ed8565b92915050565b6000611f0d82611d61565b9050919050565b6000611f1f82611f02565b9050919050565b611f2f81611f14565b8114611f3a57600080fd5b50565b600081359050611f4c81611f26565b92915050565b600080600060608486031215611f6b57611f6a611ca5565b5b6000611f7986828701611f3d565b9350506020611f8a86828701611e8a565b9250506040611f9b86828701611e8a565b9150509250925092565b611fae81611e69565b82525050565b6000602082019050611fc96000830184611fa5565b92915050565b611fd881611dfb565b8114611fe357600080fd5b50565b600081359050611ff581611fcf565b92915050565b60006020828403121561201157612010611ca5565b5b600061201f84828501611fe6565b91505092915050565b61203181611f02565b811461203c57600080fd5b50565b60008135905061204e81612028565b92915050565b60008060006040848603121561206d5761206c611ca5565b5b600084013567ffffffffffffffff81111561208b5761208a611caa565b5b61209786828701611cbe565b935093505060206120aa8682870161203f565b9150509250925092565b60006120bf82611dad565b9050919050565b6120cf816120b4565b82525050565b60006020820190506120ea60008301846120c6565b92915050565b6120f981611f02565b82525050565b600060208201905061211460008301846120f0565b92915050565b600080fd5b6000601f19601f8301169050919050565b7f4e487b7100000000000000000000000000000000000000000000000000000000600052604160045260246000fd5b6121688261211f565b810181811067ffffffffffffffff8211171561218757612186612130565b5b80604052505050565b600061219a611c9b565b90506121a6828261215f565b919050565b600067ffffffffffffffff8211156121c6576121c5612130565b5b6121cf8261211f565b9050602081019050919050565b82818337600083830152505050565b60006121fe6121f9846121ab565b612190565b90508281526020810184848401111561221a5761221961211a565b5b6122258482856121dc565b509392505050565b600082601f83011261224257612241611caf565b5b81356122528482602086016121eb565b91505092915050565b60006020828403121561227157612270611ca5565b5b600082013567ffffffffffffffff81111561228f5761228e611caa565b5b61229b8482850161222d565b91505092915050565b600067ffffffffffffffff8211156122bf576122be612130565b5b602082029050919050565b60006122dd6122d8846122a4565b612190565b905080602084028301858111156122f7576122f6611cb9565b5b835b81811015612320578061230c8882611fe6565b8452602084019350506020810190506122f9565b5050509392505050565b600082601f83011261233f5761233e611caf565b5b600261234c8482856122ca565b91505092915050565b600067ffffffffffffffff8211156123705761236f612130565b5b602082029050919050565b600061238e61238984612355565b612190565b905080604084028301858111156123a8576123a7611cb9565b5b835b818110156123d157806123bd888261232a565b8452602084019350506040810190506123aa565b5050509392505050565b600082601f8301126123f0576123ef611caf565b5b60026123fd84828561237b565b91505092915050565b600080600080610140858703121561242157612420611ca5565b5b600061242f8782880161232a565b9450506040612440878288016123db565b93505060c06124518782880161232a565b9250506101006124638782880161232a565b91505092959194509250565b7f4e487b7100000000000000000000000000000000000000000000000000000000600052603260045260246000fd5b600082825260208201905092915050565b7f54686973206465706f7369742068617320616c7265616479206265656e20737060008201527f656e740000000000000000000000000000000000000000000000000000000000602082015250565b600061250b60238361249e565b9150612516826124af565b604082019050919050565b6000602082019050818103600083015261253a816124fe565b9050919050565b7f43616e6e6f742066696e6420796f7572206d65726b6c6520726f6f7400000000600082015250565b6000612577601c8361249e565b915061258282612541565b602082019050919050565b600060208201905081810360008301526125a68161256a565b9050919050565b600060029050919050565b600081905092915050565b6000819050919050565b6125d681611dfb565b82525050565b60006125e883836125cd565b60208301905092915050565b6000602082019050919050565b61260a816125ad565b61261481846125b8565b925061261f826125c3565b8060005b8381101561265057815161263787826125dc565b9650612642836125f4565b925050600181019050612623565b505050505050565b600060029050919050565b600081905092915050565b6000819050919050565b600081905092915050565b61268c816125ad565b6126968184612678565b92506126a1826125c3565b8060005b838110156126d25781516126b987826125dc565b96506126c4836125f4565b9250506001810190506126a5565b505050505050565b60006126e68383612683565b60408301905092915050565b6000602082019050919050565b61270881612658565b6127128184612663565b925061271d8261266e565b8060005b8381101561274e57815161273587826126da565b9650612740836126f2565b925050600181019050612721565b505050505050565b60006101408201905061276c6000830187612601565b61277960408301866126ff565b61278660c0830185612601565b612794610100830184612601565b95945050505050565b6127a681611ecc565b81146127b157600080fd5b50565b6000815190506127c38161279d565b92915050565b6000602082840312156127df576127de611ca5565b5b60006127ed848285016127b4565b91505092915050565b7f496e76616c69642077697468647261772070726f6f6600000000000000000000600082015250565b600061282c60168361249e565b9150612837826127f6565b602082019050919050565b6000602082019050818103600083015261285b8161281f565b9050919050565b600060408201905061287760008301856120f0565b6128846020830184611fa5565b9392505050565b7f4e487b7100000000000000000000000000000000000000000000000000000000600052601160045260246000fd5b60006128c582611e2f565b9150600082036128d8576128d761288b565b5b600182039050919050565b7f5f6c6566742073686f756c6420626520696e7369646520746865206669656c64600082015250565b600061291960208361249e565b9150612924826128e3565b602082019050919050565b600060208201905081810360008301526129488161290c565b9050919050565b7f5f72696768742073686f756c6420626520696e7369646520746865206669656c60008201527f6400000000000000000000000000000000000000000000000000000000000000602082015250565b60006129ab60218361249e565b91506129b68261294f565b604082019050919050565b600060208201905081810360008301526129da8161299e565b9050919050565b60006060820190506129f66000830186611e05565b612a036020830185611e05565b612a106040830184611e05565b949350505050565b600081519050612a2781611fcf565b92915050565b60008060408385031215612a4457612a43611ca5565b5b6000612a5285828601612a18565b9250506020612a6385828601612a18565b9150509250929050565b7f4e487b7100000000000000000000000000000000000000000000000000000000600052601260045260246000fd5b7f496e646578206f7574206f6620626f756e647300000000000000000000000000600082015250565b6000612ad260138361249e565b9150612add82612a9c565b602082019050919050565b60006020820190508181036000830152612b0181612ac5565b9050919050565b7f4465706f7369742056616c756520666f72207468697320636f6e74726163742060008201527f6d757374206d6174636820302e303120457468657265756d0000000000000000602082015250565b6000612b6460388361249e565b9150612b6f82612b08565b604082019050919050565b60006020820190508181036000830152612b9381612b57565b9050919050565b7f5468697320636f6d6d69746d656e742068617320616c7265616479206265656e60008201527f206d616465000000000000000000000000000000000000000000000000000000602082015250565b6000612bf660258361249e565b9150612c0182612b9a565b604082019050919050565b60006020820190508181036000830152612c2581612be9565b9050919050565b6000604082019050612c416000830185611e3f565b612c4e6020830184611e05565b9392505050565b7f4163636573732064656e69656400000000000000000000000000000000000000600082015250565b6000612c8b600d8361249e565b9150612c9682612c55565b602082019050919050565b60006020820190508181036000830152612cba81612c7e565b9050919050565b7f4d6573736167652076616c756520697320737570706f73656420746f2062652060008201527f7a65726f20666f722045544820696e7374616e63650000000000000000000000602082015250565b6000612d1d60358361249e565b9150612d2882612cc1565b604082019050919050565b60006020820190508181036000830152612d4c81612d10565b9050919050565b6000612d5e82611dfb565b9150612d6983611dfb565b9250828202612d7781611dfb565b91508282048414831517612d8e57612d8d61288b565b5b5092915050565b6000612da082611dfb565b9150612dab83611dfb565b925082612dbb57612dba612a6d565b5b828204905092915050565b6000612dd182611dfb565b9150612ddc83611dfb565b9250828203905081811115612df457612df361288b565b5b92915050565b600081905092915050565b50565b6000612e15600083612dfa565b9150612e2082612e05565b600082019050919050565b6000612e3682612e08565b9150819050919050565b7f7061796d656e7420746f205f72656c6179657220646964206e6f7420676f207460008201527f6872750000000000000000000000000000000000000000000000000000000000602082015250565b6000612e9c60238361249e565b9150612ea782612e40565b604082019050919050565b60006020820190508181036000830152612ecb81612e8f565b9050919050565b7f696e76616c69642072656c617965722061646472657373000000000000000000600082015250565b6000612f0860178361249e565b9150612f1382612ed2565b602082019050919050565b60006020820190508181036000830152612f3781612efb565b9050919050565b7f7061796d656e7420746f205f726563697069656e7420646964206e6f7420676f60008201527f2074687275000000000000000000000000000000000000000000000000000000602082015250565b6000612f9a60258361249e565b9150612fa582612f3e565b604082019050919050565b60006020820190508181036000830152612fc981612f8d565b9050919050565b60008160011c9050919050565b6000808291508390505b6001851115613027578086048111156130035761300261288b565b5b60018516156130125780820291505b808102905061302085612fd0565b9450612fe7565b94509492505050565b60008261304057600190506130fc565b8161304e57600090506130fc565b8160018114613064576002811461306e5761309d565b60019150506130fc565b60ff8411156130805761307f61288b565b5b8360020a9150848211156130975761309661288b565b5b506130fc565b5060208310610133831016604e8410600b84101617156130d25782820a9050838111156130cd576130cc61288b565b5b6130fc565b6130df8484846001612fdd565b925090508184048111156130f6576130f561288b565b5b81810290505b9392505050565b600061310e82611e2f565b915061311983611e2f565b925061312a63ffffffff8484613030565b905092915050565b7f4d65726b6c6520747265652069732066756c6c2e204e6f206d6f7265206c656160008201527f7665732063616e20626520616464656400000000000000000000000000000000602082015250565b600061318e60308361249e565b915061319982613132565b604082019050919050565b600060208201905081810360008301526131bd81613181565b9050919050565b60006131cf82611e2f565b91506131da83611e2f565b9250826131ea576131e9612a6d565b5b828206905092915050565b600061320082611e2f565b915061320b83611e2f565b92508261321b5761321a612a6d565b5b828204905092915050565b600061323182611e2f565b915061323c83611e2f565b9250828201905063ffffffff8111156132585761325761288b565b5b92915050565b7f506c656173652073656e6420606d697844656e6f6d696e6174696f6e6020455460008201527f4820616c6f6e672077697468207472616e73616374696f6e0000000000000000602082015250565b60006132ba60388361249e565b91506132c58261325e565b604082019050919050565b600060208201905081810360008301526132e9816132ad565b905091905056fea264697066735822122096aa38c713be3c3e31b08d865fd3c647cb06a0eb41f4490c95595791b90d167964736f6c634300081b0033",
  "linkReferences": {},
  "deployedLinkReferences": {}
}