{
  "_format": "hh-sol-artifact-1",
  "contractName": "ETH_XMR",
  "sourceName": "contracts/Master.sol",
  "abi": [
    {
      "inputs": [],
      "name": "ReentrancyGuardReentrantCall",
      "type": "error"
    },
    {
      "anonymous": false,
      "inputs": [],
      "name": "SwapFailureConfirmation",
      "type": "event"
    },
    {
      "anonymous": false,
      "inputs": [
        {
          "indexed": false,
          "internalType": "string",
          "name": "TxID",
          "type": "string"
        }
      ],
      "name": "SwapSuccessConfirmation",
      "type": "event"
    },
    {
      "inputs": [],
      "name": "ConfirmSwapFailure",
      "outputs": [],
      "stateMutability": "nonpayable",
      "type": "function"
    },
    {
      "inputs": [
        {
          "internalType": "string",
          "name": "tx_hash",
          "type": "string"
        }
      ],
      "name": "ConfirmSwapSuccess",
      "outputs": [],
      "stateMutability": "nonpayable",
      "type": "function"
    },
    {
      "inputs": [],
      "name": "USERDeposit",
      "outputs": [],
      "stateMutability": "payable",
      "type": "function"
    },
    {
      "inputs": [],
      "name": "USERReclaimDeposit",
      "outputs": [],
      "stateMutability": "nonpayable",
      "type": "function"
    },
    {
      "inputs": [],
      "name": "depositTimestamp",
      "outputs": [
        {
          "internalType": "uint256",
          "name": "",
          "type": "uint256"
        }
      ],
      "stateMutability": "view",
      "type": "function"
    },
    {
      "inputs": [],
      "name": "depositor",
      "outputs": [
        {
          "internalType": "address",
          "name": "",
          "type": "address"
        }
      ],
      "stateMutability": "view",
      "type": "function"
    },
    {
      "inputs": [
        {
          "internalType": "address",
          "name": "_depositor",
          "type": "address"
        },
        {
          "internalType": "string",
          "name": "_moneroAddress",
          "type": "string"
        },
        {
          "internalType": "address",
          "name": "_master",
          "type": "address"
        },
        {
          "internalType": "address",
          "name": "_oracle",
          "type": "address"
        }
      ],
      "name": "initialize",
      "outputs": [],
      "stateMutability": "nonpayable",
      "type": "function"
    },
    {
      "inputs": [],
      "name": "master",
      "outputs": [
        {
          "internalType": "address",
          "name": "",
          "type": "address"
        }
      ],
      "stateMutability": "view",
      "type": "function"
    },
    {
      "inputs": [],
      "name": "moneroAddress",
      "outputs": [
        {
          "internalType": "string",
          "name": "",
          "type": "string"
        }
      ],
      "stateMutability": "view",
      "type": "function"
    },
    {
      "inputs": [],
      "name": "oracle",
      "outputs": [
        {
          "internalType": "address",
          "name": "",
          "type": "address"
        }
      ],
      "stateMutability": "view",
      "type": "function"
    }
  ],
  "bytecode": "0x6080604052348015600f57600080fd5b5060016000819055506116d1806100276000396000f3fe6080604052600436106100915760003560e01c8063b8f88d6411610059578063b8f88d641461014a578063bfd71a1414610173578063c7c4ff461461018a578063ee97f7f3146101b5578063ef56faa0146101e057610091565b806306bff32e146100965780633814895b146100c15780637dc0d1d0146100ea578063a585412314610115578063aa8e250114610140575b600080fd5b3480156100a257600080fd5b506100ab6101f7565b6040516100b89190610bd3565b60405180910390f35b3480156100cd57600080fd5b506100e860048036038101906100e39190610d3e565b610285565b005b3480156100f657600080fd5b506100ff6103af565b60405161010c9190610dc8565b60405180910390f35b34801561012157600080fd5b5061012a6103d5565b6040516101379190610dfc565b60405180910390f35b6101486103db565b005b34801561015657600080fd5b50610171600480360381019061016c9190610e43565b6105a9565b005b34801561017f57600080fd5b506101886106ed565b005b34801561019657600080fd5b5061019f610874565b6040516101ac9190610dc8565b60405180910390f35b3480156101c157600080fd5b506101ca61089a565b6040516101d79190610dc8565b60405180910390f35b3480156101ec57600080fd5b506101f56108c0565b005b6004805461020490610ef5565b80601f016020809104026020016040519081016040528092919081815260200182805461023090610ef5565b801561027d5780601f106102525761010080835404028352916020019161027d565b820191906000526020600020905b81548152906001019060200180831161026057829003601f168201915b505050505081565b600360009054906101000a900473ffffffffffffffffffffffffffffffffffffffff1673ffffffffffffffffffffffffffffffffffffffff163373ffffffffffffffffffffffffffffffffffffffff1614610315576040517f08c379a000000000000000000000000000000000000000000000000000000000815260040161030c90610f72565b60405180910390fd5b61031d610af3565b600660059054906101000a900460ff161561036d576040517f08c379a000000000000000000000000000000000000000000000000000000000815260040161036490610fde565b60405180910390fd5b7f414290ff5dba1f464d6f5a155e0704fa2f325323bde1ba864f4a970feb98bb4c8160405161039c9190610bd3565b60405180910390a16103ac610b39565b50565b600360009054906101000a900473ffffffffffffffffffffffffffffffffffffffff1681565b60055481565b600160009054906101000a900473ffffffffffffffffffffffffffffffffffffffff1673ffffffffffffffffffffffffffffffffffffffff163373ffffffffffffffffffffffffffffffffffffffff161461046b576040517f08c379a00000000000000000000000000000000000000000000000000000000081526004016104629061104a565b60405180910390fd5b610473610af3565b600660019054906101000a900460ff16156104c3576040517f08c379a00000000000000000000000000000000000000000000000000000000081526004016104ba90611102565b60405180910390fd5b66038d7ea4c6800034101561050d576040517f08c379a000000000000000000000000000000000000000000000000000000000815260040161050490611194565b60405180910390fd5b600260009054906101000a900473ffffffffffffffffffffffffffffffffffffffff1673ffffffffffffffffffffffffffffffffffffffff16630f4273cb303460046040518463ffffffff1660e01b815260040161056d9392919061124d565b600060405180830381600087803b15801561058757600080fd5b505af115801561059b573d6000803e3d6000fd5b505050506105a7610b39565b565b600660009054906101000a900460ff16156105f9576040517f08c379a00000000000000000000000000000000000000000000000000000000081526004016105f0906112d7565b60405180910390fd5b6001600660006101000a81548160ff02191690831515021790555083600160006101000a81548173ffffffffffffffffffffffffffffffffffffffff021916908373ffffffffffffffffffffffffffffffffffffffff1602179055508260049081610664919061148e565b5081600260006101000a81548173ffffffffffffffffffffffffffffffffffffffff021916908373ffffffffffffffffffffffffffffffffffffffff16021790555080600360006101000a81548173ffffffffffffffffffffffffffffffffffffffff021916908373ffffffffffffffffffffffffffffffffffffffff16021790555050505050565b600360009054906101000a900473ffffffffffffffffffffffffffffffffffffffff1673ffffffffffffffffffffffffffffffffffffffff163373ffffffffffffffffffffffffffffffffffffffff161461077d576040517f08c379a000000000000000000000000000000000000000000000000000000000815260040161077490610f72565b60405180910390fd5b610785610af3565b600660059054906101000a900460ff16156107d5576040517f08c379a00000000000000000000000000000000000000000000000000000000081526004016107cc90610fde565b60405180910390fd5b7fd83c33436f5e4559a651af3ad4b0ce1a34a251c8aecaa4ca1f94eb3b07c00ac060405160405180910390a1600160009054906101000a900473ffffffffffffffffffffffffffffffffffffffff1673ffffffffffffffffffffffffffffffffffffffff166108fc479081150290604051600060405180830381858888f19350505050158015610869573d6000803e3d6000fd5b50610872610b39565b565b600160009054906101000a900473ffffffffffffffffffffffffffffffffffffffff1681565b600260009054906101000a900473ffffffffffffffffffffffffffffffffffffffff1681565b600160009054906101000a900473ffffffffffffffffffffffffffffffffffffffff1673ffffffffffffffffffffffffffffffffffffffff163373ffffffffffffffffffffffffffffffffffffffff1614610950576040517f08c379a00000000000000000000000000000000000000000000000000000000081526004016109479061104a565b60405180910390fd5b610958610af3565b600660059054906101000a900460ff16156109a8576040517f08c379a000000000000000000000000000000000000000000000000000000000815260040161099f90610fde565b60405180910390fd5b600660049054906101000a900460ff16156109f8576040517f08c379a00000000000000000000000000000000000000000000000000000000081526004016109ef906115ac565b60405180910390fd5b610e10600554610a0891906115fb565b421015610a4a576040517f08c379a0000000000000000000000000000000000000000000000000000000008152600401610a419061167b565b60405180910390fd5b6001600660046101000a81548160ff021916908315150217905550600160009054906101000a900473ffffffffffffffffffffffffffffffffffffffff1673ffffffffffffffffffffffffffffffffffffffff166108fc479081150290604051600060405180830381858888f19350505050158015610acd573d6000803e3d6000fd5b506001600660056101000a81548160ff021916908315150217905550610af1610b39565b565b600260005403610b2f576040517f3ee5aeb500000000000000000000000000000000000000000000000000000000815260040160405180910390fd5b6002600081905550565b6001600081905550565b600081519050919050565b600082825260208201905092915050565b60005b83811015610b7d578082015181840152602081019050610b62565b60008484015250505050565b6000601f19601f8301169050919050565b6000610ba582610b43565b610baf8185610b4e565b9350610bbf818560208601610b5f565b610bc881610b89565b840191505092915050565b60006020820190508181036000830152610bed8184610b9a565b905092915050565b6000604051905090565b600080fd5b600080fd5b600080fd5b600080fd5b7f4e487b7100000000000000000000000000000000000000000000000000000000600052604160045260246000fd5b610c4b82610b89565b810181811067ffffffffffffffff82111715610c6a57610c69610c13565b5b80604052505050565b6000610c7d610bf5565b9050610c898282610c42565b919050565b600067ffffffffffffffff821115610ca957610ca8610c13565b5b610cb282610b89565b9050602081019050919050565b82818337600083830152505050565b6000610ce1610cdc84610c8e565b610c73565b905082815260208101848484011115610cfd57610cfc610c0e565b5b610d08848285610cbf565b509392505050565b600082601f830112610d2557610d24610c09565b5b8135610d35848260208601610cce565b91505092915050565b600060208284031215610d5457610d53610bff565b5b600082013567ffffffffffffffff811115610d7257610d71610c04565b5b610d7e84828501610d10565b91505092915050565b600073ffffffffffffffffffffffffffffffffffffffff82169050919050565b6000610db282610d87565b9050919050565b610dc281610da7565b82525050565b6000602082019050610ddd6000830184610db9565b92915050565b6000819050919050565b610df681610de3565b82525050565b6000602082019050610e116000830184610ded565b92915050565b610e2081610da7565b8114610e2b57600080fd5b50565b600081359050610e3d81610e17565b92915050565b60008060008060808587031215610e5d57610e5c610bff565b5b6000610e6b87828801610e2e565b945050602085013567ffffffffffffffff811115610e8c57610e8b610c04565b5b610e9887828801610d10565b9350506040610ea987828801610e2e565b9250506060610eba87828801610e2e565b91505092959194509250565b7f4e487b7100000000000000000000000000000000000000000000000000000000600052602260045260246000fd5b60006002820490506001821680610f0d57607f821691505b602082108103610f2057610f1f610ec6565b5b50919050565b7f43616c6c6572206973206e6f7420746865206f7261636c650000000000000000600082015250565b6000610f5c601883610b4e565b9150610f6782610f26565b602082019050919050565b60006020820190508181036000830152610f8b81610f4f565b9050919050565b7f436f6e74726163742069732064697361626c6564000000000000000000000000600082015250565b6000610fc8601483610b4e565b9150610fd382610f92565b602082019050919050565b60006020820190508181036000830152610ff781610fbb565b9050919050565b7f43616c6c6572206973206e6f7420746865206465706f7369746f720000000000600082015250565b6000611034601b83610b4e565b915061103f82610ffe565b602082019050919050565b6000602082019050818103600083015261106381611027565b9050919050565b7f436f6e74726163742063616e206f6e6c792062652070616964206f6e63652c2060008201527f74686973206d617920626520616d6d656e64656420696e20612066757475726560208201527f2075706461746500000000000000000000000000000000000000000000000000604082015250565b60006110ec604783610b4e565b91506110f78261106a565b606082019050919050565b6000602082019050818103600083015261111b816110df565b9050919050565b7f596f75206d7573742073656e642061206d696e696d756d206f66202e3030312060008201527f4f7074696d6973696d2045544800000000000000000000000000000000000000602082015250565b600061117e602d83610b4e565b915061118982611122565b604082019050919050565b600060208201905081810360008301526111ad81611171565b9050919050565b60008190508160005260206000209050919050565b600081546111d681610ef5565b6111e08186610b4e565b945060018216600081146111fb576001811461121157611244565b60ff198316865281151560200286019350611244565b61121a856111b4565b60005b8381101561123c5781548189015260018201915060208101905061121d565b808801955050505b50505092915050565b60006060820190506112626000830186610db9565b61126f6020830185610ded565b818103604083015261128181846111c9565b9050949350505050565b7f416c726561647920696e697469616c697a656400000000000000000000000000600082015250565b60006112c1601383610b4e565b91506112cc8261128b565b602082019050919050565b600060208201905081810360008301526112f0816112b4565b9050919050565b60006020601f8301049050919050565b600082821b905092915050565b6000600883026113447fffffffffffffffffffffffffffffffffffffffffffffffffffffffffffffffff82611307565b61134e8683611307565b95508019841693508086168417925050509392505050565b6000819050919050565b600061138b61138661138184610de3565b611366565b610de3565b9050919050565b6000819050919050565b6113a583611370565b6113b96113b182611392565b848454611314565b825550505050565b600090565b6113ce6113c1565b6113d981848461139c565b505050565b5b818110156113fd576113f26000826113c6565b6001810190506113df565b5050565b601f82111561144257611413816111b4565b61141c846112f7565b8101602085101561142b578190505b61143f611437856112f7565b8301826113de565b50505b505050565b600082821c905092915050565b600061146560001984600802611447565b1980831691505092915050565b600061147e8383611454565b9150826002028217905092915050565b61149782610b43565b67ffffffffffffffff8111156114b0576114af610c13565b5b6114ba8254610ef5565b6114c5828285611401565b600060209050601f8311600181146114f857600084156114e6578287015190505b6114f08582611472565b865550611558565b601f198416611506866111b4565b60005b8281101561152e57848901518255600182019150602085019450602081019050611509565b8683101561154b5784890151611547601f891682611454565b8355505b6001600288020188555050505b505050505050565b7f46756e6374696f6e2063616e206f6e6c792062652063616c6c6564206f6e6365600082015250565b6000611596602083610b4e565b91506115a182611560565b602082019050919050565b600060208201905081810360008301526115c581611589565b9050919050565b7f4e487b7100000000000000000000000000000000000000000000000000000000600052601160045260246000fd5b600061160682610de3565b915061161183610de3565b9250828201905080821115611629576116286115cc565b5b92915050565b7f43616e6e6f74207265636c61696d207965740000000000000000000000000000600082015250565b6000611665601283610b4e565b91506116708261162f565b602082019050919050565b6000602082019050818103600083015261169481611658565b905091905056fea2646970667358221220e0ba28c36c21791e0f351d1edcb4dcb2c85bdeed3963f7dcb9619f0dfee8a6c364736f6c634300081b0033",
  "linkReferences": {},
  "deployedLinkReferences": {}
}