{
  "_format": "hh-sol-artifact-1",
  "contractName": "ETH_XMR",
  "sourceName": "contracts/Master.sol",
  "abi": [
    {
      "inputs": [],
      "name": "ReentrancyGuardReentrantCall",
      "type": "error"
    },
    {
      "anonymous": false,
      "inputs": [],
      "name": "SwapFailureConfirmation",
      "type": "event"
    },
    {
      "anonymous": false,
      "inputs": [
        {
          "indexed": false,
          "internalType": "string",
          "name": "TxID",
          "type": "string"
        }
      ],
      "name": "SwapSuccessConfirmation",
      "type": "event"
    },
    {
      "inputs": [],
      "name": "ConfirmSwapFailure",
      "outputs": [],
      "stateMutability": "nonpayable",
      "type": "function"
    },
    {
      "inputs": [
        {
          "internalType": "string",
          "name": "tx_hash",
          "type": "string"
        }
      ],
      "name": "ConfirmSwapSuccess",
      "outputs": [],
      "stateMutability": "nonpayable",
      "type": "function"
    },
    {
      "inputs": [],
      "name": "USERDeposit",
      "outputs": [],
      "stateMutability": "payable",
      "type": "function"
    },
    {
      "inputs": [],
      "name": "USERReclaimDeposit",
      "outputs": [],
      "stateMutability": "nonpayable",
      "type": "function"
    },
    {
      "inputs": [],
      "name": "depositTimestamp",
      "outputs": [
        {
          "internalType": "uint256",
          "name": "",
          "type": "uint256"
        }
      ],
      "stateMutability": "view",
      "type": "function"
    },
    {
      "inputs": [],
      "name": "depositor",
      "outputs": [
        {
          "internalType": "address",
          "name": "",
          "type": "address"
        }
      ],
      "stateMutability": "view",
      "type": "function"
    },
    {
      "inputs": [
        {
          "internalType": "address",
          "name": "_depositor",
          "type": "address"
        },
        {
          "internalType": "string",
          "name": "_moneroAddress",
          "type": "string"
        },
        {
          "internalType": "address payable",
          "name": "_master",
          "type": "address"
        },
        {
          "internalType": "address",
          "name": "_oracle",
          "type": "address"
        }
      ],
      "name": "initialize",
      "outputs": [],
      "stateMutability": "nonpayable",
      "type": "function"
    },
    {
      "inputs": [],
      "name": "moneroAddress",
      "outputs": [
        {
          "internalType": "string",
          "name": "",
          "type": "string"
        }
      ],
      "stateMutability": "view",
      "type": "function"
    },
    {
      "inputs": [],
      "name": "oracle",
      "outputs": [
        {
          "internalType": "address",
          "name": "",
          "type": "address"
        }
      ],
      "stateMutability": "view",
      "type": "function"
    }
  ],
  "bytecode": "0x6080604052348015600f57600080fd5b50600160008190555061170c806100276000396000f3fe6080604052600436106100865760003560e01c8063aa8e250111610059578063aa8e250114610135578063b8f88d641461013f578063bfd71a1414610168578063c7c4ff461461017f578063ef56faa0146101aa57610086565b806306bff32e1461008b5780633814895b146100b65780637dc0d1d0146100df578063a58541231461010a575b600080fd5b34801561009757600080fd5b506100a06101c1565b6040516100ad9190610b64565b60405180910390f35b3480156100c257600080fd5b506100dd60048036038101906100d89190610ccf565b61024f565b005b3480156100eb57600080fd5b506100f4610394565b6040516101019190610d59565b60405180910390f35b34801561011657600080fd5b5061011f6103ba565b60405161012c9190610d8d565b60405180910390f35b61013d6103c0565b005b34801561014b57600080fd5b5061016660048036038101906101619190610e12565b6105b0565b005b34801561017457600080fd5b5061017d6106f4565b005b34801561018b57600080fd5b50610194610896565b6040516101a19190610d59565b60405180910390f35b3480156101b657600080fd5b506101bf6108bc565b005b600480546101ce90610ec4565b80601f01602080910402602001604051908101604052809291908181526020018280546101fa90610ec4565b80156102475780601f1061021c57610100808354040283529160200191610247565b820191906000526020600020905b81548152906001019060200180831161022a57829003601f168201915b505050505081565b600360009054906101000a900473ffffffffffffffffffffffffffffffffffffffff1673ffffffffffffffffffffffffffffffffffffffff163373ffffffffffffffffffffffffffffffffffffffff16146102df576040517f08c379a00000000000000000000000000000000000000000000000000000000081526004016102d690610f41565b60405180910390fd5b6102e7610a84565b600660029054906101000a900460ff1615610337576040517f08c379a000000000000000000000000000000000000000000000000000000000815260040161032e90610fad565b60405180910390fd5b7f414290ff5dba1f464d6f5a155e0704fa2f325323bde1ba864f4a970feb98bb4c816040516103669190610b64565b60405180910390a16001600660026101000a81548160ff021916908315150217905550610391610aca565b50565b600360009054906101000a900473ffffffffffffffffffffffffffffffffffffffff1681565b60055481565b600160009054906101000a900473ffffffffffffffffffffffffffffffffffffffff1673ffffffffffffffffffffffffffffffffffffffff163373ffffffffffffffffffffffffffffffffffffffff1614610450576040517f08c379a000000000000000000000000000000000000000000000000000000000815260040161044790611019565b60405180910390fd5b610458610a84565b600660019054906101000a900460ff16156104a8576040517f08c379a000000000000000000000000000000000000000000000000000000000815260040161049f906110d1565b60405180910390fd5b66038d7ea4c680003410156104f2576040517f08c379a00000000000000000000000000000000000000000000000000000000081526004016104e990611163565b60405180910390fd5b42600581905550600260009054906101000a900473ffffffffffffffffffffffffffffffffffffffff1673ffffffffffffffffffffffffffffffffffffffff16630f4273cb303460046040518463ffffffff1660e01b81526004016105599392919061121c565b600060405180830381600087803b15801561057357600080fd5b505af1158015610587573d6000803e3d6000fd5b505050506001600660016101000a81548160ff0219169083151502179055506105ae610aca565b565b600660009054906101000a900460ff1615610600576040517f08c379a00000000000000000000000000000000000000000000000000000000081526004016105f7906112a6565b60405180910390fd5b6001600660006101000a81548160ff02191690831515021790555083600160006101000a81548173ffffffffffffffffffffffffffffffffffffffff021916908373ffffffffffffffffffffffffffffffffffffffff160217905550826004908161066b919061145d565b5081600260006101000a81548173ffffffffffffffffffffffffffffffffffffffff021916908373ffffffffffffffffffffffffffffffffffffffff16021790555080600360006101000a81548173ffffffffffffffffffffffffffffffffffffffff021916908373ffffffffffffffffffffffffffffffffffffffff16021790555050505050565b600360009054906101000a900473ffffffffffffffffffffffffffffffffffffffff1673ffffffffffffffffffffffffffffffffffffffff163373ffffffffffffffffffffffffffffffffffffffff1614610784576040517f08c379a000000000000000000000000000000000000000000000000000000000815260040161077b90610f41565b60405180910390fd5b61078c610a84565b600660039054906101000a900460ff16156107dc576040517f08c379a00000000000000000000000000000000000000000000000000000000081526004016107d39061157b565b60405180910390fd5b7fd83c33436f5e4559a651af3ad4b0ce1a34a251c8aecaa4ca1f94eb3b07c00ac060405160405180910390a1600160009054906101000a900473ffffffffffffffffffffffffffffffffffffffff1673ffffffffffffffffffffffffffffffffffffffff166108fc479081150290604051600060405180830381858888f19350505050158015610870573d6000803e3d6000fd5b506001600660036101000a81548160ff021916908315150217905550610894610aca565b565b600160009054906101000a900473ffffffffffffffffffffffffffffffffffffffff1681565b600160009054906101000a900473ffffffffffffffffffffffffffffffffffffffff1673ffffffffffffffffffffffffffffffffffffffff163373ffffffffffffffffffffffffffffffffffffffff161461094c576040517f08c379a000000000000000000000000000000000000000000000000000000000815260040161094390611019565b60405180910390fd5b610954610a84565b600660049054906101000a900460ff16156109a4576040517f08c379a000000000000000000000000000000000000000000000000000000000815260040161099b906115e7565b60405180910390fd5b610e106005546109b49190611636565b4210156109f6576040517f08c379a00000000000000000000000000000000000000000000000000000000081526004016109ed906116b6565b60405180910390fd5b600160009054906101000a900473ffffffffffffffffffffffffffffffffffffffff1673ffffffffffffffffffffffffffffffffffffffff166108fc479081150290604051600060405180830381858888f19350505050158015610a5e573d6000803e3d6000fd5b506001600660046101000a81548160ff021916908315150217905550610a82610aca565b565b600260005403610ac0576040517f3ee5aeb500000000000000000000000000000000000000000000000000000000815260040160405180910390fd5b6002600081905550565b6001600081905550565b600081519050919050565b600082825260208201905092915050565b60005b83811015610b0e578082015181840152602081019050610af3565b60008484015250505050565b6000601f19601f8301169050919050565b6000610b3682610ad4565b610b408185610adf565b9350610b50818560208601610af0565b610b5981610b1a565b840191505092915050565b60006020820190508181036000830152610b7e8184610b2b565b905092915050565b6000604051905090565b600080fd5b600080fd5b600080fd5b600080fd5b7f4e487b7100000000000000000000000000000000000000000000000000000000600052604160045260246000fd5b610bdc82610b1a565b810181811067ffffffffffffffff82111715610bfb57610bfa610ba4565b5b80604052505050565b6000610c0e610b86565b9050610c1a8282610bd3565b919050565b600067ffffffffffffffff821115610c3a57610c39610ba4565b5b610c4382610b1a565b9050602081019050919050565b82818337600083830152505050565b6000610c72610c6d84610c1f565b610c04565b905082815260208101848484011115610c8e57610c8d610b9f565b5b610c99848285610c50565b509392505050565b600082601f830112610cb657610cb5610b9a565b5b8135610cc6848260208601610c5f565b91505092915050565b600060208284031215610ce557610ce4610b90565b5b600082013567ffffffffffffffff811115610d0357610d02610b95565b5b610d0f84828501610ca1565b91505092915050565b600073ffffffffffffffffffffffffffffffffffffffff82169050919050565b6000610d4382610d18565b9050919050565b610d5381610d38565b82525050565b6000602082019050610d6e6000830184610d4a565b92915050565b6000819050919050565b610d8781610d74565b82525050565b6000602082019050610da26000830184610d7e565b92915050565b610db181610d38565b8114610dbc57600080fd5b50565b600081359050610dce81610da8565b92915050565b6000610ddf82610d18565b9050919050565b610def81610dd4565b8114610dfa57600080fd5b50565b600081359050610e0c81610de6565b92915050565b60008060008060808587031215610e2c57610e2b610b90565b5b6000610e3a87828801610dbf565b945050602085013567ffffffffffffffff811115610e5b57610e5a610b95565b5b610e6787828801610ca1565b9350506040610e7887828801610dfd565b9250506060610e8987828801610dbf565b91505092959194509250565b7f4e487b7100000000000000000000000000000000000000000000000000000000600052602260045260246000fd5b60006002820490506001821680610edc57607f821691505b602082108103610eef57610eee610e95565b5b50919050565b7f43616c6c6572206973206e6f7420746865206f7261636c650000000000000000600082015250565b6000610f2b601883610adf565b9150610f3682610ef5565b602082019050919050565b60006020820190508181036000830152610f5a81610f1e565b9050919050565b7f53776170205375636365737320616c72656164792063616c6c65640000000000600082015250565b6000610f97601b83610adf565b9150610fa282610f61565b602082019050919050565b60006020820190508181036000830152610fc681610f8a565b9050919050565b7f43616c6c6572206973206e6f7420746865206465706f7369746f720000000000600082015250565b6000611003601b83610adf565b915061100e82610fcd565b602082019050919050565b6000602082019050818103600083015261103281610ff6565b9050919050565b7f436f6e74726163742063616e206f6e6c792062652070616964206f6e63652c2060008201527f74686973206d617920626520616d6d656e64656420696e20612066757475726560208201527f2075706461746500000000000000000000000000000000000000000000000000604082015250565b60006110bb604783610adf565b91506110c682611039565b606082019050919050565b600060208201905081810360008301526110ea816110ae565b9050919050565b7f596f75206d7573742073656e642061206d696e696d756d206f66202e3030312060008201527f4f7074696d6973696d2045544800000000000000000000000000000000000000602082015250565b600061114d602d83610adf565b9150611158826110f1565b604082019050919050565b6000602082019050818103600083015261117c81611140565b9050919050565b60008190508160005260206000209050919050565b600081546111a581610ec4565b6111af8186610adf565b945060018216600081146111ca57600181146111e057611213565b60ff198316865281151560200286019350611213565b6111e985611183565b60005b8381101561120b578154818901526001820191506020810190506111ec565b808801955050505b50505092915050565b60006060820190506112316000830186610d4a565b61123e6020830185610d7e565b81810360408301526112508184611198565b9050949350505050565b7f416c726561647920696e697469616c697a656400000000000000000000000000600082015250565b6000611290601383610adf565b915061129b8261125a565b602082019050919050565b600060208201905081810360008301526112bf81611283565b9050919050565b60006020601f8301049050919050565b600082821b905092915050565b6000600883026113137fffffffffffffffffffffffffffffffffffffffffffffffffffffffffffffffff826112d6565b61131d86836112d6565b95508019841693508086168417925050509392505050565b6000819050919050565b600061135a61135561135084610d74565b611335565b610d74565b9050919050565b6000819050919050565b6113748361133f565b61138861138082611361565b8484546112e3565b825550505050565b600090565b61139d611390565b6113a881848461136b565b505050565b5b818110156113cc576113c1600082611395565b6001810190506113ae565b5050565b601f821115611411576113e281611183565b6113eb846112c6565b810160208510156113fa578190505b61140e611406856112c6565b8301826113ad565b50505b505050565b600082821c905092915050565b600061143460001984600802611416565b1980831691505092915050565b600061144d8383611423565b9150826002028217905092915050565b61146682610ad4565b67ffffffffffffffff81111561147f5761147e610ba4565b5b6114898254610ec4565b6114948282856113d0565b600060209050601f8311600181146114c757600084156114b5578287015190505b6114bf8582611441565b865550611527565b601f1984166114d586611183565b60005b828110156114fd578489015182556001820191506020850194506020810190506114d8565b8683101561151a5784890151611516601f891682611423565b8355505b6001600288020188555050505b505050505050565b7f53776170204661696c75726520616c72656164792063616c6c65640000000000600082015250565b6000611565601b83610adf565b91506115708261152f565b602082019050919050565b6000602082019050818103600083015261159481611558565b9050919050565b7f46756e6374696f6e2063616e206f6e6c792062652063616c6c6564206f6e6365600082015250565b60006115d1602083610adf565b91506115dc8261159b565b602082019050919050565b60006020820190508181036000830152611600816115c4565b9050919050565b7f4e487b7100000000000000000000000000000000000000000000000000000000600052601160045260246000fd5b600061164182610d74565b915061164c83610d74565b925082820190508082111561166457611663611607565b5b92915050565b7f43616e6e6f74207265636c61696d207965740000000000000000000000000000600082015250565b60006116a0601283610adf565b91506116ab8261166a565b602082019050919050565b600060208201905081810360008301526116cf81611693565b905091905056fea26469706673582212206f625fbefdcaeeb432429bfa0384e49f6066440f14c86f6ec6dc570b17f7e9df64736f6c634300081b0033",
  "linkReferences": {},
  "deployedLinkReferences": {}
}