{
  "_format": "hh-sol-artifact-1",
  "contractName": "ETH_XMR",
  "sourceName": "contracts/Master.sol",
  "abi": [
    {
      "inputs": [],
      "name": "ReentrancyGuardReentrantCall",
      "type": "error"
    },
    {
      "anonymous": false,
      "inputs": [],
      "name": "SwapFailureConfirmation",
      "type": "event"
    },
    {
      "anonymous": false,
      "inputs": [
        {
          "indexed": false,
          "internalType": "string",
          "name": "TxID",
          "type": "string"
        }
      ],
      "name": "SwapSuccessConfirmation",
      "type": "event"
    },
    {
      "inputs": [],
      "name": "ConfirmSwapFailure",
      "outputs": [],
      "stateMutability": "nonpayable",
      "type": "function"
    },
    {
      "inputs": [
        {
          "internalType": "string",
          "name": "tx_hash",
          "type": "string"
        }
      ],
      "name": "ConfirmSwapSuccess",
      "outputs": [],
      "stateMutability": "nonpayable",
      "type": "function"
    },
    {
      "inputs": [],
      "name": "USERDeposit",
      "outputs": [],
      "stateMutability": "payable",
      "type": "function"
    },
    {
      "inputs": [],
      "name": "USERReclaimDeposit",
      "outputs": [],
      "stateMutability": "nonpayable",
      "type": "function"
    },
    {
      "inputs": [],
      "name": "depositTimestamp",
      "outputs": [
        {
          "internalType": "uint256",
          "name": "",
          "type": "uint256"
        }
      ],
      "stateMutability": "view",
      "type": "function"
    },
    {
      "inputs": [],
      "name": "depositor",
      "outputs": [
        {
          "internalType": "address",
          "name": "",
          "type": "address"
        }
      ],
      "stateMutability": "view",
      "type": "function"
    },
    {
      "inputs": [
        {
          "internalType": "address",
          "name": "_depositor",
          "type": "address"
        },
        {
          "internalType": "string",
          "name": "_moneroAddress",
          "type": "string"
        },
        {
          "internalType": "address payable",
          "name": "_master",
          "type": "address"
        },
        {
          "internalType": "address",
          "name": "_oracle",
          "type": "address"
        }
      ],
      "name": "initialize",
      "outputs": [],
      "stateMutability": "nonpayable",
      "type": "function"
    },
    {
      "inputs": [],
      "name": "moneroAddress",
      "outputs": [
        {
          "internalType": "string",
          "name": "",
          "type": "string"
        }
      ],
      "stateMutability": "view",
      "type": "function"
    },
    {
      "inputs": [],
      "name": "oracle",
      "outputs": [
        {
          "internalType": "address",
          "name": "",
          "type": "address"
        }
      ],
      "stateMutability": "view",
      "type": "function"
    }
  ],
  "bytecode": "0x6080604052348015600f57600080fd5b5060016000819055506116b9806100276000396000f3fe6080604052600436106100865760003560e01c8063aa8e250111610059578063aa8e250114610135578063b8f88d641461013f578063bfd71a1414610168578063c7c4ff461461017f578063ef56faa0146101aa57610086565b806306bff32e1461008b5780633814895b146100b65780637dc0d1d0146100df578063a58541231461010a575b600080fd5b34801561009757600080fd5b506100a06101c1565b6040516100ad9190610b7d565b60405180910390f35b3480156100c257600080fd5b506100dd60048036038101906100d89190610ce8565b61024f565b005b3480156100eb57600080fd5b506100f46103fd565b6040516101019190610d72565b60405180910390f35b34801561011657600080fd5b5061011f610423565b60405161012c9190610da6565b60405180910390f35b61013d610429565b005b34801561014b57600080fd5b5061016660048036038101906101619190610e2b565b610619565b005b34801561017457600080fd5b5061017d61075d565b005b34801561018b57600080fd5b506101946108ff565b6040516101a19190610d72565b60405180910390f35b3480156101b657600080fd5b506101bf610925565b005b600480546101ce90610edd565b80601f01602080910402602001604051908101604052809291908181526020018280546101fa90610edd565b80156102475780601f1061021c57610100808354040283529160200191610247565b820191906000526020600020905b81548152906001019060200180831161022a57829003601f168201915b505050505081565b600360009054906101000a900473ffffffffffffffffffffffffffffffffffffffff1673ffffffffffffffffffffffffffffffffffffffff163373ffffffffffffffffffffffffffffffffffffffff16146102df576040517f08c379a00000000000000000000000000000000000000000000000000000000081526004016102d690610f5a565b60405180910390fd5b6102e7610a9d565b600660029054906101000a900460ff1615610337576040517f08c379a000000000000000000000000000000000000000000000000000000000815260040161032e90610fc6565b60405180910390fd5b7f414290ff5dba1f464d6f5a155e0704fa2f325323bde1ba864f4a970feb98bb4c816040516103669190610b7d565b60405180910390a1600260009054906101000a900473ffffffffffffffffffffffffffffffffffffffff1673ffffffffffffffffffffffffffffffffffffffff166108fc479081150290604051600060405180830381858888f193505050501580156103d6573d6000803e3d6000fd5b506001600660026101000a81548160ff0219169083151502179055506103fa610ae3565b50565b600360009054906101000a900473ffffffffffffffffffffffffffffffffffffffff1681565b60055481565b600160009054906101000a900473ffffffffffffffffffffffffffffffffffffffff1673ffffffffffffffffffffffffffffffffffffffff163373ffffffffffffffffffffffffffffffffffffffff16146104b9576040517f08c379a00000000000000000000000000000000000000000000000000000000081526004016104b090611032565b60405180910390fd5b6104c1610a9d565b600660019054906101000a900460ff1615610511576040517f08c379a0000000000000000000000000000000000000000000000000000000008152600401610508906110ea565b60405180910390fd5b66038d7ea4c6800034101561055b576040517f08c379a00000000000000000000000000000000000000000000000000000000081526004016105529061117c565b60405180910390fd5b42600581905550600260009054906101000a900473ffffffffffffffffffffffffffffffffffffffff1673ffffffffffffffffffffffffffffffffffffffff16630f4273cb303460046040518463ffffffff1660e01b81526004016105c293929190611235565b600060405180830381600087803b1580156105dc57600080fd5b505af11580156105f0573d6000803e3d6000fd5b505050506001600660016101000a81548160ff021916908315150217905550610617610ae3565b565b600660009054906101000a900460ff1615610669576040517f08c379a0000000000000000000000000000000000000000000000000000000008152600401610660906112bf565b60405180910390fd5b6001600660006101000a81548160ff02191690831515021790555083600160006101000a81548173ffffffffffffffffffffffffffffffffffffffff021916908373ffffffffffffffffffffffffffffffffffffffff16021790555082600490816106d49190611476565b5081600260006101000a81548173ffffffffffffffffffffffffffffffffffffffff021916908373ffffffffffffffffffffffffffffffffffffffff16021790555080600360006101000a81548173ffffffffffffffffffffffffffffffffffffffff021916908373ffffffffffffffffffffffffffffffffffffffff16021790555050505050565b600360009054906101000a900473ffffffffffffffffffffffffffffffffffffffff1673ffffffffffffffffffffffffffffffffffffffff163373ffffffffffffffffffffffffffffffffffffffff16146107ed576040517f08c379a00000000000000000000000000000000000000000000000000000000081526004016107e490610f5a565b60405180910390fd5b6107f5610a9d565b600660039054906101000a900460ff1615610845576040517f08c379a000000000000000000000000000000000000000000000000000000000815260040161083c90611594565b60405180910390fd5b7fd83c33436f5e4559a651af3ad4b0ce1a34a251c8aecaa4ca1f94eb3b07c00ac060405160405180910390a1600160009054906101000a900473ffffffffffffffffffffffffffffffffffffffff1673ffffffffffffffffffffffffffffffffffffffff166108fc479081150290604051600060405180830381858888f193505050501580156108d9573d6000803e3d6000fd5b506001600660036101000a81548160ff0219169083151502179055506108fd610ae3565b565b600160009054906101000a900473ffffffffffffffffffffffffffffffffffffffff1681565b600160009054906101000a900473ffffffffffffffffffffffffffffffffffffffff1673ffffffffffffffffffffffffffffffffffffffff163373ffffffffffffffffffffffffffffffffffffffff16146109b5576040517f08c379a00000000000000000000000000000000000000000000000000000000081526004016109ac90611032565b60405180910390fd5b6109bd610a9d565b61012c6005546109cd91906115e3565b421015610a0f576040517f08c379a0000000000000000000000000000000000000000000000000000000008152600401610a0690611663565b60405180910390fd5b600160009054906101000a900473ffffffffffffffffffffffffffffffffffffffff1673ffffffffffffffffffffffffffffffffffffffff166108fc479081150290604051600060405180830381858888f19350505050158015610a77573d6000803e3d6000fd5b506001600660046101000a81548160ff021916908315150217905550610a9b610ae3565b565b600260005403610ad9576040517f3ee5aeb500000000000000000000000000000000000000000000000000000000815260040160405180910390fd5b6002600081905550565b6001600081905550565b600081519050919050565b600082825260208201905092915050565b60005b83811015610b27578082015181840152602081019050610b0c565b60008484015250505050565b6000601f19601f8301169050919050565b6000610b4f82610aed565b610b598185610af8565b9350610b69818560208601610b09565b610b7281610b33565b840191505092915050565b60006020820190508181036000830152610b978184610b44565b905092915050565b6000604051905090565b600080fd5b600080fd5b600080fd5b600080fd5b7f4e487b7100000000000000000000000000000000000000000000000000000000600052604160045260246000fd5b610bf582610b33565b810181811067ffffffffffffffff82111715610c1457610c13610bbd565b5b80604052505050565b6000610c27610b9f565b9050610c338282610bec565b919050565b600067ffffffffffffffff821115610c5357610c52610bbd565b5b610c5c82610b33565b9050602081019050919050565b82818337600083830152505050565b6000610c8b610c8684610c38565b610c1d565b905082815260208101848484011115610ca757610ca6610bb8565b5b610cb2848285610c69565b509392505050565b600082601f830112610ccf57610cce610bb3565b5b8135610cdf848260208601610c78565b91505092915050565b600060208284031215610cfe57610cfd610ba9565b5b600082013567ffffffffffffffff811115610d1c57610d1b610bae565b5b610d2884828501610cba565b91505092915050565b600073ffffffffffffffffffffffffffffffffffffffff82169050919050565b6000610d5c82610d31565b9050919050565b610d6c81610d51565b82525050565b6000602082019050610d876000830184610d63565b92915050565b6000819050919050565b610da081610d8d565b82525050565b6000602082019050610dbb6000830184610d97565b92915050565b610dca81610d51565b8114610dd557600080fd5b50565b600081359050610de781610dc1565b92915050565b6000610df882610d31565b9050919050565b610e0881610ded565b8114610e1357600080fd5b50565b600081359050610e2581610dff565b92915050565b60008060008060808587031215610e4557610e44610ba9565b5b6000610e5387828801610dd8565b945050602085013567ffffffffffffffff811115610e7457610e73610bae565b5b610e8087828801610cba565b9350506040610e9187828801610e16565b9250506060610ea287828801610dd8565b91505092959194509250565b7f4e487b7100000000000000000000000000000000000000000000000000000000600052602260045260246000fd5b60006002820490506001821680610ef557607f821691505b602082108103610f0857610f07610eae565b5b50919050565b7f43616c6c6572206973206e6f7420746865206f7261636c650000000000000000600082015250565b6000610f44601883610af8565b9150610f4f82610f0e565b602082019050919050565b60006020820190508181036000830152610f7381610f37565b9050919050565b7f53776170205375636365737320616c72656164792063616c6c65640000000000600082015250565b6000610fb0601b83610af8565b9150610fbb82610f7a565b602082019050919050565b60006020820190508181036000830152610fdf81610fa3565b9050919050565b7f43616c6c6572206973206e6f7420746865206465706f7369746f720000000000600082015250565b600061101c601b83610af8565b915061102782610fe6565b602082019050919050565b6000602082019050818103600083015261104b8161100f565b9050919050565b7f436f6e74726163742063616e206f6e6c792062652070616964206f6e63652c2060008201527f74686973206d617920626520616d6d656e64656420696e20612066757475726560208201527f2075706461746500000000000000000000000000000000000000000000000000604082015250565b60006110d4604783610af8565b91506110df82611052565b606082019050919050565b60006020820190508181036000830152611103816110c7565b9050919050565b7f596f75206d7573742073656e642061206d696e696d756d206f66202e3030312060008201527f4f7074696d6973696d2045544800000000000000000000000000000000000000602082015250565b6000611166602d83610af8565b91506111718261110a565b604082019050919050565b6000602082019050818103600083015261119581611159565b9050919050565b60008190508160005260206000209050919050565b600081546111be81610edd565b6111c88186610af8565b945060018216600081146111e357600181146111f95761122c565b60ff19831686528115156020028601935061122c565b6112028561119c565b60005b8381101561122457815481890152600182019150602081019050611205565b808801955050505b50505092915050565b600060608201905061124a6000830186610d63565b6112576020830185610d97565b818103604083015261126981846111b1565b9050949350505050565b7f416c726561647920696e697469616c697a656400000000000000000000000000600082015250565b60006112a9601383610af8565b91506112b482611273565b602082019050919050565b600060208201905081810360008301526112d88161129c565b9050919050565b60006020601f8301049050919050565b600082821b905092915050565b60006008830261132c7fffffffffffffffffffffffffffffffffffffffffffffffffffffffffffffffff826112ef565b61133686836112ef565b95508019841693508086168417925050509392505050565b6000819050919050565b600061137361136e61136984610d8d565b61134e565b610d8d565b9050919050565b6000819050919050565b61138d83611358565b6113a16113998261137a565b8484546112fc565b825550505050565b600090565b6113b66113a9565b6113c1818484611384565b505050565b5b818110156113e5576113da6000826113ae565b6001810190506113c7565b5050565b601f82111561142a576113fb8161119c565b611404846112df565b81016020851015611413578190505b61142761141f856112df565b8301826113c6565b50505b505050565b600082821c905092915050565b600061144d6000198460080261142f565b1980831691505092915050565b6000611466838361143c565b9150826002028217905092915050565b61147f82610aed565b67ffffffffffffffff81111561149857611497610bbd565b5b6114a28254610edd565b6114ad8282856113e9565b600060209050601f8311600181146114e057600084156114ce578287015190505b6114d8858261145a565b865550611540565b601f1984166114ee8661119c565b60005b82811015611516578489015182556001820191506020850194506020810190506114f1565b86831015611533578489015161152f601f89168261143c565b8355505b6001600288020188555050505b505050505050565b7f53776170204661696c75726520616c72656164792063616c6c65640000000000600082015250565b600061157e601b83610af8565b915061158982611548565b602082019050919050565b600060208201905081810360008301526115ad81611571565b9050919050565b7f4e487b7100000000000000000000000000000000000000000000000000000000600052601160045260246000fd5b60006115ee82610d8d565b91506115f983610d8d565b9250828201905080821115611611576116106115b4565b5b92915050565b7f43616e6e6f74207265636c61696d207965740000000000000000000000000000600082015250565b600061164d601283610af8565b915061165882611617565b602082019050919050565b6000602082019050818103600083015261167c81611640565b905091905056fea26469706673582212204f17bc02984d72c9263eeb3b75d04c1c4ff267d9dec401acb289826e904b7abe64736f6c634300081b0033",
  "linkReferences": {},
  "deployedLinkReferences": {}
}