{
  "_format": "hh-sol-artifact-1",
  "contractName": "ETHZK",
  "sourceName": "contracts/zk/ETHZK.sol",
  "abi": [
    {
      "inputs": [
        {
          "internalType": "contract IVerifier",
          "name": "_verifier",
          "type": "address"
        },
        {
          "internalType": "contract IHasher",
          "name": "_hasher",
          "type": "address"
        },
        {
          "internalType": "uint256",
          "name": "_denomination",
          "type": "uint256"
        },
        {
          "internalType": "uint32",
          "name": "_merkleTreeHeight",
          "type": "uint32"
        }
      ],
      "stateMutability": "nonpayable",
      "type": "constructor"
    },
    {
      "inputs": [],
      "name": "ReentrancyGuardReentrantCall",
      "type": "error"
    },
    {
      "anonymous": false,
      "inputs": [
        {
          "indexed": true,
          "internalType": "bytes32",
          "name": "commitment",
          "type": "bytes32"
        },
        {
          "indexed": false,
          "internalType": "uint32",
          "name": "leafIndex",
          "type": "uint32"
        },
        {
          "indexed": false,
          "internalType": "uint256",
          "name": "timestamp",
          "type": "uint256"
        }
      ],
      "name": "DepositEvent",
      "type": "event"
    },
    {
      "anonymous": false,
      "inputs": [
        {
          "indexed": false,
          "internalType": "address",
          "name": "to",
          "type": "address"
        },
        {
          "indexed": false,
          "internalType": "bytes32",
          "name": "nullifierHash",
          "type": "bytes32"
        },
        {
          "indexed": true,
          "internalType": "address",
          "name": "relayer",
          "type": "address"
        },
        {
          "indexed": false,
          "internalType": "uint256",
          "name": "Fee",
          "type": "uint256"
        }
      ],
      "name": "WithdrawEvent",
      "type": "event"
    },
    {
      "inputs": [],
      "name": "Denomination",
      "outputs": [
        {
          "internalType": "uint256",
          "name": "",
          "type": "uint256"
        }
      ],
      "stateMutability": "view",
      "type": "function"
    },
    {
      "inputs": [],
      "name": "FIELD_SIZE",
      "outputs": [
        {
          "internalType": "uint256",
          "name": "",
          "type": "uint256"
        }
      ],
      "stateMutability": "view",
      "type": "function"
    },
    {
      "inputs": [],
      "name": "Oracle",
      "outputs": [
        {
          "internalType": "address",
          "name": "",
          "type": "address"
        }
      ],
      "stateMutability": "view",
      "type": "function"
    },
    {
      "inputs": [],
      "name": "ROOT_HISTORY_SIZE",
      "outputs": [
        {
          "internalType": "uint32",
          "name": "",
          "type": "uint32"
        }
      ],
      "stateMutability": "view",
      "type": "function"
    },
    {
      "inputs": [
        {
          "internalType": "bytes32",
          "name": "Commitment",
          "type": "bytes32"
        }
      ],
      "name": "USERDeposit",
      "outputs": [],
      "stateMutability": "payable",
      "type": "function"
    },
    {
      "inputs": [
        {
          "internalType": "bytes",
          "name": "Proof",
          "type": "bytes"
        }
      ],
      "name": "USERWithdrawal",
      "outputs": [],
      "stateMutability": "nonpayable",
      "type": "function"
    },
    {
      "inputs": [
        {
          "internalType": "string",
          "name": "Variable",
          "type": "string"
        }
      ],
      "name": "UpdateData",
      "outputs": [],
      "stateMutability": "nonpayable",
      "type": "function"
    },
    {
      "inputs": [],
      "name": "ZERO_VALUE",
      "outputs": [
        {
          "internalType": "uint256",
          "name": "",
          "type": "uint256"
        }
      ],
      "stateMutability": "view",
      "type": "function"
    },
    {
      "inputs": [],
      "name": "currentRootIndex",
      "outputs": [
        {
          "internalType": "uint32",
          "name": "",
          "type": "uint32"
        }
      ],
      "stateMutability": "view",
      "type": "function"
    },
    {
      "inputs": [
        {
          "internalType": "uint256",
          "name": "",
          "type": "uint256"
        }
      ],
      "name": "filledSubtrees",
      "outputs": [
        {
          "internalType": "bytes32",
          "name": "",
          "type": "bytes32"
        }
      ],
      "stateMutability": "view",
      "type": "function"
    },
    {
      "inputs": [],
      "name": "getLastRoot",
      "outputs": [
        {
          "internalType": "bytes32",
          "name": "",
          "type": "bytes32"
        }
      ],
      "stateMutability": "view",
      "type": "function"
    },
    {
      "inputs": [
        {
          "internalType": "contract IHasher",
          "name": "_hasher",
          "type": "address"
        },
        {
          "internalType": "bytes32",
          "name": "_left",
          "type": "bytes32"
        },
        {
          "internalType": "bytes32",
          "name": "_right",
          "type": "bytes32"
        }
      ],
      "name": "hashLeftRight",
      "outputs": [
        {
          "internalType": "bytes32",
          "name": "",
          "type": "bytes32"
        }
      ],
      "stateMutability": "pure",
      "type": "function"
    },
    {
      "inputs": [],
      "name": "hasher",
      "outputs": [
        {
          "internalType": "contract IHasher",
          "name": "",
          "type": "address"
        }
      ],
      "stateMutability": "view",
      "type": "function"
    },
    {
      "inputs": [
        {
          "internalType": "bytes32",
          "name": "_root",
          "type": "bytes32"
        }
      ],
      "name": "isKnownRoot",
      "outputs": [
        {
          "internalType": "bool",
          "name": "",
          "type": "bool"
        }
      ],
      "stateMutability": "view",
      "type": "function"
    },
    {
      "inputs": [],
      "name": "levels",
      "outputs": [
        {
          "internalType": "uint32",
          "name": "",
          "type": "uint32"
        }
      ],
      "stateMutability": "view",
      "type": "function"
    },
    {
      "inputs": [],
      "name": "merkle",
      "outputs": [
        {
          "internalType": "bytes32",
          "name": "",
          "type": "bytes32"
        }
      ],
      "stateMutability": "view",
      "type": "function"
    },
    {
      "inputs": [],
      "name": "nextIndex",
      "outputs": [
        {
          "internalType": "uint32",
          "name": "",
          "type": "uint32"
        }
      ],
      "stateMutability": "view",
      "type": "function"
    },
    {
      "inputs": [
        {
          "internalType": "uint256",
          "name": "",
          "type": "uint256"
        }
      ],
      "name": "roots",
      "outputs": [
        {
          "internalType": "bytes32",
          "name": "",
          "type": "bytes32"
        }
      ],
      "stateMutability": "view",
      "type": "function"
    },
    {
      "inputs": [],
      "name": "verifier",
      "outputs": [
        {
          "internalType": "contract IVerifier",
          "name": "",
          "type": "address"
        }
      ],
      "stateMutability": "view",
      "type": "function"
    },
    {
      "inputs": [
        {
          "internalType": "uint256",
          "name": "i",
          "type": "uint256"
        }
      ],
      "name": "zeros",
      "outputs": [
        {
          "internalType": "bytes32",
          "name": "",
          "type": "bytes32"
        }
      ],
      "stateMutability": "pure",
      "type": "function"
    }
  ],
  "bytecode": "0x60c06040526000600360006101000a81548163ffffffff021916908363ffffffff1602179055506000600360046101000a81548163ffffffff021916908363ffffffff16021790555034801561005457600080fd5b506040516139dd3803806139dd83398181016040528101906100769190610a4a565b83838383808360008263ffffffff16116100c5576040517f08c379a00000000000000000000000000000000000000000000000000000000081526004016100bc90610b34565b60405180910390fd5b60208263ffffffff161061010e576040517f08c379a000000000000000000000000000000000000000000000000000000000815260040161010590610ba0565b60405180910390fd5b816000806101000a81548163ffffffff021916908363ffffffff1602179055508073ffffffffffffffffffffffffffffffffffffffff1660808173ffffffffffffffffffffffffffffffffffffffff168152505060005b8263ffffffff168163ffffffff1610156101b85761018e8163ffffffff1661028660201b60201c565b600160008363ffffffff168152602001908152602001600020819055508080600101915050610165565b506101da6001836101c99190610bef565b63ffffffff1661028660201b60201c565b6002600080815260200190815260200160002081905550505060016004819055506000821161023e576040517f08c379a000000000000000000000000000000000000000000000000000000000815260040161023590610c99565b60405180910390fd5b8373ffffffffffffffffffffffffffffffffffffffff1660a08173ffffffffffffffffffffffffffffffffffffffff1681525050816006819055505050505050505050610d25565b60008082036102ba577f2fe54c60d3acabf3343a35b6eba15db4821b340f76e741e2249685ed4899af6c60001b9050610920565b600182036102ed577f256a6135777eee2fd26f54b8b7037a25439d5235caee224154186d2b8a52e31d60001b9050610920565b60028203610320577f1151949895e82ab19924de92c40a3d6f7bcb60d92b00504b8199613683f0c20060001b9050610920565b60038203610353577f20121ee811489ff8d61f09fb89e313f14959a0f28bb428a20dba6b0b068b3bdb60001b9050610920565b60048203610386577f0a89ca6ffa14cc462cfedb842c30ed221a50a3d6bf022a6a57dc82ab24c157c960001b9050610920565b600582036103b9577f24ca05c2b5cd42e890d6be94c68d0689f4f21c9cec9c0f13fe41d566dfb5495960001b9050610920565b600682036103ec577f1ccb97c932565a92c60156bdba2d08f3bf1377464e025cee765679e604a7315c60001b9050610920565b6007820361041f577f19156fbd7d1a8bf5cba8909367de1b624534ebab4f0f79e003bccdd1b182bdb460001b9050610920565b60088203610452577f261af8c1f0912e465744641409f622d466c3920ac6e5ff37e36604cb11dfff8060001b9050610920565b60098203610484577e58459724ff6ca5a1652fcbc3e82b93895cf08e975b19beab3f54c217d1c00760001b9050610920565b600a82036104b7577f1f04ef20dee48d39984d8eabe768a70eafa6310ad20849d4573c3c40c2ad1e3060001b9050610920565b600b82036104ea577f1bea3dec5dab51567ce7e200a30f7ba6d4276aeaa53e2686f962a46c66d511e560001b9050610920565b600c820361051d577f0ee0f941e2da4b9e31c3ca97a40d8fa9ce68d97c084177071b3cb46cd3372f0f60001b9050610920565b600d8203610550577f1ca9503e8935884501bbaf20be14eb4c46b89772c97b96e3b2ebf3a36a948bbd60001b9050610920565b600e8203610583577f133a80e30697cd55d8f7d4b0965b7be24057ba5dc3da898ee2187232446cb10860001b9050610920565b600f82036105b6577f13e6d8fc88839ed76e182c2a779af5b2c0da9dd18c90427a644f7e148a6253b660001b9050610920565b601082036105e9577f1eb16b057a477f4bc8f572ea6bee39561098f78f15bfb3699dcbb7bd8db6185460001b9050610920565b6011820361061c577f0da2cb16a1ceaabf1c16b838f7a9e3f2a3a3088d9e0a6debaa748114620696ea60001b9050610920565b6012820361064f577f24a3b3d822420b14b5d8cb6c28a574f01e98ea9e940551d2ebd75cee12649f9d60001b9050610920565b60138203610682577f198622acbd783d1b0d9064105b1fc8e4d8889de95c4c519b3f635809fe6afc0560001b9050610920565b601482036106b5577f29d7ed391256ccc3ea596c86e933b89ff339d25ea8ddced975ae2fe30b5296d460001b9050610920565b601582036106e8577f19be59f2f0413ce78c0c3703a3a5451b1d7f39629fa33abd11548a76065b296760001b9050610920565b6016820361071b577f1ff3f61797e538b70e619310d33f2a063e7eb59104e112e95738da1254dc345360001b9050610920565b6017820361074e577f10c16ae9959cf8358980d9dd9616e48228737310a10e2b6b731c1a548f036c4860001b9050610920565b60188203610781577f0ba433a63174a90ac20992e75e3095496812b652685b5e1a2eae0b1bf4e8fcd160001b9050610920565b601982036107b4577f019ddb9df2bc98d987d0dfeca9d2b643deafab8f7036562e627c3667266a044c60001b9050610920565b601a82036107e7577f2d3c88b23175c5a5565db928414c66d1912b11acf974b2e644caaac04739ce9960001b9050610920565b601b820361081a577f2eab55f6ae4e66e32c5189eed5c470840863445760f5ed7e7b69b2a62600f35460001b9050610920565b601c820361084c577e2df37a2642621802383cf952bf4dd1f32e05433beeb1fd41031fb7eace979d60001b9050610920565b601d820361087f577f104aeb41435db66c3e62feccc1d6f5d98d0a0ed75d1374db457cf462e3a1f42760001b9050610920565b601e82036108b2577f1f3c6fd858e9a7d4b0d1f38e256a09d81d5a5e3c963987e2d4b814cfab7c6ebb60001b9050610920565b601f82036108e5577f2c7a07d20dff79d01fecedc1134284a8d08436606c93693b67e333f671bf69cc60001b9050610920565b6040517f08c379a000000000000000000000000000000000000000000000000000000000815260040161091790610d05565b60405180910390fd5b919050565b600080fd5b600073ffffffffffffffffffffffffffffffffffffffff82169050919050565b60006109558261092a565b9050919050565b60006109678261094a565b9050919050565b6109778161095c565b811461098257600080fd5b50565b6000815190506109948161096e565b92915050565b60006109a58261094a565b9050919050565b6109b58161099a565b81146109c057600080fd5b50565b6000815190506109d2816109ac565b92915050565b6000819050919050565b6109eb816109d8565b81146109f657600080fd5b50565b600081519050610a08816109e2565b92915050565b600063ffffffff82169050919050565b610a2781610a0e565b8114610a3257600080fd5b50565b600081519050610a4481610a1e565b92915050565b60008060008060808587031215610a6457610a63610925565b5b6000610a7287828801610985565b9450506020610a83878288016109c3565b9350506040610a94878288016109f9565b9250506060610aa587828801610a35565b91505092959194509250565b600082825260208201905092915050565b7f5f6c6576656c732073686f756c642062652067726561746572207468616e207a60008201527f65726f0000000000000000000000000000000000000000000000000000000000602082015250565b6000610b1e602383610ab1565b9150610b2982610ac2565b604082019050919050565b60006020820190508181036000830152610b4d81610b11565b9050919050565b7f5f6c6576656c732073686f756c64206265206c657373207468616e2033320000600082015250565b6000610b8a601e83610ab1565b9150610b9582610b54565b602082019050919050565b60006020820190508181036000830152610bb981610b7d565b9050919050565b7f4e487b7100000000000000000000000000000000000000000000000000000000600052601160045260246000fd5b6000610bfa82610a0e565b9150610c0583610a0e565b9250828203905063ffffffff811115610c2157610c20610bc0565b5b92915050565b7f64656e6f6d696e6174696f6e2073686f756c642062652067726561746572207460008201527f68616e2030000000000000000000000000000000000000000000000000000000602082015250565b6000610c83602583610ab1565b9150610c8e82610c27565b604082019050919050565b60006020820190508181036000830152610cb281610c76565b9050919050565b7f496e646578206f7574206f6620626f756e647300000000000000000000000000600082015250565b6000610cef601383610ab1565b9150610cfa82610cb9565b602082019050919050565b60006020820190508181036000830152610d1e81610ce2565b9050919050565b60805160a051612c85610d58600039600081816105a201526107800152600081816112a801526117290152612c856000f3fe60806040526004361061011f5760003560e01c8063c584b9b5116100a0578063ed33639f11610064578063ed33639f146103e0578063f178e47c1461040b578063f24a534e14610448578063f68065a414610473578063fc7e9c6f1461049c5761011f565b8063c584b9b514610306578063cd87a3b414610331578063e82955881461035c578063ea3394d214610399578063ec732959146103b55761011f565b8063808fe6a1116100e7578063808fe6a11461020b5780638ea3099e1461023657806390eeb02b14610273578063ba70f7571461029e578063c2b40ae4146102c95761011f565b80630321072e146101245780632b7ac3f31461014d578063414a37ba146101785780634ecf518b146101a35780636d9833e3146101ce575b600080fd5b34801561013057600080fd5b5061014b600480360381019061014691906118d6565b6104c7565b005b34801561015957600080fd5b5061016261077e565b60405161016f91906119a2565b60405180910390f35b34801561018457600080fd5b5061018d6107a2565b60405161019a91906119d6565b60405180910390f35b3480156101af57600080fd5b506101b86107c6565b6040516101c59190611a10565b60405180910390f35b3480156101da57600080fd5b506101f560048036038101906101f09190611a61565b6107da565b6040516102029190611aa9565b60405180910390f35b34801561021757600080fd5b50610220610877565b60405161022d91906119d6565b60405180910390f35b34801561024257600080fd5b5061025d60048036038101906102589190611b14565b61087d565b60405161026a9190611b76565b60405180910390f35b34801561027f57600080fd5b50610288610a9f565b6040516102959190611a10565b60405180910390f35b3480156102aa57600080fd5b506102b3610ab5565b6040516102c09190611b76565b60405180910390f35b3480156102d557600080fd5b506102f060048036038101906102eb9190611bbd565b610ae8565b6040516102fd9190611b76565b60405180910390f35b34801561031257600080fd5b5061031b610b00565b6040516103289190611b76565b60405180910390f35b34801561033d57600080fd5b50610346610b06565b6040516103539190611a10565b60405180910390f35b34801561036857600080fd5b50610383600480360381019061037e9190611bbd565b610b0b565b6040516103909190611b76565b60405180910390f35b6103b360048036038101906103ae9190611a61565b6111aa565b005b3480156103c157600080fd5b506103ca611282565b6040516103d791906119d6565b60405180910390f35b3480156103ec57600080fd5b506103f56112a6565b6040516104029190611c0b565b60405180910390f35b34801561041757600080fd5b50610432600480360381019061042d9190611bbd565b6112ca565b60405161043f9190611b76565b60405180910390f35b34801561045457600080fd5b5061045d6112e2565b60405161046a9190611c35565b60405180910390f35b34801561047f57600080fd5b5061049a60048036038101906104959190611d91565b611308565b005b3480156104a857600080fd5b506104b161139b565b6040516104be9190611a10565b60405180910390f35b6104cf6113b1565b600080600080600080600088888101906104e99190611eb9565b9650965096509650965096509650600a600086815260200190815260200160002060009054906101000a900460ff1615610558576040517f08c379a000000000000000000000000000000000000000000000000000000000815260040161054f90611fd4565b60405180910390fd5b610561866107da565b6105a0576040517f08c379a000000000000000000000000000000000000000000000000000000000815260040161059790612040565b60405180910390fd5b7f000000000000000000000000000000000000000000000000000000000000000073ffffffffffffffffffffffffffffffffffffffff1663695ef6f9886040518060c001604052808a60001c81526020018960001c81526020018873ffffffffffffffffffffffffffffffffffffffff1681526020018773ffffffffffffffffffffffffffffffffffffffff168152602001868152602001858152506040518363ffffffff1660e01b815260040161065992919061218a565b6020604051808303816000875af1158015610678573d6000803e3d6000fd5b505050506040513d601f19601f8201168201806040525081019061069c91906121e6565b6106db576040517f08c379a00000000000000000000000000000000000000000000000000000000081526004016106d29061225f565b60405180910390fd5b6001600a600087815260200190815260200160002060006101000a81548160ff02191690831515021790555061071784846007546008546113f7565b8273ffffffffffffffffffffffffffffffffffffffff167ff16f7e798dca579497ca7439ab46b494ccb8beb8e1109ef01d506f520dcabfcf8587600754604051610763939291906122a0565b60405180910390a25050505050505061077a6115f3565b5050565b7f000000000000000000000000000000000000000000000000000000000000000081565b7f30644e72e131a029b85045b68181585d2833e84879b9709143e1f593f000000181565b60008054906101000a900463ffffffff1681565b60008060001b82036107ef5760009050610872565b6000600360009054906101000a900463ffffffff16905060008190505b600260008263ffffffff16815260200190815260200160002054840361083757600192505050610872565b60008163ffffffff160361084a57601e90505b808061085590612306565b9150508163ffffffff168163ffffffff160361080c576000925050505b919050565b60065481565b60007f30644e72e131a029b85045b68181585d2833e84879b9709143e1f593f00000018360001c106108e4576040517f08c379a00000000000000000000000000000000000000000000000000000000081526004016108db9061237b565b60405180910390fd5b7f30644e72e131a029b85045b68181585d2833e84879b9709143e1f593f00000018260001c10610949576040517f08c379a00000000000000000000000000000000000000000000000000000000081526004016109409061240d565b60405180910390fd5b60008360001c905060008573ffffffffffffffffffffffffffffffffffffffff1663f47d33b583836040518363ffffffff1660e01b815260040161098e92919061242d565b6040805180830381865afa1580156109aa573d6000803e3d6000fd5b505050506040513d601f19601f820116820180604052508101906109ce919061246b565b80925081935050507f30644e72e131a029b85045b68181585d2833e84879b9709143e1f593f000000180610a0557610a046124ab565b5b8460001c830891508573ffffffffffffffffffffffffffffffffffffffff1663f47d33b583836040518363ffffffff1660e01b8152600401610a4892919061242d565b6040805180830381865afa158015610a64573d6000803e3d6000fd5b505050506040513d601f19601f82011682018060405250810190610a88919061246b565b80925081935050508160001b925050509392505050565b600360009054906101000a900463ffffffff1681565b600060026000600360009054906101000a900463ffffffff1663ffffffff16815260200190815260200160002054905090565b60026020528060005260406000206000915090505481565b60095481565b601e81565b6000808203610b3f577f2fe54c60d3acabf3343a35b6eba15db4821b340f76e741e2249685ed4899af6c60001b90506111a5565b60018203610b72577f256a6135777eee2fd26f54b8b7037a25439d5235caee224154186d2b8a52e31d60001b90506111a5565b60028203610ba5577f1151949895e82ab19924de92c40a3d6f7bcb60d92b00504b8199613683f0c20060001b90506111a5565b60038203610bd8577f20121ee811489ff8d61f09fb89e313f14959a0f28bb428a20dba6b0b068b3bdb60001b90506111a5565b60048203610c0b577f0a89ca6ffa14cc462cfedb842c30ed221a50a3d6bf022a6a57dc82ab24c157c960001b90506111a5565b60058203610c3e577f24ca05c2b5cd42e890d6be94c68d0689f4f21c9cec9c0f13fe41d566dfb5495960001b90506111a5565b60068203610c71577f1ccb97c932565a92c60156bdba2d08f3bf1377464e025cee765679e604a7315c60001b90506111a5565b60078203610ca4577f19156fbd7d1a8bf5cba8909367de1b624534ebab4f0f79e003bccdd1b182bdb460001b90506111a5565b60088203610cd7577f261af8c1f0912e465744641409f622d466c3920ac6e5ff37e36604cb11dfff8060001b90506111a5565b60098203610d09577e58459724ff6ca5a1652fcbc3e82b93895cf08e975b19beab3f54c217d1c00760001b90506111a5565b600a8203610d3c577f1f04ef20dee48d39984d8eabe768a70eafa6310ad20849d4573c3c40c2ad1e3060001b90506111a5565b600b8203610d6f577f1bea3dec5dab51567ce7e200a30f7ba6d4276aeaa53e2686f962a46c66d511e560001b90506111a5565b600c8203610da2577f0ee0f941e2da4b9e31c3ca97a40d8fa9ce68d97c084177071b3cb46cd3372f0f60001b90506111a5565b600d8203610dd5577f1ca9503e8935884501bbaf20be14eb4c46b89772c97b96e3b2ebf3a36a948bbd60001b90506111a5565b600e8203610e08577f133a80e30697cd55d8f7d4b0965b7be24057ba5dc3da898ee2187232446cb10860001b90506111a5565b600f8203610e3b577f13e6d8fc88839ed76e182c2a779af5b2c0da9dd18c90427a644f7e148a6253b660001b90506111a5565b60108203610e6e577f1eb16b057a477f4bc8f572ea6bee39561098f78f15bfb3699dcbb7bd8db6185460001b90506111a5565b60118203610ea1577f0da2cb16a1ceaabf1c16b838f7a9e3f2a3a3088d9e0a6debaa748114620696ea60001b90506111a5565b60128203610ed4577f24a3b3d822420b14b5d8cb6c28a574f01e98ea9e940551d2ebd75cee12649f9d60001b90506111a5565b60138203610f07577f198622acbd783d1b0d9064105b1fc8e4d8889de95c4c519b3f635809fe6afc0560001b90506111a5565b60148203610f3a577f29d7ed391256ccc3ea596c86e933b89ff339d25ea8ddced975ae2fe30b5296d460001b90506111a5565b60158203610f6d577f19be59f2f0413ce78c0c3703a3a5451b1d7f39629fa33abd11548a76065b296760001b90506111a5565b60168203610fa0577f1ff3f61797e538b70e619310d33f2a063e7eb59104e112e95738da1254dc345360001b90506111a5565b60178203610fd3577f10c16ae9959cf8358980d9dd9616e48228737310a10e2b6b731c1a548f036c4860001b90506111a5565b60188203611006577f0ba433a63174a90ac20992e75e3095496812b652685b5e1a2eae0b1bf4e8fcd160001b90506111a5565b60198203611039577f019ddb9df2bc98d987d0dfeca9d2b643deafab8f7036562e627c3667266a044c60001b90506111a5565b601a820361106c577f2d3c88b23175c5a5565db928414c66d1912b11acf974b2e644caaac04739ce9960001b90506111a5565b601b820361109f577f2eab55f6ae4e66e32c5189eed5c470840863445760f5ed7e7b69b2a62600f35460001b90506111a5565b601c82036110d1577e2df37a2642621802383cf952bf4dd1f32e05433beeb1fd41031fb7eace979d60001b90506111a5565b601d8203611104577f104aeb41435db66c3e62feccc1d6f5d98d0a0ed75d1374db457cf462e3a1f42760001b90506111a5565b601e8203611137577f1f3c6fd858e9a7d4b0d1f38e256a09d81d5a5e3c963987e2d4b814cfab7c6ebb60001b90506111a5565b601f820361116a577f2c7a07d20dff79d01fecedc1134284a8d08436606c93693b67e333f671bf69cc60001b90506111a5565b6040517f08c379a000000000000000000000000000000000000000000000000000000000815260040161119c90612526565b60405180910390fd5b919050565b6111b26113b1565b6611c37937e0800034146111fb576040517f08c379a00000000000000000000000000000000000000000000000000000000081526004016111f2906125b8565b60405180910390fd5b6000611206826115fd565b90506001600b600084815260200190815260200160002060006101000a81548160ff02191690831515021790555061123c611817565b817f1a16ad198d1b9dab85897102e5032021a5f59b1ebdaf7c92538ab1c88a69ea12824260405161126e9291906125d8565b60405180910390a25061127f6115f3565b50565b7f2fe54c60d3acabf3343a35b6eba15db4821b340f76e741e2249685ed4899af6c81565b7f000000000000000000000000000000000000000000000000000000000000000081565b60016020528060005260406000206000915090505481565b600560009054906101000a900473ffffffffffffffffffffffffffffffffffffffff1681565b600560009054906101000a900473ffffffffffffffffffffffffffffffffffffffff1673ffffffffffffffffffffffffffffffffffffffff163373ffffffffffffffffffffffffffffffffffffffff1614611398576040517f08c379a000000000000000000000000000000000000000000000000000000000815260040161138f9061264d565b60405180910390fd5b50565b600360049054906101000a900463ffffffff1681565b6002600454036113ed576040517f3ee5aeb500000000000000000000000000000000000000000000000000000000815260040160405180910390fd5b6002600481905550565b6000341461143a576040517f08c379a0000000000000000000000000000000000000000000000000000000008152600401611431906126df565b60405180910390fd5b6000811461147d576040517f08c379a000000000000000000000000000000000000000000000000000000000815260040161147490612771565b60405180910390fd5b60008473ffffffffffffffffffffffffffffffffffffffff16836006546114a49190612791565b6040516114b0906127f6565b60006040518083038185875af1925050503d80600081146114ed576040519150601f19603f3d011682016040523d82523d6000602084013e6114f2565b606091505b5050905080611536576040517f08c379a000000000000000000000000000000000000000000000000000000000815260040161152d9061287d565b60405180910390fd5b60008311156115ec578373ffffffffffffffffffffffffffffffffffffffff1683604051611563906127f6565b60006040518083038185875af1925050503d80600081146115a0576040519150601f19603f3d011682016040523d82523d6000602084013e6115a5565b606091505b505080915050806115eb576040517f08c379a00000000000000000000000000000000000000000000000000000000081526004016115e29061290f565b60405180910390fd5b5b5050505050565b6001600481905550565b600080600360049054906101000a900463ffffffff16905060008054906101000a900463ffffffff1660026116329190612a62565b63ffffffff168163ffffffff160361167f576040517f08c379a000000000000000000000000000000000000000000000000000000000815260040161167690612b03565b60405180910390fd5b6000819050600084905060008060005b60008054906101000a900463ffffffff1663ffffffff168163ffffffff16101561176d5760006002866116c29190612b23565b63ffffffff1603611704578392506116df8163ffffffff16610b0b565b915083600160008363ffffffff16815260200190815260200160002081905550611724565b600160008263ffffffff1681526020019081526020016000205492508391505b61174f7f0000000000000000000000000000000000000000000000000000000000000000848461087d565b935060028561175e9190612b54565b9450808060010191505061168f565b506000601e6001600360009054906101000a900463ffffffff166117919190612b85565b61179b9190612b23565b905080600360006101000a81548163ffffffff021916908363ffffffff16021790555083600260008363ffffffff168152602001908152602001600020819055506001866117e99190612b85565b600360046101000a81548163ffffffff021916908363ffffffff160217905550859650505050505050919050565b600654341461185b576040517f08c379a000000000000000000000000000000000000000000000000000000000815260040161185290612c2f565b60405180910390fd5b565b6000604051905090565b600080fd5b600080fd5b600080fd5b600080fd5b600080fd5b60008083601f84011261189657611895611871565b5b8235905067ffffffffffffffff8111156118b3576118b2611876565b5b6020830191508360018202830111156118cf576118ce61187b565b5b9250929050565b600080602083850312156118ed576118ec611867565b5b600083013567ffffffffffffffff81111561190b5761190a61186c565b5b61191785828601611880565b92509250509250929050565b600073ffffffffffffffffffffffffffffffffffffffff82169050919050565b6000819050919050565b600061196861196361195e84611923565b611943565b611923565b9050919050565b600061197a8261194d565b9050919050565b600061198c8261196f565b9050919050565b61199c81611981565b82525050565b60006020820190506119b76000830184611993565b92915050565b6000819050919050565b6119d0816119bd565b82525050565b60006020820190506119eb60008301846119c7565b92915050565b600063ffffffff82169050919050565b611a0a816119f1565b82525050565b6000602082019050611a256000830184611a01565b92915050565b6000819050919050565b611a3e81611a2b565b8114611a4957600080fd5b50565b600081359050611a5b81611a35565b92915050565b600060208284031215611a7757611a76611867565b5b6000611a8584828501611a4c565b91505092915050565b60008115159050919050565b611aa381611a8e565b82525050565b6000602082019050611abe6000830184611a9a565b92915050565b6000611acf82611923565b9050919050565b6000611ae182611ac4565b9050919050565b611af181611ad6565b8114611afc57600080fd5b50565b600081359050611b0e81611ae8565b92915050565b600080600060608486031215611b2d57611b2c611867565b5b6000611b3b86828701611aff565b9350506020611b4c86828701611a4c565b9250506040611b5d86828701611a4c565b9150509250925092565b611b7081611a2b565b82525050565b6000602082019050611b8b6000830184611b67565b92915050565b611b9a816119bd565b8114611ba557600080fd5b50565b600081359050611bb781611b91565b92915050565b600060208284031215611bd357611bd2611867565b5b6000611be184828501611ba8565b91505092915050565b6000611bf58261196f565b9050919050565b611c0581611bea565b82525050565b6000602082019050611c206000830184611bfc565b92915050565b611c2f81611ac4565b82525050565b6000602082019050611c4a6000830184611c26565b92915050565b600080fd5b6000601f19601f8301169050919050565b7f4e487b7100000000000000000000000000000000000000000000000000000000600052604160045260246000fd5b611c9e82611c55565b810181811067ffffffffffffffff82111715611cbd57611cbc611c66565b5b80604052505050565b6000611cd061185d565b9050611cdc8282611c95565b919050565b600067ffffffffffffffff821115611cfc57611cfb611c66565b5b611d0582611c55565b9050602081019050919050565b82818337600083830152505050565b6000611d34611d2f84611ce1565b611cc6565b905082815260208101848484011115611d5057611d4f611c50565b5b611d5b848285611d12565b509392505050565b600082601f830112611d7857611d77611871565b5b8135611d88848260208601611d21565b91505092915050565b600060208284031215611da757611da6611867565b5b600082013567ffffffffffffffff811115611dc557611dc461186c565b5b611dd184828501611d63565b91505092915050565b600067ffffffffffffffff821115611df557611df4611c66565b5b611dfe82611c55565b9050602081019050919050565b6000611e1e611e1984611dda565b611cc6565b905082815260208101848484011115611e3a57611e39611c50565b5b611e45848285611d12565b509392505050565b600082601f830112611e6257611e61611871565b5b8135611e72848260208601611e0b565b91505092915050565b6000611e8682611923565b9050919050565b611e9681611e7b565b8114611ea157600080fd5b50565b600081359050611eb381611e8d565b92915050565b600080600080600080600060e0888a031215611ed857611ed7611867565b5b600088013567ffffffffffffffff811115611ef657611ef561186c565b5b611f028a828b01611e4d565b9750506020611f138a828b01611a4c565b9650506040611f248a828b01611a4c565b9550506060611f358a828b01611ea4565b9450506080611f468a828b01611ea4565b93505060a0611f578a828b01611ba8565b92505060c0611f688a828b01611ba8565b91505092959891949750929550565b600082825260208201905092915050565b7f546865206e6f746520686173206265656e20616c7265616479207370656e7400600082015250565b6000611fbe601f83611f77565b9150611fc982611f88565b602082019050919050565b60006020820190508181036000830152611fed81611fb1565b9050919050565b7f43616e6e6f742066696e6420796f7572206d65726b6c6520726f6f7400000000600082015250565b600061202a601c83611f77565b915061203582611ff4565b602082019050919050565b600060208201905081810360008301526120598161201d565b9050919050565b600081519050919050565b600082825260208201905092915050565b60005b8381101561209a57808201518184015260208101905061207f565b60008484015250505050565b60006120b182612060565b6120bb818561206b565b93506120cb81856020860161207c565b6120d481611c55565b840191505092915050565b600060069050919050565b600081905092915050565b6000819050919050565b612108816119bd565b82525050565b600061211a83836120ff565b60208301905092915050565b6000602082019050919050565b61213c816120df565b61214681846120ea565b9250612151826120f5565b8060005b83811015612182578151612169878261210e565b965061217483612126565b925050600181019050612155565b505050505050565b600060e08201905081810360008301526121a481856120a6565b90506121b36020830184612133565b9392505050565b6121c381611a8e565b81146121ce57600080fd5b50565b6000815190506121e0816121ba565b92915050565b6000602082840312156121fc576121fb611867565b5b600061220a848285016121d1565b91505092915050565b7f496e76616c69642077697468647261772070726f6f6600000000000000000000600082015250565b6000612249601683611f77565b915061225482612213565b602082019050919050565b600060208201905081810360008301526122788161223c565b9050919050565b600061228a8261196f565b9050919050565b61229a8161227f565b82525050565b60006060820190506122b56000830186612291565b6122c26020830185611b67565b6122cf60408301846119c7565b949350505050565b7f4e487b7100000000000000000000000000000000000000000000000000000000600052601160045260246000fd5b6000612311826119f1565b915060008203612324576123236122d7565b5b600182039050919050565b7f5f6c6566742073686f756c6420626520696e7369646520746865206669656c64600082015250565b6000612365602083611f77565b91506123708261232f565b602082019050919050565b6000602082019050818103600083015261239481612358565b9050919050565b7f5f72696768742073686f756c6420626520696e7369646520746865206669656c60008201527f6400000000000000000000000000000000000000000000000000000000000000602082015250565b60006123f7602183611f77565b91506124028261239b565b604082019050919050565b60006020820190508181036000830152612426816123ea565b9050919050565b600060408201905061244260008301856119c7565b61244f60208301846119c7565b9392505050565b60008151905061246581611b91565b92915050565b6000806040838503121561248257612481611867565b5b600061249085828601612456565b92505060206124a185828601612456565b9150509250929050565b7f4e487b7100000000000000000000000000000000000000000000000000000000600052601260045260246000fd5b7f496e646578206f7574206f6620626f756e647300000000000000000000000000600082015250565b6000612510601383611f77565b915061251b826124da565b602082019050919050565b6000602082019050818103600083015261253f81612503565b9050919050565b7f4465706f7369742056616c756520666f72207468697320636f6e74726163742060008201527f6d757374206d6174636820302e303120457468657265756d0000000000000000602082015250565b60006125a2603883611f77565b91506125ad82612546565b604082019050919050565b600060208201905081810360008301526125d181612595565b9050919050565b60006040820190506125ed6000830185611a01565b6125fa60208301846119c7565b9392505050565b7f4163636573732064656e69656400000000000000000000000000000000000000600082015250565b6000612637600d83611f77565b915061264282612601565b602082019050919050565b600060208201905081810360008301526126668161262a565b9050919050565b7f4d6573736167652076616c756520697320737570706f73656420746f2062652060008201527f7a65726f20666f722045544820696e7374616e63650000000000000000000000602082015250565b60006126c9603583611f77565b91506126d48261266d565b604082019050919050565b600060208201905081810360008301526126f8816126bc565b9050919050565b7f526566756e642076616c756520697320737570706f73656420746f206265207a60008201527f65726f20666f722045544820696e7374616e6365000000000000000000000000602082015250565b600061275b603483611f77565b9150612766826126ff565b604082019050919050565b6000602082019050818103600083015261278a8161274e565b9050919050565b600061279c826119bd565b91506127a7836119bd565b92508282039050818111156127bf576127be6122d7565b5b92915050565b600081905092915050565b50565b60006127e06000836127c5565b91506127eb826127d0565b600082019050919050565b6000612801826127d3565b9150819050919050565b7f7061796d656e7420746f205f726563697069656e7420646964206e6f7420676f60008201527f2074687275000000000000000000000000000000000000000000000000000000602082015250565b6000612867602583611f77565b91506128728261280b565b604082019050919050565b600060208201905081810360008301526128968161285a565b9050919050565b7f7061796d656e7420746f205f72656c6179657220646964206e6f7420676f207460008201527f6872750000000000000000000000000000000000000000000000000000000000602082015250565b60006128f9602383611f77565b91506129048261289d565b604082019050919050565b60006020820190508181036000830152612928816128ec565b9050919050565b60008160011c9050919050565b6000808291508390505b600185111561298657808604811115612962576129616122d7565b5b60018516156129715780820291505b808102905061297f8561292f565b9450612946565b94509492505050565b60008261299f5760019050612a5b565b816129ad5760009050612a5b565b81600181146129c357600281146129cd576129fc565b6001915050612a5b565b60ff8411156129df576129de6122d7565b5b8360020a9150848211156129f6576129f56122d7565b5b50612a5b565b5060208310610133831016604e8410600b8410161715612a315782820a905083811115612a2c57612a2b6122d7565b5b612a5b565b612a3e848484600161293c565b92509050818404811115612a5557612a546122d7565b5b81810290505b9392505050565b6000612a6d826119f1565b9150612a78836119f1565b9250612a8963ffffffff848461298f565b905092915050565b7f4d65726b6c6520747265652069732066756c6c2e204e6f206d6f7265206c656160008201527f7665732063616e20626520616464656400000000000000000000000000000000602082015250565b6000612aed603083611f77565b9150612af882612a91565b604082019050919050565b60006020820190508181036000830152612b1c81612ae0565b9050919050565b6000612b2e826119f1565b9150612b39836119f1565b925082612b4957612b486124ab565b5b828206905092915050565b6000612b5f826119f1565b9150612b6a836119f1565b925082612b7a57612b796124ab565b5b828204905092915050565b6000612b90826119f1565b9150612b9b836119f1565b9250828201905063ffffffff811115612bb757612bb66122d7565b5b92915050565b7f506c656173652073656e6420606d697844656e6f6d696e6174696f6e6020455460008201527f4820616c6f6e672077697468207472616e73616374696f6e0000000000000000602082015250565b6000612c19603883611f77565b9150612c2482612bbd565b604082019050919050565b60006020820190508181036000830152612c4881612c0c565b905091905056fea2646970667358221220adcf8cc3cd1a781fdb81eb7c31a937494573c07f4f4d938f5535bafefb25120e64736f6c634300081b0033",
  "linkReferences": {},
  "deployedLinkReferences": {}
}