{
  "_format": "hh-sol-artifact-1",
  "contractName": "ETHZK",
  "sourceName": "contracts/zk/ETHZK.sol",
  "abi": [
    {
      "inputs": [
        {
          "internalType": "contract IVerifier",
          "name": "_verifier",
          "type": "address"
        },
        {
          "internalType": "contract IHasher",
          "name": "_hasher",
          "type": "address"
        },
        {
          "internalType": "uint256",
          "name": "_denomination",
          "type": "uint256"
        },
        {
          "internalType": "uint32",
          "name": "_merkleTreeHeight",
          "type": "uint32"
        }
      ],
      "stateMutability": "nonpayable",
      "type": "constructor"
    },
    {
      "inputs": [],
      "name": "ReentrancyGuardReentrantCall",
      "type": "error"
    },
    {
      "anonymous": false,
      "inputs": [
        {
          "indexed": true,
          "internalType": "bytes32",
          "name": "commitment",
          "type": "bytes32"
        },
        {
          "indexed": false,
          "internalType": "uint32",
          "name": "leafIndex",
          "type": "uint32"
        },
        {
          "indexed": false,
          "internalType": "uint256",
          "name": "timestamp",
          "type": "uint256"
        }
      ],
      "name": "DepositEvent",
      "type": "event"
    },
    {
      "anonymous": false,
      "inputs": [
        {
          "indexed": false,
          "internalType": "address",
          "name": "to",
          "type": "address"
        },
        {
          "indexed": false,
          "internalType": "bytes32",
          "name": "nullifierHash",
          "type": "bytes32"
        }
      ],
      "name": "WithdrawEvent",
      "type": "event"
    },
    {
      "inputs": [],
      "name": "Denomination",
      "outputs": [
        {
          "internalType": "uint256",
          "name": "",
          "type": "uint256"
        }
      ],
      "stateMutability": "view",
      "type": "function"
    },
    {
      "inputs": [],
      "name": "FIELD_SIZE",
      "outputs": [
        {
          "internalType": "uint256",
          "name": "",
          "type": "uint256"
        }
      ],
      "stateMutability": "view",
      "type": "function"
    },
    {
      "inputs": [],
      "name": "Oracle",
      "outputs": [
        {
          "internalType": "address",
          "name": "",
          "type": "address"
        }
      ],
      "stateMutability": "view",
      "type": "function"
    },
    {
      "inputs": [],
      "name": "ROOT_HISTORY_SIZE",
      "outputs": [
        {
          "internalType": "uint32",
          "name": "",
          "type": "uint32"
        }
      ],
      "stateMutability": "view",
      "type": "function"
    },
    {
      "inputs": [
        {
          "internalType": "bytes",
          "name": "Proof",
          "type": "bytes"
        },
        {
          "internalType": "address",
          "name": "Destination",
          "type": "address"
        }
      ],
      "name": "RelayerWithdraw",
      "outputs": [],
      "stateMutability": "nonpayable",
      "type": "function"
    },
    {
      "inputs": [
        {
          "internalType": "bytes32",
          "name": "Commitment",
          "type": "bytes32"
        }
      ],
      "name": "USERDeposit",
      "outputs": [],
      "stateMutability": "payable",
      "type": "function"
    },
    {
      "inputs": [
        {
          "internalType": "bytes",
          "name": "Proof",
          "type": "bytes"
        }
      ],
      "name": "USERWithdraw",
      "outputs": [],
      "stateMutability": "nonpayable",
      "type": "function"
    },
    {
      "inputs": [
        {
          "internalType": "string",
          "name": "Variable",
          "type": "string"
        }
      ],
      "name": "UpdateData",
      "outputs": [],
      "stateMutability": "nonpayable",
      "type": "function"
    },
    {
      "inputs": [],
      "name": "ZERO_VALUE",
      "outputs": [
        {
          "internalType": "uint256",
          "name": "",
          "type": "uint256"
        }
      ],
      "stateMutability": "view",
      "type": "function"
    },
    {
      "inputs": [],
      "name": "currentRootIndex",
      "outputs": [
        {
          "internalType": "uint32",
          "name": "",
          "type": "uint32"
        }
      ],
      "stateMutability": "view",
      "type": "function"
    },
    {
      "inputs": [
        {
          "internalType": "uint256",
          "name": "",
          "type": "uint256"
        }
      ],
      "name": "filledSubtrees",
      "outputs": [
        {
          "internalType": "bytes32",
          "name": "",
          "type": "bytes32"
        }
      ],
      "stateMutability": "view",
      "type": "function"
    },
    {
      "inputs": [],
      "name": "getLastRoot",
      "outputs": [
        {
          "internalType": "bytes32",
          "name": "",
          "type": "bytes32"
        }
      ],
      "stateMutability": "view",
      "type": "function"
    },
    {
      "inputs": [
        {
          "internalType": "contract IHasher",
          "name": "_hasher",
          "type": "address"
        },
        {
          "internalType": "bytes32",
          "name": "_left",
          "type": "bytes32"
        },
        {
          "internalType": "bytes32",
          "name": "_right",
          "type": "bytes32"
        }
      ],
      "name": "hashLeftRight",
      "outputs": [
        {
          "internalType": "bytes32",
          "name": "",
          "type": "bytes32"
        }
      ],
      "stateMutability": "pure",
      "type": "function"
    },
    {
      "inputs": [],
      "name": "hasher",
      "outputs": [
        {
          "internalType": "contract IHasher",
          "name": "",
          "type": "address"
        }
      ],
      "stateMutability": "view",
      "type": "function"
    },
    {
      "inputs": [
        {
          "internalType": "bytes32",
          "name": "_root",
          "type": "bytes32"
        }
      ],
      "name": "isKnownRoot",
      "outputs": [
        {
          "internalType": "bool",
          "name": "",
          "type": "bool"
        }
      ],
      "stateMutability": "view",
      "type": "function"
    },
    {
      "inputs": [],
      "name": "levels",
      "outputs": [
        {
          "internalType": "uint32",
          "name": "",
          "type": "uint32"
        }
      ],
      "stateMutability": "view",
      "type": "function"
    },
    {
      "inputs": [],
      "name": "merkle",
      "outputs": [
        {
          "internalType": "bytes32",
          "name": "",
          "type": "bytes32"
        }
      ],
      "stateMutability": "view",
      "type": "function"
    },
    {
      "inputs": [],
      "name": "nextIndex",
      "outputs": [
        {
          "internalType": "uint32",
          "name": "",
          "type": "uint32"
        }
      ],
      "stateMutability": "view",
      "type": "function"
    },
    {
      "inputs": [
        {
          "internalType": "uint256",
          "name": "",
          "type": "uint256"
        }
      ],
      "name": "roots",
      "outputs": [
        {
          "internalType": "bytes32",
          "name": "",
          "type": "bytes32"
        }
      ],
      "stateMutability": "view",
      "type": "function"
    },
    {
      "inputs": [],
      "name": "verifier",
      "outputs": [
        {
          "internalType": "contract IVerifier",
          "name": "",
          "type": "address"
        }
      ],
      "stateMutability": "view",
      "type": "function"
    },
    {
      "inputs": [
        {
          "internalType": "uint256",
          "name": "i",
          "type": "uint256"
        }
      ],
      "name": "zeros",
      "outputs": [
        {
          "internalType": "bytes32",
          "name": "",
          "type": "bytes32"
        }
      ],
      "stateMutability": "pure",
      "type": "function"
    }
  ],
  "bytecode": "0x60c06040526000600360006101000a81548163ffffffff021916908363ffffffff1602179055506000600360046101000a81548163ffffffff021916908363ffffffff16021790555034801561005457600080fd5b506040516140db3803806140db83398181016040528101906100769190610a4a565b83838383808360008263ffffffff16116100c5576040517f08c379a00000000000000000000000000000000000000000000000000000000081526004016100bc90610b34565b60405180910390fd5b60208263ffffffff161061010e576040517f08c379a000000000000000000000000000000000000000000000000000000000815260040161010590610ba0565b60405180910390fd5b816000806101000a81548163ffffffff021916908363ffffffff1602179055508073ffffffffffffffffffffffffffffffffffffffff1660808173ffffffffffffffffffffffffffffffffffffffff168152505060005b8263ffffffff168163ffffffff1610156101b85761018e8163ffffffff1661028660201b60201c565b600160008363ffffffff168152602001908152602001600020819055508080600101915050610165565b506101da6001836101c99190610bef565b63ffffffff1661028660201b60201c565b6002600080815260200190815260200160002081905550505060016004819055506000821161023e576040517f08c379a000000000000000000000000000000000000000000000000000000000815260040161023590610c99565b60405180910390fd5b8373ffffffffffffffffffffffffffffffffffffffff1660a08173ffffffffffffffffffffffffffffffffffffffff1681525050816006819055505050505050505050610d25565b60008082036102ba577f2fe54c60d3acabf3343a35b6eba15db4821b340f76e741e2249685ed4899af6c60001b9050610920565b600182036102ed577f256a6135777eee2fd26f54b8b7037a25439d5235caee224154186d2b8a52e31d60001b9050610920565b60028203610320577f1151949895e82ab19924de92c40a3d6f7bcb60d92b00504b8199613683f0c20060001b9050610920565b60038203610353577f20121ee811489ff8d61f09fb89e313f14959a0f28bb428a20dba6b0b068b3bdb60001b9050610920565b60048203610386577f0a89ca6ffa14cc462cfedb842c30ed221a50a3d6bf022a6a57dc82ab24c157c960001b9050610920565b600582036103b9577f24ca05c2b5cd42e890d6be94c68d0689f4f21c9cec9c0f13fe41d566dfb5495960001b9050610920565b600682036103ec577f1ccb97c932565a92c60156bdba2d08f3bf1377464e025cee765679e604a7315c60001b9050610920565b6007820361041f577f19156fbd7d1a8bf5cba8909367de1b624534ebab4f0f79e003bccdd1b182bdb460001b9050610920565b60088203610452577f261af8c1f0912e465744641409f622d466c3920ac6e5ff37e36604cb11dfff8060001b9050610920565b60098203610484577e58459724ff6ca5a1652fcbc3e82b93895cf08e975b19beab3f54c217d1c00760001b9050610920565b600a82036104b7577f1f04ef20dee48d39984d8eabe768a70eafa6310ad20849d4573c3c40c2ad1e3060001b9050610920565b600b82036104ea577f1bea3dec5dab51567ce7e200a30f7ba6d4276aeaa53e2686f962a46c66d511e560001b9050610920565b600c820361051d577f0ee0f941e2da4b9e31c3ca97a40d8fa9ce68d97c084177071b3cb46cd3372f0f60001b9050610920565b600d8203610550577f1ca9503e8935884501bbaf20be14eb4c46b89772c97b96e3b2ebf3a36a948bbd60001b9050610920565b600e8203610583577f133a80e30697cd55d8f7d4b0965b7be24057ba5dc3da898ee2187232446cb10860001b9050610920565b600f82036105b6577f13e6d8fc88839ed76e182c2a779af5b2c0da9dd18c90427a644f7e148a6253b660001b9050610920565b601082036105e9577f1eb16b057a477f4bc8f572ea6bee39561098f78f15bfb3699dcbb7bd8db6185460001b9050610920565b6011820361061c577f0da2cb16a1ceaabf1c16b838f7a9e3f2a3a3088d9e0a6debaa748114620696ea60001b9050610920565b6012820361064f577f24a3b3d822420b14b5d8cb6c28a574f01e98ea9e940551d2ebd75cee12649f9d60001b9050610920565b60138203610682577f198622acbd783d1b0d9064105b1fc8e4d8889de95c4c519b3f635809fe6afc0560001b9050610920565b601482036106b5577f29d7ed391256ccc3ea596c86e933b89ff339d25ea8ddced975ae2fe30b5296d460001b9050610920565b601582036106e8577f19be59f2f0413ce78c0c3703a3a5451b1d7f39629fa33abd11548a76065b296760001b9050610920565b6016820361071b577f1ff3f61797e538b70e619310d33f2a063e7eb59104e112e95738da1254dc345360001b9050610920565b6017820361074e577f10c16ae9959cf8358980d9dd9616e48228737310a10e2b6b731c1a548f036c4860001b9050610920565b60188203610781577f0ba433a63174a90ac20992e75e3095496812b652685b5e1a2eae0b1bf4e8fcd160001b9050610920565b601982036107b4577f019ddb9df2bc98d987d0dfeca9d2b643deafab8f7036562e627c3667266a044c60001b9050610920565b601a82036107e7577f2d3c88b23175c5a5565db928414c66d1912b11acf974b2e644caaac04739ce9960001b9050610920565b601b820361081a577f2eab55f6ae4e66e32c5189eed5c470840863445760f5ed7e7b69b2a62600f35460001b9050610920565b601c820361084c577e2df37a2642621802383cf952bf4dd1f32e05433beeb1fd41031fb7eace979d60001b9050610920565b601d820361087f577f104aeb41435db66c3e62feccc1d6f5d98d0a0ed75d1374db457cf462e3a1f42760001b9050610920565b601e82036108b2577f1f3c6fd858e9a7d4b0d1f38e256a09d81d5a5e3c963987e2d4b814cfab7c6ebb60001b9050610920565b601f82036108e5577f2c7a07d20dff79d01fecedc1134284a8d08436606c93693b67e333f671bf69cc60001b9050610920565b6040517f08c379a000000000000000000000000000000000000000000000000000000000815260040161091790610d05565b60405180910390fd5b919050565b600080fd5b600073ffffffffffffffffffffffffffffffffffffffff82169050919050565b60006109558261092a565b9050919050565b60006109678261094a565b9050919050565b6109778161095c565b811461098257600080fd5b50565b6000815190506109948161096e565b92915050565b60006109a58261094a565b9050919050565b6109b58161099a565b81146109c057600080fd5b50565b6000815190506109d2816109ac565b92915050565b6000819050919050565b6109eb816109d8565b81146109f657600080fd5b50565b600081519050610a08816109e2565b92915050565b600063ffffffff82169050919050565b610a2781610a0e565b8114610a3257600080fd5b50565b600081519050610a4481610a1e565b92915050565b60008060008060808587031215610a6457610a63610925565b5b6000610a7287828801610985565b9450506020610a83878288016109c3565b9350506040610a94878288016109f9565b9250506060610aa587828801610a35565b91505092959194509250565b600082825260208201905092915050565b7f5f6c6576656c732073686f756c642062652067726561746572207468616e207a60008201527f65726f0000000000000000000000000000000000000000000000000000000000602082015250565b6000610b1e602383610ab1565b9150610b2982610ac2565b604082019050919050565b60006020820190508181036000830152610b4d81610b11565b9050919050565b7f5f6c6576656c732073686f756c64206265206c657373207468616e2033320000600082015250565b6000610b8a601e83610ab1565b9150610b9582610b54565b602082019050919050565b60006020820190508181036000830152610bb981610b7d565b9050919050565b7f4e487b7100000000000000000000000000000000000000000000000000000000600052601160045260246000fd5b6000610bfa82610a0e565b9150610c0583610a0e565b9250828203905063ffffffff811115610c2157610c20610bc0565b5b92915050565b7f64656e6f6d696e6174696f6e2073686f756c642062652067726561746572207460008201527f68616e2030000000000000000000000000000000000000000000000000000000602082015250565b6000610c83602583610ab1565b9150610c8e82610c27565b604082019050919050565b60006020820190508181036000830152610cb281610c76565b9050919050565b7f496e646578206f7574206f6620626f756e647300000000000000000000000000600082015250565b6000610cef601383610ab1565b9150610cfa82610cb9565b602082019050919050565b60006020820190508181036000830152610d1e81610ce2565b9050919050565b60805160a05161337c610d5f600039600081816104fd015281816105fa015261089501526000818161161e0152611bbd015261337c6000f3fe60806040526004361061012a5760003560e01c8063c2b40ae4116100ab578063ec7329591161006f578063ec732959146103e9578063ed33639f14610414578063f178e47c1461043f578063f24a534e1461047c578063f68065a4146104a7578063fc7e9c6f146104d05761012a565b8063c2b40ae4146102fd578063c584b9b51461033a578063cd87a3b414610365578063e829558814610390578063ea3394d2146103cd5761012a565b80636d9833e3116100f25780636d9833e314610202578063808fe6a11461023f5780638ea3099e1461026a57806390eeb02b146102a7578063ba70f757146102d25761012a565b80632b7ac3f31461012f578063414a37ba1461015a5780634c2d3629146101855780634d160efa146101ae5780634ecf518b146101d7575b600080fd5b34801561013b57600080fd5b506101446104fb565b6040516101519190611d70565b60405180910390f35b34801561016657600080fd5b5061016f61051f565b60405161017c9190611da4565b60405180910390f35b34801561019157600080fd5b506101ac60048036038101906101a79190611e76565b610543565b005b3480156101ba57600080fd5b506101d560048036038101906101d09190611ed6565b610876565b005b3480156101e357600080fd5b506101ec610ada565b6040516101f99190611f42565b60405180910390f35b34801561020e57600080fd5b5061022960048036038101906102249190611f93565b610aee565b6040516102369190611fdb565b60405180910390f35b34801561024b57600080fd5b50610254610b8b565b6040516102619190611da4565b60405180910390f35b34801561027657600080fd5b50610291600480360381019061028c9190612034565b610b91565b60405161029e9190612096565b60405180910390f35b3480156102b357600080fd5b506102bc610db9565b6040516102c99190611f42565b60405180910390f35b3480156102de57600080fd5b506102e7610dcf565b6040516102f49190612096565b60405180910390f35b34801561030957600080fd5b50610324600480360381019061031f91906120dd565b610e02565b6040516103319190612096565b60405180910390f35b34801561034657600080fd5b5061034f610e1a565b60405161035c9190612096565b60405180910390f35b34801561037157600080fd5b5061037a610e20565b6040516103879190611f42565b60405180910390f35b34801561039c57600080fd5b506103b760048036038101906103b291906120dd565b610e25565b6040516103c49190612096565b60405180910390f35b6103e760048036038101906103e29190611f93565b6114c4565b005b3480156103f557600080fd5b506103fe6115f8565b60405161040b9190611da4565b60405180910390f35b34801561042057600080fd5b5061042961161c565b604051610436919061212b565b60405180910390f35b34801561044b57600080fd5b50610466600480360381019061046191906120dd565b611640565b6040516104739190612096565b60405180910390f35b34801561048857600080fd5b50610491611658565b60405161049e9190612155565b60405180910390f35b3480156104b357600080fd5b506104ce60048036038101906104c991906122b1565b61167e565b005b3480156104dc57600080fd5b506104e5611711565b6040516104f29190611f42565b60405180910390f35b7f000000000000000000000000000000000000000000000000000000000000000081565b7f30644e72e131a029b85045b68181585d2833e84879b9709143e1f593f000000181565b61054b611727565b600560009054906101000a900473ffffffffffffffffffffffffffffffffffffffff1673ffffffffffffffffffffffffffffffffffffffff163373ffffffffffffffffffffffffffffffffffffffff16146105db576040517f08c379a00000000000000000000000000000000000000000000000000000000081526004016105d290612357565b60405180910390fd5b60008060008086868101906105f091906124d9565b93509350935093507f000000000000000000000000000000000000000000000000000000000000000073ffffffffffffffffffffffffffffffffffffffff1663f5c9d69e858585856040518563ffffffff1660e01b815260040161065794939291906126eb565b602060405180830381865afa158015610674573d6000803e3d6000fd5b505050506040513d601f19601f82011682018060405250810190610698919061275e565b6106d7576040517f08c379a00000000000000000000000000000000000000000000000000000000081526004016106ce906127d7565b60405180910390fd5b600a6000826001600281106106ef576106ee6127f7565b5b602002015160001b815260200190815260200160002060009054906101000a900460ff1615610753576040517f08c379a000000000000000000000000000000000000000000000000000000000815260040161074a90612898565b60405180910390fd5b6107778160006002811061076a576107696127f7565b5b602002015160001b610aee565b6107b6576040517f08c379a00000000000000000000000000000000000000000000000000000000081526004016107ad90612904565b60405180910390fd5b6001600a6000836001600281106107d0576107cf6127f7565b5b602002015160001b815260200190815260200160002060006101000a81548160ff0219169083151502179055506000806001905061080f87838361176d565b7fa4686f775721f0a967a53c2f4b2c217c2273ae626114079908aaa39e56b062e28784600160028110610845576108446127f7565b5b602002015160001b60405161085b929190612924565b60405180910390a1505050505050610871611a87565b505050565b600080600080858581019061088b91906124d9565b93509350935093507f000000000000000000000000000000000000000000000000000000000000000073ffffffffffffffffffffffffffffffffffffffff1663f5c9d69e858585856040518563ffffffff1660e01b81526004016108f294939291906126eb565b602060405180830381865afa15801561090f573d6000803e3d6000fd5b505050506040513d601f19601f82011682018060405250810190610933919061275e565b610972576040517f08c379a0000000000000000000000000000000000000000000000000000000008152600401610969906127d7565b60405180910390fd5b600081600160028110610988576109876127f7565b5b602002015160001b90506000826000600281106109a8576109a76127f7565b5b602002015160001b9050600a600083815260200190815260200160002060009054906101000a900460ff1615610a13576040517f08c379a0000000000000000000000000000000000000000000000000000000008152600401610a0a90612898565b60405180910390fd5b610a1c81610aee565b610a5b576040517f08c379a0000000000000000000000000000000000000000000000000000000008152600401610a5290612904565b60405180910390fd5b6001600a600084815260200190815260200160002060006101000a81548160ff021916908315150217905550600080610a9533838361176d565b7fa4686f775721f0a967a53c2f4b2c217c2273ae626114079908aaa39e56b062e23385604051610ac6929190612924565b60405180910390a150505050505050505050565b60008054906101000a900463ffffffff1681565b60008060001b8203610b035760009050610b86565b6000600360009054906101000a900463ffffffff16905060008190505b600260008263ffffffff168152602001908152602001600020548403610b4b57600192505050610b86565b60008163ffffffff1603610b5e57601e90505b8080610b699061297c565b9150508163ffffffff168163ffffffff1603610b20576000925050505b919050565b60065481565b60007f30644e72e131a029b85045b68181585d2833e84879b9709143e1f593f00000018360001c10610bf8576040517f08c379a0000000000000000000000000000000000000000000000000000000008152600401610bef906129f1565b60405180910390fd5b7f30644e72e131a029b85045b68181585d2833e84879b9709143e1f593f00000018260001c10610c5d576040517f08c379a0000000000000000000000000000000000000000000000000000000008152600401610c5490612a83565b60405180910390fd5b60008360001c90506000808673ffffffffffffffffffffffffffffffffffffffff16633f1a11878484846040518463ffffffff1660e01b8152600401610ca593929190612aa3565b6040805180830381865afa158015610cc1573d6000803e3d6000fd5b505050506040513d601f19601f82011682018060405250810190610ce59190612aef565b80935081945050507f30644e72e131a029b85045b68181585d2833e84879b9709143e1f593f000000180610d1c57610d1b612b2f565b5b8560001c840892508673ffffffffffffffffffffffffffffffffffffffff16633f1a11878484846040518463ffffffff1660e01b8152600401610d6193929190612aa3565b6040805180830381865afa158015610d7d573d6000803e3d6000fd5b505050506040513d601f19601f82011682018060405250810190610da19190612aef565b80935081945050508260001b93505050509392505050565b600360009054906101000a900463ffffffff1681565b600060026000600360009054906101000a900463ffffffff1663ffffffff16815260200190815260200160002054905090565b60026020528060005260406000206000915090505481565b60095481565b601e81565b6000808203610e59577f2fe54c60d3acabf3343a35b6eba15db4821b340f76e741e2249685ed4899af6c60001b90506114bf565b60018203610e8c577f256a6135777eee2fd26f54b8b7037a25439d5235caee224154186d2b8a52e31d60001b90506114bf565b60028203610ebf577f1151949895e82ab19924de92c40a3d6f7bcb60d92b00504b8199613683f0c20060001b90506114bf565b60038203610ef2577f20121ee811489ff8d61f09fb89e313f14959a0f28bb428a20dba6b0b068b3bdb60001b90506114bf565b60048203610f25577f0a89ca6ffa14cc462cfedb842c30ed221a50a3d6bf022a6a57dc82ab24c157c960001b90506114bf565b60058203610f58577f24ca05c2b5cd42e890d6be94c68d0689f4f21c9cec9c0f13fe41d566dfb5495960001b90506114bf565b60068203610f8b577f1ccb97c932565a92c60156bdba2d08f3bf1377464e025cee765679e604a7315c60001b90506114bf565b60078203610fbe577f19156fbd7d1a8bf5cba8909367de1b624534ebab4f0f79e003bccdd1b182bdb460001b90506114bf565b60088203610ff1577f261af8c1f0912e465744641409f622d466c3920ac6e5ff37e36604cb11dfff8060001b90506114bf565b60098203611023577e58459724ff6ca5a1652fcbc3e82b93895cf08e975b19beab3f54c217d1c00760001b90506114bf565b600a8203611056577f1f04ef20dee48d39984d8eabe768a70eafa6310ad20849d4573c3c40c2ad1e3060001b90506114bf565b600b8203611089577f1bea3dec5dab51567ce7e200a30f7ba6d4276aeaa53e2686f962a46c66d511e560001b90506114bf565b600c82036110bc577f0ee0f941e2da4b9e31c3ca97a40d8fa9ce68d97c084177071b3cb46cd3372f0f60001b90506114bf565b600d82036110ef577f1ca9503e8935884501bbaf20be14eb4c46b89772c97b96e3b2ebf3a36a948bbd60001b90506114bf565b600e8203611122577f133a80e30697cd55d8f7d4b0965b7be24057ba5dc3da898ee2187232446cb10860001b90506114bf565b600f8203611155577f13e6d8fc88839ed76e182c2a779af5b2c0da9dd18c90427a644f7e148a6253b660001b90506114bf565b60108203611188577f1eb16b057a477f4bc8f572ea6bee39561098f78f15bfb3699dcbb7bd8db6185460001b90506114bf565b601182036111bb577f0da2cb16a1ceaabf1c16b838f7a9e3f2a3a3088d9e0a6debaa748114620696ea60001b90506114bf565b601282036111ee577f24a3b3d822420b14b5d8cb6c28a574f01e98ea9e940551d2ebd75cee12649f9d60001b90506114bf565b60138203611221577f198622acbd783d1b0d9064105b1fc8e4d8889de95c4c519b3f635809fe6afc0560001b90506114bf565b60148203611254577f29d7ed391256ccc3ea596c86e933b89ff339d25ea8ddced975ae2fe30b5296d460001b90506114bf565b60158203611287577f19be59f2f0413ce78c0c3703a3a5451b1d7f39629fa33abd11548a76065b296760001b90506114bf565b601682036112ba577f1ff3f61797e538b70e619310d33f2a063e7eb59104e112e95738da1254dc345360001b90506114bf565b601782036112ed577f10c16ae9959cf8358980d9dd9616e48228737310a10e2b6b731c1a548f036c4860001b90506114bf565b60188203611320577f0ba433a63174a90ac20992e75e3095496812b652685b5e1a2eae0b1bf4e8fcd160001b90506114bf565b60198203611353577f019ddb9df2bc98d987d0dfeca9d2b643deafab8f7036562e627c3667266a044c60001b90506114bf565b601a8203611386577f2d3c88b23175c5a5565db928414c66d1912b11acf974b2e644caaac04739ce9960001b90506114bf565b601b82036113b9577f2eab55f6ae4e66e32c5189eed5c470840863445760f5ed7e7b69b2a62600f35460001b90506114bf565b601c82036113eb577e2df37a2642621802383cf952bf4dd1f32e05433beeb1fd41031fb7eace979d60001b90506114bf565b601d820361141e577f104aeb41435db66c3e62feccc1d6f5d98d0a0ed75d1374db457cf462e3a1f42760001b90506114bf565b601e8203611451577f1f3c6fd858e9a7d4b0d1f38e256a09d81d5a5e3c963987e2d4b814cfab7c6ebb60001b90506114bf565b601f8203611484577f2c7a07d20dff79d01fecedc1134284a8d08436606c93693b67e333f671bf69cc60001b90506114bf565b6040517f08c379a00000000000000000000000000000000000000000000000000000000081526004016114b690612baa565b60405180910390fd5b919050565b6114cc611727565b6006543414611510576040517f08c379a000000000000000000000000000000000000000000000000000000000815260040161150790612c3c565b60405180910390fd5b600b600082815260200190815260200160002060009054906101000a900460ff1615611571576040517f08c379a000000000000000000000000000000000000000000000000000000000815260040161156890612cce565b60405180910390fd5b600061157c82611a91565b90506001600b600084815260200190815260200160002060006101000a81548160ff0219169083151502179055506115b2611cab565b817f1a16ad198d1b9dab85897102e5032021a5f59b1ebdaf7c92538ab1c88a69ea1282426040516115e4929190612cee565b60405180910390a2506115f5611a87565b50565b7f2fe54c60d3acabf3343a35b6eba15db4821b340f76e741e2249685ed4899af6c81565b7f000000000000000000000000000000000000000000000000000000000000000081565b60016020528060005260406000206000915090505481565b600560009054906101000a900473ffffffffffffffffffffffffffffffffffffffff1681565b600560009054906101000a900473ffffffffffffffffffffffffffffffffffffffff1673ffffffffffffffffffffffffffffffffffffffff163373ffffffffffffffffffffffffffffffffffffffff161461170e576040517f08c379a000000000000000000000000000000000000000000000000000000000815260040161170590612357565b60405180910390fd5b50565b600360049054906101000a900463ffffffff1681565b600260045403611763576040517f3ee5aeb500000000000000000000000000000000000000000000000000000000815260040160405180910390fd5b6002600481905550565b600034146117b0576040517f08c379a00000000000000000000000000000000000000000000000000000000081526004016117a790612d89565b60405180910390fd5b80156119b257600073ffffffffffffffffffffffffffffffffffffffff168273ffffffffffffffffffffffffffffffffffffffff1603611825576040517f08c379a000000000000000000000000000000000000000000000000000000000815260040161181c90612df5565b60405180910390fd5b60006103e860065460026118399190612e15565b6118439190612e57565b905060008373ffffffffffffffffffffffffffffffffffffffff168260065461186c9190612e88565b60405161187890612eed565b60006040518083038185875af1925050503d80600081146118b5576040519150601f19603f3d011682016040523d82523d6000602084013e6118ba565b606091505b50509050806118fe576040517f08c379a00000000000000000000000000000000000000000000000000000000081526004016118f590612f74565b60405180910390fd5b60008473ffffffffffffffffffffffffffffffffffffffff168360405161192490612eed565b60006040518083038185875af1925050503d8060008114611961576040519150601f19603f3d011682016040523d82523d6000602084013e611966565b606091505b50509050806119aa576040517f08c379a00000000000000000000000000000000000000000000000000000000081526004016119a190612f74565b60405180910390fd5b505050611a82565b60006103e86006546119c49190612e57565b905060008473ffffffffffffffffffffffffffffffffffffffff16826006546119ed9190612e88565b6040516119f990612eed565b60006040518083038185875af1925050503d8060008114611a36576040519150601f19603f3d011682016040523d82523d6000602084013e611a3b565b606091505b5050905080611a7f576040517f08c379a0000000000000000000000000000000000000000000000000000000008152600401611a7690613006565b60405180910390fd5b50505b505050565b6001600481905550565b600080600360049054906101000a900463ffffffff16905060008054906101000a900463ffffffff166002611ac69190613159565b63ffffffff168163ffffffff1603611b13576040517f08c379a0000000000000000000000000000000000000000000000000000000008152600401611b0a906131fa565b60405180910390fd5b6000819050600084905060008060005b60008054906101000a900463ffffffff1663ffffffff168163ffffffff161015611c01576000600286611b56919061321a565b63ffffffff1603611b9857839250611b738163ffffffff16610e25565b915083600160008363ffffffff16815260200190815260200160002081905550611bb8565b600160008263ffffffff1681526020019081526020016000205492508391505b611be37f00000000000000000000000000000000000000000000000000000000000000008484610b91565b9350600285611bf2919061324b565b94508080600101915050611b23565b506000601e6001600360009054906101000a900463ffffffff16611c25919061327c565b611c2f919061321a565b905080600360006101000a81548163ffffffff021916908363ffffffff16021790555083600260008363ffffffff16815260200190815260200160002081905550600186611c7d919061327c565b600360046101000a81548163ffffffff021916908363ffffffff160217905550859650505050505050919050565b6006543414611cef576040517f08c379a0000000000000000000000000000000000000000000000000000000008152600401611ce690613326565b60405180910390fd5b565b600073ffffffffffffffffffffffffffffffffffffffff82169050919050565b6000819050919050565b6000611d36611d31611d2c84611cf1565b611d11565b611cf1565b9050919050565b6000611d4882611d1b565b9050919050565b6000611d5a82611d3d565b9050919050565b611d6a81611d4f565b82525050565b6000602082019050611d856000830184611d61565b92915050565b6000819050919050565b611d9e81611d8b565b82525050565b6000602082019050611db96000830184611d95565b92915050565b6000604051905090565b600080fd5b600080fd5b600080fd5b600080fd5b600080fd5b60008083601f840112611df857611df7611dd3565b5b8235905067ffffffffffffffff811115611e1557611e14611dd8565b5b602083019150836001820283011115611e3157611e30611ddd565b5b9250929050565b6000611e4382611cf1565b9050919050565b611e5381611e38565b8114611e5e57600080fd5b50565b600081359050611e7081611e4a565b92915050565b600080600060408486031215611e8f57611e8e611dc9565b5b600084013567ffffffffffffffff811115611ead57611eac611dce565b5b611eb986828701611de2565b93509350506020611ecc86828701611e61565b9150509250925092565b60008060208385031215611eed57611eec611dc9565b5b600083013567ffffffffffffffff811115611f0b57611f0a611dce565b5b611f1785828601611de2565b92509250509250929050565b600063ffffffff82169050919050565b611f3c81611f23565b82525050565b6000602082019050611f576000830184611f33565b92915050565b6000819050919050565b611f7081611f5d565b8114611f7b57600080fd5b50565b600081359050611f8d81611f67565b92915050565b600060208284031215611fa957611fa8611dc9565b5b6000611fb784828501611f7e565b91505092915050565b60008115159050919050565b611fd581611fc0565b82525050565b6000602082019050611ff06000830184611fcc565b92915050565b600061200182611e38565b9050919050565b61201181611ff6565b811461201c57600080fd5b50565b60008135905061202e81612008565b92915050565b60008060006060848603121561204d5761204c611dc9565b5b600061205b8682870161201f565b935050602061206c86828701611f7e565b925050604061207d86828701611f7e565b9150509250925092565b61209081611f5d565b82525050565b60006020820190506120ab6000830184612087565b92915050565b6120ba81611d8b565b81146120c557600080fd5b50565b6000813590506120d7816120b1565b92915050565b6000602082840312156120f3576120f2611dc9565b5b6000612101848285016120c8565b91505092915050565b600061211582611d3d565b9050919050565b6121258161210a565b82525050565b6000602082019050612140600083018461211c565b92915050565b61214f81611e38565b82525050565b600060208201905061216a6000830184612146565b92915050565b600080fd5b6000601f19601f8301169050919050565b7f4e487b7100000000000000000000000000000000000000000000000000000000600052604160045260246000fd5b6121be82612175565b810181811067ffffffffffffffff821117156121dd576121dc612186565b5b80604052505050565b60006121f0611dbf565b90506121fc82826121b5565b919050565b600067ffffffffffffffff82111561221c5761221b612186565b5b61222582612175565b9050602081019050919050565b82818337600083830152505050565b600061225461224f84612201565b6121e6565b9050828152602081018484840111156122705761226f612170565b5b61227b848285612232565b509392505050565b600082601f83011261229857612297611dd3565b5b81356122a8848260208601612241565b91505092915050565b6000602082840312156122c7576122c6611dc9565b5b600082013567ffffffffffffffff8111156122e5576122e4611dce565b5b6122f184828501612283565b91505092915050565b600082825260208201905092915050565b7f4163636573732064656e69656400000000000000000000000000000000000000600082015250565b6000612341600d836122fa565b915061234c8261230b565b602082019050919050565b6000602082019050818103600083015261237081612334565b9050919050565b600067ffffffffffffffff82111561239257612391612186565b5b602082029050919050565b60006123b06123ab84612377565b6121e6565b905080602084028301858111156123ca576123c9611ddd565b5b835b818110156123f357806123df88826120c8565b8452602084019350506020810190506123cc565b5050509392505050565b600082601f83011261241257612411611dd3565b5b600261241f84828561239d565b91505092915050565b600067ffffffffffffffff82111561244357612442612186565b5b602082029050919050565b600061246161245c84612428565b6121e6565b9050806040840283018581111561247b5761247a611ddd565b5b835b818110156124a4578061249088826123fd565b84526020840193505060408101905061247d565b5050509392505050565b600082601f8301126124c3576124c2611dd3565b5b60026124d084828561244e565b91505092915050565b60008060008061014085870312156124f4576124f3611dc9565b5b6000612502878288016123fd565b9450506040612513878288016124ae565b93505060c0612524878288016123fd565b925050610100612536878288016123fd565b91505092959194509250565b600060029050919050565b600081905092915050565b6000819050919050565b61256b81611d8b565b82525050565b600061257d8383612562565b60208301905092915050565b6000602082019050919050565b61259f81612542565b6125a9818461254d565b92506125b482612558565b8060005b838110156125e55781516125cc8782612571565b96506125d783612589565b9250506001810190506125b8565b505050505050565b600060029050919050565b600081905092915050565b6000819050919050565b600081905092915050565b61262181612542565b61262b818461260d565b925061263682612558565b8060005b8381101561266757815161264e8782612571565b965061265983612589565b92505060018101905061263a565b505050505050565b600061267b8383612618565b60408301905092915050565b6000602082019050919050565b61269d816125ed565b6126a781846125f8565b92506126b282612603565b8060005b838110156126e35781516126ca878261266f565b96506126d583612687565b9250506001810190506126b6565b505050505050565b6000610140820190506127016000830187612596565b61270e6040830186612694565b61271b60c0830185612596565b612729610100830184612596565b95945050505050565b61273b81611fc0565b811461274657600080fd5b50565b60008151905061275881612732565b92915050565b60006020828403121561277457612773611dc9565b5b600061278284828501612749565b91505092915050565b7f496e76616c69642077697468647261772070726f6f6600000000000000000000600082015250565b60006127c16016836122fa565b91506127cc8261278b565b602082019050919050565b600060208201905081810360008301526127f0816127b4565b9050919050565b7f4e487b7100000000000000000000000000000000000000000000000000000000600052603260045260246000fd5b7f54686973206465706f7369742068617320616c7265616479206265656e20737060008201527f656e740000000000000000000000000000000000000000000000000000000000602082015250565b60006128826023836122fa565b915061288d82612826565b604082019050919050565b600060208201905081810360008301526128b181612875565b9050919050565b7f43616e6e6f742066696e6420796f7572206d65726b6c6520726f6f7400000000600082015250565b60006128ee601c836122fa565b91506128f9826128b8565b602082019050919050565b6000602082019050818103600083015261291d816128e1565b9050919050565b60006040820190506129396000830185612146565b6129466020830184612087565b9392505050565b7f4e487b7100000000000000000000000000000000000000000000000000000000600052601160045260246000fd5b600061298782611f23565b91506000820361299a5761299961294d565b5b600182039050919050565b7f5f6c6566742073686f756c6420626520696e7369646520746865206669656c64600082015250565b60006129db6020836122fa565b91506129e6826129a5565b602082019050919050565b60006020820190508181036000830152612a0a816129ce565b9050919050565b7f5f72696768742073686f756c6420626520696e7369646520746865206669656c60008201527f6400000000000000000000000000000000000000000000000000000000000000602082015250565b6000612a6d6021836122fa565b9150612a7882612a11565b604082019050919050565b60006020820190508181036000830152612a9c81612a60565b9050919050565b6000606082019050612ab86000830186611d95565b612ac56020830185611d95565b612ad26040830184611d95565b949350505050565b600081519050612ae9816120b1565b92915050565b60008060408385031215612b0657612b05611dc9565b5b6000612b1485828601612ada565b9250506020612b2585828601612ada565b9150509250929050565b7f4e487b7100000000000000000000000000000000000000000000000000000000600052601260045260246000fd5b7f496e646578206f7574206f6620626f756e647300000000000000000000000000600082015250565b6000612b946013836122fa565b9150612b9f82612b5e565b602082019050919050565b60006020820190508181036000830152612bc381612b87565b9050919050565b7f4465706f7369742056616c756520666f72207468697320636f6e74726163742060008201527f6d757374206d6174636820302e303120457468657265756d0000000000000000602082015250565b6000612c266038836122fa565b9150612c3182612bca565b604082019050919050565b60006020820190508181036000830152612c5581612c19565b9050919050565b7f5468697320636f6d6d69746d656e742068617320616c7265616479206265656e60008201527f206d616465000000000000000000000000000000000000000000000000000000602082015250565b6000612cb86025836122fa565b9150612cc382612c5c565b604082019050919050565b60006020820190508181036000830152612ce781612cab565b9050919050565b6000604082019050612d036000830185611f33565b612d106020830184611d95565b9392505050565b7f4d6573736167652076616c756520697320737570706f73656420746f2062652060008201527f7a65726f20666f722045544820696e7374616e63650000000000000000000000602082015250565b6000612d736035836122fa565b9150612d7e82612d17565b604082019050919050565b60006020820190508181036000830152612da281612d66565b9050919050565b7f696e76616c69642072656c617965722061646472657373000000000000000000600082015250565b6000612ddf6017836122fa565b9150612dea82612da9565b602082019050919050565b60006020820190508181036000830152612e0e81612dd2565b9050919050565b6000612e2082611d8b565b9150612e2b83611d8b565b9250828202612e3981611d8b565b91508282048414831517612e5057612e4f61294d565b5b5092915050565b6000612e6282611d8b565b9150612e6d83611d8b565b925082612e7d57612e7c612b2f565b5b828204905092915050565b6000612e9382611d8b565b9150612e9e83611d8b565b9250828203905081811115612eb657612eb561294d565b5b92915050565b600081905092915050565b50565b6000612ed7600083612ebc565b9150612ee282612ec7565b600082019050919050565b6000612ef882612eca565b9150819050919050565b7f7061796d656e7420746f205f72656c6179657220646964206e6f7420676f207460008201527f6872750000000000000000000000000000000000000000000000000000000000602082015250565b6000612f5e6023836122fa565b9150612f6982612f02565b604082019050919050565b60006020820190508181036000830152612f8d81612f51565b9050919050565b7f7061796d656e7420746f205f726563697069656e7420646964206e6f7420676f60008201527f2074687275000000000000000000000000000000000000000000000000000000602082015250565b6000612ff06025836122fa565b9150612ffb82612f94565b604082019050919050565b6000602082019050818103600083015261301f81612fe3565b9050919050565b60008160011c9050919050565b6000808291508390505b600185111561307d578086048111156130595761305861294d565b5b60018516156130685780820291505b808102905061307685613026565b945061303d565b94509492505050565b6000826130965760019050613152565b816130a45760009050613152565b81600181146130ba57600281146130c4576130f3565b6001915050613152565b60ff8411156130d6576130d561294d565b5b8360020a9150848211156130ed576130ec61294d565b5b50613152565b5060208310610133831016604e8410600b84101617156131285782820a9050838111156131235761312261294d565b5b613152565b6131358484846001613033565b9250905081840481111561314c5761314b61294d565b5b81810290505b9392505050565b600061316482611f23565b915061316f83611f23565b925061318063ffffffff8484613086565b905092915050565b7f4d65726b6c6520747265652069732066756c6c2e204e6f206d6f7265206c656160008201527f7665732063616e20626520616464656400000000000000000000000000000000602082015250565b60006131e46030836122fa565b91506131ef82613188565b604082019050919050565b60006020820190508181036000830152613213816131d7565b9050919050565b600061322582611f23565b915061323083611f23565b9250826132405761323f612b2f565b5b828206905092915050565b600061325682611f23565b915061326183611f23565b92508261327157613270612b2f565b5b828204905092915050565b600061328782611f23565b915061329283611f23565b9250828201905063ffffffff8111156132ae576132ad61294d565b5b92915050565b7f506c656173652073656e6420606d697844656e6f6d696e6174696f6e6020455460008201527f4820616c6f6e672077697468207472616e73616374696f6e0000000000000000602082015250565b60006133106038836122fa565b915061331b826132b4565b604082019050919050565b6000602082019050818103600083015261333f81613303565b905091905056fea2646970667358221220dffda78619f6caf75aff536a8d43abe42eb0387cc97310f2def0fa903a21f8fb64736f6c634300081b0033",
  "linkReferences": {},
  "deployedLinkReferences": {}
}