{
  "_format": "hh-sol-artifact-1",
  "contractName": "MASTER",
  "sourceName": "contracts/Master.sol",
  "abi": [
    {
      "inputs": [
        {
          "internalType": "address",
          "name": "_implementation1",
          "type": "address"
        },
        {
          "internalType": "address",
          "name": "_implementation2",
          "type": "address"
        },
        {
          "internalType": "address",
          "name": "_eth_usd_address",
          "type": "address"
        },
        {
          "internalType": "address",
          "name": "_xmr_usd_address",
          "type": "address"
        }
      ],
      "stateMutability": "nonpayable",
      "type": "constructor"
    },
    {
      "inputs": [],
      "name": "FailedDeployment",
      "type": "error"
    },
    {
      "inputs": [
        {
          "internalType": "uint256",
          "name": "balance",
          "type": "uint256"
        },
        {
          "internalType": "uint256",
          "name": "needed",
          "type": "uint256"
        }
      ],
      "name": "InsufficientBalance",
      "type": "error"
    },
    {
      "inputs": [],
      "name": "ReentrancyGuardReentrantCall",
      "type": "error"
    },
    {
      "anonymous": false,
      "inputs": [
        {
          "indexed": true,
          "internalType": "address",
          "name": "depositAddress",
          "type": "address"
        },
        {
          "indexed": false,
          "internalType": "uint256",
          "name": "amount",
          "type": "uint256"
        },
        {
          "indexed": false,
          "internalType": "string",
          "name": "encryptedMoneroAddress",
          "type": "string"
        },
        {
          "indexed": false,
          "internalType": "uint256",
          "name": "rate",
          "type": "uint256"
        }
      ],
      "name": "EthDeposit",
      "type": "event"
    },
    {
      "anonymous": false,
      "inputs": [
        {
          "indexed": true,
          "internalType": "address",
          "name": "depositAddress",
          "type": "address"
        },
        {
          "indexed": false,
          "internalType": "string",
          "name": "encryptedMoneroAddress",
          "type": "string"
        }
      ],
      "name": "EthXmrContractCreation",
      "type": "event"
    },
    {
      "anonymous": false,
      "inputs": [
        {
          "indexed": true,
          "internalType": "address",
          "name": "destination",
          "type": "address"
        },
        {
          "indexed": false,
          "internalType": "uint256",
          "name": "amount",
          "type": "uint256"
        }
      ],
      "name": "EthereumWithdrawal",
      "type": "event"
    },
    {
      "anonymous": false,
      "inputs": [
        {
          "indexed": true,
          "internalType": "address",
          "name": "subcontractAddress",
          "type": "address"
        },
        {
          "indexed": true,
          "internalType": "address",
          "name": "withdrawalAddress",
          "type": "address"
        }
      ],
      "name": "XmrEthContractCreation",
      "type": "event"
    },
    {
      "inputs": [],
      "name": "CalculateExchangeRate",
      "outputs": [
        {
          "internalType": "uint256",
          "name": "exchangeRate",
          "type": "uint256"
        }
      ],
      "stateMutability": "view",
      "type": "function"
    },
    {
      "inputs": [
        {
          "internalType": "string",
          "name": "hashedMoneroAddress",
          "type": "string"
        }
      ],
      "name": "CreateEthXmrContract",
      "outputs": [],
      "stateMutability": "nonpayable",
      "type": "function"
    },
    {
      "inputs": [
        {
          "internalType": "address",
          "name": "withdrawalAddress",
          "type": "address"
        }
      ],
      "name": "CreateXmrEthContract",
      "outputs": [],
      "stateMutability": "nonpayable",
      "type": "function"
    },
    {
      "inputs": [
        {
          "internalType": "address",
          "name": "",
          "type": "address"
        }
      ],
      "name": "ETH_XMR_CONTRACTS",
      "outputs": [
        {
          "internalType": "address",
          "name": "",
          "type": "address"
        }
      ],
      "stateMutability": "view",
      "type": "function"
    },
    {
      "inputs": [
        {
          "internalType": "address",
          "name": "depositAddress",
          "type": "address"
        },
        {
          "internalType": "uint256",
          "name": "amount",
          "type": "uint256"
        },
        {
          "internalType": "string",
          "name": "encryptedMoneroAddress",
          "type": "string"
        }
      ],
      "name": "EthereumReceived",
      "outputs": [],
      "stateMutability": "nonpayable",
      "type": "function"
    },
    {
      "inputs": [
        {
          "internalType": "uint256",
          "name": "amountReceived",
          "type": "uint256"
        },
        {
          "internalType": "address",
          "name": "withdrawalAddress",
          "type": "address"
        }
      ],
      "name": "MoneroReceived",
      "outputs": [
        {
          "internalType": "uint256",
          "name": "",
          "type": "uint256"
        },
        {
          "internalType": "uint256",
          "name": "",
          "type": "uint256"
        }
      ],
      "stateMutability": "nonpayable",
      "type": "function"
    },
    {
      "inputs": [
        {
          "internalType": "address",
          "name": "",
          "type": "address"
        }
      ],
      "name": "XMR_ETH_CONTRACTS",
      "outputs": [
        {
          "internalType": "address",
          "name": "",
          "type": "address"
        }
      ],
      "stateMutability": "view",
      "type": "function"
    },
    {
      "inputs": [],
      "name": "eth_usd_price",
      "outputs": [
        {
          "internalType": "contract AggregatorV3Interface",
          "name": "",
          "type": "address"
        }
      ],
      "stateMutability": "view",
      "type": "function"
    },
    {
      "inputs": [],
      "name": "implementation1",
      "outputs": [
        {
          "internalType": "address",
          "name": "",
          "type": "address"
        }
      ],
      "stateMutability": "view",
      "type": "function"
    },
    {
      "inputs": [],
      "name": "implementation2",
      "outputs": [
        {
          "internalType": "address",
          "name": "",
          "type": "address"
        }
      ],
      "stateMutability": "view",
      "type": "function"
    },
    {
      "inputs": [],
      "name": "oracle",
      "outputs": [
        {
          "internalType": "address",
          "name": "",
          "type": "address"
        }
      ],
      "stateMutability": "view",
      "type": "function"
    },
    {
      "inputs": [
        {
          "internalType": "address",
          "name": "withdrawalAddress",
          "type": "address"
        }
      ],
      "name": "withdraw",
      "outputs": [],
      "stateMutability": "nonpayable",
      "type": "function"
    },
    {
      "inputs": [],
      "name": "xmr_usd_price",
      "outputs": [
        {
          "internalType": "contract AggregatorV3Interface",
          "name": "",
          "type": "address"
        }
      ],
      "stateMutability": "view",
      "type": "function"
    },
    {
      "stateMutability": "payable",
      "type": "receive"
    }
  ],
  "bytecode": "0x608060405234801561001057600080fd5b50604051611fdf380380611fdf833981810160405281019061003291906101eb565b600160008190555083600160006101000a81548173ffffffffffffffffffffffffffffffffffffffff021916908373ffffffffffffffffffffffffffffffffffffffff16021790555082600260006101000a81548173ffffffffffffffffffffffffffffffffffffffff021916908373ffffffffffffffffffffffffffffffffffffffff16021790555081600360006101000a81548173ffffffffffffffffffffffffffffffffffffffff021916908373ffffffffffffffffffffffffffffffffffffffff16021790555080600460006101000a81548173ffffffffffffffffffffffffffffffffffffffff021916908373ffffffffffffffffffffffffffffffffffffffff16021790555033600560006101000a81548173ffffffffffffffffffffffffffffffffffffffff021916908373ffffffffffffffffffffffffffffffffffffffff16021790555050505050610252565b600080fd5b600073ffffffffffffffffffffffffffffffffffffffff82169050919050565b60006101b88261018d565b9050919050565b6101c8816101ad565b81146101d357600080fd5b50565b6000815190506101e5816101bf565b92915050565b6000806000806080858703121561020557610204610188565b5b6000610213878288016101d6565b9450506020610224878288016101d6565b9350506040610235878288016101d6565b9250506060610246878288016101d6565b91505092959194509250565b611d7e806102616000396000f3fe6080604052600436106100c65760003560e01c80638faba8421161007f578063d2007f1011610059578063d2007f1014610261578063d533a06b1461029f578063f948e51a146102dc578063fad494cb14610307576100cd565b80638faba842146101e2578063b8d9093e1461020d578063d16b304a14610238576100cd565b80630f4273cb146100d2578063345ba24b146100fb57806349d19efe146101265780634f8128581461015157806351cff8d91461018e5780637dc0d1d0146101b7576100cd565b366100cd57005b600080fd5b3480156100de57600080fd5b506100f960048036038101906100f491906112c3565b610330565b005b34801561010757600080fd5b506101106104e8565b60405161011d9190611391565b60405180910390f35b34801561013257600080fd5b5061013b61050e565b6040516101489190611391565b60405180910390f35b34801561015d57600080fd5b50610178600480360381019061017391906113ac565b610534565b60405161018591906113e8565b60405180910390f35b34801561019a57600080fd5b506101b560048036038101906101b091906113ac565b610567565b005b3480156101c357600080fd5b506101cc610641565b6040516101d991906113e8565b60405180910390f35b3480156101ee57600080fd5b506101f7610667565b6040516102049190611412565b60405180910390f35b34801561021957600080fd5b5061022261098d565b60405161022f91906113e8565b60405180910390f35b34801561024457600080fd5b5061025f600480360381019061025a919061142d565b6109b3565b005b34801561026d57600080fd5b5061028860048036038101906102839190611476565b610b45565b6040516102969291906114b6565b60405180910390f35b3480156102ab57600080fd5b506102c660048036038101906102c191906113ac565b610d84565b6040516102d391906113e8565b60405180910390f35b3480156102e857600080fd5b506102f1610db7565b6040516102fe91906113e8565b60405180910390f35b34801561031357600080fd5b5061032e600480360381019061032991906113ac565b610ddd565b005b600073ffffffffffffffffffffffffffffffffffffffff16600660003373ffffffffffffffffffffffffffffffffffffffff1673ffffffffffffffffffffffffffffffffffffffff16815260200190815260200160002060009054906101000a900473ffffffffffffffffffffffffffffffffffffffff1673ffffffffffffffffffffffffffffffffffffffff16036103fe576040517f08c379a00000000000000000000000000000000000000000000000000000000081526004016103f59061153c565b60405180910390fd5b60008211610441576040517f08c379a0000000000000000000000000000000000000000000000000000000008152600401610438906115a8565b60405180910390fd5b600061044b610667565b905060008111610490576040517f08c379a000000000000000000000000000000000000000000000000000000000815260040161048790611614565b60405180910390fd5b8373ffffffffffffffffffffffffffffffffffffffff167f836c043dd45879bec98712b94000af7b89d5b136a949ece2701c2a7468f09be18484846040516104da939291906116a2565b60405180910390a250505050565b600360009054906101000a900473ffffffffffffffffffffffffffffffffffffffff1681565b600460009054906101000a900473ffffffffffffffffffffffffffffffffffffffff1681565b60076020528060005260406000206000915054906101000a900473ffffffffffffffffffffffffffffffffffffffff1681565b600560009054906101000a900473ffffffffffffffffffffffffffffffffffffffff1673ffffffffffffffffffffffffffffffffffffffff163373ffffffffffffffffffffffffffffffffffffffff16146105f7576040517f08c379a00000000000000000000000000000000000000000000000000000000081526004016105ee9061172c565b60405180910390fd5b8073ffffffffffffffffffffffffffffffffffffffff166108fc479081150290604051600060405180830381858888f1935050505015801561063d573d6000803e3d6000fd5b5050565b600560009054906101000a900473ffffffffffffffffffffffffffffffffffffffff1681565b600080600360009054906101000a900473ffffffffffffffffffffffffffffffffffffffff1673ffffffffffffffffffffffffffffffffffffffff1663feaf968c6040518163ffffffff1660e01b815260040160a060405180830381865afa1580156106d7573d6000803e3d6000fd5b505050506040513d601f19601f820116820180604052508101906106fb91906117d9565b5050509150506000600460009054906101000a900473ffffffffffffffffffffffffffffffffffffffff1673ffffffffffffffffffffffffffffffffffffffff1663feaf968c6040518163ffffffff1660e01b815260040160a060405180830381865afa158015610770573d6000803e3d6000fd5b505050506040513d601f19601f8201168201806040525081019061079491906117d9565b5050509150506000821380156107aa5750600081135b6107e9576040517f08c379a00000000000000000000000000000000000000000000000000000000081526004016107e0906118a0565b60405180910390fd5b6000600360009054906101000a900473ffffffffffffffffffffffffffffffffffffffff1673ffffffffffffffffffffffffffffffffffffffff1663313ce5676040518163ffffffff1660e01b8152600401602060405180830381865afa158015610858573d6000803e3d6000fd5b505050506040513d601f19601f8201168201806040525081019061087c91906118f9565b90506000600460009054906101000a900473ffffffffffffffffffffffffffffffffffffffff1673ffffffffffffffffffffffffffffffffffffffff1663313ce5676040518163ffffffff1660e01b8152600401602060405180830381865afa1580156108ed573d6000803e3d6000fd5b505050506040513d601f19601f8201168201806040525081019061091191906118f9565b905060008260126109229190611955565b600a61092e9190611abd565b856109399190611b08565b9050600082601261094a9190611955565b600a6109569190611abd565b856109619190611b08565b905081670de0b6b3a7640000826109789190611b08565b6109829190611b79565b965050505050505090565b600160009054906101000a900473ffffffffffffffffffffffffffffffffffffffff1681565b60006109e0600160009054906101000a900473ffffffffffffffffffffffffffffffffffffffff16610f79565b905033600660008373ffffffffffffffffffffffffffffffffffffffff1673ffffffffffffffffffffffffffffffffffffffff16815260200190815260200160002060006101000a81548173ffffffffffffffffffffffffffffffffffffffff021916908373ffffffffffffffffffffffffffffffffffffffff1602179055508073ffffffffffffffffffffffffffffffffffffffff1663b8f88d64338430600560009054906101000a900473ffffffffffffffffffffffffffffffffffffffff166040518563ffffffff1660e01b8152600401610ac19493929190611bcb565b600060405180830381600087803b158015610adb57600080fd5b505af1158015610aef573d6000803e3d6000fd5b505050508073ffffffffffffffffffffffffffffffffffffffff167fed9b820341d69b311d4b24c6b294fef4da3746d1bc99f3e93e92703f913d80b083604051610b399190611c17565b60405180910390a25050565b600080600073ffffffffffffffffffffffffffffffffffffffff16600760003373ffffffffffffffffffffffffffffffffffffffff1673ffffffffffffffffffffffffffffffffffffffff16815260200190815260200160002060009054906101000a900473ffffffffffffffffffffffffffffffffffffffff1673ffffffffffffffffffffffffffffffffffffffff1603610c16576040517f08c379a0000000000000000000000000000000000000000000000000000000008152600401610c0d90611c85565b60405180910390fd5b610c1e610f8d565b6000610c28610667565b905060008111610c6d576040517f08c379a0000000000000000000000000000000000000000000000000000000008152600401610c6490611614565b60405180910390fd5b6000606482610c7c9190611b08565b606387610c899190611b08565b610c939190611b79565b905080471015610cd8576040517f08c379a0000000000000000000000000000000000000000000000000000000008152600401610ccf90611cf1565b60405180910390fd5b8473ffffffffffffffffffffffffffffffffffffffff166108fc829081150290604051600060405180830381858888f19350505050158015610d1e573d6000803e3d6000fd5b508473ffffffffffffffffffffffffffffffffffffffff167fc214b61456a4afa996b84ace2c1921a32f11ff0318e96b8ce1dfc2a3b0ab52f982604051610d659190611412565b60405180910390a24281935093505050610d7d610fd3565b9250929050565b60066020528060005260406000206000915054906101000a900473ffffffffffffffffffffffffffffffffffffffff1681565b600260009054906101000a900473ffffffffffffffffffffffffffffffffffffffff1681565b6000610e0a600260009054906101000a900473ffffffffffffffffffffffffffffffffffffffff16610f79565b905033600760008373ffffffffffffffffffffffffffffffffffffffff1673ffffffffffffffffffffffffffffffffffffffff16815260200190815260200160002060006101000a81548173ffffffffffffffffffffffffffffffffffffffff021916908373ffffffffffffffffffffffffffffffffffffffff1602179055508073ffffffffffffffffffffffffffffffffffffffff1663c0c53b8b8330600560009054906101000a900473ffffffffffffffffffffffffffffffffffffffff166040518463ffffffff1660e01b8152600401610ee993929190611d11565b600060405180830381600087803b158015610f0357600080fd5b505af1158015610f17573d6000803e3d6000fd5b505050508173ffffffffffffffffffffffffffffffffffffffff168173ffffffffffffffffffffffffffffffffffffffff167fe79f779f4abbe35b362e83f3db412565bcb485e9c3acd4794e355034e8067b1060405160405180910390a35050565b6000610f86826000610fdd565b9050919050565b600260005403610fc9576040517f3ee5aeb500000000000000000000000000000000000000000000000000000000815260040160405180910390fd5b6002600081905550565b6001600081905550565b6000814710156110265747826040517fcf47918100000000000000000000000000000000000000000000000000000000815260040161101d9291906114b6565b60405180910390fd5b763d602d80600a3d3981f3363d3d373d3d3d363d730000008360601b60e81c176000526e5af43d82803e903d91602b57fd5bf38360781b176020526037600983f09050600073ffffffffffffffffffffffffffffffffffffffff168173ffffffffffffffffffffffffffffffffffffffff16036110cf576040517fb06ebf3d00000000000000000000000000000000000000000000000000000000815260040160405180910390fd5b92915050565b6000604051905090565b600080fd5b600080fd5b600073ffffffffffffffffffffffffffffffffffffffff82169050919050565b6000611114826110e9565b9050919050565b61112481611109565b811461112f57600080fd5b50565b6000813590506111418161111b565b92915050565b6000819050919050565b61115a81611147565b811461116557600080fd5b50565b60008135905061117781611151565b92915050565b600080fd5b600080fd5b6000601f19601f8301169050919050565b7f4e487b7100000000000000000000000000000000000000000000000000000000600052604160045260246000fd5b6111d082611187565b810181811067ffffffffffffffff821117156111ef576111ee611198565b5b80604052505050565b60006112026110d5565b905061120e82826111c7565b919050565b600067ffffffffffffffff82111561122e5761122d611198565b5b61123782611187565b9050602081019050919050565b82818337600083830152505050565b600061126661126184611213565b6111f8565b90508281526020810184848401111561128257611281611182565b5b61128d848285611244565b509392505050565b600082601f8301126112aa576112a961117d565b5b81356112ba848260208601611253565b91505092915050565b6000806000606084860312156112dc576112db6110df565b5b60006112ea86828701611132565b93505060206112fb86828701611168565b925050604084013567ffffffffffffffff81111561131c5761131b6110e4565b5b61132886828701611295565b9150509250925092565b6000819050919050565b600061135761135261134d846110e9565b611332565b6110e9565b9050919050565b60006113698261133c565b9050919050565b600061137b8261135e565b9050919050565b61138b81611370565b82525050565b60006020820190506113a66000830184611382565b92915050565b6000602082840312156113c2576113c16110df565b5b60006113d084828501611132565b91505092915050565b6113e281611109565b82525050565b60006020820190506113fd60008301846113d9565b92915050565b61140c81611147565b82525050565b60006020820190506114276000830184611403565b92915050565b600060208284031215611443576114426110df565b5b600082013567ffffffffffffffff811115611461576114606110e4565b5b61146d84828501611295565b91505092915050565b6000806040838503121561148d5761148c6110df565b5b600061149b85828601611168565b92505060206114ac85828601611132565b9150509250929050565b60006040820190506114cb6000830185611403565b6114d86020830184611403565b9392505050565b600082825260208201905092915050565b7f4e6f7420612076616c6964204554482f584d5220636f6e747261637400000000600082015250565b6000611526601c836114df565b9150611531826114f0565b602082019050919050565b6000602082019050818103600083015261155581611519565b9050919050565b7f6e6f20657468206465706f736974656400000000000000000000000000000000600082015250565b60006115926010836114df565b915061159d8261155c565b602082019050919050565b600060208201905081810360008301526115c181611585565b9050919050565b7f6661696c656420746f206765742065786368616e676520726174650000000000600082015250565b60006115fe601b836114df565b9150611609826115c8565b602082019050919050565b6000602082019050818103600083015261162d816115f1565b9050919050565b600081519050919050565b60005b8381101561165d578082015181840152602081019050611642565b60008484015250505050565b600061167482611634565b61167e81856114df565b935061168e81856020860161163f565b61169781611187565b840191505092915050565b60006060820190506116b76000830186611403565b81810360208301526116c98185611669565b90506116d86040830184611403565b949350505050565b7f4e6f7420617574686f72697a6564000000000000000000000000000000000000600082015250565b6000611716600e836114df565b9150611721826116e0565b602082019050919050565b6000602082019050818103600083015261174581611709565b9050919050565b600069ffffffffffffffffffff82169050919050565b61176b8161174c565b811461177657600080fd5b50565b60008151905061178881611762565b92915050565b6000819050919050565b6117a18161178e565b81146117ac57600080fd5b50565b6000815190506117be81611798565b92915050565b6000815190506117d381611151565b92915050565b600080600080600060a086880312156117f5576117f46110df565b5b600061180388828901611779565b9550506020611814888289016117af565b9450506040611825888289016117c4565b9350506060611836888289016117c4565b925050608061184788828901611779565b9150509295509295909350565b7f496e76616c696420707269636520646174610000000000000000000000000000600082015250565b600061188a6012836114df565b915061189582611854565b602082019050919050565b600060208201905081810360008301526118b98161187d565b9050919050565b600060ff82169050919050565b6118d6816118c0565b81146118e157600080fd5b50565b6000815190506118f3816118cd565b92915050565b60006020828403121561190f5761190e6110df565b5b600061191d848285016118e4565b91505092915050565b7f4e487b7100000000000000000000000000000000000000000000000000000000600052601160045260246000fd5b6000611960826118c0565b915061196b836118c0565b9250828203905060ff81111561198457611983611926565b5b92915050565b60008160011c9050919050565b6000808291508390505b60018511156119e1578086048111156119bd576119bc611926565b5b60018516156119cc5780820291505b80810290506119da8561198a565b94506119a1565b94509492505050565b6000826119fa5760019050611ab6565b81611a085760009050611ab6565b8160018114611a1e5760028114611a2857611a57565b6001915050611ab6565b60ff841115611a3a57611a39611926565b5b8360020a915084821115611a5157611a50611926565b5b50611ab6565b5060208310610133831016604e8410600b8410161715611a8c5782820a905083811115611a8757611a86611926565b5b611ab6565b611a998484846001611997565b92509050818404811115611ab057611aaf611926565b5b81810290505b9392505050565b6000611ac882611147565b9150611ad3836118c0565b9250611b007fffffffffffffffffffffffffffffffffffffffffffffffffffffffffffffffff84846119ea565b905092915050565b6000611b1382611147565b9150611b1e83611147565b9250828202611b2c81611147565b91508282048414831517611b4357611b42611926565b5b5092915050565b7f4e487b7100000000000000000000000000000000000000000000000000000000600052601260045260246000fd5b6000611b8482611147565b9150611b8f83611147565b925082611b9f57611b9e611b4a565b5b828204905092915050565b6000611bb5826110e9565b9050919050565b611bc581611baa565b82525050565b6000608082019050611be060008301876113d9565b8181036020830152611bf28186611669565b9050611c016040830185611bbc565b611c0e60608301846113d9565b95945050505050565b60006020820190508181036000830152611c318184611669565b905092915050565b7f4e6f7420612076616c696420584d522f45544820636f6e747261637400000000600082015250565b6000611c6f601c836114df565b9150611c7a82611c39565b602082019050919050565b60006020820190508181036000830152611c9e81611c62565b9050919050565b7f496e73756666696369656e74204554482042616c616e63650000000000000000600082015250565b6000611cdb6018836114df565b9150611ce682611ca5565b602082019050919050565b60006020820190508181036000830152611d0a81611cce565b9050919050565b6000606082019050611d2660008301866113d9565b611d336020830185611bbc565b611d4060408301846113d9565b94935050505056fea2646970667358221220c48fcda60b49adc5a91eb097abaa2ff0070dc66568192e75c2c7cd724658d3bb64736f6c634300081b0033",
  "linkReferences": {},
  "deployedLinkReferences": {}
}