{
  "_format": "hh-sol-artifact-1",
  "contractName": "MASTER",
  "sourceName": "contracts/Master.sol",
  "abi": [
    {
      "inputs": [
        {
          "internalType": "address",
          "name": "_implementation1",
          "type": "address"
        },
        {
          "internalType": "address",
          "name": "_implementation2",
          "type": "address"
        },
        {
          "internalType": "address",
          "name": "_eth_usd_address",
          "type": "address"
        },
        {
          "internalType": "address",
          "name": "_xmr_usd_address",
          "type": "address"
        }
      ],
      "stateMutability": "nonpayable",
      "type": "constructor"
    },
    {
      "inputs": [],
      "name": "FailedDeployment",
      "type": "error"
    },
    {
      "inputs": [
        {
          "internalType": "uint256",
          "name": "balance",
          "type": "uint256"
        },
        {
          "internalType": "uint256",
          "name": "needed",
          "type": "uint256"
        }
      ],
      "name": "InsufficientBalance",
      "type": "error"
    },
    {
      "inputs": [],
      "name": "ReentrancyGuardReentrantCall",
      "type": "error"
    },
    {
      "anonymous": false,
      "inputs": [
        {
          "indexed": true,
          "internalType": "address",
          "name": "depositAddress",
          "type": "address"
        },
        {
          "indexed": false,
          "internalType": "uint256",
          "name": "amount",
          "type": "uint256"
        },
        {
          "indexed": false,
          "internalType": "string",
          "name": "encryptedMoneroAddress",
          "type": "string"
        },
        {
          "indexed": false,
          "internalType": "uint256",
          "name": "rate",
          "type": "uint256"
        }
      ],
      "name": "EthDeposit",
      "type": "event"
    },
    {
      "anonymous": false,
      "inputs": [
        {
          "indexed": true,
          "internalType": "address",
          "name": "depositAddress",
          "type": "address"
        },
        {
          "indexed": false,
          "internalType": "string",
          "name": "encryptedMoneroAddress",
          "type": "string"
        }
      ],
      "name": "EthXmrContractCreation",
      "type": "event"
    },
    {
      "anonymous": false,
      "inputs": [
        {
          "indexed": true,
          "internalType": "address",
          "name": "destination",
          "type": "address"
        },
        {
          "indexed": false,
          "internalType": "uint256",
          "name": "amount",
          "type": "uint256"
        }
      ],
      "name": "EthereumWithdrawal",
      "type": "event"
    },
    {
      "anonymous": false,
      "inputs": [
        {
          "indexed": true,
          "internalType": "address",
          "name": "subcontractAddress",
          "type": "address"
        },
        {
          "indexed": true,
          "internalType": "address",
          "name": "withdrawalAddress",
          "type": "address"
        }
      ],
      "name": "XmrEthContractCreation",
      "type": "event"
    },
    {
      "inputs": [],
      "name": "CalculateExchangeRate",
      "outputs": [
        {
          "internalType": "uint256",
          "name": "exchangeRate",
          "type": "uint256"
        }
      ],
      "stateMutability": "view",
      "type": "function"
    },
    {
      "inputs": [
        {
          "internalType": "string",
          "name": "hashedMoneroAddress",
          "type": "string"
        }
      ],
      "name": "CreateEthXmrContract",
      "outputs": [],
      "stateMutability": "nonpayable",
      "type": "function"
    },
    {
      "inputs": [
        {
          "internalType": "address",
          "name": "withdrawalAddress",
          "type": "address"
        }
      ],
      "name": "CreateXmrEthContract",
      "outputs": [],
      "stateMutability": "nonpayable",
      "type": "function"
    },
    {
      "inputs": [
        {
          "internalType": "address",
          "name": "",
          "type": "address"
        }
      ],
      "name": "ETH_XMR_CONTRACTS",
      "outputs": [
        {
          "internalType": "address",
          "name": "",
          "type": "address"
        }
      ],
      "stateMutability": "view",
      "type": "function"
    },
    {
      "inputs": [
        {
          "internalType": "address",
          "name": "depositAddress",
          "type": "address"
        },
        {
          "internalType": "uint256",
          "name": "amount",
          "type": "uint256"
        },
        {
          "internalType": "string",
          "name": "encryptedMoneroAddress",
          "type": "string"
        }
      ],
      "name": "EthereumReceived",
      "outputs": [],
      "stateMutability": "nonpayable",
      "type": "function"
    },
    {
      "inputs": [
        {
          "internalType": "uint256",
          "name": "amountReceived",
          "type": "uint256"
        },
        {
          "internalType": "address",
          "name": "withdrawalAddress",
          "type": "address"
        }
      ],
      "name": "MoneroReceived",
      "outputs": [
        {
          "internalType": "uint256",
          "name": "",
          "type": "uint256"
        },
        {
          "internalType": "uint256",
          "name": "",
          "type": "uint256"
        }
      ],
      "stateMutability": "nonpayable",
      "type": "function"
    },
    {
      "inputs": [
        {
          "internalType": "address",
          "name": "withdrawalAddress",
          "type": "address"
        }
      ],
      "name": "USERWithdraw",
      "outputs": [],
      "stateMutability": "nonpayable",
      "type": "function"
    },
    {
      "inputs": [
        {
          "internalType": "address",
          "name": "",
          "type": "address"
        }
      ],
      "name": "XMR_ETH_CONTRACTS",
      "outputs": [
        {
          "internalType": "address",
          "name": "",
          "type": "address"
        }
      ],
      "stateMutability": "view",
      "type": "function"
    },
    {
      "inputs": [],
      "name": "eth_usd_price",
      "outputs": [
        {
          "internalType": "contract AggregatorV3Interface",
          "name": "",
          "type": "address"
        }
      ],
      "stateMutability": "view",
      "type": "function"
    },
    {
      "inputs": [],
      "name": "implementation1",
      "outputs": [
        {
          "internalType": "address",
          "name": "",
          "type": "address"
        }
      ],
      "stateMutability": "view",
      "type": "function"
    },
    {
      "inputs": [],
      "name": "implementation2",
      "outputs": [
        {
          "internalType": "address",
          "name": "",
          "type": "address"
        }
      ],
      "stateMutability": "view",
      "type": "function"
    },
    {
      "inputs": [],
      "name": "oracle",
      "outputs": [
        {
          "internalType": "address",
          "name": "",
          "type": "address"
        }
      ],
      "stateMutability": "view",
      "type": "function"
    },
    {
      "inputs": [],
      "name": "xmr_usd_price",
      "outputs": [
        {
          "internalType": "contract AggregatorV3Interface",
          "name": "",
          "type": "address"
        }
      ],
      "stateMutability": "view",
      "type": "function"
    },
    {
      "stateMutability": "payable",
      "type": "receive"
    }
  ],
  "bytecode": "0x608060405234801561001057600080fd5b506040516120a23803806120a2833981810160405281019061003291906101eb565b600160008190555083600160006101000a81548173ffffffffffffffffffffffffffffffffffffffff021916908373ffffffffffffffffffffffffffffffffffffffff16021790555082600260006101000a81548173ffffffffffffffffffffffffffffffffffffffff021916908373ffffffffffffffffffffffffffffffffffffffff16021790555081600360006101000a81548173ffffffffffffffffffffffffffffffffffffffff021916908373ffffffffffffffffffffffffffffffffffffffff16021790555080600460006101000a81548173ffffffffffffffffffffffffffffffffffffffff021916908373ffffffffffffffffffffffffffffffffffffffff16021790555033600560006101000a81548173ffffffffffffffffffffffffffffffffffffffff021916908373ffffffffffffffffffffffffffffffffffffffff16021790555050505050610252565b600080fd5b600073ffffffffffffffffffffffffffffffffffffffff82169050919050565b60006101b88261018d565b9050919050565b6101c8816101ad565b81146101d357600080fd5b50565b6000815190506101e5816101bf565b92915050565b6000806000806080858703121561020557610204610188565b5b6000610213878288016101d6565b9450506020610224878288016101d6565b9350506040610235878288016101d6565b9250506060610246878288016101d6565b91505092959194509250565b611e41806102616000396000f3fe6080604052600436106100c65760003560e01c8063a3fba4911161007f578063d2007f1011610059578063d2007f1014610261578063d533a06b1461029f578063f948e51a146102dc578063fad494cb14610307576100cd565b8063a3fba491146101e4578063b8d9093e1461020d578063d16b304a14610238576100cd565b80630f4273cb146100d2578063345ba24b146100fb57806349d19efe146101265780634f812858146101515780637dc0d1d01461018e5780638faba842146101b9576100cd565b366100cd57005b600080fd5b3480156100de57600080fd5b506100f960048036038101906100f4919061131a565b610330565b005b34801561010757600080fd5b506101106104e8565b60405161011d91906113e8565b60405180910390f35b34801561013257600080fd5b5061013b61050e565b60405161014891906113e8565b60405180910390f35b34801561015d57600080fd5b5061017860048036038101906101739190611403565b610534565b604051610185919061143f565b60405180910390f35b34801561019a57600080fd5b506101a3610567565b6040516101b0919061143f565b60405180910390f35b3480156101c557600080fd5b506101ce61058d565b6040516101db9190611469565b60405180910390f35b3480156101f057600080fd5b5061020b60048036038101906102069190611403565b6108b3565b005b34801561021957600080fd5b506102226109d0565b60405161022f919061143f565b60405180910390f35b34801561024457600080fd5b5061025f600480360381019061025a9190611484565b6109f6565b005b34801561026d57600080fd5b50610288600480360381019061028391906114cd565b610b88565b60405161029692919061150d565b60405180910390f35b3480156102ab57600080fd5b506102c660048036038101906102c19190611403565b610ddb565b6040516102d3919061143f565b60405180910390f35b3480156102e857600080fd5b506102f1610e0e565b6040516102fe919061143f565b60405180910390f35b34801561031357600080fd5b5061032e60048036038101906103299190611403565b610e34565b005b600073ffffffffffffffffffffffffffffffffffffffff16600660003373ffffffffffffffffffffffffffffffffffffffff1673ffffffffffffffffffffffffffffffffffffffff16815260200190815260200160002060009054906101000a900473ffffffffffffffffffffffffffffffffffffffff1673ffffffffffffffffffffffffffffffffffffffff16036103fe576040517f08c379a00000000000000000000000000000000000000000000000000000000081526004016103f590611593565b60405180910390fd5b60008211610441576040517f08c379a0000000000000000000000000000000000000000000000000000000008152600401610438906115ff565b60405180910390fd5b600061044b61058d565b905060008111610490576040517f08c379a00000000000000000000000000000000000000000000000000000000081526004016104879061166b565b60405180910390fd5b8373ffffffffffffffffffffffffffffffffffffffff167f836c043dd45879bec98712b94000af7b89d5b136a949ece2701c2a7468f09be18484846040516104da939291906116f9565b60405180910390a250505050565b600360009054906101000a900473ffffffffffffffffffffffffffffffffffffffff1681565b600460009054906101000a900473ffffffffffffffffffffffffffffffffffffffff1681565b60076020528060005260406000206000915054906101000a900473ffffffffffffffffffffffffffffffffffffffff1681565b600560009054906101000a900473ffffffffffffffffffffffffffffffffffffffff1681565b600080600360009054906101000a900473ffffffffffffffffffffffffffffffffffffffff1673ffffffffffffffffffffffffffffffffffffffff1663feaf968c6040518163ffffffff1660e01b815260040160a060405180830381865afa1580156105fd573d6000803e3d6000fd5b505050506040513d601f19601f8201168201806040525081019061062191906117c4565b5050509150506000600460009054906101000a900473ffffffffffffffffffffffffffffffffffffffff1673ffffffffffffffffffffffffffffffffffffffff1663feaf968c6040518163ffffffff1660e01b815260040160a060405180830381865afa158015610696573d6000803e3d6000fd5b505050506040513d601f19601f820116820180604052508101906106ba91906117c4565b5050509150506000821380156106d05750600081135b61070f576040517f08c379a00000000000000000000000000000000000000000000000000000000081526004016107069061188b565b60405180910390fd5b6000600360009054906101000a900473ffffffffffffffffffffffffffffffffffffffff1673ffffffffffffffffffffffffffffffffffffffff1663313ce5676040518163ffffffff1660e01b8152600401602060405180830381865afa15801561077e573d6000803e3d6000fd5b505050506040513d601f19601f820116820180604052508101906107a291906118e4565b90506000600460009054906101000a900473ffffffffffffffffffffffffffffffffffffffff1673ffffffffffffffffffffffffffffffffffffffff1663313ce5676040518163ffffffff1660e01b8152600401602060405180830381865afa158015610813573d6000803e3d6000fd5b505050506040513d601f19601f8201168201806040525081019061083791906118e4565b905060008260126108489190611940565b600a6108549190611aa8565b8561085f9190611af3565b905060008260126108709190611940565b600a61087c9190611aa8565b856108879190611af3565b905081670de0b6b3a76400008261089e9190611af3565b6108a89190611b64565b965050505050505090565b600560009054906101000a900473ffffffffffffffffffffffffffffffffffffffff1673ffffffffffffffffffffffffffffffffffffffff163373ffffffffffffffffffffffffffffffffffffffff1614610943576040517f08c379a000000000000000000000000000000000000000000000000000000000815260040161093a90611be1565b60405180910390fd5b60004711610986576040517f08c379a000000000000000000000000000000000000000000000000000000000815260040161097d90611c4d565b60405180910390fd5b8073ffffffffffffffffffffffffffffffffffffffff166108fc479081150290604051600060405180830381858888f193505050501580156109cc573d6000803e3d6000fd5b5050565b600160009054906101000a900473ffffffffffffffffffffffffffffffffffffffff1681565b6000610a23600160009054906101000a900473ffffffffffffffffffffffffffffffffffffffff16610fd0565b905033600660008373ffffffffffffffffffffffffffffffffffffffff1673ffffffffffffffffffffffffffffffffffffffff16815260200190815260200160002060006101000a81548173ffffffffffffffffffffffffffffffffffffffff021916908373ffffffffffffffffffffffffffffffffffffffff1602179055508073ffffffffffffffffffffffffffffffffffffffff1663b8f88d64338430600560009054906101000a900473ffffffffffffffffffffffffffffffffffffffff166040518563ffffffff1660e01b8152600401610b049493929190611c8e565b600060405180830381600087803b158015610b1e57600080fd5b505af1158015610b32573d6000803e3d6000fd5b505050508073ffffffffffffffffffffffffffffffffffffffff167fed9b820341d69b311d4b24c6b294fef4da3746d1bc99f3e93e92703f913d80b083604051610b7c9190611cda565b60405180910390a25050565b600080600073ffffffffffffffffffffffffffffffffffffffff16600760003373ffffffffffffffffffffffffffffffffffffffff1673ffffffffffffffffffffffffffffffffffffffff16815260200190815260200160002060009054906101000a900473ffffffffffffffffffffffffffffffffffffffff1673ffffffffffffffffffffffffffffffffffffffff1603610c59576040517f08c379a0000000000000000000000000000000000000000000000000000000008152600401610c5090611d48565b60405180910390fd5b610c61610fe4565b6000610c6b61058d565b905060008111610cb0576040517f08c379a0000000000000000000000000000000000000000000000000000000008152600401610ca79061166b565b60405180910390fd5b60006064606387610cc19190611af3565b610ccb9190611b64565b9050600082620f424083610cdf9190611af3565b610ce99190611b64565b905080471015610d2e576040517f08c379a0000000000000000000000000000000000000000000000000000000008152600401610d2590611db4565b60405180910390fd5b8573ffffffffffffffffffffffffffffffffffffffff166108fc829081150290604051600060405180830381858888f19350505050158015610d74573d6000803e3d6000fd5b508573ffffffffffffffffffffffffffffffffffffffff167fc214b61456a4afa996b84ace2c1921a32f11ff0318e96b8ce1dfc2a3b0ab52f982604051610dbb9190611469565b60405180910390a2428194509450505050610dd461102a565b9250929050565b60066020528060005260406000206000915054906101000a900473ffffffffffffffffffffffffffffffffffffffff1681565b600260009054906101000a900473ffffffffffffffffffffffffffffffffffffffff1681565b6000610e61600260009054906101000a900473ffffffffffffffffffffffffffffffffffffffff16610fd0565b905033600760008373ffffffffffffffffffffffffffffffffffffffff1673ffffffffffffffffffffffffffffffffffffffff16815260200190815260200160002060006101000a81548173ffffffffffffffffffffffffffffffffffffffff021916908373ffffffffffffffffffffffffffffffffffffffff1602179055508073ffffffffffffffffffffffffffffffffffffffff1663c0c53b8b8330600560009054906101000a900473ffffffffffffffffffffffffffffffffffffffff166040518463ffffffff1660e01b8152600401610f4093929190611dd4565b600060405180830381600087803b158015610f5a57600080fd5b505af1158015610f6e573d6000803e3d6000fd5b505050508173ffffffffffffffffffffffffffffffffffffffff168173ffffffffffffffffffffffffffffffffffffffff167fe79f779f4abbe35b362e83f3db412565bcb485e9c3acd4794e355034e8067b1060405160405180910390a35050565b6000610fdd826000611034565b9050919050565b600260005403611020576040517f3ee5aeb500000000000000000000000000000000000000000000000000000000815260040160405180910390fd5b6002600081905550565b6001600081905550565b60008147101561107d5747826040517fcf47918100000000000000000000000000000000000000000000000000000000815260040161107492919061150d565b60405180910390fd5b763d602d80600a3d3981f3363d3d373d3d3d363d730000008360601b60e81c176000526e5af43d82803e903d91602b57fd5bf38360781b176020526037600983f09050600073ffffffffffffffffffffffffffffffffffffffff168173ffffffffffffffffffffffffffffffffffffffff1603611126576040517fb06ebf3d00000000000000000000000000000000000000000000000000000000815260040160405180910390fd5b92915050565b6000604051905090565b600080fd5b600080fd5b600073ffffffffffffffffffffffffffffffffffffffff82169050919050565b600061116b82611140565b9050919050565b61117b81611160565b811461118657600080fd5b50565b60008135905061119881611172565b92915050565b6000819050919050565b6111b18161119e565b81146111bc57600080fd5b50565b6000813590506111ce816111a8565b92915050565b600080fd5b600080fd5b6000601f19601f8301169050919050565b7f4e487b7100000000000000000000000000000000000000000000000000000000600052604160045260246000fd5b611227826111de565b810181811067ffffffffffffffff82111715611246576112456111ef565b5b80604052505050565b600061125961112c565b9050611265828261121e565b919050565b600067ffffffffffffffff821115611285576112846111ef565b5b61128e826111de565b9050602081019050919050565b82818337600083830152505050565b60006112bd6112b88461126a565b61124f565b9050828152602081018484840111156112d9576112d86111d9565b5b6112e484828561129b565b509392505050565b600082601f830112611301576113006111d4565b5b81356113118482602086016112aa565b91505092915050565b60008060006060848603121561133357611332611136565b5b600061134186828701611189565b9350506020611352868287016111bf565b925050604084013567ffffffffffffffff8111156113735761137261113b565b5b61137f868287016112ec565b9150509250925092565b6000819050919050565b60006113ae6113a96113a484611140565b611389565b611140565b9050919050565b60006113c082611393565b9050919050565b60006113d2826113b5565b9050919050565b6113e2816113c7565b82525050565b60006020820190506113fd60008301846113d9565b92915050565b60006020828403121561141957611418611136565b5b600061142784828501611189565b91505092915050565b61143981611160565b82525050565b60006020820190506114546000830184611430565b92915050565b6114638161119e565b82525050565b600060208201905061147e600083018461145a565b92915050565b60006020828403121561149a57611499611136565b5b600082013567ffffffffffffffff8111156114b8576114b761113b565b5b6114c4848285016112ec565b91505092915050565b600080604083850312156114e4576114e3611136565b5b60006114f2858286016111bf565b925050602061150385828601611189565b9150509250929050565b6000604082019050611522600083018561145a565b61152f602083018461145a565b9392505050565b600082825260208201905092915050565b7f4e6f7420612076616c6964204554482f584d5220636f6e747261637400000000600082015250565b600061157d601c83611536565b915061158882611547565b602082019050919050565b600060208201905081810360008301526115ac81611570565b9050919050565b7f6e6f20657468206465706f736974656400000000000000000000000000000000600082015250565b60006115e9601083611536565b91506115f4826115b3565b602082019050919050565b60006020820190508181036000830152611618816115dc565b9050919050565b7f6661696c656420746f206765742065786368616e676520726174650000000000600082015250565b6000611655601b83611536565b91506116608261161f565b602082019050919050565b6000602082019050818103600083015261168481611648565b9050919050565b600081519050919050565b60005b838110156116b4578082015181840152602081019050611699565b60008484015250505050565b60006116cb8261168b565b6116d58185611536565b93506116e5818560208601611696565b6116ee816111de565b840191505092915050565b600060608201905061170e600083018661145a565b818103602083015261172081856116c0565b905061172f604083018461145a565b949350505050565b600069ffffffffffffffffffff82169050919050565b61175681611737565b811461176157600080fd5b50565b6000815190506117738161174d565b92915050565b6000819050919050565b61178c81611779565b811461179757600080fd5b50565b6000815190506117a981611783565b92915050565b6000815190506117be816111a8565b92915050565b600080600080600060a086880312156117e0576117df611136565b5b60006117ee88828901611764565b95505060206117ff8882890161179a565b9450506040611810888289016117af565b9350506060611821888289016117af565b925050608061183288828901611764565b9150509295509295909350565b7f496e76616c696420707269636520646174610000000000000000000000000000600082015250565b6000611875601283611536565b91506118808261183f565b602082019050919050565b600060208201905081810360008301526118a481611868565b9050919050565b600060ff82169050919050565b6118c1816118ab565b81146118cc57600080fd5b50565b6000815190506118de816118b8565b92915050565b6000602082840312156118fa576118f9611136565b5b6000611908848285016118cf565b91505092915050565b7f4e487b7100000000000000000000000000000000000000000000000000000000600052601160045260246000fd5b600061194b826118ab565b9150611956836118ab565b9250828203905060ff81111561196f5761196e611911565b5b92915050565b60008160011c9050919050565b6000808291508390505b60018511156119cc578086048111156119a8576119a7611911565b5b60018516156119b75780820291505b80810290506119c585611975565b945061198c565b94509492505050565b6000826119e55760019050611aa1565b816119f35760009050611aa1565b8160018114611a095760028114611a1357611a42565b6001915050611aa1565b60ff841115611a2557611a24611911565b5b8360020a915084821115611a3c57611a3b611911565b5b50611aa1565b5060208310610133831016604e8410600b8410161715611a775782820a905083811115611a7257611a71611911565b5b611aa1565b611a848484846001611982565b92509050818404811115611a9b57611a9a611911565b5b81810290505b9392505050565b6000611ab38261119e565b9150611abe836118ab565b9250611aeb7fffffffffffffffffffffffffffffffffffffffffffffffffffffffffffffffff84846119d5565b905092915050565b6000611afe8261119e565b9150611b098361119e565b9250828202611b178161119e565b91508282048414831517611b2e57611b2d611911565b5b5092915050565b7f4e487b7100000000000000000000000000000000000000000000000000000000600052601260045260246000fd5b6000611b6f8261119e565b9150611b7a8361119e565b925082611b8a57611b89611b35565b5b828204905092915050565b7f4e6f7420617574686f72697a6564000000000000000000000000000000000000600082015250565b6000611bcb600e83611536565b9150611bd682611b95565b602082019050919050565b60006020820190508181036000830152611bfa81611bbe565b9050919050565b7f636f6e747261637420697320656d707479000000000000000000000000000000600082015250565b6000611c37601183611536565b9150611c4282611c01565b602082019050919050565b60006020820190508181036000830152611c6681611c2a565b9050919050565b6000611c7882611140565b9050919050565b611c8881611c6d565b82525050565b6000608082019050611ca36000830187611430565b8181036020830152611cb581866116c0565b9050611cc46040830185611c7f565b611cd16060830184611430565b95945050505050565b60006020820190508181036000830152611cf481846116c0565b905092915050565b7f4e6f7420612076616c696420584d522f45544820636f6e747261637400000000600082015250565b6000611d32601c83611536565b9150611d3d82611cfc565b602082019050919050565b60006020820190508181036000830152611d6181611d25565b9050919050565b7f496e73756666696369656e74204554482042616c616e63650000000000000000600082015250565b6000611d9e601883611536565b9150611da982611d68565b602082019050919050565b60006020820190508181036000830152611dcd81611d91565b9050919050565b6000606082019050611de96000830186611430565b611df66020830185611c7f565b611e036040830184611430565b94935050505056fea26469706673582212205e79a57e6965993535e54b74e9b206935bdfdb0061b809cd8456ade3c03a440264736f6c634300081b0033",
  "linkReferences": {},
  "deployedLinkReferences": {}
}