{
  "_format": "hh-sol-artifact-1",
  "contractName": "ProbabilisticWager",
  "sourceName": "contracts/Odds.sol",
  "abi": [
    {
      "inputs": [],
      "stateMutability": "nonpayable",
      "type": "constructor"
    },
    {
      "anonymous": false,
      "inputs": [
        {
          "indexed": true,
          "internalType": "uint256",
          "name": "betId",
          "type": "uint256"
        },
        {
          "indexed": true,
          "internalType": "address",
          "name": "player",
          "type": "address"
        },
        {
          "indexed": false,
          "internalType": "uint256",
          "name": "amount",
          "type": "uint256"
        },
        {
          "indexed": false,
          "internalType": "uint8",
          "name": "winProbability",
          "type": "uint8"
        }
      ],
      "name": "BetPlaced",
      "type": "event"
    },
    {
      "anonymous": false,
      "inputs": [
        {
          "indexed": true,
          "internalType": "uint256",
          "name": "betId",
          "type": "uint256"
        },
        {
          "indexed": true,
          "internalType": "address",
          "name": "player",
          "type": "address"
        },
        {
          "indexed": false,
          "internalType": "bool",
          "name": "won",
          "type": "bool"
        },
        {
          "indexed": false,
          "internalType": "uint256",
          "name": "payout",
          "type": "uint256"
        }
      ],
      "name": "BetSettled",
      "type": "event"
    },
    {
      "anonymous": false,
      "inputs": [
        {
          "indexed": false,
          "internalType": "uint256",
          "name": "amount",
          "type": "uint256"
        }
      ],
      "name": "HouseFeesWithdrawn",
      "type": "event"
    },
    {
      "inputs": [],
      "name": "CONFIRMATION_BLOCKS",
      "outputs": [
        {
          "internalType": "uint256",
          "name": "",
          "type": "uint256"
        }
      ],
      "stateMutability": "view",
      "type": "function"
    },
    {
      "inputs": [],
      "name": "HOUSE_EDGE",
      "outputs": [
        {
          "internalType": "uint256",
          "name": "",
          "type": "uint256"
        }
      ],
      "stateMutability": "view",
      "type": "function"
    },
    {
      "inputs": [
        {
          "internalType": "uint256",
          "name": "",
          "type": "uint256"
        }
      ],
      "name": "bets",
      "outputs": [
        {
          "internalType": "address",
          "name": "player",
          "type": "address"
        },
        {
          "internalType": "uint256",
          "name": "amount",
          "type": "uint256"
        },
        {
          "internalType": "uint8",
          "name": "winProbability",
          "type": "uint8"
        },
        {
          "internalType": "uint256",
          "name": "blockNumber",
          "type": "uint256"
        },
        {
          "internalType": "bool",
          "name": "settled",
          "type": "bool"
        },
        {
          "internalType": "bool",
          "name": "won",
          "type": "bool"
        }
      ],
      "stateMutability": "view",
      "type": "function"
    },
    {
      "inputs": [
        {
          "internalType": "uint256",
          "name": "betAmount",
          "type": "uint256"
        },
        {
          "internalType": "uint8",
          "name": "winProbability",
          "type": "uint8"
        }
      ],
      "name": "calculatePayout",
      "outputs": [
        {
          "internalType": "uint256",
          "name": "",
          "type": "uint256"
        }
      ],
      "stateMutability": "pure",
      "type": "function"
    },
    {
      "inputs": [
        {
          "internalType": "uint256",
          "name": "betId",
          "type": "uint256"
        }
      ],
      "name": "getBet",
      "outputs": [
        {
          "internalType": "address",
          "name": "player",
          "type": "address"
        },
        {
          "internalType": "uint256",
          "name": "amount",
          "type": "uint256"
        },
        {
          "internalType": "uint8",
          "name": "winProbability",
          "type": "uint8"
        },
        {
          "internalType": "uint256",
          "name": "blockNumber",
          "type": "uint256"
        },
        {
          "internalType": "bool",
          "name": "settled",
          "type": "bool"
        },
        {
          "internalType": "bool",
          "name": "won",
          "type": "bool"
        }
      ],
      "stateMutability": "view",
      "type": "function"
    },
    {
      "inputs": [
        {
          "internalType": "uint256",
          "name": "betAmount",
          "type": "uint256"
        },
        {
          "internalType": "uint8",
          "name": "winProbability",
          "type": "uint8"
        }
      ],
      "name": "getPotentialPayout",
      "outputs": [
        {
          "internalType": "uint256",
          "name": "",
          "type": "uint256"
        }
      ],
      "stateMutability": "pure",
      "type": "function"
    },
    {
      "inputs": [],
      "name": "nextBetId",
      "outputs": [
        {
          "internalType": "uint256",
          "name": "",
          "type": "uint256"
        }
      ],
      "stateMutability": "view",
      "type": "function"
    },
    {
      "inputs": [],
      "name": "owner",
      "outputs": [
        {
          "internalType": "address",
          "name": "",
          "type": "address"
        }
      ],
      "stateMutability": "view",
      "type": "function"
    },
    {
      "inputs": [
        {
          "internalType": "uint8",
          "name": "winProbability",
          "type": "uint8"
        }
      ],
      "name": "placeBet",
      "outputs": [],
      "stateMutability": "payable",
      "type": "function"
    },
    {
      "inputs": [
        {
          "internalType": "uint256",
          "name": "betId",
          "type": "uint256"
        }
      ],
      "name": "settleBet",
      "outputs": [],
      "stateMutability": "nonpayable",
      "type": "function"
    },
    {
      "inputs": [],
      "name": "withdrawHouseFees",
      "outputs": [],
      "stateMutability": "nonpayable",
      "type": "function"
    },
    {
      "stateMutability": "payable",
      "type": "receive"
    }
  ],
  "bytecode": "0x6080604052348015600f57600080fd5b5033600260006101000a81548173ffffffffffffffffffffffffffffffffffffffff021916908373ffffffffffffffffffffffffffffffffffffffff1602179055506114c0806100606000396000f3fe6080604052600436106100a05760003560e01c80638da5cb5b116100645780638da5cb5b146101a05780638daaaa2f146101cb5780639aca2792146101f6578063ca12e83e14610221578063d52cdc991461025e578063f677b4d41461029b576100a7565b8063061e494f146100ac57806316fd381a146100ee57806322af00fa1461011757806343046844146101595780634aaac39914610175576100a7565b366100a757005b600080fd5b3480156100b857600080fd5b506100d360048036038101906100ce9190610c51565b6102b2565b6040516100e596959493929190610d05565b60405180910390f35b3480156100fa57600080fd5b5061011560048036038101906101109190610c51565b61034c565b005b34801561012357600080fd5b5061013e60048036038101906101399190610c51565b6106cd565b60405161015096959493929190610d05565b60405180910390f35b610173600480360381019061016e9190610d92565b610750565b005b34801561018157600080fd5b5061018a6109c9565b6040516101979190610dbf565b60405180910390f35b3480156101ac57600080fd5b506101b56109ce565b6040516101c29190610dda565b60405180910390f35b3480156101d757600080fd5b506101e06109f4565b6040516101ed9190610dbf565b60405180910390f35b34801561020257600080fd5b5061020b6109f9565b6040516102189190610dbf565b60405180910390f35b34801561022d57600080fd5b5061024860048036038101906102439190610df5565b6109ff565b6040516102559190610dbf565b60405180910390f35b34801561026a57600080fd5b5061028560048036038101906102809190610df5565b610a13565b6040516102929190610dbf565b60405180910390f35b3480156102a757600080fd5b506102b0610a9b565b005b600080600080600080600080600089815260200190815260200160002090508060000160009054906101000a900473ffffffffffffffffffffffffffffffffffffffff1681600101548260020160009054906101000a900460ff1683600301548460040160009054906101000a900460ff168560040160019054906101000a900460ff169650965096509650965096505091939550919395565b600080600083815260200190815260200160002090508060040160009054906101000a900460ff16156103b4576040517f08c379a00000000000000000000000000000000000000000000000000000000081526004016103ab90610e92565b60405180910390fd5b600073ffffffffffffffffffffffffffffffffffffffff168160000160009054906101000a900473ffffffffffffffffffffffffffffffffffffffff1673ffffffffffffffffffffffffffffffffffffffff1603610447576040517f08c379a000000000000000000000000000000000000000000000000000000000815260040161043e90610efe565b60405180910390fd5b600281600301546104589190610f4d565b4311610499576040517f08c379a000000000000000000000000000000000000000000000000000000000815260040161049090610fcd565b60405180910390fd5b600080600283600301546104ad9190610f4d565b4090506000801b81146104c5578060001c91506104c9565b4491505b600060016064846104da919061101c565b6104e49190610f4d565b905060008460020160009054906101000a900460ff1660ff168260ff161115905060018560040160006101000a81548160ff021916908315150217905550808560040160016101000a81548160ff021916908315150217905550801561064e57600061056586600101548760020160009054906101000a900460ff16610a13565b90508560000160009054906101000a900473ffffffffffffffffffffffffffffffffffffffff1673ffffffffffffffffffffffffffffffffffffffff166108fc829081150290604051600060405180830381858888f193505050501580156105d1573d6000803e3d6000fd5b508560000160009054906101000a900473ffffffffffffffffffffffffffffffffffffffff1673ffffffffffffffffffffffffffffffffffffffff16877fe730d6310bec1dfc964bdf1e3f75a78c8ef2dee9d092f9ff09253258852ed7d460018460405161064092919061104d565b60405180910390a3506106c5565b8460000160009054906101000a900473ffffffffffffffffffffffffffffffffffffffff1673ffffffffffffffffffffffffffffffffffffffff16867fe730d6310bec1dfc964bdf1e3f75a78c8ef2dee9d092f9ff09253258852ed7d46000806040516106bc9291906110bb565b60405180910390a35b505050505050565b60006020528060005260406000206000915090508060000160009054906101000a900473ffffffffffffffffffffffffffffffffffffffff16908060010154908060020160009054906101000a900460ff16908060030154908060040160009054906101000a900460ff16908060040160019054906101000a900460ff16905086565b60003411610793576040517f08c379a000000000000000000000000000000000000000000000000000000000815260040161078a90611156565b60405180910390fd5b60018160ff16101580156107ab575060638160ff1611155b6107ea576040517f08c379a00000000000000000000000000000000000000000000000000000000081526004016107e1906111e8565b60405180910390fd5b60006107f63483610a13565b90508047101561083b576040517f08c379a00000000000000000000000000000000000000000000000000000000081526004016108329061127a565b60405180910390fd5b6040518060c001604052803373ffffffffffffffffffffffffffffffffffffffff1681526020013481526020018360ff16815260200143815260200160001515815260200160001515815250600080600154815260200190815260200160002060008201518160000160006101000a81548173ffffffffffffffffffffffffffffffffffffffff021916908373ffffffffffffffffffffffffffffffffffffffff1602179055506020820151816001015560408201518160020160006101000a81548160ff021916908360ff1602179055506060820151816003015560808201518160040160006101000a81548160ff02191690831515021790555060a08201518160040160016101000a81548160ff0219169083151502179055509050503373ffffffffffffffffffffffffffffffffffffffff166001547fe90186097616cbeb30ffc786b44501e1362f5e0a316a96c5ab82a0551f9d2f0534856040516109a592919061129a565b60405180910390a3600160008154809291906109c0906112c3565b91905055505050565b600281565b600260009054906101000a900473ffffffffffffffffffffffffffffffffffffffff1681565b600181565b60015481565b6000610a0b8383610a13565b905092915050565b600060018260ff1610158015610a2d575060638260ff1611155b610a6c576040517f08c379a0000000000000000000000000000000000000000000000000000000008152600401610a63906111e8565b60405180910390fd5b8160ff1660016064610a7e919061130b565b84610a89919061133f565b610a939190611381565b905092915050565b600260009054906101000a900473ffffffffffffffffffffffffffffffffffffffff1673ffffffffffffffffffffffffffffffffffffffff163373ffffffffffffffffffffffffffffffffffffffff1614610b2b576040517f08c379a0000000000000000000000000000000000000000000000000000000008152600401610b22906113fe565b60405180910390fd5b600047905060008111610b73576040517f08c379a0000000000000000000000000000000000000000000000000000000008152600401610b6a9061146a565b60405180910390fd5b600260009054906101000a900473ffffffffffffffffffffffffffffffffffffffff1673ffffffffffffffffffffffffffffffffffffffff166108fc829081150290604051600060405180830381858888f19350505050158015610bdb573d6000803e3d6000fd5b507fadbd906e316a60192ae4ebb39bccaf1bdd60fee6e6f7d0dbf10ab3045b3418c881604051610c0b9190610dbf565b60405180910390a150565b600080fd5b6000819050919050565b610c2e81610c1b565b8114610c3957600080fd5b50565b600081359050610c4b81610c25565b92915050565b600060208284031215610c6757610c66610c16565b5b6000610c7584828501610c3c565b91505092915050565b600073ffffffffffffffffffffffffffffffffffffffff82169050919050565b6000610ca982610c7e565b9050919050565b610cb981610c9e565b82525050565b610cc881610c1b565b82525050565b600060ff82169050919050565b610ce481610cce565b82525050565b60008115159050919050565b610cff81610cea565b82525050565b600060c082019050610d1a6000830189610cb0565b610d276020830188610cbf565b610d346040830187610cdb565b610d416060830186610cbf565b610d4e6080830185610cf6565b610d5b60a0830184610cf6565b979650505050505050565b610d6f81610cce565b8114610d7a57600080fd5b50565b600081359050610d8c81610d66565b92915050565b600060208284031215610da857610da7610c16565b5b6000610db684828501610d7d565b91505092915050565b6000602082019050610dd46000830184610cbf565b92915050565b6000602082019050610def6000830184610cb0565b92915050565b60008060408385031215610e0c57610e0b610c16565b5b6000610e1a85828601610c3c565b9250506020610e2b85828601610d7d565b9150509250929050565b600082825260208201905092915050565b7f42657420616c726561647920736574746c656400000000000000000000000000600082015250565b6000610e7c601383610e35565b9150610e8782610e46565b602082019050919050565b60006020820190508181036000830152610eab81610e6f565b9050919050565b7f42657420646f6573206e6f742065786973740000000000000000000000000000600082015250565b6000610ee8601283610e35565b9150610ef382610eb2565b602082019050919050565b60006020820190508181036000830152610f1781610edb565b9050919050565b7f4e487b7100000000000000000000000000000000000000000000000000000000600052601160045260246000fd5b6000610f5882610c1b565b9150610f6383610c1b565b9250828201905080821115610f7b57610f7a610f1e565b5b92915050565b7f5761697420666f7220636f6e6669726d6174696f6e7300000000000000000000600082015250565b6000610fb7601683610e35565b9150610fc282610f81565b602082019050919050565b60006020820190508181036000830152610fe681610faa565b9050919050565b7f4e487b7100000000000000000000000000000000000000000000000000000000600052601260045260246000fd5b600061102782610c1b565b915061103283610c1b565b92508261104257611041610fed565b5b828206905092915050565b60006040820190506110626000830185610cf6565b61106f6020830184610cbf565b9392505050565b6000819050919050565b6000819050919050565b60006110a56110a061109b84611076565b611080565b610c1b565b9050919050565b6110b58161108a565b82525050565b60006040820190506110d06000830185610cf6565b6110dd60208301846110ac565b9392505050565b7f42657420616d6f756e74206d7573742062652067726561746572207468616e2060008201527f3000000000000000000000000000000000000000000000000000000000000000602082015250565b6000611140602183610e35565b915061114b826110e4565b604082019050919050565b6000602082019050818103600083015261116f81611133565b9050919050565b7f57696e2070726f626162696c697479206d757374206265206265747765656e2060008201527f3120616e64203939000000000000000000000000000000000000000000000000602082015250565b60006111d2602883610e35565b91506111dd82611176565b604082019050919050565b60006020820190508181036000830152611201816111c5565b9050919050565b7f436f6e747261637420646f65736e2774206861766520656e6f7567682066756e60008201527f647320746f20636f766572207468697320626574000000000000000000000000602082015250565b6000611264603483610e35565b915061126f82611208565b604082019050919050565b6000602082019050818103600083015261129381611257565b9050919050565b60006040820190506112af6000830185610cbf565b6112bc6020830184610cdb565b9392505050565b60006112ce82610c1b565b91507fffffffffffffffffffffffffffffffffffffffffffffffffffffffffffffffff8203611300576112ff610f1e565b5b600182019050919050565b600061131682610c1b565b915061132183610c1b565b925082820390508181111561133957611338610f1e565b5b92915050565b600061134a82610c1b565b915061135583610c1b565b925082820261136381610c1b565b9150828204841483151761137a57611379610f1e565b5b5092915050565b600061138c82610c1b565b915061139783610c1b565b9250826113a7576113a6610fed565b5b828204905092915050565b7f4e6f7420617574686f72697a6564000000000000000000000000000000000000600082015250565b60006113e8600e83610e35565b91506113f3826113b2565b602082019050919050565b60006020820190508181036000830152611417816113db565b9050919050565b7f4e6f2066756e647320746f207769746864726177000000000000000000000000600082015250565b6000611454601483610e35565b915061145f8261141e565b602082019050919050565b6000602082019050818103600083015261148381611447565b905091905056fea2646970667358221220b3561de3cdee20e01a659325e643d91fae67a29ee934ce0b302c9924a1395a8864736f6c634300081b0033",
  "linkReferences": {},
  "deployedLinkReferences": {}
}