{
  "_format": "hh-sol-artifact-1",
  "contractName": "VariableProbabilityWager",
  "sourceName": "contracts/Wager.sol",
  "abi": [
    {
      "inputs": [],
      "stateMutability": "nonpayable",
      "type": "constructor"
    },
    {
      "inputs": [],
      "name": "ReentrancyGuardReentrantCall",
      "type": "error"
    },
    {
      "anonymous": false,
      "inputs": [
        {
          "indexed": false,
          "internalType": "uint256",
          "name": "index",
          "type": "uint256"
        }
      ],
      "name": "BetPlaced",
      "type": "event"
    },
    {
      "inputs": [],
      "name": "HOUSE_EDGE",
      "outputs": [
        {
          "internalType": "uint256",
          "name": "",
          "type": "uint256"
        }
      ],
      "stateMutability": "view",
      "type": "function"
    },
    {
      "inputs": [],
      "name": "OracleDeposit",
      "outputs": [],
      "stateMutability": "payable",
      "type": "function"
    },
    {
      "inputs": [
        {
          "internalType": "uint256",
          "name": "wager_index",
          "type": "uint256"
        },
        {
          "internalType": "uint256",
          "name": "randomNumber",
          "type": "uint256"
        }
      ],
      "name": "OracleResponse",
      "outputs": [],
      "stateMutability": "nonpayable",
      "type": "function"
    },
    {
      "inputs": [
        {
          "internalType": "uint256",
          "name": "amount",
          "type": "uint256"
        }
      ],
      "name": "OracleWithdraw",
      "outputs": [],
      "stateMutability": "nonpayable",
      "type": "function"
    },
    {
      "inputs": [
        {
          "internalType": "uint8",
          "name": "OneTo90ProbabilityOfWin",
          "type": "uint8"
        }
      ],
      "name": "USERPlaceWager",
      "outputs": [
        {
          "internalType": "uint256",
          "name": "Wager_Index",
          "type": "uint256"
        },
        {
          "internalType": "string",
          "name": "message",
          "type": "string"
        }
      ],
      "stateMutability": "payable",
      "type": "function"
    },
    {
      "inputs": [
        {
          "internalType": "uint256",
          "name": "Wager_Index",
          "type": "uint256"
        }
      ],
      "name": "USERSafetyWithdrawal",
      "outputs": [],
      "stateMutability": "nonpayable",
      "type": "function"
    }
  ],
  "bytecode": "0x60806040526000600155348015601457600080fd5b50600160008190555033600260006101000a81548173ffffffffffffffffffffffffffffffffffffffff021916908373ffffffffffffffffffffffffffffffffffffffff16021790555061141e8061006d6000396000f3fe6080604052600436106100555760003560e01c80638be968581461005a5780638c723a87146100645780638d3445751461008d5780638daaaa2f146100b6578063ca1eb8ec146100e1578063eafefaad1461010a575b600080fd5b61006261013b565b005b34801561007057600080fd5b5061008b60048036038101906100869190610ac3565b6101dd565b005b34801561009957600080fd5b506100b460048036038101906100af9190610b03565b610424565b005b3480156100c257600080fd5b506100cb610573565b6040516100d89190610b3f565b60405180910390f35b3480156100ed57600080fd5b5061010860048036038101906101039190610b03565b610578565b005b610124600480360381019061011f9190610b93565b61075e565b604051610132929190610c50565b60405180910390f35b600260009054906101000a900473ffffffffffffffffffffffffffffffffffffffff1673ffffffffffffffffffffffffffffffffffffffff163373ffffffffffffffffffffffffffffffffffffffff16146101cb576040517f08c379a00000000000000000000000000000000000000000000000000000000081526004016101c290610ccc565b60405180910390fd5b6101d3610a38565b6101db610a7e565b565b600260009054906101000a900473ffffffffffffffffffffffffffffffffffffffff1673ffffffffffffffffffffffffffffffffffffffff163373ffffffffffffffffffffffffffffffffffffffff161461026d576040517f08c379a000000000000000000000000000000000000000000000000000000000815260040161026490610ccc565b60405180910390fd5b610275610a38565b60006003600084815260200190815260200160002060010154036102ce576040517f08c379a00000000000000000000000000000000000000000000000000000000081526004016102c590610d38565b60405180910390fd5b600060036000848152602001908152602001600020600201549050808210156103e7576003600084815260200190815260200160002060000160009054906101000a900473ffffffffffffffffffffffffffffffffffffffff1673ffffffffffffffffffffffffffffffffffffffff166108fc60036000868152602001908152602001600020600401549081150290604051600060405180830381858888f19350505050158015610383573d6000803e3d6000fd5b5060016003600085815260200190815260200160002060060160006101000a81548160ff02191690831515021790555060016003600085815260200190815260200160002060060160016101000a81548160ff021916908315150217905550610417565b60016003600085815260200190815260200160002060060160006101000a81548160ff0219169083151502179055505b50610420610a7e565b5050565b600260009054906101000a900473ffffffffffffffffffffffffffffffffffffffff1673ffffffffffffffffffffffffffffffffffffffff163373ffffffffffffffffffffffffffffffffffffffff16146104b4576040517f08c379a00000000000000000000000000000000000000000000000000000000081526004016104ab90610ccc565b60405180910390fd5b6104bc610a38565b804710156104ff576040517f08c379a00000000000000000000000000000000000000000000000000000000081526004016104f690610da4565b60405180910390fd5b600260009054906101000a900473ffffffffffffffffffffffffffffffffffffffff1673ffffffffffffffffffffffffffffffffffffffff166108fc829081150290604051600060405180830381858888f19350505050158015610567573d6000803e3d6000fd5b50610570610a7e565b50565b600181565b803373ffffffffffffffffffffffffffffffffffffffff166003600083815260200190815260200160002060000160009054906101000a900473ffffffffffffffffffffffffffffffffffffffff1673ffffffffffffffffffffffffffffffffffffffff161461061d576040517f08c379a000000000000000000000000000000000000000000000000000000000815260040161061490610e82565b60405180910390fd5b610625610a38565b600015156003600084815260200190815260200160002060060160009054906101000a900460ff1615151461068f576040517f08c379a000000000000000000000000000000000000000000000000000000000815260040161068690610f14565b60405180910390fd5b61012c60036000848152602001908152602001600020600101546106b39190610f63565b4210156106f5576040517f08c379a00000000000000000000000000000000000000000000000000000000081526004016106ec90611055565b60405180910390fd5b3373ffffffffffffffffffffffffffffffffffffffff166108fc60036000858152602001908152602001600020600301549081150290604051600060405180830381858888f19350505050158015610751573d6000803e3d6000fd5b5061075a610a7e565b5050565b6000606061076a610a38565b60018360ff16101580156107825750605a8360ff1611155b6107c1576040517f08c379a00000000000000000000000000000000000000000000000000000000081526004016107b8906110e7565b60405180910390fd5b655af3107a400034101561080a576040517f08c379a000000000000000000000000000000000000000000000000000000000815260040161080190611179565b60405180910390fd5b60008360ff166001606461081e9190611199565b61082891906111fc565b34610833919061122d565b905080600a4761084391906111fc565b1015610884576040517f08c379a000000000000000000000000000000000000000000000000000000000815260040161087b90611307565b60405180910390fd5b6040518061010001604052803373ffffffffffffffffffffffffffffffffffffffff1681526020014281526020018560ff1681526020013481526020018281526020014381526020016000151581526020016000151581525060036000600154815260200190815260200160002060008201518160000160006101000a81548173ffffffffffffffffffffffffffffffffffffffff021916908373ffffffffffffffffffffffffffffffffffffffff1602179055506020820151816001015560408201518160020155606082015181600301556080820151816004015560a0820151816005015560c08201518160060160006101000a81548160ff02191690831515021790555060e08201518160060160016101000a81548160ff0219169083151502179055509050507fde1fae6a99c0f84e9bee8b7f9d2d7663e46384ff079f389d5b4b6018b56e56e96001546040516109df9190610b3f565b60405180910390a1600160008154809291906109fa90611327565b919050555060018054610a0d9190611199565b6040518060a0016040528060798152602001611370607991399250925050610a33610a7e565b915091565b600260005403610a74576040517f3ee5aeb500000000000000000000000000000000000000000000000000000000815260040160405180910390fd5b6002600081905550565b6001600081905550565b600080fd5b6000819050919050565b610aa081610a8d565b8114610aab57600080fd5b50565b600081359050610abd81610a97565b92915050565b60008060408385031215610ada57610ad9610a88565b5b6000610ae885828601610aae565b9250506020610af985828601610aae565b9150509250929050565b600060208284031215610b1957610b18610a88565b5b6000610b2784828501610aae565b91505092915050565b610b3981610a8d565b82525050565b6000602082019050610b546000830184610b30565b92915050565b600060ff82169050919050565b610b7081610b5a565b8114610b7b57600080fd5b50565b600081359050610b8d81610b67565b92915050565b600060208284031215610ba957610ba8610a88565b5b6000610bb784828501610b7e565b91505092915050565b600081519050919050565b600082825260208201905092915050565b60005b83811015610bfa578082015181840152602081019050610bdf565b60008484015250505050565b6000601f19601f8301169050919050565b6000610c2282610bc0565b610c2c8185610bcb565b9350610c3c818560208601610bdc565b610c4581610c06565b840191505092915050565b6000604082019050610c656000830185610b30565b8181036020830152610c778184610c17565b90509392505050565b7f6e6f7420617574686f72697a6564000000000000000000000000000000000000600082015250565b6000610cb6600e83610bcb565b9150610cc182610c80565b602082019050919050565b60006020820190508181036000830152610ce581610ca9565b9050919050565b7f646f65736e277420657869737400000000000000000000000000000000000000600082015250565b6000610d22600d83610bcb565b9150610d2d82610cec565b602082019050919050565b60006020820190508181036000830152610d5181610d15565b9050919050565b7f4e53460000000000000000000000000000000000000000000000000000000000600082015250565b6000610d8e600383610bcb565b9150610d9982610d58565b602082019050919050565b60006020820190508181036000830152610dbd81610d81565b9050919050565b7f417574686f72697a6174696f6e206661696c65642c206d616b6520737572652060008201527f796f752061726520726566657272696e6720746f20612076616c69642077616760208201527f657220696e6465782074686174206973206173736f636961746564207769746860408201527f20796f75722077616c6c65740000000000000000000000000000000000000000606082015250565b6000610e6c606c83610bcb565b9150610e7782610dc4565b608082019050919050565b60006020820190508181036000830152610e9b81610e5f565b9050919050565b7f596f752063616e27742077697468647261772e2054686973207761676572206860008201527f617320616c7265616479206265656e20736574746c65642e0000000000000000602082015250565b6000610efe603883610bcb565b9150610f0982610ea2565b604082019050919050565b60006020820190508181036000830152610f2d81610ef1565b9050919050565b7f4e487b7100000000000000000000000000000000000000000000000000000000600052601160045260246000fd5b6000610f6e82610a8d565b9150610f7983610a8d565b9250828201905080821115610f9157610f90610f34565b5b92915050565b7f496e207468652063617365206f6620616e20756e726573706f6e73697665206e60008201527f6f64652c2063616c6c6572206d75737420776169742061746c6561737420352060208201527f6d696e75746573206265666f72652066756e64732063616e206265207265766560408201527f727365642e2054727920616761696e206c617465722e00000000000000000000606082015250565b600061103f607683610bcb565b915061104a82610f97565b608082019050919050565b6000602082019050818103600083015261106e81611032565b9050919050565b7f50726f626162696c697479206d75737420626520616e20756e7369676e65642060008201527f696e746572676572206265747765656e203120616e6420393000000000000000602082015250565b60006110d1603983610bcb565b91506110dc82611075565b604082019050919050565b60006020820190508181036000830152611100816110c4565b9050919050565b7f5761676572206d7573742062652067726561746572207468616e206f7220657160008201527f75616c20746f20302e3030303120455448000000000000000000000000000000602082015250565b6000611163603183610bcb565b915061116e82611107565b604082019050919050565b6000602082019050818103600083015261119281611156565b9050919050565b60006111a482610a8d565b91506111af83610a8d565b92508282039050818111156111c7576111c6610f34565b5b92915050565b7f4e487b7100000000000000000000000000000000000000000000000000000000600052601260045260246000fd5b600061120782610a8d565b915061121283610a8d565b925082611222576112216111cd565b5b828204905092915050565b600061123882610a8d565b915061124383610a8d565b925082820261125181610a8d565b9150828204841483151761126857611267610f34565b5b5092915050565b7f636f6e747261637420726571756972657320706f74656e7469616c202020207060008201527f61796f757420746f206265206c657373207468616e20313025206f662074686560208201527f2076616c7565206f662065746820696e2074686520636f6e74726163742e0000604082015250565b60006112f1605e83610bcb565b91506112fc8261126f565b606082019050919050565b60006020820190508181036000830152611320816112e4565b9050919050565b600061133282610a8d565b91507fffffffffffffffffffffffffffffffffffffffffffffffffffffffffffffffff820361136457611363610f34565b5b60018201905091905056fe4173796e6368726f6e6f75732072616e646f6d697a6174696f6e20616c676f726974686d2063616c6c6564206f666620636861696e2e2046756e64732077696c6c206265206465706f736974656420696e746f20796f75722077616c6c6574206175746f6d61746963616c6c7920696620796f752077696e2ea2646970667358221220f9a7ce17c816c88b70e32645b2a944f37f7b516aa623ee742febfa48d97f8f3c64736f6c634300081b0033",
  "linkReferences": {},
  "deployedLinkReferences": {}
}