{
  "_format": "hh-sol-artifact-1",
  "contractName": "WAGER",
  "sourceName": "contracts/Donation.sol",
  "abi": [
    {
      "inputs": [
        {
          "internalType": "uint256",
          "name": "expected",
          "type": "uint256"
        },
        {
          "internalType": "uint256",
          "name": "provided",
          "type": "uint256"
        }
      ],
      "name": "InvalidDonation",
      "type": "error"
    },
    {
      "inputs": [],
      "name": "ReentrancyGuardReentrantCall",
      "type": "error"
    },
    {
      "anonymous": false,
      "inputs": [
        {
          "indexed": true,
          "internalType": "uint256",
          "name": "wagerIndex",
          "type": "uint256"
        }
      ],
      "name": "BetPlaced",
      "type": "event"
    },
    {
      "anonymous": false,
      "inputs": [
        {
          "indexed": false,
          "internalType": "uint256",
          "name": "newDenomination",
          "type": "uint256"
        }
      ],
      "name": "DenominationChanged",
      "type": "event"
    },
    {
      "anonymous": false,
      "inputs": [
        {
          "indexed": true,
          "internalType": "uint256",
          "name": "wagerIndex",
          "type": "uint256"
        },
        {
          "indexed": false,
          "internalType": "address",
          "name": "player",
          "type": "address"
        },
        {
          "indexed": false,
          "internalType": "uint256",
          "name": "amount",
          "type": "uint256"
        }
      ],
      "name": "EmergencyWithdrawal",
      "type": "event"
    },
    {
      "anonymous": false,
      "inputs": [
        {
          "indexed": false,
          "internalType": "uint8",
          "name": "version",
          "type": "uint8"
        }
      ],
      "name": "Initialized",
      "type": "event"
    },
    {
      "anonymous": false,
      "inputs": [
        {
          "indexed": true,
          "internalType": "address",
          "name": "previousOwner",
          "type": "address"
        },
        {
          "indexed": true,
          "internalType": "address",
          "name": "newOwner",
          "type": "address"
        }
      ],
      "name": "OwnershipTransferred",
      "type": "event"
    },
    {
      "anonymous": false,
      "inputs": [
        {
          "indexed": false,
          "internalType": "address",
          "name": "account",
          "type": "address"
        }
      ],
      "name": "Paused",
      "type": "event"
    },
    {
      "anonymous": false,
      "inputs": [
        {
          "indexed": false,
          "internalType": "address",
          "name": "account",
          "type": "address"
        }
      ],
      "name": "Unpaused",
      "type": "event"
    },
    {
      "anonymous": false,
      "inputs": [
        {
          "indexed": true,
          "internalType": "uint256",
          "name": "wagerIndex",
          "type": "uint256"
        },
        {
          "indexed": false,
          "internalType": "bool",
          "name": "won",
          "type": "bool"
        }
      ],
      "name": "WagerSettled",
      "type": "event"
    },
    {
      "inputs": [
        {
          "internalType": "uint256",
          "name": "newDenominationInWei",
          "type": "uint256"
        }
      ],
      "name": "ChangeDenomination",
      "outputs": [],
      "stateMutability": "nonpayable",
      "type": "function"
    },
    {
      "inputs": [],
      "name": "HOUSE_EDGE",
      "outputs": [
        {
          "internalType": "uint256",
          "name": "",
          "type": "uint256"
        }
      ],
      "stateMutability": "view",
      "type": "function"
    },
    {
      "inputs": [],
      "name": "HydrateContract",
      "outputs": [
        {
          "internalType": "uint256",
          "name": "",
          "type": "uint256"
        }
      ],
      "stateMutability": "payable",
      "type": "function"
    },
    {
      "inputs": [],
      "name": "Pause",
      "outputs": [],
      "stateMutability": "nonpayable",
      "type": "function"
    },
    {
      "inputs": [
        {
          "internalType": "uint256",
          "name": "wagerIndex",
          "type": "uint256"
        },
        {
          "internalType": "uint256",
          "name": "randomNumber",
          "type": "uint256"
        }
      ],
      "name": "Response",
      "outputs": [],
      "stateMutability": "nonpayable",
      "type": "function"
    },
    {
      "inputs": [
        {
          "internalType": "uint256",
          "name": "wagerIndex",
          "type": "uint256"
        }
      ],
      "name": "USERCheckStatus",
      "outputs": [
        {
          "internalType": "bool",
          "name": "settled",
          "type": "bool"
        },
        {
          "internalType": "bool",
          "name": "won",
          "type": "bool"
        }
      ],
      "stateMutability": "nonpayable",
      "type": "function"
    },
    {
      "inputs": [
        {
          "internalType": "uint256",
          "name": "wagerIndex",
          "type": "uint256"
        }
      ],
      "name": "USEREmergencyWithdrawal",
      "outputs": [],
      "stateMutability": "nonpayable",
      "type": "function"
    },
    {
      "inputs": [
        {
          "internalType": "uint8",
          "name": "tenToNinetyPercentProbabilityOfWin",
          "type": "uint8"
        }
      ],
      "name": "USERPlaceWager",
      "outputs": [
        {
          "internalType": "uint256",
          "name": "wagerIndex",
          "type": "uint256"
        },
        {
          "internalType": "string",
          "name": "message",
          "type": "string"
        }
      ],
      "stateMutability": "payable",
      "type": "function"
    },
    {
      "inputs": [],
      "name": "Unpause",
      "outputs": [],
      "stateMutability": "nonpayable",
      "type": "function"
    },
    {
      "inputs": [
        {
          "internalType": "uint256",
          "name": "",
          "type": "uint256"
        }
      ],
      "name": "Wagers",
      "outputs": [
        {
          "internalType": "address",
          "name": "player",
          "type": "address"
        },
        {
          "internalType": "uint256",
          "name": "timestamp",
          "type": "uint256"
        },
        {
          "internalType": "uint256",
          "name": "odds",
          "type": "uint256"
        },
        {
          "internalType": "uint256",
          "name": "amount",
          "type": "uint256"
        },
        {
          "internalType": "uint256",
          "name": "potentialPayout",
          "type": "uint256"
        },
        {
          "internalType": "uint256",
          "name": "blocknumber",
          "type": "uint256"
        },
        {
          "internalType": "bool",
          "name": "settled",
          "type": "bool"
        },
        {
          "internalType": "bool",
          "name": "won",
          "type": "bool"
        }
      ],
      "stateMutability": "view",
      "type": "function"
    },
    {
      "inputs": [
        {
          "internalType": "uint256",
          "name": "amount",
          "type": "uint256"
        }
      ],
      "name": "Withdraw",
      "outputs": [],
      "stateMutability": "nonpayable",
      "type": "function"
    },
    {
      "inputs": [],
      "name": "denomination",
      "outputs": [
        {
          "internalType": "uint256",
          "name": "",
          "type": "uint256"
        }
      ],
      "stateMutability": "view",
      "type": "function"
    },
    {
      "inputs": [],
      "name": "initialize",
      "outputs": [],
      "stateMutability": "nonpayable",
      "type": "function"
    },
    {
      "inputs": [],
      "name": "owner",
      "outputs": [
        {
          "internalType": "address",
          "name": "",
          "type": "address"
        }
      ],
      "stateMutability": "view",
      "type": "function"
    },
    {
      "inputs": [],
      "name": "paused",
      "outputs": [
        {
          "internalType": "bool",
          "name": "",
          "type": "bool"
        }
      ],
      "stateMutability": "view",
      "type": "function"
    },
    {
      "inputs": [],
      "name": "renounceOwnership",
      "outputs": [],
      "stateMutability": "nonpayable",
      "type": "function"
    },
    {
      "inputs": [
        {
          "internalType": "address",
          "name": "newOwner",
          "type": "address"
        }
      ],
      "name": "transferOwnership",
      "outputs": [],
      "stateMutability": "nonpayable",
      "type": "function"
    }
  ],
  "bytecode": "0x60806040526001609955348015601457600080fd5b50600180819055506123708061002b6000396000f3fe6080604052600436106100fe5760003560e01c80637805862f116100955780638daaaa2f116100645780638daaaa2f146102a2578063992559ac146102cd578063bf453ebb1461030b578063eafefaad1461034f578063f2fde38b14610380576100fe565b80637805862f1461021e5780638129fc1c146102355780638bca6d161461024c5780638da5cb5b14610277576100fe565b80635c975abb116100d15780635c975abb1461019c5780635e72105c146101c75780636985a022146101f0578063715018a614610207576100fe565b80631e04c686146101035780633187e5211461012c578063319f6487146101555780635b6b431d14610173575b600080fd5b34801561010f57600080fd5b5061012a6004803603810190610125919061159e565b6103a9565b005b34801561013857600080fd5b50610153600480360381019061014e919061159e565b6103fa565b005b61015d610649565b60405161016a91906115da565b60405180910390f35b34801561017f57600080fd5b5061019a6004803603810190610195919061159e565b6106ac565b005b3480156101a857600080fd5b506101b1610759565b6040516101be9190611610565b60405180910390f35b3480156101d357600080fd5b506101ee60048036038101906101e9919061162b565b610770565b005b3480156101fc57600080fd5b50610205610a41565b005b34801561021357600080fd5b5061021c610a5b565b005b34801561022a57600080fd5b50610233610a6f565b005b34801561024157600080fd5b5061024a610a89565b005b34801561025857600080fd5b50610261610bdd565b60405161026e91906115da565b60405180910390f35b34801561028357600080fd5b5061028c610be3565b60405161029991906116ac565b60405180910390f35b3480156102ae57600080fd5b506102b7610c0d565b6040516102c491906115da565b60405180910390f35b3480156102d957600080fd5b506102f460048036038101906102ef919061159e565b610c13565b6040516103029291906116c7565b60405180910390f35b34801561031757600080fd5b50610332600480360381019061032d919061159e565b610cd0565b6040516103469897969594939291906116f0565b60405180910390f35b610369600480360381019061036491906117a7565b610d52565b604051610377929190611864565b60405180910390f35b34801561038c57600080fd5b506103a760048036038101906103a291906118c0565b61104a565b005b6103b16110cd565b6103b961114b565b80609a819055507f3988bcea80d2b551e1f142a1b175e3cbaa2dd2cf03d44510a60cbf2fb5c39a9f816040516103ef91906115da565b60405180910390a150565b803373ffffffffffffffffffffffffffffffffffffffff16609b600083815260200190815260200160002060000160009054906101000a900473ffffffffffffffffffffffffffffffffffffffff1673ffffffffffffffffffffffffffffffffffffffff161461049f576040517f08c379a00000000000000000000000000000000000000000000000000000000081526004016104969061195f565b60405180910390fd5b6104a7611194565b609b600083815260200190815260200160002060060160009054906101000a900460ff161561050b576040517f08c379a0000000000000000000000000000000000000000000000000000000008152600401610502906119cb565b60405180910390fd5b61012c609b60008481526020019081526020016000206001015461052f9190611a1a565b421015610571576040517f08c379a000000000000000000000000000000000000000000000000000000000815260040161056890611ac0565b60405180910390fd5b6001609b600084815260200190815260200160002060060160006101000a81548160ff0219169083151502179055506000609b6000848152602001908152602001600020600301549050827f18fcb562d23857df60e33824b748cb5c3af4e22375458317e7a33e52a971413f33836040516105ed929190611ae0565b60405180910390a23373ffffffffffffffffffffffffffffffffffffffff166108fc829081150290604051600060405180830381858888f1935050505015801561063b573d6000803e3d6000fd5b50506106456111da565b5050565b60006106536110cd565b61065b611194565b6000341161069e576040517f08c379a000000000000000000000000000000000000000000000000000000000815260040161069590611b55565b60405180910390fd5b4790506106a96111da565b90565b6106b46110cd565b6106bc611194565b6106c461114b565b80471015610707576040517f08c379a00000000000000000000000000000000000000000000000000000000081526004016106fe90611bc1565b60405180910390fd5b3373ffffffffffffffffffffffffffffffffffffffff166108fc829081150290604051600060405180830381858888f1935050505015801561074d573d6000803e3d6000fd5b506107566111da565b50565b6000603460009054906101000a900460ff16905090565b6107786110cd565b610780611194565b6000609b600084815260200190815260200160002060010154036107d9576040517f08c379a00000000000000000000000000000000000000000000000000000000081526004016107d090611c2d565b60405180910390fd5b609b600083815260200190815260200160002060060160009054906101000a900460ff161561083d576040517f08c379a0000000000000000000000000000000000000000000000000000000008152600401610834906119cb565b60405180910390fd5b6063811115610881576040517f08c379a000000000000000000000000000000000000000000000000000000000815260040161087890611c99565b60405180910390fd5b6001609b600084815260200190815260200160002060060160006101000a81548160ff021916908315150217905550609b6000838152602001908152602001600020600201548110156109da576000609b60008481526020019081526020016000206004015490508047101561092c576040517f08c379a000000000000000000000000000000000000000000000000000000000815260040161092390611d05565b60405180910390fd5b6001609b600085815260200190815260200160002060060160016101000a81548160ff021916908315150217905550609b600084815260200190815260200160002060000160009054906101000a900473ffffffffffffffffffffffffffffffffffffffff1673ffffffffffffffffffffffffffffffffffffffff166108fc829081150290604051600060405180830381858888f193505050501580156109d7573d6000803e3d6000fd5b50505b817feed6acef2beed28190da65fdd1d3c20a50e4752ca8236a54aad6a1af575ba4fa609b600085815260200190815260200160002060060160019054906101000a900460ff16604051610a2d9190611610565b60405180910390a2610a3d6111da565b5050565b610a496110cd565b610a516111e3565b610a5961122d565b565b610a636110cd565b610a6d6000611290565b565b610a776110cd565b610a7f61114b565b610a87611356565b565b60008060019054906101000a900460ff16159050808015610aba5750600160008054906101000a900460ff1660ff16105b80610ae75750610ac9306113b9565b158015610ae65750600160008054906101000a900460ff1660ff16145b5b610b26576040517f08c379a0000000000000000000000000000000000000000000000000000000008152600401610b1d90611d97565b60405180910390fd5b60016000806101000a81548160ff021916908360ff1602179055508015610b63576001600060016101000a81548160ff0219169083151502179055505b610b6b6113dc565b610b73611435565b6611c37937e08000609a819055508015610bda5760008060016101000a81548160ff0219169083151502179055507f7f26b83ff96e1f2b6a682f133852f6798a09c465da95921460cefb38474024986001604051610bd19190611dfc565b60405180910390a15b50565b609a5481565b6000606660009054906101000a900473ffffffffffffffffffffffffffffffffffffffff16905090565b60995481565b600080610c1e611194565b6000609b60008581526020019081526020016000206001015403610c77576040517f08c379a0000000000000000000000000000000000000000000000000000000008152600401610c6e90611c2d565b60405180910390fd5b609b600084815260200190815260200160002060060160009054906101000a900460ff16609b600085815260200190815260200160002060060160019054906101000a900460ff1691509150610ccb6111da565b915091565b609b6020528060005260406000206000915090508060000160009054906101000a900473ffffffffffffffffffffffffffffffffffffffff16908060010154908060020154908060030154908060040154908060050154908060060160009054906101000a900460ff16908060060160019054906101000a900460ff16905088565b60006060610d5e611194565b610d666111e3565b600a8360ff1610158015610d7e5750605a8360ff1611155b610dbd576040517f08c379a0000000000000000000000000000000000000000000000000000000008152600401610db490611e89565b60405180910390fd5b609a543414610e0757609a54346040517f33740d62000000000000000000000000000000000000000000000000000000008152600401610dfe929190611ea9565b60405180910390fd5b6000670de0b6b3a76400008460ff16670de0b6b3a76400006099546064610e2e9190611ed2565b34610e399190611f06565b610e439190611f06565b610e4d9190611f77565b610e579190611f77565b905080600247610e679190611f77565b1015610ea8576040517f08c379a0000000000000000000000000000000000000000000000000000000008152600401610e9f9061201a565b60405180910390fd5b6040518061010001604052803373ffffffffffffffffffffffffffffffffffffffff1681526020014281526020018560ff16815260200134815260200182815260200143815260200160001515815260200160001515815250609b6000609854815260200190815260200160002060008201518160000160006101000a81548173ffffffffffffffffffffffffffffffffffffffff021916908373ffffffffffffffffffffffffffffffffffffffff1602179055506020820151816001015560408201518160020155606082015181600301556080820151816004015560a0820151816005015560c08201518160060160006101000a81548160ff02191690831515021790555060e08201518160060160016101000a81548160ff0219169083151502179055509050506098547fde1fae6a99c0f84e9bee8b7f9d2d7663e46384ff079f389d5b4b6018b56e56e960405160405180910390a26098549250609860008154809291906110199061203a565b9190505550826040518060800160405280605081526020016122eb6050913992509250506110456111da565b915091565b6110526110cd565b600073ffffffffffffffffffffffffffffffffffffffff168173ffffffffffffffffffffffffffffffffffffffff16036110c1576040517f08c379a00000000000000000000000000000000000000000000000000000000081526004016110b8906120f4565b60405180910390fd5b6110ca81611290565b50565b6110d561148e565b73ffffffffffffffffffffffffffffffffffffffff166110f3610be3565b73ffffffffffffffffffffffffffffffffffffffff1614611149576040517f08c379a000000000000000000000000000000000000000000000000000000000815260040161114090612160565b60405180910390fd5b565b611153610759565b611192576040517f08c379a0000000000000000000000000000000000000000000000000000000008152600401611189906121cc565b60405180910390fd5b565b6002600154036111d0576040517f3ee5aeb500000000000000000000000000000000000000000000000000000000815260040160405180910390fd5b6002600181905550565b60018081905550565b6111eb610759565b1561122b576040517f08c379a000000000000000000000000000000000000000000000000000000000815260040161122290612238565b60405180910390fd5b565b6112356111e3565b6001603460006101000a81548160ff0219169083151502179055507f62e78cea01bee320cd4e420270b5ea74000d11b0c9f74754ebdbfc544b05a25861127961148e565b60405161128691906116ac565b60405180910390a1565b6000606660009054906101000a900473ffffffffffffffffffffffffffffffffffffffff16905081606660006101000a81548173ffffffffffffffffffffffffffffffffffffffff021916908373ffffffffffffffffffffffffffffffffffffffff1602179055508173ffffffffffffffffffffffffffffffffffffffff168173ffffffffffffffffffffffffffffffffffffffff167f8be0079c531659141344cd1fd0a4f28419497f9722a3daafe3b4186f6b6457e060405160405180910390a35050565b61135e61114b565b6000603460006101000a81548160ff0219169083151502179055507f5db9ee0a495bf2e6ff9c91a7834c1ba4fdd244a5e8aa4e537bd38aeae4b073aa6113a261148e565b6040516113af91906116ac565b60405180910390a1565b6000808273ffffffffffffffffffffffffffffffffffffffff163b119050919050565b600060019054906101000a900460ff1661142b576040517f08c379a0000000000000000000000000000000000000000000000000000000008152600401611422906122ca565b60405180910390fd5b611433611496565b565b600060019054906101000a900460ff16611484576040517f08c379a000000000000000000000000000000000000000000000000000000000815260040161147b906122ca565b60405180910390fd5b61148c611502565b565b600033905090565b600060019054906101000a900460ff166114e5576040517f08c379a00000000000000000000000000000000000000000000000000000000081526004016114dc906122ca565b60405180910390fd5b6000603460006101000a81548160ff021916908315150217905550565b600060019054906101000a900460ff16611551576040517f08c379a0000000000000000000000000000000000000000000000000000000008152600401611548906122ca565b60405180910390fd5b61156161155c61148e565b611290565b565b600080fd5b6000819050919050565b61157b81611568565b811461158657600080fd5b50565b60008135905061159881611572565b92915050565b6000602082840312156115b4576115b3611563565b5b60006115c284828501611589565b91505092915050565b6115d481611568565b82525050565b60006020820190506115ef60008301846115cb565b92915050565b60008115159050919050565b61160a816115f5565b82525050565b60006020820190506116256000830184611601565b92915050565b6000806040838503121561164257611641611563565b5b600061165085828601611589565b925050602061166185828601611589565b9150509250929050565b600073ffffffffffffffffffffffffffffffffffffffff82169050919050565b60006116968261166b565b9050919050565b6116a68161168b565b82525050565b60006020820190506116c1600083018461169d565b92915050565b60006040820190506116dc6000830185611601565b6116e96020830184611601565b9392505050565b600061010082019050611706600083018b61169d565b611713602083018a6115cb565b61172060408301896115cb565b61172d60608301886115cb565b61173a60808301876115cb565b61174760a08301866115cb565b61175460c0830185611601565b61176160e0830184611601565b9998505050505050505050565b600060ff82169050919050565b6117848161176e565b811461178f57600080fd5b50565b6000813590506117a18161177b565b92915050565b6000602082840312156117bd576117bc611563565b5b60006117cb84828501611792565b91505092915050565b600081519050919050565b600082825260208201905092915050565b60005b8381101561180e5780820151818401526020810190506117f3565b60008484015250505050565b6000601f19601f8301169050919050565b6000611836826117d4565b61184081856117df565b93506118508185602086016117f0565b6118598161181a565b840191505092915050565b600060408201905061187960008301856115cb565b818103602083015261188b818461182b565b90509392505050565b61189d8161168b565b81146118a857600080fd5b50565b6000813590506118ba81611894565b92915050565b6000602082840312156118d6576118d5611563565b5b60006118e4848285016118ab565b91505092915050565b7f417574686f72697a6174696f6e206661696c65643a20496e76616c696420776160008201527f67657220696e646578206f722077616c6c657400000000000000000000000000602082015250565b60006119496033836117df565b9150611954826118ed565b604082019050919050565b600060208201905081810360008301526119788161193c565b9050919050565b7f576167657220616c726561647920736574746c65640000000000000000000000600082015250565b60006119b56015836117df565b91506119c08261197f565b602082019050919050565b600060208201905081810360008301526119e4816119a8565b9050919050565b7f4e487b7100000000000000000000000000000000000000000000000000000000600052601160045260246000fd5b6000611a2582611568565b9150611a3083611568565b9250828201905080821115611a4857611a476119eb565b5b92915050565b7f4d75737420776169742035206d696e7574657320666f7220756e726573706f6e60008201527f73697665206e6f64650000000000000000000000000000000000000000000000602082015250565b6000611aaa6029836117df565b9150611ab582611a4e565b604082019050919050565b60006020820190508181036000830152611ad981611a9d565b9050919050565b6000604082019050611af5600083018561169d565b611b0260208301846115cb565b9392505050565b7f4d7573742073656e642045544820746f20687964726174650000000000000000600082015250565b6000611b3f6018836117df565b9150611b4a82611b09565b602082019050919050565b60006020820190508181036000830152611b6e81611b32565b9050919050565b7f496e73756666696369656e742066756e64730000000000000000000000000000600082015250565b6000611bab6012836117df565b9150611bb682611b75565b602082019050919050565b60006020820190508181036000830152611bda81611b9e565b9050919050565b7f576167657220646f6573206e6f74206578697374000000000000000000000000600082015250565b6000611c176014836117df565b9150611c2282611be1565b602082019050919050565b60006020820190508181036000830152611c4681611c0a565b9050919050565b7f52616e646f6d206e756d626572206d75737420626520302d3939000000000000600082015250565b6000611c83601a836117df565b9150611c8e82611c4d565b602082019050919050565b60006020820190508181036000830152611cb281611c76565b9050919050565b7f496e73756666696369656e7420636f6e74726163742062616c616e6365000000600082015250565b6000611cef601d836117df565b9150611cfa82611cb9565b602082019050919050565b60006020820190508181036000830152611d1e81611ce2565b9050919050565b7f496e697469616c697a61626c653a20636f6e747261637420697320616c72656160008201527f647920696e697469616c697a6564000000000000000000000000000000000000602082015250565b6000611d81602e836117df565b9150611d8c82611d25565b604082019050919050565b60006020820190508181036000830152611db081611d74565b9050919050565b6000819050919050565b6000819050919050565b6000611de6611de1611ddc84611db7565b611dc1565b61176e565b9050919050565b611df681611dcb565b82525050565b6000602082019050611e116000830184611ded565b92915050565b7f50726f626162696c697479206d757374206265206265747765656e203130206160008201527f6e64203930000000000000000000000000000000000000000000000000000000602082015250565b6000611e736025836117df565b9150611e7e82611e17565b604082019050919050565b60006020820190508181036000830152611ea281611e66565b9050919050565b6000604082019050611ebe60008301856115cb565b611ecb60208301846115cb565b9392505050565b6000611edd82611568565b9150611ee883611568565b9250828203905081811115611f0057611eff6119eb565b5b92915050565b6000611f1182611568565b9150611f1c83611568565b9250828202611f2a81611568565b91508282048414831517611f4157611f406119eb565b5b5092915050565b7f4e487b7100000000000000000000000000000000000000000000000000000000600052601260045260246000fd5b6000611f8282611568565b9150611f8d83611568565b925082611f9d57611f9c611f48565b5b828204905092915050565b7f506f74656e7469616c207061796f7574206578636565647320353025206f662060008201527f636f6e74726163742062616c616e636500000000000000000000000000000000602082015250565b60006120046030836117df565b915061200f82611fa8565b604082019050919050565b6000602082019050818103600083015261203381611ff7565b9050919050565b600061204582611568565b91507fffffffffffffffffffffffffffffffffffffffffffffffffffffffffffffffff8203612077576120766119eb565b5b600182019050919050565b7f4f776e61626c653a206e6577206f776e657220697320746865207a65726f206160008201527f6464726573730000000000000000000000000000000000000000000000000000602082015250565b60006120de6026836117df565b91506120e982612082565b604082019050919050565b6000602082019050818103600083015261210d816120d1565b9050919050565b7f4f776e61626c653a2063616c6c6572206973206e6f7420746865206f776e6572600082015250565b600061214a6020836117df565b915061215582612114565b602082019050919050565b600060208201905081810360008301526121798161213d565b9050919050565b7f5061757361626c653a206e6f7420706175736564000000000000000000000000600082015250565b60006121b66014836117df565b91506121c182612180565b602082019050919050565b600060208201905081810360008301526121e5816121a9565b9050919050565b7f5061757361626c653a2070617573656400000000000000000000000000000000600082015250565b60006122226010836117df565b915061222d826121ec565b602082019050919050565b6000602082019050818103600083015261225181612215565b9050919050565b7f496e697469616c697a61626c653a20636f6e7472616374206973206e6f74206960008201527f6e697469616c697a696e67000000000000000000000000000000000000000000602082015250565b60006122b4602b836117df565b91506122bf82612258565b604082019050919050565b600060208201905081810360008301526122e3816122a7565b905091905056fe4173796e6368726f6e6f75732072616e646f6d697a6174696f6e2063616c6c6564206f66662d636861696e2e2046756e64732077696c6c206265206465706f736974656420696620796f752077696e2ea26469706673582212203a48fdbc6d9f5c4834b45142553c9c502c5b7b685a41683e1c9ce789a80d9bb064736f6c634300081b0033",
  "linkReferences": {},
  "deployedLinkReferences": {}
}