{
  "_format": "hh-sol-artifact-1",
  "contractName": "XMR_ETH",
  "sourceName": "contracts/Master.sol",
  "abi": [
    {
      "inputs": [],
      "name": "ReentrancyGuardReentrantCall",
      "type": "error"
    },
    {
      "anonymous": false,
      "inputs": [],
      "name": "DontHaveMoneroAddress",
      "type": "event"
    },
    {
      "anonymous": false,
      "inputs": [
        {
          "indexed": false,
          "internalType": "uint256",
          "name": "withdrawalAmount",
          "type": "uint256"
        }
      ],
      "name": "EthSentEvent",
      "type": "event"
    },
    {
      "anonymous": false,
      "inputs": [
        {
          "indexed": false,
          "internalType": "string",
          "name": "moneroAddress",
          "type": "string"
        }
      ],
      "name": "HaveMoneroAddress",
      "type": "event"
    },
    {
      "anonymous": false,
      "inputs": [
        {
          "indexed": false,
          "internalType": "uint256",
          "name": "amountReceived",
          "type": "uint256"
        }
      ],
      "name": "MoneroReceived",
      "type": "event"
    },
    {
      "anonymous": false,
      "inputs": [
        {
          "indexed": false,
          "internalType": "uint256",
          "name": "amount",
          "type": "uint256"
        },
        {
          "indexed": true,
          "internalType": "address",
          "name": "recipient",
          "type": "address"
        }
      ],
      "name": "SwapCompleted",
      "type": "event"
    },
    {
      "anonymous": false,
      "inputs": [
        {
          "indexed": false,
          "internalType": "string",
          "name": "errorMessage",
          "type": "string"
        }
      ],
      "name": "SwapFailed",
      "type": "event"
    },
    {
      "inputs": [],
      "name": "AddressGenerationFailure",
      "outputs": [],
      "stateMutability": "nonpayable",
      "type": "function"
    },
    {
      "inputs": [
        {
          "internalType": "string",
          "name": "_moneroAddress",
          "type": "string"
        }
      ],
      "name": "AddressGenerationSuccess",
      "outputs": [],
      "stateMutability": "nonpayable",
      "type": "function"
    },
    {
      "inputs": [
        {
          "internalType": "string",
          "name": "errorMessage",
          "type": "string"
        }
      ],
      "name": "SwapFailureConfirmation",
      "outputs": [],
      "stateMutability": "nonpayable",
      "type": "function"
    },
    {
      "inputs": [
        {
          "internalType": "uint256",
          "name": "amountReceived",
          "type": "uint256"
        }
      ],
      "name": "TransmitMoneroReceived",
      "outputs": [],
      "stateMutability": "nonpayable",
      "type": "function"
    },
    {
      "inputs": [
        {
          "internalType": "address",
          "name": "_withdrawalAddress",
          "type": "address"
        },
        {
          "internalType": "address payable",
          "name": "_master",
          "type": "address"
        },
        {
          "internalType": "address",
          "name": "_oracle",
          "type": "address"
        }
      ],
      "name": "initialize",
      "outputs": [],
      "stateMutability": "nonpayable",
      "type": "function"
    },
    {
      "inputs": [],
      "name": "moneroAddress",
      "outputs": [
        {
          "internalType": "string",
          "name": "",
          "type": "string"
        }
      ],
      "stateMutability": "view",
      "type": "function"
    },
    {
      "inputs": [],
      "name": "oracle",
      "outputs": [
        {
          "internalType": "address",
          "name": "",
          "type": "address"
        }
      ],
      "stateMutability": "view",
      "type": "function"
    },
    {
      "inputs": [],
      "name": "withdrawalAddress",
      "outputs": [
        {
          "internalType": "address",
          "name": "",
          "type": "address"
        }
      ],
      "stateMutability": "view",
      "type": "function"
    },
    {
      "inputs": [],
      "name": "withdrawalConfirmation",
      "outputs": [
        {
          "internalType": "address",
          "name": "",
          "type": "address"
        }
      ],
      "stateMutability": "view",
      "type": "function"
    }
  ],
  "bytecode": "0x6080604052348015600f57600080fd5b50600160008190555061146f806100276000396000f3fe608060405234801561001057600080fd5b50600436106100935760003560e01c80637dc0d1d0116100665780637dc0d1d0146100f8578063c0c53b8b14610116578063c66e903a14610132578063e4fd6a6c1461014e578063f2bcd0221461016c57610093565b806306bff32e14610098578063308e39f4146100b65780636ccfcb10146100d257806378ef5ffe146100dc575b600080fd5b6100a061018a565b6040516100ad9190610a3c565b60405180910390f35b6100d060048036038101906100cb9190610aa8565b610218565b005b6100da61044e565b005b6100f660048036038101906100f19190610c0a565b610587565b005b6101006106cc565b60405161010d9190610c94565b60405180910390f35b610130600480360381019061012b9190610d19565b6106f2565b005b61014c60048036038101906101479190610c0a565b6107ba565b005b610156610910565b6040516101639190610c94565b60405180910390f35b610174610936565b6040516101819190610c94565b60405180910390f35b6001805461019790610d9b565b80601f01602080910402602001604051908101604052809291908181526020018280546101c390610d9b565b80156102105780601f106101e557610100808354040283529160200191610210565b820191906000526020600020905b8154815290600101906020018083116101f357829003601f168201915b505050505081565b600560009054906101000a900473ffffffffffffffffffffffffffffffffffffffff1673ffffffffffffffffffffffffffffffffffffffff163373ffffffffffffffffffffffffffffffffffffffff16146102a8576040517f08c379a000000000000000000000000000000000000000000000000000000000815260040161029f90610e18565b60405180910390fd5b6102b061095c565b600081116102f3576040517f08c379a00000000000000000000000000000000000000000000000000000000081526004016102ea90610eaa565b60405180910390fd5b7f2ce4322fe29e83ca8758b93053add080d7b235b60aaa34225b6e5e98a12d09b6816040516103229190610ed9565b60405180910390a16000600460009054906101000a900473ffffffffffffffffffffffffffffffffffffffff1673ffffffffffffffffffffffffffffffffffffffff1663d2007f1083600260009054906101000a900473ffffffffffffffffffffffffffffffffffffffff166040518363ffffffff1660e01b81526004016103ab929190610ef4565b6020604051808303816000875af11580156103ca573d6000803e3d6000fd5b505050506040513d601f19601f820116820180604052508101906103ee9190610f32565b90507f53650e0823299d203d2fada15301ffd630efbcf6d7055d373dc04202491bc4648160405161041f9190610ed9565b60405180910390a16001600560176101000a81548160ff0219169083151502179055505061044b6109a2565b50565b600560009054906101000a900473ffffffffffffffffffffffffffffffffffffffff1673ffffffffffffffffffffffffffffffffffffffff163373ffffffffffffffffffffffffffffffffffffffff16146104de576040517f08c379a00000000000000000000000000000000000000000000000000000000081526004016104d590610e18565b60405180910390fd5b6104e661095c565b600560169054906101000a900460ff1615610536576040517f08c379a000000000000000000000000000000000000000000000000000000000815260040161052d90610fd1565b60405180910390fd5b7f4f841aea6a8b78601596ad9b737ffe9a7393de75534c533f41b35f8b1ff0ba8c60405160405180910390a16001600560166101000a81548160ff0219169083151502179055506105856109a2565b565b600560009054906101000a900473ffffffffffffffffffffffffffffffffffffffff1673ffffffffffffffffffffffffffffffffffffffff163373ffffffffffffffffffffffffffffffffffffffff1614610617576040517f08c379a000000000000000000000000000000000000000000000000000000000815260040161060e90610e18565b60405180910390fd5b61061f61095c565b600560149054906101000a900460ff161561066f576040517f08c379a000000000000000000000000000000000000000000000000000000000815260040161066690611063565b60405180910390fd5b7f4ecb9b6d2e2efee3f1b1b86927f5895fc3f627ac91d5ebfe344df8ae1eec07238160405161069e9190610a3c565b60405180910390a16001600560146101000a81548160ff0219169083151502179055506106c96109a2565b50565b600560009054906101000a900473ffffffffffffffffffffffffffffffffffffffff1681565b82600260006101000a81548173ffffffffffffffffffffffffffffffffffffffff021916908373ffffffffffffffffffffffffffffffffffffffff16021790555081600460006101000a81548173ffffffffffffffffffffffffffffffffffffffff021916908373ffffffffffffffffffffffffffffffffffffffff16021790555080600560006101000a81548173ffffffffffffffffffffffffffffffffffffffff021916908373ffffffffffffffffffffffffffffffffffffffff160217905550505050565b600560009054906101000a900473ffffffffffffffffffffffffffffffffffffffff1673ffffffffffffffffffffffffffffffffffffffff163373ffffffffffffffffffffffffffffffffffffffff161461084a576040517f08c379a000000000000000000000000000000000000000000000000000000000815260040161084190610e18565b60405180910390fd5b61085261095c565b600560159054906101000a900460ff16156108a2576040517f08c379a0000000000000000000000000000000000000000000000000000000008152600401610899906110f5565b60405180910390fd5b80600190816108b191906112c1565b507f0326f6cfcc2461ed08d13f3a1122e6818563b0b5dff401f21236901bd4c08a9560016040516108e29190611417565b60405180910390a16001600560156101000a81548160ff02191690831515021790555061090d6109a2565b50565b600360009054906101000a900473ffffffffffffffffffffffffffffffffffffffff1681565b600260009054906101000a900473ffffffffffffffffffffffffffffffffffffffff1681565b600260005403610998576040517f3ee5aeb500000000000000000000000000000000000000000000000000000000815260040160405180910390fd5b6002600081905550565b6001600081905550565b600081519050919050565b600082825260208201905092915050565b60005b838110156109e65780820151818401526020810190506109cb565b60008484015250505050565b6000601f19601f8301169050919050565b6000610a0e826109ac565b610a1881856109b7565b9350610a288185602086016109c8565b610a31816109f2565b840191505092915050565b60006020820190508181036000830152610a568184610a03565b905092915050565b6000604051905090565b600080fd5b600080fd5b6000819050919050565b610a8581610a72565b8114610a9057600080fd5b50565b600081359050610aa281610a7c565b92915050565b600060208284031215610abe57610abd610a68565b5b6000610acc84828501610a93565b91505092915050565b600080fd5b600080fd5b7f4e487b7100000000000000000000000000000000000000000000000000000000600052604160045260246000fd5b610b17826109f2565b810181811067ffffffffffffffff82111715610b3657610b35610adf565b5b80604052505050565b6000610b49610a5e565b9050610b558282610b0e565b919050565b600067ffffffffffffffff821115610b7557610b74610adf565b5b610b7e826109f2565b9050602081019050919050565b82818337600083830152505050565b6000610bad610ba884610b5a565b610b3f565b905082815260208101848484011115610bc957610bc8610ada565b5b610bd4848285610b8b565b509392505050565b600082601f830112610bf157610bf0610ad5565b5b8135610c01848260208601610b9a565b91505092915050565b600060208284031215610c2057610c1f610a68565b5b600082013567ffffffffffffffff811115610c3e57610c3d610a6d565b5b610c4a84828501610bdc565b91505092915050565b600073ffffffffffffffffffffffffffffffffffffffff82169050919050565b6000610c7e82610c53565b9050919050565b610c8e81610c73565b82525050565b6000602082019050610ca96000830184610c85565b92915050565b610cb881610c73565b8114610cc357600080fd5b50565b600081359050610cd581610caf565b92915050565b6000610ce682610c53565b9050919050565b610cf681610cdb565b8114610d0157600080fd5b50565b600081359050610d1381610ced565b92915050565b600080600060608486031215610d3257610d31610a68565b5b6000610d4086828701610cc6565b9350506020610d5186828701610d04565b9250506040610d6286828701610cc6565b9150509250925092565b7f4e487b7100000000000000000000000000000000000000000000000000000000600052602260045260246000fd5b60006002820490506001821680610db357607f821691505b602082108103610dc657610dc5610d6c565b5b50919050565b7f43616c6c6572206973206e6f7420746865206f7261636c650000000000000000600082015250565b6000610e026018836109b7565b9150610e0d82610dcc565b602082019050919050565b60006020820190508181036000830152610e3181610df5565b9050919050565b7f496e76616c69642066756e6374696f6e2063616c6c2c206d6f6e65726f20726560008201527f6365697665642068617320746f2062652067726561746572207468616e203000602082015250565b6000610e94603f836109b7565b9150610e9f82610e38565b604082019050919050565b60006020820190508181036000830152610ec381610e87565b9050919050565b610ed381610a72565b82525050565b6000602082019050610eee6000830184610eca565b92915050565b6000604082019050610f096000830185610eca565b610f166020830184610c85565b9392505050565b600081519050610f2c81610a7c565b92915050565b600060208284031215610f4857610f47610a68565b5b6000610f5684828501610f1d565b91505092915050565b7f416464726573732047656e65726174696f6e204661696c75726520616c72656160008201527f64792063616c6c65640000000000000000000000000000000000000000000000602082015250565b6000610fbb6029836109b7565b9150610fc682610f5f565b604082019050919050565b60006020820190508181036000830152610fea81610fae565b9050919050565b7f53776170204661696c75726520636f6e6669726d6174696f6e20616c7265616460008201527f792063616c6c6564000000000000000000000000000000000000000000000000602082015250565b600061104d6028836109b7565b915061105882610ff1565b604082019050919050565b6000602082019050818103600083015261107c81611040565b9050919050565b7f416464726573732067656e65726174696f6e207375636365737320616c72656160008201527f64792063616c6c65640000000000000000000000000000000000000000000000602082015250565b60006110df6029836109b7565b91506110ea82611083565b604082019050919050565b6000602082019050818103600083015261110e816110d2565b9050919050565b60008190508160005260206000209050919050565b60006020601f8301049050919050565b600082821b905092915050565b6000600883026111777fffffffffffffffffffffffffffffffffffffffffffffffffffffffffffffffff8261113a565b611181868361113a565b95508019841693508086168417925050509392505050565b6000819050919050565b60006111be6111b96111b484610a72565b611199565b610a72565b9050919050565b6000819050919050565b6111d8836111a3565b6111ec6111e4826111c5565b848454611147565b825550505050565b600090565b6112016111f4565b61120c8184846111cf565b505050565b5b81811015611230576112256000826111f9565b600181019050611212565b5050565b601f8211156112755761124681611115565b61124f8461112a565b8101602085101561125e578190505b61127261126a8561112a565b830182611211565b50505b505050565b600082821c905092915050565b60006112986000198460080261127a565b1980831691505092915050565b60006112b18383611287565b9150826002028217905092915050565b6112ca826109ac565b67ffffffffffffffff8111156112e3576112e2610adf565b5b6112ed8254610d9b565b6112f8828285611234565b600060209050601f83116001811461132b5760008415611319578287015190505b61132385826112a5565b86555061138b565b601f19841661133986611115565b60005b828110156113615784890151825560018201915060208501945060208101905061133c565b8683101561137e578489015161137a601f891682611287565b8355505b6001600288020188555050505b505050505050565b600081546113a081610d9b565b6113aa81866109b7565b945060018216600081146113c557600181146113db5761140e565b60ff19831686528115156020028601935061140e565b6113e485611115565b60005b83811015611406578154818901526001820191506020810190506113e7565b808801955050505b50505092915050565b600060208201905081810360008301526114318184611393565b90509291505056fea264697066735822122057e62c1f2b72c3577822ddcf4cb7095c77152336adde8286b0c06f39edc1e0b664736f6c634300081b0033",
  "linkReferences": {},
  "deployedLinkReferences": {}
}