{
  "_format": "hh-sol-artifact-1",
  "contractName": "XMR_ETH",
  "sourceName": "contracts/Master.sol",
  "abi": [
    {
      "inputs": [],
      "name": "ReentrancyGuardReentrantCall",
      "type": "error"
    },
    {
      "anonymous": false,
      "inputs": [],
      "name": "DontHaveMoneroAddress",
      "type": "event"
    },
    {
      "anonymous": false,
      "inputs": [
        {
          "indexed": false,
          "internalType": "uint256",
          "name": "timestamp",
          "type": "uint256"
        },
        {
          "indexed": false,
          "internalType": "uint256",
          "name": "withdrawalAmount",
          "type": "uint256"
        }
      ],
      "name": "EthSentEvent",
      "type": "event"
    },
    {
      "anonymous": false,
      "inputs": [
        {
          "indexed": false,
          "internalType": "string",
          "name": "moneroAddress",
          "type": "string"
        }
      ],
      "name": "HaveMoneroAddress",
      "type": "event"
    },
    {
      "anonymous": false,
      "inputs": [
        {
          "indexed": false,
          "internalType": "uint256",
          "name": "amountReceived",
          "type": "uint256"
        }
      ],
      "name": "MoneroReceived",
      "type": "event"
    },
    {
      "anonymous": false,
      "inputs": [
        {
          "indexed": false,
          "internalType": "uint256",
          "name": "amount",
          "type": "uint256"
        },
        {
          "indexed": true,
          "internalType": "address",
          "name": "recipient",
          "type": "address"
        }
      ],
      "name": "SwapCompleted",
      "type": "event"
    },
    {
      "anonymous": false,
      "inputs": [
        {
          "indexed": false,
          "internalType": "string",
          "name": "errorMessage",
          "type": "string"
        }
      ],
      "name": "SwapFailed",
      "type": "event"
    },
    {
      "inputs": [],
      "name": "AddressGenerationFailure",
      "outputs": [],
      "stateMutability": "nonpayable",
      "type": "function"
    },
    {
      "inputs": [
        {
          "internalType": "string",
          "name": "_moneroAddress",
          "type": "string"
        }
      ],
      "name": "AddressGenerationSuccess",
      "outputs": [],
      "stateMutability": "nonpayable",
      "type": "function"
    },
    {
      "inputs": [
        {
          "internalType": "string",
          "name": "errorMessage",
          "type": "string"
        }
      ],
      "name": "SwapFailureConfirmation",
      "outputs": [],
      "stateMutability": "nonpayable",
      "type": "function"
    },
    {
      "inputs": [
        {
          "internalType": "uint256",
          "name": "amountReceived",
          "type": "uint256"
        }
      ],
      "name": "TransmitMoneroReceived",
      "outputs": [],
      "stateMutability": "nonpayable",
      "type": "function"
    },
    {
      "inputs": [
        {
          "internalType": "address",
          "name": "_withdrawalAddress",
          "type": "address"
        },
        {
          "internalType": "address",
          "name": "_master",
          "type": "address"
        },
        {
          "internalType": "address",
          "name": "_oracle",
          "type": "address"
        }
      ],
      "name": "initialize",
      "outputs": [],
      "stateMutability": "nonpayable",
      "type": "function"
    },
    {
      "inputs": [],
      "name": "master",
      "outputs": [
        {
          "internalType": "address",
          "name": "",
          "type": "address"
        }
      ],
      "stateMutability": "view",
      "type": "function"
    },
    {
      "inputs": [],
      "name": "moneroAddress",
      "outputs": [
        {
          "internalType": "string",
          "name": "",
          "type": "string"
        }
      ],
      "stateMutability": "view",
      "type": "function"
    },
    {
      "inputs": [],
      "name": "oracle",
      "outputs": [
        {
          "internalType": "address",
          "name": "",
          "type": "address"
        }
      ],
      "stateMutability": "view",
      "type": "function"
    },
    {
      "inputs": [],
      "name": "withdrawalAddress",
      "outputs": [
        {
          "internalType": "address",
          "name": "",
          "type": "address"
        }
      ],
      "stateMutability": "view",
      "type": "function"
    },
    {
      "inputs": [],
      "name": "withdrawalConfirmation",
      "outputs": [
        {
          "internalType": "address",
          "name": "",
          "type": "address"
        }
      ],
      "stateMutability": "view",
      "type": "function"
    }
  ],
  "bytecode": "0x6080604052348015600f57600080fd5b50600160008190555061118f806100276000396000f3fe608060405234801561001057600080fd5b506004361061009e5760003560e01c8063c0c53b8b11610066578063c0c53b8b14610121578063c66e903a1461013d578063e4fd6a6c14610159578063ee97f7f314610177578063f2bcd022146101955761009e565b806306bff32e146100a3578063308e39f4146100c15780636ccfcb10146100dd57806378ef5ffe146100e75780637dc0d1d014610103575b600080fd5b6100ab6101b3565b6040516100b89190610914565b60405180910390f35b6100db60048036038101906100d69190610980565b610241565b005b6100e5610461565b005b61010160048036038101906100fc9190610ae2565b61051f565b005b61010b6105f9565b6040516101189190610b6c565b60405180910390f35b61013b60048036038101906101369190610bb3565b61061f565b005b61015760048036038101906101529190610ae2565b6106e7565b005b6101616107c2565b60405161016e9190610b6c565b60405180910390f35b61017f6107e8565b60405161018c9190610b6c565b60405180910390f35b61019d61080e565b6040516101aa9190610b6c565b60405180910390f35b600180546101c090610c35565b80601f01602080910402602001604051908101604052809291908181526020018280546101ec90610c35565b80156102395780601f1061020e57610100808354040283529160200191610239565b820191906000526020600020905b81548152906001019060200180831161021c57829003601f168201915b505050505081565b600560009054906101000a900473ffffffffffffffffffffffffffffffffffffffff1673ffffffffffffffffffffffffffffffffffffffff163373ffffffffffffffffffffffffffffffffffffffff16146102d1576040517f08c379a00000000000000000000000000000000000000000000000000000000081526004016102c890610cb2565b60405180910390fd5b6102d9610834565b6000811161031c576040517f08c379a000000000000000000000000000000000000000000000000000000000815260040161031390610d44565b60405180910390fd5b7f2ce4322fe29e83ca8758b93053add080d7b235b60aaa34225b6e5e98a12d09b68160405161034b9190610d73565b60405180910390a1600080600460009054906101000a900473ffffffffffffffffffffffffffffffffffffffff1673ffffffffffffffffffffffffffffffffffffffff1663d2007f1084600260009054906101000a900473ffffffffffffffffffffffffffffffffffffffff166040518363ffffffff1660e01b81526004016103d5929190610d8e565b60408051808303816000875af11580156103f3573d6000803e3d6000fd5b505050506040513d601f19601f820116820180604052508101906104179190610dcc565b915091507fcb80121580900cab4e381aa8e4d496ecda8381959740c233f4276a0d98233ee6828260405161044c929190610e0c565b60405180910390a1505061045e61087a565b50565b600560009054906101000a900473ffffffffffffffffffffffffffffffffffffffff1673ffffffffffffffffffffffffffffffffffffffff163373ffffffffffffffffffffffffffffffffffffffff16146104f1576040517f08c379a00000000000000000000000000000000000000000000000000000000081526004016104e890610cb2565b60405180910390fd5b7f4f841aea6a8b78601596ad9b737ffe9a7393de75534c533f41b35f8b1ff0ba8c60405160405180910390a1565b600560009054906101000a900473ffffffffffffffffffffffffffffffffffffffff1673ffffffffffffffffffffffffffffffffffffffff163373ffffffffffffffffffffffffffffffffffffffff16146105af576040517f08c379a00000000000000000000000000000000000000000000000000000000081526004016105a690610cb2565b60405180910390fd5b6105b7610834565b7f4ecb9b6d2e2efee3f1b1b86927f5895fc3f627ac91d5ebfe344df8ae1eec0723816040516105e69190610914565b60405180910390a16105f661087a565b50565b600560009054906101000a900473ffffffffffffffffffffffffffffffffffffffff1681565b82600260006101000a81548173ffffffffffffffffffffffffffffffffffffffff021916908373ffffffffffffffffffffffffffffffffffffffff16021790555081600460006101000a81548173ffffffffffffffffffffffffffffffffffffffff021916908373ffffffffffffffffffffffffffffffffffffffff16021790555080600560006101000a81548173ffffffffffffffffffffffffffffffffffffffff021916908373ffffffffffffffffffffffffffffffffffffffff160217905550505050565b600560009054906101000a900473ffffffffffffffffffffffffffffffffffffffff1673ffffffffffffffffffffffffffffffffffffffff163373ffffffffffffffffffffffffffffffffffffffff1614610777576040517f08c379a000000000000000000000000000000000000000000000000000000000815260040161076e90610cb2565b60405180910390fd5b80600190816107869190610fe1565b507f0326f6cfcc2461ed08d13f3a1122e6818563b0b5dff401f21236901bd4c08a9560016040516107b79190611137565b60405180910390a150565b600360009054906101000a900473ffffffffffffffffffffffffffffffffffffffff1681565b600460009054906101000a900473ffffffffffffffffffffffffffffffffffffffff1681565b600260009054906101000a900473ffffffffffffffffffffffffffffffffffffffff1681565b600260005403610870576040517f3ee5aeb500000000000000000000000000000000000000000000000000000000815260040160405180910390fd5b6002600081905550565b6001600081905550565b600081519050919050565b600082825260208201905092915050565b60005b838110156108be5780820151818401526020810190506108a3565b60008484015250505050565b6000601f19601f8301169050919050565b60006108e682610884565b6108f0818561088f565b93506109008185602086016108a0565b610909816108ca565b840191505092915050565b6000602082019050818103600083015261092e81846108db565b905092915050565b6000604051905090565b600080fd5b600080fd5b6000819050919050565b61095d8161094a565b811461096857600080fd5b50565b60008135905061097a81610954565b92915050565b60006020828403121561099657610995610940565b5b60006109a48482850161096b565b91505092915050565b600080fd5b600080fd5b7f4e487b7100000000000000000000000000000000000000000000000000000000600052604160045260246000fd5b6109ef826108ca565b810181811067ffffffffffffffff82111715610a0e57610a0d6109b7565b5b80604052505050565b6000610a21610936565b9050610a2d82826109e6565b919050565b600067ffffffffffffffff821115610a4d57610a4c6109b7565b5b610a56826108ca565b9050602081019050919050565b82818337600083830152505050565b6000610a85610a8084610a32565b610a17565b905082815260208101848484011115610aa157610aa06109b2565b5b610aac848285610a63565b509392505050565b600082601f830112610ac957610ac86109ad565b5b8135610ad9848260208601610a72565b91505092915050565b600060208284031215610af857610af7610940565b5b600082013567ffffffffffffffff811115610b1657610b15610945565b5b610b2284828501610ab4565b91505092915050565b600073ffffffffffffffffffffffffffffffffffffffff82169050919050565b6000610b5682610b2b565b9050919050565b610b6681610b4b565b82525050565b6000602082019050610b816000830184610b5d565b92915050565b610b9081610b4b565b8114610b9b57600080fd5b50565b600081359050610bad81610b87565b92915050565b600080600060608486031215610bcc57610bcb610940565b5b6000610bda86828701610b9e565b9350506020610beb86828701610b9e565b9250506040610bfc86828701610b9e565b9150509250925092565b7f4e487b7100000000000000000000000000000000000000000000000000000000600052602260045260246000fd5b60006002820490506001821680610c4d57607f821691505b602082108103610c6057610c5f610c06565b5b50919050565b7f43616c6c6572206973206e6f7420746865206f7261636c650000000000000000600082015250565b6000610c9c60188361088f565b9150610ca782610c66565b602082019050919050565b60006020820190508181036000830152610ccb81610c8f565b9050919050565b7f496e76616c69642066756e6374696f6e2063616c6c2c206d6f6e65726f20726560008201527f6365697665642068617320746f2062652067726561746572207468616e203000602082015250565b6000610d2e603f8361088f565b9150610d3982610cd2565b604082019050919050565b60006020820190508181036000830152610d5d81610d21565b9050919050565b610d6d8161094a565b82525050565b6000602082019050610d886000830184610d64565b92915050565b6000604082019050610da36000830185610d64565b610db06020830184610b5d565b9392505050565b600081519050610dc681610954565b92915050565b60008060408385031215610de357610de2610940565b5b6000610df185828601610db7565b9250506020610e0285828601610db7565b9150509250929050565b6000604082019050610e216000830185610d64565b610e2e6020830184610d64565b9392505050565b60008190508160005260206000209050919050565b60006020601f8301049050919050565b600082821b905092915050565b600060088302610e977fffffffffffffffffffffffffffffffffffffffffffffffffffffffffffffffff82610e5a565b610ea18683610e5a565b95508019841693508086168417925050509392505050565b6000819050919050565b6000610ede610ed9610ed48461094a565b610eb9565b61094a565b9050919050565b6000819050919050565b610ef883610ec3565b610f0c610f0482610ee5565b848454610e67565b825550505050565b600090565b610f21610f14565b610f2c818484610eef565b505050565b5b81811015610f5057610f45600082610f19565b600181019050610f32565b5050565b601f821115610f9557610f6681610e35565b610f6f84610e4a565b81016020851015610f7e578190505b610f92610f8a85610e4a565b830182610f31565b50505b505050565b600082821c905092915050565b6000610fb860001984600802610f9a565b1980831691505092915050565b6000610fd18383610fa7565b9150826002028217905092915050565b610fea82610884565b67ffffffffffffffff811115611003576110026109b7565b5b61100d8254610c35565b611018828285610f54565b600060209050601f83116001811461104b5760008415611039578287015190505b6110438582610fc5565b8655506110ab565b601f19841661105986610e35565b60005b828110156110815784890151825560018201915060208501945060208101905061105c565b8683101561109e578489015161109a601f891682610fa7565b8355505b6001600288020188555050505b505050505050565b600081546110c081610c35565b6110ca818661088f565b945060018216600081146110e557600181146110fb5761112e565b60ff19831686528115156020028601935061112e565b61110485610e35565b60005b8381101561112657815481890152600182019150602081019050611107565b808801955050505b50505092915050565b6000602082019050818103600083015261115181846110b3565b90509291505056fea2646970667358221220a2081ba731db15614766ce99c5dc543b35ce54f61e82bd4e21fa4d1e7082e95e64736f6c634300081b0033",
  "linkReferences": {},
  "deployedLinkReferences": {}
}