{
  "_format": "hh-sol-artifact-1",
  "contractName": "XMR_ETH",
  "sourceName": "contracts/Master.sol",
  "abi": [
    {
      "inputs": [],
      "name": "ReentrancyGuardReentrantCall",
      "type": "error"
    },
    {
      "anonymous": false,
      "inputs": [],
      "name": "DontHaveMoneroAddress",
      "type": "event"
    },
    {
      "anonymous": false,
      "inputs": [
        {
          "indexed": false,
          "internalType": "uint256",
          "name": "timestamp",
          "type": "uint256"
        },
        {
          "indexed": false,
          "internalType": "uint256",
          "name": "withdrawalAmount",
          "type": "uint256"
        }
      ],
      "name": "EthSentEvent",
      "type": "event"
    },
    {
      "anonymous": false,
      "inputs": [
        {
          "indexed": false,
          "internalType": "string",
          "name": "moneroAddress",
          "type": "string"
        }
      ],
      "name": "HaveMoneroAddress",
      "type": "event"
    },
    {
      "anonymous": false,
      "inputs": [
        {
          "indexed": false,
          "internalType": "uint256",
          "name": "amountReceived",
          "type": "uint256"
        }
      ],
      "name": "MoneroReceived",
      "type": "event"
    },
    {
      "anonymous": false,
      "inputs": [
        {
          "indexed": false,
          "internalType": "uint256",
          "name": "amount",
          "type": "uint256"
        },
        {
          "indexed": true,
          "internalType": "address",
          "name": "recipient",
          "type": "address"
        }
      ],
      "name": "SwapCompleted",
      "type": "event"
    },
    {
      "anonymous": false,
      "inputs": [
        {
          "indexed": false,
          "internalType": "string",
          "name": "errorMessage",
          "type": "string"
        }
      ],
      "name": "SwapFailed",
      "type": "event"
    },
    {
      "inputs": [],
      "name": "AddressGenerationFailure",
      "outputs": [],
      "stateMutability": "nonpayable",
      "type": "function"
    },
    {
      "inputs": [
        {
          "internalType": "string",
          "name": "_moneroAddress",
          "type": "string"
        }
      ],
      "name": "AddressGenerationSuccess",
      "outputs": [],
      "stateMutability": "nonpayable",
      "type": "function"
    },
    {
      "inputs": [
        {
          "internalType": "string",
          "name": "errorMessage",
          "type": "string"
        }
      ],
      "name": "SwapFailureConfirmation",
      "outputs": [],
      "stateMutability": "nonpayable",
      "type": "function"
    },
    {
      "inputs": [
        {
          "internalType": "uint256",
          "name": "amountReceived",
          "type": "uint256"
        }
      ],
      "name": "TransmitMoneroReceived",
      "outputs": [],
      "stateMutability": "nonpayable",
      "type": "function"
    },
    {
      "inputs": [
        {
          "internalType": "address",
          "name": "_withdrawalAddress",
          "type": "address"
        },
        {
          "internalType": "address payable",
          "name": "_master",
          "type": "address"
        },
        {
          "internalType": "address",
          "name": "_oracle",
          "type": "address"
        }
      ],
      "name": "initialize",
      "outputs": [],
      "stateMutability": "nonpayable",
      "type": "function"
    },
    {
      "inputs": [],
      "name": "moneroAddress",
      "outputs": [
        {
          "internalType": "string",
          "name": "",
          "type": "string"
        }
      ],
      "stateMutability": "view",
      "type": "function"
    },
    {
      "inputs": [],
      "name": "oracle",
      "outputs": [
        {
          "internalType": "address",
          "name": "",
          "type": "address"
        }
      ],
      "stateMutability": "view",
      "type": "function"
    },
    {
      "inputs": [],
      "name": "withdrawalAddress",
      "outputs": [
        {
          "internalType": "address",
          "name": "",
          "type": "address"
        }
      ],
      "stateMutability": "view",
      "type": "function"
    },
    {
      "inputs": [],
      "name": "withdrawalConfirmation",
      "outputs": [
        {
          "internalType": "address",
          "name": "",
          "type": "address"
        }
      ],
      "stateMutability": "view",
      "type": "function"
    }
  ],
  "bytecode": "0x6080604052348015600f57600080fd5b506001600081905550611592806100276000396000f3fe608060405234801561001057600080fd5b50600436106100935760003560e01c80637dc0d1d0116100665780637dc0d1d0146100f8578063c0c53b8b14610116578063c66e903a14610132578063e4fd6a6c1461014e578063f2bcd0221461016c57610093565b806306bff32e14610098578063308e39f4146100b65780636ccfcb10146100d257806378ef5ffe146100dc575b600080fd5b6100a061018a565b6040516100ad9190610a91565b60405180910390f35b6100d060048036038101906100cb9190610afd565b610218565b005b6100da6104a3565b005b6100f660048036038101906100f19190610c5f565b6105dc565b005b610100610721565b60405161010d9190610ce9565b60405180910390f35b610130600480360381019061012b9190610d6e565b610747565b005b61014c60048036038101906101479190610c5f565b61080f565b005b610156610965565b6040516101639190610ce9565b60405180910390f35b61017461098b565b6040516101819190610ce9565b60405180910390f35b6001805461019790610df0565b80601f01602080910402602001604051908101604052809291908181526020018280546101c390610df0565b80156102105780601f106101e557610100808354040283529160200191610210565b820191906000526020600020905b8154815290600101906020018083116101f357829003601f168201915b505050505081565b600560009054906101000a900473ffffffffffffffffffffffffffffffffffffffff1673ffffffffffffffffffffffffffffffffffffffff163373ffffffffffffffffffffffffffffffffffffffff16146102a8576040517f08c379a000000000000000000000000000000000000000000000000000000000815260040161029f90610e6d565b60405180910390fd5b6102b06109b1565b600560179054906101000a900460ff1615610300576040517f08c379a00000000000000000000000000000000000000000000000000000000081526004016102f790610eff565b60405180910390fd5b60008111610343576040517f08c379a000000000000000000000000000000000000000000000000000000000815260040161033a90610f91565b60405180910390fd5b7f2ce4322fe29e83ca8758b93053add080d7b235b60aaa34225b6e5e98a12d09b6816040516103729190610fc0565b60405180910390a1600080600460009054906101000a900473ffffffffffffffffffffffffffffffffffffffff1673ffffffffffffffffffffffffffffffffffffffff1663d2007f1084600260009054906101000a900473ffffffffffffffffffffffffffffffffffffffff166040518363ffffffff1660e01b81526004016103fc929190610fdb565b60408051808303816000875af115801561041a573d6000803e3d6000fd5b505050506040513d601f19601f8201168201806040525081019061043e9190611019565b915091507fcb80121580900cab4e381aa8e4d496ecda8381959740c233f4276a0d98233ee68282604051610473929190611059565b60405180910390a16001600560176101000a81548160ff02191690831515021790555050506104a06109f7565b50565b600560009054906101000a900473ffffffffffffffffffffffffffffffffffffffff1673ffffffffffffffffffffffffffffffffffffffff163373ffffffffffffffffffffffffffffffffffffffff1614610533576040517f08c379a000000000000000000000000000000000000000000000000000000000815260040161052a90610e6d565b60405180910390fd5b61053b6109b1565b600560169054906101000a900460ff161561058b576040517f08c379a0000000000000000000000000000000000000000000000000000000008152600401610582906110f4565b60405180910390fd5b7f4f841aea6a8b78601596ad9b737ffe9a7393de75534c533f41b35f8b1ff0ba8c60405160405180910390a16001600560166101000a81548160ff0219169083151502179055506105da6109f7565b565b600560009054906101000a900473ffffffffffffffffffffffffffffffffffffffff1673ffffffffffffffffffffffffffffffffffffffff163373ffffffffffffffffffffffffffffffffffffffff161461066c576040517f08c379a000000000000000000000000000000000000000000000000000000000815260040161066390610e6d565b60405180910390fd5b6106746109b1565b600560149054906101000a900460ff16156106c4576040517f08c379a00000000000000000000000000000000000000000000000000000000081526004016106bb90611186565b60405180910390fd5b7f4ecb9b6d2e2efee3f1b1b86927f5895fc3f627ac91d5ebfe344df8ae1eec0723816040516106f39190610a91565b60405180910390a16001600560146101000a81548160ff02191690831515021790555061071e6109f7565b50565b600560009054906101000a900473ffffffffffffffffffffffffffffffffffffffff1681565b82600260006101000a81548173ffffffffffffffffffffffffffffffffffffffff021916908373ffffffffffffffffffffffffffffffffffffffff16021790555081600460006101000a81548173ffffffffffffffffffffffffffffffffffffffff021916908373ffffffffffffffffffffffffffffffffffffffff16021790555080600560006101000a81548173ffffffffffffffffffffffffffffffffffffffff021916908373ffffffffffffffffffffffffffffffffffffffff160217905550505050565b600560009054906101000a900473ffffffffffffffffffffffffffffffffffffffff1673ffffffffffffffffffffffffffffffffffffffff163373ffffffffffffffffffffffffffffffffffffffff161461089f576040517f08c379a000000000000000000000000000000000000000000000000000000000815260040161089690610e6d565b60405180910390fd5b6108a76109b1565b600560159054906101000a900460ff16156108f7576040517f08c379a00000000000000000000000000000000000000000000000000000000081526004016108ee90611218565b60405180910390fd5b806001908161090691906113e4565b507f0326f6cfcc2461ed08d13f3a1122e6818563b0b5dff401f21236901bd4c08a956001604051610937919061153a565b60405180910390a16001600560156101000a81548160ff0219169083151502179055506109626109f7565b50565b600360009054906101000a900473ffffffffffffffffffffffffffffffffffffffff1681565b600260009054906101000a900473ffffffffffffffffffffffffffffffffffffffff1681565b6002600054036109ed576040517f3ee5aeb500000000000000000000000000000000000000000000000000000000815260040160405180910390fd5b6002600081905550565b6001600081905550565b600081519050919050565b600082825260208201905092915050565b60005b83811015610a3b578082015181840152602081019050610a20565b60008484015250505050565b6000601f19601f8301169050919050565b6000610a6382610a01565b610a6d8185610a0c565b9350610a7d818560208601610a1d565b610a8681610a47565b840191505092915050565b60006020820190508181036000830152610aab8184610a58565b905092915050565b6000604051905090565b600080fd5b600080fd5b6000819050919050565b610ada81610ac7565b8114610ae557600080fd5b50565b600081359050610af781610ad1565b92915050565b600060208284031215610b1357610b12610abd565b5b6000610b2184828501610ae8565b91505092915050565b600080fd5b600080fd5b7f4e487b7100000000000000000000000000000000000000000000000000000000600052604160045260246000fd5b610b6c82610a47565b810181811067ffffffffffffffff82111715610b8b57610b8a610b34565b5b80604052505050565b6000610b9e610ab3565b9050610baa8282610b63565b919050565b600067ffffffffffffffff821115610bca57610bc9610b34565b5b610bd382610a47565b9050602081019050919050565b82818337600083830152505050565b6000610c02610bfd84610baf565b610b94565b905082815260208101848484011115610c1e57610c1d610b2f565b5b610c29848285610be0565b509392505050565b600082601f830112610c4657610c45610b2a565b5b8135610c56848260208601610bef565b91505092915050565b600060208284031215610c7557610c74610abd565b5b600082013567ffffffffffffffff811115610c9357610c92610ac2565b5b610c9f84828501610c31565b91505092915050565b600073ffffffffffffffffffffffffffffffffffffffff82169050919050565b6000610cd382610ca8565b9050919050565b610ce381610cc8565b82525050565b6000602082019050610cfe6000830184610cda565b92915050565b610d0d81610cc8565b8114610d1857600080fd5b50565b600081359050610d2a81610d04565b92915050565b6000610d3b82610ca8565b9050919050565b610d4b81610d30565b8114610d5657600080fd5b50565b600081359050610d6881610d42565b92915050565b600080600060608486031215610d8757610d86610abd565b5b6000610d9586828701610d1b565b9350506020610da686828701610d59565b9250506040610db786828701610d1b565b9150509250925092565b7f4e487b7100000000000000000000000000000000000000000000000000000000600052602260045260246000fd5b60006002820490506001821680610e0857607f821691505b602082108103610e1b57610e1a610dc1565b5b50919050565b7f43616c6c6572206973206e6f7420746865206f7261636c650000000000000000600082015250565b6000610e57601883610a0c565b9150610e6282610e21565b602082019050919050565b60006020820190508181036000830152610e8681610e4a565b9050919050565b7f5472616e736d69744d6f6e65726f526563656976656420616c7261656479206360008201527f616c6c6564000000000000000000000000000000000000000000000000000000602082015250565b6000610ee9602583610a0c565b9150610ef482610e8d565b604082019050919050565b60006020820190508181036000830152610f1881610edc565b9050919050565b7f496e76616c69642066756e6374696f6e2063616c6c2c206d6f6e65726f20726560008201527f6365697665642068617320746f2062652067726561746572207468616e203000602082015250565b6000610f7b603f83610a0c565b9150610f8682610f1f565b604082019050919050565b60006020820190508181036000830152610faa81610f6e565b9050919050565b610fba81610ac7565b82525050565b6000602082019050610fd56000830184610fb1565b92915050565b6000604082019050610ff06000830185610fb1565b610ffd6020830184610cda565b9392505050565b60008151905061101381610ad1565b92915050565b600080604083850312156110305761102f610abd565b5b600061103e85828601611004565b925050602061104f85828601611004565b9150509250929050565b600060408201905061106e6000830185610fb1565b61107b6020830184610fb1565b9392505050565b7f416464726573732047656e65726174696f6e204661696c75726520616c72656160008201527f64792063616c6c65640000000000000000000000000000000000000000000000602082015250565b60006110de602983610a0c565b91506110e982611082565b604082019050919050565b6000602082019050818103600083015261110d816110d1565b9050919050565b7f53776170204661696c75726520636f6e6669726d6174696f6e20616c7265616460008201527f792063616c6c6564000000000000000000000000000000000000000000000000602082015250565b6000611170602883610a0c565b915061117b82611114565b604082019050919050565b6000602082019050818103600083015261119f81611163565b9050919050565b7f416464726573732067656e65726174696f6e207375636365737320616c72656160008201527f64792063616c6c65640000000000000000000000000000000000000000000000602082015250565b6000611202602983610a0c565b915061120d826111a6565b604082019050919050565b60006020820190508181036000830152611231816111f5565b9050919050565b60008190508160005260206000209050919050565b60006020601f8301049050919050565b600082821b905092915050565b60006008830261129a7fffffffffffffffffffffffffffffffffffffffffffffffffffffffffffffffff8261125d565b6112a4868361125d565b95508019841693508086168417925050509392505050565b6000819050919050565b60006112e16112dc6112d784610ac7565b6112bc565b610ac7565b9050919050565b6000819050919050565b6112fb836112c6565b61130f611307826112e8565b84845461126a565b825550505050565b600090565b611324611317565b61132f8184846112f2565b505050565b5b818110156113535761134860008261131c565b600181019050611335565b5050565b601f8211156113985761136981611238565b6113728461124d565b81016020851015611381578190505b61139561138d8561124d565b830182611334565b50505b505050565b600082821c905092915050565b60006113bb6000198460080261139d565b1980831691505092915050565b60006113d483836113aa565b9150826002028217905092915050565b6113ed82610a01565b67ffffffffffffffff81111561140657611405610b34565b5b6114108254610df0565b61141b828285611357565b600060209050601f83116001811461144e576000841561143c578287015190505b61144685826113c8565b8655506114ae565b601f19841661145c86611238565b60005b828110156114845784890151825560018201915060208501945060208101905061145f565b868310156114a1578489015161149d601f8916826113aa565b8355505b6001600288020188555050505b505050505050565b600081546114c381610df0565b6114cd8186610a0c565b945060018216600081146114e857600181146114fe57611531565b60ff198316865281151560200286019350611531565b61150785611238565b60005b838110156115295781548189015260018201915060208101905061150a565b808801955050505b50505092915050565b6000602082019050818103600083015261155481846114b6565b90509291505056fea2646970667358221220f29596ba6e3d5d075ba842aa81f94281a061e7726e16078ce27051d94673e10564736f6c634300081b0033",
  "linkReferences": {},
  "deployedLinkReferences": {}
}