{
  "_format": "hh-sol-artifact-1",
  "contractName": "SwapMaster",
  "sourceName": "contracts/Master.sol",
  "abi": [
    {
      "inputs": [
        {
          "internalType": "address",
          "name": "_implementation",
          "type": "address"
        },
        {
          "internalType": "address",
          "name": "_ethUsdPriceFeed",
          "type": "address"
        }
      ],
      "stateMutability": "nonpayable",
      "type": "constructor"
    },
    {
      "inputs": [],
      "name": "FailedDeployment",
      "type": "error"
    },
    {
      "inputs": [
        {
          "internalType": "uint256",
          "name": "balance",
          "type": "uint256"
        },
        {
          "internalType": "uint256",
          "name": "needed",
          "type": "uint256"
        }
      ],
      "name": "InsufficientBalance",
      "type": "error"
    },
    {
      "anonymous": false,
      "inputs": [
        {
          "indexed": true,
          "internalType": "address",
          "name": "caller",
          "type": "address"
        },
        {
          "indexed": true,
          "internalType": "address",
          "name": "depositAddress",
          "type": "address"
        },
        {
          "indexed": false,
          "internalType": "string",
          "name": "hashedMoneroAddress",
          "type": "string"
        },
        {
          "indexed": false,
          "internalType": "uint256",
          "name": "ethToXmrRate",
          "type": "uint256"
        }
      ],
      "name": "depositAddressCreated",
      "type": "event"
    },
    {
      "anonymous": false,
      "inputs": [
        {
          "indexed": false,
          "internalType": "address",
          "name": "depositAddress",
          "type": "address"
        },
        {
          "indexed": false,
          "internalType": "uint256",
          "name": "amount",
          "type": "uint256"
        },
        {
          "indexed": false,
          "internalType": "uint256",
          "name": "ethToXmrRate",
          "type": "uint256"
        },
        {
          "indexed": false,
          "internalType": "string",
          "name": "hashedMoneroAddress",
          "type": "string"
        }
      ],
      "name": "ethReceived",
      "type": "event"
    },
    {
      "anonymous": false,
      "inputs": [
        {
          "indexed": false,
          "internalType": "string",
          "name": "hashedEthereumAddress",
          "type": "string"
        }
      ],
      "name": "moneroAddressRequested",
      "type": "event"
    },
    {
      "inputs": [
        {
          "internalType": "address",
          "name": "",
          "type": "address"
        }
      ],
      "name": "DepositContracts",
      "outputs": [
        {
          "internalType": "bool",
          "name": "",
          "type": "bool"
        }
      ],
      "stateMutability": "view",
      "type": "function"
    },
    {
      "inputs": [
        {
          "internalType": "address",
          "name": "depositAddress",
          "type": "address"
        },
        {
          "internalType": "uint256",
          "name": "amount",
          "type": "uint256"
        },
        {
          "internalType": "uint256",
          "name": "ethToXmrRate",
          "type": "uint256"
        },
        {
          "internalType": "string",
          "name": "hashedMoneroAddress",
          "type": "string"
        }
      ],
      "name": "PaymentReceived",
      "outputs": [],
      "stateMutability": "nonpayable",
      "type": "function"
    },
    {
      "inputs": [
        {
          "internalType": "string",
          "name": "hashedEthereumAddress",
          "type": "string"
        }
      ],
      "name": "RequestMoneroAddress",
      "outputs": [],
      "stateMutability": "nonpayable",
      "type": "function"
    },
    {
      "inputs": [
        {
          "internalType": "string",
          "name": "moneroDepositAddress",
          "type": "string"
        }
      ],
      "name": "SupplyMoneroAddress",
      "outputs": [],
      "stateMutability": "nonpayable",
      "type": "function"
    },
    {
      "inputs": [
        {
          "internalType": "string",
          "name": "hashedMoneroAddress",
          "type": "string"
        }
      ],
      "name": "createDepositAddress",
      "outputs": [
        {
          "internalType": "address",
          "name": "",
          "type": "address"
        },
        {
          "internalType": "address",
          "name": "",
          "type": "address"
        },
        {
          "internalType": "uint256",
          "name": "",
          "type": "uint256"
        }
      ],
      "stateMutability": "nonpayable",
      "type": "function"
    },
    {
      "inputs": [],
      "name": "implementation",
      "outputs": [
        {
          "internalType": "address",
          "name": "",
          "type": "address"
        }
      ],
      "stateMutability": "view",
      "type": "function"
    },
    {
      "inputs": [],
      "name": "oracle",
      "outputs": [
        {
          "internalType": "address",
          "name": "",
          "type": "address"
        }
      ],
      "stateMutability": "view",
      "type": "function"
    }
  ],
  "bytecode": "0x608060405234801561001057600080fd5b50604051610fb0380380610fb08339818101604052810190610032919061015e565b816000806101000a81548173ffffffffffffffffffffffffffffffffffffffff021916908373ffffffffffffffffffffffffffffffffffffffff16021790555033600160006101000a81548173ffffffffffffffffffffffffffffffffffffffff021916908373ffffffffffffffffffffffffffffffffffffffff16021790555080600260006101000a81548173ffffffffffffffffffffffffffffffffffffffff021916908373ffffffffffffffffffffffffffffffffffffffff160217905550505061019e565b600080fd5b600073ffffffffffffffffffffffffffffffffffffffff82169050919050565b600061012b82610100565b9050919050565b61013b81610120565b811461014657600080fd5b50565b60008151905061015881610132565b92915050565b60008060408385031215610175576101746100fb565b5b600061018385828601610149565b925050602061019485828601610149565b9150509250929050565b610e03806101ad6000396000f3fe608060405234801561001057600080fd5b506004361061007c5760003560e01c80635c60da1b1161005b5780635c60da1b146100e95780637dc0d1d014610107578063dcafcc7f14610125578063fca75455146101415761007c565b80626c83e914610081578063237b94331461009d5780633b3b88ca146100b9575b600080fd5b61009b600480360381019061009691906107a9565b610173565b005b6100b760048036038101906100b29190610886565b6101ad565b005b6100d360048036038101906100ce9190610909565b6101f0565b6040516100e09190610951565b60405180910390f35b6100f1610210565b6040516100fe919061097b565b60405180910390f35b61010f610234565b60405161011c919061097b565b60405180910390f35b61013f600480360381019061013a91906107a9565b61025a565b005b61015b600480360381019061015691906107a9565b6102ed565b60405161016a939291906109a5565b60405180910390f35b7fcf26ccb6599752d8f425935d0339b6ea7a80b53846b4ee900f8a7627eca7b44c816040516101a29190610a5b565b60405180910390a150565b7f42048a0906581c2526602e5792810849244072de3350c4a9f2d2dbfae50c3543848484846040516101e29493929190610a7d565b60405180910390a150505050565b60036020528060005260406000206000915054906101000a900460ff1681565b60008054906101000a900473ffffffffffffffffffffffffffffffffffffffff1681565b600160009054906101000a900473ffffffffffffffffffffffffffffffffffffffff1681565b600160009054906101000a900473ffffffffffffffffffffffffffffffffffffffff1673ffffffffffffffffffffffffffffffffffffffff163373ffffffffffffffffffffffffffffffffffffffff16146102ea576040517f08c379a00000000000000000000000000000000000000000000000000000000081526004016102e190610b15565b60405180910390fd5b50565b600080600080600260009054906101000a900473ffffffffffffffffffffffffffffffffffffffff1673ffffffffffffffffffffffffffffffffffffffff1663feaf968c6040518163ffffffff1660e01b815260040160a060405180830381865afa158015610360573d6000803e3d6000fd5b505050506040513d601f19601f820116820180604052508101906103849190610bc2565b505050915050600081136103cd576040517f08c379a00000000000000000000000000000000000000000000000000000000081526004016103c490610c89565b60405180910390fd5b6000670de0b6b3a7640000826103e39190610cd8565b9050600061041060008054906101000a900473ffffffffffffffffffffffffffffffffffffffff16610543565b90508073ffffffffffffffffffffffffffffffffffffffff166397073ae6338930600160009054906101000a900473ffffffffffffffffffffffffffffffffffffffff16600260009054906101000a900473ffffffffffffffffffffffffffffffffffffffff166040518663ffffffff1660e01b8152600401610497959493929190610d1a565b600060405180830381600087803b1580156104b157600080fd5b505af11580156104c5573d6000803e3d6000fd5b505050508073ffffffffffffffffffffffffffffffffffffffff163373ffffffffffffffffffffffffffffffffffffffff167f5f56dfc421c124df374992db0b8e42d04c6089e35950d4449fadab4d891b47d88985604051610528929190610d74565b60405180910390a33381839550955095505050509193909250565b6000610550826000610557565b9050919050565b6000814710156105a05747826040517fcf479181000000000000000000000000000000000000000000000000000000008152600401610597929190610da4565b60405180910390fd5b763d602d80600a3d3981f3363d3d373d3d3d363d730000008360601b60e81c176000526e5af43d82803e903d91602b57fd5bf38360781b176020526037600983f09050600073ffffffffffffffffffffffffffffffffffffffff168173ffffffffffffffffffffffffffffffffffffffff1603610649576040517fb06ebf3d00000000000000000000000000000000000000000000000000000000815260040160405180910390fd5b92915050565b6000604051905090565b600080fd5b600080fd5b600080fd5b600080fd5b6000601f19601f8301169050919050565b7f4e487b7100000000000000000000000000000000000000000000000000000000600052604160045260246000fd5b6106b68261066d565b810181811067ffffffffffffffff821117156106d5576106d461067e565b5b80604052505050565b60006106e861064f565b90506106f482826106ad565b919050565b600067ffffffffffffffff8211156107145761071361067e565b5b61071d8261066d565b9050602081019050919050565b82818337600083830152505050565b600061074c610747846106f9565b6106de565b90508281526020810184848401111561076857610767610668565b5b61077384828561072a565b509392505050565b600082601f8301126107905761078f610663565b5b81356107a0848260208601610739565b91505092915050565b6000602082840312156107bf576107be610659565b5b600082013567ffffffffffffffff8111156107dd576107dc61065e565b5b6107e98482850161077b565b91505092915050565b600073ffffffffffffffffffffffffffffffffffffffff82169050919050565b600061081d826107f2565b9050919050565b61082d81610812565b811461083857600080fd5b50565b60008135905061084a81610824565b92915050565b6000819050919050565b61086381610850565b811461086e57600080fd5b50565b6000813590506108808161085a565b92915050565b600080600080608085870312156108a05761089f610659565b5b60006108ae8782880161083b565b94505060206108bf87828801610871565b93505060406108d087828801610871565b925050606085013567ffffffffffffffff8111156108f1576108f061065e565b5b6108fd8782880161077b565b91505092959194509250565b60006020828403121561091f5761091e610659565b5b600061092d8482850161083b565b91505092915050565b60008115159050919050565b61094b81610936565b82525050565b60006020820190506109666000830184610942565b92915050565b61097581610812565b82525050565b6000602082019050610990600083018461096c565b92915050565b61099f81610850565b82525050565b60006060820190506109ba600083018661096c565b6109c7602083018561096c565b6109d46040830184610996565b949350505050565b600081519050919050565b600082825260208201905092915050565b60005b83811015610a165780820151818401526020810190506109fb565b60008484015250505050565b6000610a2d826109dc565b610a3781856109e7565b9350610a478185602086016109f8565b610a508161066d565b840191505092915050565b60006020820190508181036000830152610a758184610a22565b905092915050565b6000608082019050610a92600083018761096c565b610a9f6020830186610996565b610aac6040830185610996565b8181036060830152610abe8184610a22565b905095945050505050565b7f4e6f7420617574686f72697a6564000000000000000000000000000000000000600082015250565b6000610aff600e836109e7565b9150610b0a82610ac9565b602082019050919050565b60006020820190508181036000830152610b2e81610af2565b9050919050565b600069ffffffffffffffffffff82169050919050565b610b5481610b35565b8114610b5f57600080fd5b50565b600081519050610b7181610b4b565b92915050565b6000819050919050565b610b8a81610b77565b8114610b9557600080fd5b50565b600081519050610ba781610b81565b92915050565b600081519050610bbc8161085a565b92915050565b600080600080600060a08688031215610bde57610bdd610659565b5b6000610bec88828901610b62565b9550506020610bfd88828901610b98565b9450506040610c0e88828901610bad565b9350506060610c1f88828901610bad565b9250506080610c3088828901610b62565b9150509295509295909350565b7f496e76616c6964204554482f5553442070726963650000000000000000000000600082015250565b6000610c736015836109e7565b9150610c7e82610c3d565b602082019050919050565b60006020820190508181036000830152610ca281610c66565b9050919050565b7f4e487b7100000000000000000000000000000000000000000000000000000000600052601160045260246000fd5b6000610ce382610850565b9150610cee83610850565b9250828202610cfc81610850565b91508282048414831517610d1357610d12610ca9565b5b5092915050565b600060a082019050610d2f600083018861096c565b8181036020830152610d418187610a22565b9050610d50604083018661096c565b610d5d606083018561096c565b610d6a608083018461096c565b9695505050505050565b60006040820190508181036000830152610d8e8185610a22565b9050610d9d6020830184610996565b9392505050565b6000604082019050610db96000830185610996565b610dc66020830184610996565b939250505056fea26469706673582212203dee25401c4c12f039a34864c4a6cd9f88eaaf25d3947843c52530964e04039464736f6c634300081b0033",
  "linkReferences": {},
  "deployedLinkReferences": {}
}