{
  "_format": "hh-sol-artifact-1",
  "contractName": "SwapMaster",
  "sourceName": "contracts/Master.sol",
  "abi": [
    {
      "inputs": [],
      "stateMutability": "nonpayable",
      "type": "constructor"
    },
    {
      "anonymous": false,
      "inputs": [
        {
          "indexed": true,
          "internalType": "address",
          "name": "caller",
          "type": "address"
        },
        {
          "indexed": true,
          "internalType": "address",
          "name": "depositAddress",
          "type": "address"
        },
        {
          "indexed": false,
          "internalType": "string",
          "name": "hashedMoneroAddress",
          "type": "string"
        }
      ],
      "name": "depositAddressCreated",
      "type": "event"
    },
    {
      "anonymous": false,
      "inputs": [
        {
          "indexed": false,
          "internalType": "address",
          "name": "depositAddress",
          "type": "address"
        },
        {
          "indexed": false,
          "internalType": "uint256",
          "name": "amount",
          "type": "uint256"
        }
      ],
      "name": "ethReceived",
      "type": "event"
    },
    {
      "inputs": [
        {
          "internalType": "string",
          "name": "hashedMoneroAddress",
          "type": "string"
        }
      ],
      "name": "CreateDepositAddress",
      "outputs": [
        {
          "internalType": "address",
          "name": "",
          "type": "address"
        }
      ],
      "stateMutability": "nonpayable",
      "type": "function"
    },
    {
      "inputs": [
        {
          "internalType": "address",
          "name": "",
          "type": "address"
        }
      ],
      "name": "DepositContracts",
      "outputs": [
        {
          "internalType": "bool",
          "name": "",
          "type": "bool"
        }
      ],
      "stateMutability": "view",
      "type": "function"
    },
    {
      "inputs": [
        {
          "internalType": "address",
          "name": "depositAddress",
          "type": "address"
        },
        {
          "internalType": "uint256",
          "name": "amount",
          "type": "uint256"
        }
      ],
      "name": "PaymentReceived",
      "outputs": [],
      "stateMutability": "nonpayable",
      "type": "function"
    },
    {
      "inputs": [],
      "name": "oracle",
      "outputs": [
        {
          "internalType": "address",
          "name": "",
          "type": "address"
        }
      ],
      "stateMutability": "view",
      "type": "function"
    }
  ],
  "bytecode": "0x6080604052348015600f57600080fd5b50336000806101000a81548173ffffffffffffffffffffffffffffffffffffffff021916908373ffffffffffffffffffffffffffffffffffffffff160217905550611ab68061005f6000396000f3fe608060405234801561001057600080fd5b506004361061004c5760003560e01c80633b3b88ca146100515780636ef95f06146100815780637dc0d1d01461009d578063d7219eaa146100bb575b600080fd5b61006b600480360381019061006691906103a2565b6100eb565b60405161007891906103ea565b60405180910390f35b61009b6004803603810190610096919061043b565b61010b565b005b6100a56101db565b6040516100b2919061048a565b60405180910390f35b6100d560048036038101906100d091906105eb565b6101ff565b6040516100e2919061048a565b60405180910390f35b60016020528060005260406000206000915054906101000a900460ff1681565b60011515600160003373ffffffffffffffffffffffffffffffffffffffff1673ffffffffffffffffffffffffffffffffffffffff16815260200190815260200160002060009054906101000a900460ff1615151461019e576040517f08c379a000000000000000000000000000000000000000000000000000000000815260040161019590610691565b60405180910390fd5b7ffe2d73074d233633e644a6fb7186458fbf422add1c18d996efd14ffbece6f2b282826040516101cf9291906106c0565b60405180910390a15050565b60008054906101000a900473ffffffffffffffffffffffffffffffffffffffff1681565b60008033833060008054906101000a900473ffffffffffffffffffffffffffffffffffffffff1660405161023290610323565b61023f9493929190610757565b604051809103906000f08015801561025b573d6000803e3d6000fd5b50905060018060008373ffffffffffffffffffffffffffffffffffffffff1673ffffffffffffffffffffffffffffffffffffffff16815260200190815260200160002060006101000a81548160ff0219169083151502179055508073ffffffffffffffffffffffffffffffffffffffff163373ffffffffffffffffffffffffffffffffffffffff167fedd9bd6fc850061e77d7d38cad6da0397a1542252e69d6120a3a35355408bb0d8560405161031291906107a3565b60405180910390a380915050919050565b6112bb806107c683390190565b6000604051905090565b600080fd5b600080fd5b600073ffffffffffffffffffffffffffffffffffffffff82169050919050565b600061036f82610344565b9050919050565b61037f81610364565b811461038a57600080fd5b50565b60008135905061039c81610376565b92915050565b6000602082840312156103b8576103b761033a565b5b60006103c68482850161038d565b91505092915050565b60008115159050919050565b6103e4816103cf565b82525050565b60006020820190506103ff60008301846103db565b92915050565b6000819050919050565b61041881610405565b811461042357600080fd5b50565b6000813590506104358161040f565b92915050565b600080604083850312156104525761045161033a565b5b60006104608582860161038d565b925050602061047185828601610426565b9150509250929050565b61048481610364565b82525050565b600060208201905061049f600083018461047b565b92915050565b600080fd5b600080fd5b6000601f19601f8301169050919050565b7f4e487b7100000000000000000000000000000000000000000000000000000000600052604160045260246000fd5b6104f8826104af565b810181811067ffffffffffffffff82111715610517576105166104c0565b5b80604052505050565b600061052a610330565b905061053682826104ef565b919050565b600067ffffffffffffffff821115610556576105556104c0565b5b61055f826104af565b9050602081019050919050565b82818337600083830152505050565b600061058e6105898461053b565b610520565b9050828152602081018484840111156105aa576105a96104aa565b5b6105b584828561056c565b509392505050565b600082601f8301126105d2576105d16104a5565b5b81356105e284826020860161057b565b91505092915050565b6000602082840312156106015761060061033a565b5b600082013567ffffffffffffffff81111561061f5761061e61033f565b5b61062b848285016105bd565b91505092915050565b600082825260208201905092915050565b7f4e6f7420612076616c6964206465706f73697420636f6e747261637400000000600082015250565b600061067b601c83610634565b915061068682610645565b602082019050919050565b600060208201905081810360008301526106aa8161066e565b9050919050565b6106ba81610405565b82525050565b60006040820190506106d5600083018561047b565b6106e260208301846106b1565b9392505050565b600081519050919050565b60005b838110156107125780820151818401526020810190506106f7565b60008484015250505050565b6000610729826106e9565b6107338185610634565b93506107438185602086016106f4565b61074c816104af565b840191505092915050565b600060808201905061076c600083018761047b565b818103602083015261077e818661071e565b905061078d604083018561047b565b61079a606083018461047b565b95945050505050565b600060208201905081810360008301526107bd818461071e565b90509291505056fe608060405234801561001057600080fd5b506040516112bb3803806112bb833981810160405281019061003291906102e0565b836000806101000a81548173ffffffffffffffffffffffffffffffffffffffff021916908373ffffffffffffffffffffffffffffffffffffffff16021790555082600390816100819190610584565b5081600160006101000a81548173ffffffffffffffffffffffffffffffffffffffff021916908373ffffffffffffffffffffffffffffffffffffffff16021790555080600260006101000a81548173ffffffffffffffffffffffffffffffffffffffff021916908373ffffffffffffffffffffffffffffffffffffffff16021790555050505050610656565b6000604051905090565b600080fd5b600080fd5b600073ffffffffffffffffffffffffffffffffffffffff82169050919050565b600061014c82610121565b9050919050565b61015c81610141565b811461016757600080fd5b50565b60008151905061017981610153565b92915050565b600080fd5b600080fd5b6000601f19601f8301169050919050565b7f4e487b7100000000000000000000000000000000000000000000000000000000600052604160045260246000fd5b6101d282610189565b810181811067ffffffffffffffff821117156101f1576101f061019a565b5b80604052505050565b600061020461010d565b905061021082826101c9565b919050565b600067ffffffffffffffff8211156102305761022f61019a565b5b61023982610189565b9050602081019050919050565b60005b83811015610264578082015181840152602081019050610249565b60008484015250505050565b600061028361027e84610215565b6101fa565b90508281526020810184848401111561029f5761029e610184565b5b6102aa848285610246565b509392505050565b600082601f8301126102c7576102c661017f565b5b81516102d7848260208601610270565b91505092915050565b600080600080608085870312156102fa576102f9610117565b5b60006103088782880161016a565b945050602085015167ffffffffffffffff8111156103295761032861011c565b5b610335878288016102b2565b93505060406103468782880161016a565b92505060606103578782880161016a565b91505092959194509250565b600081519050919050565b7f4e487b7100000000000000000000000000000000000000000000000000000000600052602260045260246000fd5b600060028204905060018216806103b557607f821691505b6020821081036103c8576103c761036e565b5b50919050565b60008190508160005260206000209050919050565b60006020601f8301049050919050565b600082821b905092915050565b6000600883026104307fffffffffffffffffffffffffffffffffffffffffffffffffffffffffffffffff826103f3565b61043a86836103f3565b95508019841693508086168417925050509392505050565b6000819050919050565b6000819050919050565b600061048161047c61047784610452565b61045c565b610452565b9050919050565b6000819050919050565b61049b83610466565b6104af6104a782610488565b848454610400565b825550505050565b600090565b6104c46104b7565b6104cf818484610492565b505050565b5b818110156104f3576104e86000826104bc565b6001810190506104d5565b5050565b601f82111561053857610509816103ce565b610512846103e3565b81016020851015610521578190505b61053561052d856103e3565b8301826104d4565b50505b505050565b600082821c905092915050565b600061055b6000198460080261053d565b1980831691505092915050565b6000610574838361054a565b9150826002028217905092915050565b61058d82610363565b67ffffffffffffffff8111156105a6576105a561019a565b5b6105b0825461039d565b6105bb8282856104f7565b600060209050601f8311600181146105ee57600084156105dc578287015190505b6105e68582610568565b86555061064e565b601f1984166105fc866103ce565b60005b82811015610624578489015182556001820191506020850194506020810190506105ff565b86831015610641578489015161063d601f89168261054a565b8355505b6001600288020188555050505b505050505050565b610c56806106656000396000f3fe60806040526004361061007f5760003560e01c80637dc0d1d01161004e5780637dc0d1d0146101a1578063937c19f6146101cc578063a5854123146101f5578063cd446e221461022057610118565b8063085ff7331461011d5780632c1ba839146101345780633fb1c6a91461015f5780635c961e8d1461018a57610118565b366101185742600481905550600160009054906101000a900473ffffffffffffffffffffffffffffffffffffffff1673ffffffffffffffffffffffffffffffffffffffff16636ef95f0630346040518363ffffffff1660e01b81526004016100e8929190610776565b600060405180830381600087803b15801561010257600080fd5b505af1158015610116573d6000803e3d6000fd5b005b600080fd5b34801561012957600080fd5b5061013261024b565b005b34801561014057600080fd5b50610149610394565b604051610156919061079f565b60405180910390f35b34801561016b57600080fd5b506101746103b8565b604051610181919061084a565b60405180910390f35b34801561019657600080fd5b5061019f610446565b005b3480156101ad57600080fd5b506101b661056b565b6040516101c3919061079f565b60405180910390f35b3480156101d857600080fd5b506101f360048036038101906101ee91906109b5565b610591565b005b34801561020157600080fd5b5061020a6106f0565b60405161021791906109fe565b60405180910390f35b34801561022c57600080fd5b506102356106f6565b604051610242919061079f565b60405180910390f35b60008054906101000a900473ffffffffffffffffffffffffffffffffffffffff1673ffffffffffffffffffffffffffffffffffffffff163373ffffffffffffffffffffffffffffffffffffffff16146102d9576040517f08c379a00000000000000000000000000000000000000000000000000000000081526004016102d090610a65565b60405180910390fd5b610e106004546102e99190610ab4565b42101561032b576040517f08c379a000000000000000000000000000000000000000000000000000000000815260040161032290610b34565b60405180910390fd5b60008054906101000a900473ffffffffffffffffffffffffffffffffffffffff1673ffffffffffffffffffffffffffffffffffffffff166108fc479081150290604051600060405180830381858888f19350505050158015610391573d6000803e3d6000fd5b50565b60008054906101000a900473ffffffffffffffffffffffffffffffffffffffff1681565b600380546103c590610b83565b80601f01602080910402602001604051908101604052809291908181526020018280546103f190610b83565b801561043e5780601f106104135761010080835404028352916020019161043e565b820191906000526020600020905b81548152906001019060200180831161042157829003601f168201915b505050505081565b600260009054906101000a900473ffffffffffffffffffffffffffffffffffffffff1673ffffffffffffffffffffffffffffffffffffffff163373ffffffffffffffffffffffffffffffffffffffff16146104d6576040517f08c379a00000000000000000000000000000000000000000000000000000000081526004016104cd90610c00565b60405180910390fd5b60008054906101000a900473ffffffffffffffffffffffffffffffffffffffff1673ffffffffffffffffffffffffffffffffffffffff166108fc479081150290604051600060405180830381858888f1935050505015801561053c573d6000803e3d6000fd5b507fbfd71a145e2ba4dbe0080147a870f39d148c247cbf598a296653a0529599a94160405160405180910390a1565b600260009054906101000a900473ffffffffffffffffffffffffffffffffffffffff1681565b600260009054906101000a900473ffffffffffffffffffffffffffffffffffffffff1673ffffffffffffffffffffffffffffffffffffffff163373ffffffffffffffffffffffffffffffffffffffff1614610621576040517f08c379a000000000000000000000000000000000000000000000000000000000815260040161061890610c00565b60405180910390fd5b7faf4f5d96971c687c49032f7dccb1c1cce9d43f85c8aa7bc1645bf3956c3635a681604051610650919061084a565b60405180910390a1600160009054906101000a900473ffffffffffffffffffffffffffffffffffffffff1673ffffffffffffffffffffffffffffffffffffffff166108fc479081150290604051600060405180830381858888f193505050501580156106c0573d6000803e3d6000fd5b507fb88a63f59b9364b3ddad04ba5c1878c38c45259a3cdd5c0bde1d6f46cd15f26560405160405180910390a150565b60045481565b600160009054906101000a900473ffffffffffffffffffffffffffffffffffffffff1681565b600073ffffffffffffffffffffffffffffffffffffffff82169050919050565b60006107478261071c565b9050919050565b6107578161073c565b82525050565b6000819050919050565b6107708161075d565b82525050565b600060408201905061078b600083018561074e565b6107986020830184610767565b9392505050565b60006020820190506107b4600083018461074e565b92915050565b600081519050919050565b600082825260208201905092915050565b60005b838110156107f45780820151818401526020810190506107d9565b60008484015250505050565b6000601f19601f8301169050919050565b600061081c826107ba565b61082681856107c5565b93506108368185602086016107d6565b61083f81610800565b840191505092915050565b600060208201905081810360008301526108648184610811565b905092915050565b6000604051905090565b600080fd5b600080fd5b600080fd5b600080fd5b7f4e487b7100000000000000000000000000000000000000000000000000000000600052604160045260246000fd5b6108c282610800565b810181811067ffffffffffffffff821117156108e1576108e061088a565b5b80604052505050565b60006108f461086c565b905061090082826108b9565b919050565b600067ffffffffffffffff8211156109205761091f61088a565b5b61092982610800565b9050602081019050919050565b82818337600083830152505050565b600061095861095384610905565b6108ea565b90508281526020810184848401111561097457610973610885565b5b61097f848285610936565b509392505050565b600082601f83011261099c5761099b610880565b5b81356109ac848260208601610945565b91505092915050565b6000602082840312156109cb576109ca610876565b5b600082013567ffffffffffffffff8111156109e9576109e861087b565b5b6109f584828501610987565b91505092915050565b6000602082019050610a136000830184610767565b92915050565b7f43616c6c6572206973206e6f7420746865206465706f73697465720000000000600082015250565b6000610a4f601b836107c5565b9150610a5a82610a19565b602082019050919050565b60006020820190508181036000830152610a7e81610a42565b9050919050565b7f4e487b7100000000000000000000000000000000000000000000000000000000600052601160045260246000fd5b6000610abf8261075d565b9150610aca8361075d565b9250828201905080821115610ae257610ae1610a85565b5b92915050565b7f43616e6e6f74207265636c61696d207965740000000000000000000000000000600082015250565b6000610b1e6012836107c5565b9150610b2982610ae8565b602082019050919050565b60006020820190508181036000830152610b4d81610b11565b9050919050565b7f4e487b7100000000000000000000000000000000000000000000000000000000600052602260045260246000fd5b60006002820490506001821680610b9b57607f821691505b602082108103610bae57610bad610b54565b5b50919050565b7f43616c6c6572206973206e6f7420746865206f7261636c650000000000000000600082015250565b6000610bea6018836107c5565b9150610bf582610bb4565b602082019050919050565b60006020820190508181036000830152610c1981610bdd565b905091905056fea264697066735822122074e0056079a9cb134016c9b8c94369f0231669021272d830c38e95e63650dc7164736f6c634300081b0033a2646970667358221220a60d017a4893cba608c7cb9b4a56b94abc745d9c480578573148bb323be7825c64736f6c634300081b0033",
  "linkReferences": {},
  "deployedLinkReferences": {}
}