{
  "_format": "hh-sol-artifact-1",
  "contractName": "SwapMaster",
  "sourceName": "contracts/Master.sol",
  "abi": [
    {
      "inputs": [
        {
          "internalType": "address",
          "name": "_implementation",
          "type": "address"
        },
        {
          "internalType": "address",
          "name": "_ethUsdPriceFeed",
          "type": "address"
        }
      ],
      "stateMutability": "nonpayable",
      "type": "constructor"
    },
    {
      "inputs": [],
      "name": "FailedDeployment",
      "type": "error"
    },
    {
      "inputs": [
        {
          "internalType": "uint256",
          "name": "balance",
          "type": "uint256"
        },
        {
          "internalType": "uint256",
          "name": "needed",
          "type": "uint256"
        }
      ],
      "name": "InsufficientBalance",
      "type": "error"
    },
    {
      "anonymous": false,
      "inputs": [
        {
          "indexed": true,
          "internalType": "address",
          "name": "caller",
          "type": "address"
        },
        {
          "indexed": true,
          "internalType": "address",
          "name": "depositAddress",
          "type": "address"
        },
        {
          "indexed": false,
          "internalType": "string",
          "name": "hashedMoneroAddress",
          "type": "string"
        },
        {
          "indexed": false,
          "internalType": "uint256",
          "name": "ethToXmrRate",
          "type": "uint256"
        }
      ],
      "name": "depositAddressCreated",
      "type": "event"
    },
    {
      "anonymous": false,
      "inputs": [
        {
          "indexed": false,
          "internalType": "address",
          "name": "depositAddress",
          "type": "address"
        },
        {
          "indexed": false,
          "internalType": "uint256",
          "name": "amount",
          "type": "uint256"
        },
        {
          "indexed": false,
          "internalType": "uint256",
          "name": "ethToXmrRate",
          "type": "uint256"
        }
      ],
      "name": "ethReceived",
      "type": "event"
    },
    {
      "anonymous": false,
      "inputs": [
        {
          "indexed": false,
          "internalType": "string",
          "name": "hashedEthereumAddress",
          "type": "string"
        }
      ],
      "name": "moneroAddressRequested",
      "type": "event"
    },
    {
      "inputs": [
        {
          "internalType": "address",
          "name": "",
          "type": "address"
        }
      ],
      "name": "DepositContracts",
      "outputs": [
        {
          "internalType": "bool",
          "name": "",
          "type": "bool"
        }
      ],
      "stateMutability": "view",
      "type": "function"
    },
    {
      "inputs": [
        {
          "internalType": "address",
          "name": "depositAddress",
          "type": "address"
        },
        {
          "internalType": "uint256",
          "name": "amount",
          "type": "uint256"
        },
        {
          "internalType": "uint256",
          "name": "ethToXmrRate",
          "type": "uint256"
        }
      ],
      "name": "PaymentReceived",
      "outputs": [],
      "stateMutability": "nonpayable",
      "type": "function"
    },
    {
      "inputs": [
        {
          "internalType": "string",
          "name": "hashedEthereumAddress",
          "type": "string"
        }
      ],
      "name": "RequestMoneroAddress",
      "outputs": [],
      "stateMutability": "nonpayable",
      "type": "function"
    },
    {
      "inputs": [
        {
          "internalType": "string",
          "name": "moneroDepositAddress",
          "type": "string"
        }
      ],
      "name": "SupplyMoneroAddress",
      "outputs": [],
      "stateMutability": "nonpayable",
      "type": "function"
    },
    {
      "inputs": [
        {
          "internalType": "string",
          "name": "hashedMoneroAddress",
          "type": "string"
        }
      ],
      "name": "createDepositAddress",
      "outputs": [
        {
          "internalType": "address",
          "name": "",
          "type": "address"
        }
      ],
      "stateMutability": "nonpayable",
      "type": "function"
    },
    {
      "inputs": [],
      "name": "implementation",
      "outputs": [
        {
          "internalType": "address",
          "name": "",
          "type": "address"
        }
      ],
      "stateMutability": "view",
      "type": "function"
    },
    {
      "inputs": [],
      "name": "oracle",
      "outputs": [
        {
          "internalType": "address",
          "name": "",
          "type": "address"
        }
      ],
      "stateMutability": "view",
      "type": "function"
    }
  ],
  "bytecode": "0x608060405234801561001057600080fd5b506040516110743803806110748339818101604052810190610032919061015e565b816000806101000a81548173ffffffffffffffffffffffffffffffffffffffff021916908373ffffffffffffffffffffffffffffffffffffffff16021790555033600160006101000a81548173ffffffffffffffffffffffffffffffffffffffff021916908373ffffffffffffffffffffffffffffffffffffffff16021790555080600260006101000a81548173ffffffffffffffffffffffffffffffffffffffff021916908373ffffffffffffffffffffffffffffffffffffffff160217905550505061019e565b600080fd5b600073ffffffffffffffffffffffffffffffffffffffff82169050919050565b600061012b82610100565b9050919050565b61013b81610120565b811461014657600080fd5b50565b60008151905061015881610132565b92915050565b60008060408385031215610175576101746100fb565b5b600061018385828601610149565b925050602061019485828601610149565b9150509250929050565b610ec7806101ad6000396000f3fe608060405234801561001057600080fd5b506004361061007c5760003560e01c80635c60da1b1161005b5780635c60da1b146100e95780637dc0d1d014610107578063dcafcc7f14610125578063fca75455146101415761007c565b80626c83e9146100815780633b3b88ca1461009d5780635677b5d4146100cd575b600080fd5b61009b6004803603810190610096919061087d565b610171565b005b6100b760048036038101906100b29190610924565b6101ab565b6040516100c4919061096c565b60405180910390f35b6100e760048036038101906100e291906109bd565b6101cb565b005b6100f1610297565b6040516100fe9190610a1f565b60405180910390f35b61010f6102bb565b60405161011c9190610a1f565b60405180910390f35b61013f600480360381019061013a919061087d565b6102e1565b005b61015b6004803603810190610156919061087d565b610374565b6040516101689190610a1f565b60405180910390f35b7fcf26ccb6599752d8f425935d0339b6ea7a80b53846b4ee900f8a7627eca7b44c816040516101a09190610ab9565b60405180910390a150565b60036020528060005260406000206000915054906101000a900460ff1681565b600360003373ffffffffffffffffffffffffffffffffffffffff1673ffffffffffffffffffffffffffffffffffffffff16815260200190815260200160002060009054906101000a900460ff16610257576040517f08c379a000000000000000000000000000000000000000000000000000000000815260040161024e90610b27565b60405180910390fd5b7f542756d3d902812127c336cd0d87a3776dc629499c7dfb2f27c89d6ca7c4b46583838360405161028a93929190610b56565b60405180910390a1505050565b60008054906101000a900473ffffffffffffffffffffffffffffffffffffffff1681565b600160009054906101000a900473ffffffffffffffffffffffffffffffffffffffff1681565b600160009054906101000a900473ffffffffffffffffffffffffffffffffffffffff1673ffffffffffffffffffffffffffffffffffffffff163373ffffffffffffffffffffffffffffffffffffffff1614610371576040517f08c379a000000000000000000000000000000000000000000000000000000000815260040161036890610bd9565b60405180910390fd5b50565b600080600260009054906101000a900473ffffffffffffffffffffffffffffffffffffffff1673ffffffffffffffffffffffffffffffffffffffff1663feaf968c6040518163ffffffff1660e01b815260040160a060405180830381865afa1580156103e4573d6000803e3d6000fd5b505050506040513d601f19601f820116820180604052508101906104089190610c86565b50505091505060008113610451576040517f08c379a000000000000000000000000000000000000000000000000000000000815260040161044890610d4d565b60405180910390fd5b6000670de0b6b3a7640000826104679190610d9c565b9050600061049460008054906101000a900473ffffffffffffffffffffffffffffffffffffffff16610617565b90508073ffffffffffffffffffffffffffffffffffffffff166397073ae6338730600160009054906101000a900473ffffffffffffffffffffffffffffffffffffffff16600260009054906101000a900473ffffffffffffffffffffffffffffffffffffffff166040518663ffffffff1660e01b815260040161051b959493929190610dde565b600060405180830381600087803b15801561053557600080fd5b505af1158015610549573d6000803e3d6000fd5b505050506001600360008373ffffffffffffffffffffffffffffffffffffffff1673ffffffffffffffffffffffffffffffffffffffff16815260200190815260200160002060006101000a81548160ff0219169083151502179055508073ffffffffffffffffffffffffffffffffffffffff163373ffffffffffffffffffffffffffffffffffffffff167f5f56dfc421c124df374992db0b8e42d04c6089e35950d4449fadab4d891b47d88785604051610604929190610e38565b60405180910390a3809350505050919050565b600061062482600061062b565b9050919050565b6000814710156106745747826040517fcf47918100000000000000000000000000000000000000000000000000000000815260040161066b929190610e68565b60405180910390fd5b763d602d80600a3d3981f3363d3d373d3d3d363d730000008360601b60e81c176000526e5af43d82803e903d91602b57fd5bf38360781b176020526037600983f09050600073ffffffffffffffffffffffffffffffffffffffff168173ffffffffffffffffffffffffffffffffffffffff160361071d576040517fb06ebf3d00000000000000000000000000000000000000000000000000000000815260040160405180910390fd5b92915050565b6000604051905090565b600080fd5b600080fd5b600080fd5b600080fd5b6000601f19601f8301169050919050565b7f4e487b7100000000000000000000000000000000000000000000000000000000600052604160045260246000fd5b61078a82610741565b810181811067ffffffffffffffff821117156107a9576107a8610752565b5b80604052505050565b60006107bc610723565b90506107c88282610781565b919050565b600067ffffffffffffffff8211156107e8576107e7610752565b5b6107f182610741565b9050602081019050919050565b82818337600083830152505050565b600061082061081b846107cd565b6107b2565b90508281526020810184848401111561083c5761083b61073c565b5b6108478482856107fe565b509392505050565b600082601f83011261086457610863610737565b5b813561087484826020860161080d565b91505092915050565b6000602082840312156108935761089261072d565b5b600082013567ffffffffffffffff8111156108b1576108b0610732565b5b6108bd8482850161084f565b91505092915050565b600073ffffffffffffffffffffffffffffffffffffffff82169050919050565b60006108f1826108c6565b9050919050565b610901816108e6565b811461090c57600080fd5b50565b60008135905061091e816108f8565b92915050565b60006020828403121561093a5761093961072d565b5b60006109488482850161090f565b91505092915050565b60008115159050919050565b61096681610951565b82525050565b6000602082019050610981600083018461095d565b92915050565b6000819050919050565b61099a81610987565b81146109a557600080fd5b50565b6000813590506109b781610991565b92915050565b6000806000606084860312156109d6576109d561072d565b5b60006109e48682870161090f565b93505060206109f5868287016109a8565b9250506040610a06868287016109a8565b9150509250925092565b610a19816108e6565b82525050565b6000602082019050610a346000830184610a10565b92915050565b600081519050919050565b600082825260208201905092915050565b60005b83811015610a74578082015181840152602081019050610a59565b60008484015250505050565b6000610a8b82610a3a565b610a958185610a45565b9350610aa5818560208601610a56565b610aae81610741565b840191505092915050565b60006020820190508181036000830152610ad38184610a80565b905092915050565b7f4e6f7420612076616c6964206465706f73697420636f6e747261637400000000600082015250565b6000610b11601c83610a45565b9150610b1c82610adb565b602082019050919050565b60006020820190508181036000830152610b4081610b04565b9050919050565b610b5081610987565b82525050565b6000606082019050610b6b6000830186610a10565b610b786020830185610b47565b610b856040830184610b47565b949350505050565b7f4e6f7420617574686f72697a6564000000000000000000000000000000000000600082015250565b6000610bc3600e83610a45565b9150610bce82610b8d565b602082019050919050565b60006020820190508181036000830152610bf281610bb6565b9050919050565b600069ffffffffffffffffffff82169050919050565b610c1881610bf9565b8114610c2357600080fd5b50565b600081519050610c3581610c0f565b92915050565b6000819050919050565b610c4e81610c3b565b8114610c5957600080fd5b50565b600081519050610c6b81610c45565b92915050565b600081519050610c8081610991565b92915050565b600080600080600060a08688031215610ca257610ca161072d565b5b6000610cb088828901610c26565b9550506020610cc188828901610c5c565b9450506040610cd288828901610c71565b9350506060610ce388828901610c71565b9250506080610cf488828901610c26565b9150509295509295909350565b7f496e76616c6964204554482f5553442070726963650000000000000000000000600082015250565b6000610d37601583610a45565b9150610d4282610d01565b602082019050919050565b60006020820190508181036000830152610d6681610d2a565b9050919050565b7f4e487b7100000000000000000000000000000000000000000000000000000000600052601160045260246000fd5b6000610da782610987565b9150610db283610987565b9250828202610dc081610987565b91508282048414831517610dd757610dd6610d6d565b5b5092915050565b600060a082019050610df36000830188610a10565b8181036020830152610e058187610a80565b9050610e146040830186610a10565b610e216060830185610a10565b610e2e6080830184610a10565b9695505050505050565b60006040820190508181036000830152610e528185610a80565b9050610e616020830184610b47565b9392505050565b6000604082019050610e7d6000830185610b47565b610e8a6020830184610b47565b939250505056fea2646970667358221220d2b992e84d32535fe535ef34ed655700d6482cf96feb8e95a5923158b1955fb164736f6c634300081b0033",
  "linkReferences": {},
  "deployedLinkReferences": {}
}