{
  "_format": "hh-sol-artifact-1",
  "contractName": "DepositAddress",
  "sourceName": "contracts/Master.sol",
  "abi": [
    {
      "inputs": [],
      "name": "ReentrancyGuardReentrantCall",
      "type": "error"
    },
    {
      "anonymous": false,
      "inputs": [],
      "name": "ConfirmSwapFailure",
      "type": "event"
    },
    {
      "anonymous": false,
      "inputs": [
        {
          "indexed": false,
          "internalType": "string",
          "name": "TxID",
          "type": "string"
        }
      ],
      "name": "ConfirmSwapSuccess",
      "type": "event"
    },
    {
      "inputs": [],
      "name": "ReclaimDeposit",
      "outputs": [],
      "stateMutability": "nonpayable",
      "type": "function"
    },
    {
      "inputs": [],
      "name": "SwapFailure",
      "outputs": [],
      "stateMutability": "nonpayable",
      "type": "function"
    },
    {
      "inputs": [
        {
          "internalType": "string",
          "name": "TxID",
          "type": "string"
        }
      ],
      "name": "SwapSuccess",
      "outputs": [],
      "stateMutability": "nonpayable",
      "type": "function"
    },
    {
      "inputs": [],
      "name": "depositTimestamp",
      "outputs": [
        {
          "internalType": "uint256",
          "name": "",
          "type": "uint256"
        }
      ],
      "stateMutability": "view",
      "type": "function"
    },
    {
      "inputs": [],
      "name": "depositor",
      "outputs": [
        {
          "internalType": "address",
          "name": "",
          "type": "address"
        }
      ],
      "stateMutability": "view",
      "type": "function"
    },
    {
      "inputs": [],
      "name": "hashedMoneroAddress",
      "outputs": [
        {
          "internalType": "string",
          "name": "",
          "type": "string"
        }
      ],
      "stateMutability": "view",
      "type": "function"
    },
    {
      "inputs": [
        {
          "internalType": "address",
          "name": "_depositor",
          "type": "address"
        },
        {
          "internalType": "string",
          "name": "_hashedMoneroAddress",
          "type": "string"
        },
        {
          "internalType": "address",
          "name": "_masterContract",
          "type": "address"
        },
        {
          "internalType": "address",
          "name": "_oracle",
          "type": "address"
        },
        {
          "internalType": "address",
          "name": "_ethUsdPriceFeed",
          "type": "address"
        }
      ],
      "name": "initialize",
      "outputs": [],
      "stateMutability": "nonpayable",
      "type": "function"
    },
    {
      "inputs": [],
      "name": "masterContract",
      "outputs": [
        {
          "internalType": "address",
          "name": "",
          "type": "address"
        }
      ],
      "stateMutability": "view",
      "type": "function"
    },
    {
      "inputs": [],
      "name": "oracle",
      "outputs": [
        {
          "internalType": "address",
          "name": "",
          "type": "address"
        }
      ],
      "stateMutability": "view",
      "type": "function"
    },
    {
      "stateMutability": "payable",
      "type": "receive"
    }
  ],
  "bytecode": "0x6080604052348015600f57600080fd5b506001600081905550611918806100276000396000f3fe60806040526004361061008a5760003560e01c8063937c19f611610059578063937c19f61461037657806397073ae61461039f578063a5854123146103c8578063c7c4ff46146103f3578063cd446e221461041e576102ed565b8063085ff733146102f25780633fb1c6a9146103095780635c961e8d146103345780637dc0d1d01461034b576102ed565b366102ed57610097610449565b600760059054906101000a900460ff16156100e7576040517f08c379a00000000000000000000000000000000000000000000000000000000081526004016100de90610ddb565b60405180910390fd5b600760019054906101000a900460ff1615610137576040517f08c379a000000000000000000000000000000000000000000000000000000000815260040161012e90610e47565b60405180910390fd5b6001600760016101000a81548160ff0219169083151502179055506000600760069054906101000a900473ffffffffffffffffffffffffffffffffffffffff1673ffffffffffffffffffffffffffffffffffffffff1663feaf968c6040518163ffffffff1660e01b815260040160a060405180830381865afa1580156101c1573d6000803e3d6000fd5b505050506040513d601f19601f820116820180604052508101906101e59190610f29565b5050509150506000811361022e576040517f08c379a000000000000000000000000000000000000000000000000000000000815260040161022590610ff0565b60405180910390fd5b670de0b6b3a764000081610242919061103f565b60068190555042600581905550600260009054906101000a900473ffffffffffffffffffffffffffffffffffffffff1673ffffffffffffffffffffffffffffffffffffffff16635677b5d430346006546040518463ffffffff1660e01b81526004016102b0939291906110d1565b600060405180830381600087803b1580156102ca57600080fd5b505af11580156102de573d6000803e3d6000fd5b50505050506102eb61048f565b005b600080fd5b3480156102fe57600080fd5b50610307610499565b005b34801561031557600080fd5b5061031e6106cc565b60405161032b9190611187565b60405180910390f35b34801561034057600080fd5b5061034961075a565b005b34801561035757600080fd5b50610360610967565b60405161036d91906111a9565b60405180910390f35b34801561038257600080fd5b5061039d600480360381019061039891906112f9565b61098d565b005b3480156103ab57600080fd5b506103c660048036038101906103c1919061136e565b610ba6565b005b3480156103d457600080fd5b506103dd610d2c565b6040516103ea9190611405565b60405180910390f35b3480156103ff57600080fd5b50610408610d32565b60405161041591906111a9565b60405180910390f35b34801561042a57600080fd5b50610433610d58565b60405161044091906111a9565b60405180910390f35b600260005403610485576040517f3ee5aeb500000000000000000000000000000000000000000000000000000000815260040160405180910390fd5b6002600081905550565b6001600081905550565b600160009054906101000a900473ffffffffffffffffffffffffffffffffffffffff1673ffffffffffffffffffffffffffffffffffffffff163373ffffffffffffffffffffffffffffffffffffffff1614610529576040517f08c379a00000000000000000000000000000000000000000000000000000000081526004016105209061146c565b60405180910390fd5b610531610449565b600760059054906101000a900460ff1615610581576040517f08c379a000000000000000000000000000000000000000000000000000000000815260040161057890610ddb565b60405180910390fd5b600760049054906101000a900460ff16156105d1576040517f08c379a00000000000000000000000000000000000000000000000000000000081526004016105c890610e47565b60405180910390fd5b610e106005546105e1919061148c565b421015610623576040517f08c379a000000000000000000000000000000000000000000000000000000000815260040161061a9061150c565b60405180910390fd5b6001600760046101000a81548160ff021916908315150217905550600160009054906101000a900473ffffffffffffffffffffffffffffffffffffffff1673ffffffffffffffffffffffffffffffffffffffff166108fc479081150290604051600060405180830381858888f193505050501580156106a6573d6000803e3d6000fd5b506001600760056101000a81548160ff0219169083151502179055506106ca61048f565b565b600480546106d99061155b565b80601f01602080910402602001604051908101604052809291908181526020018280546107059061155b565b80156107525780601f1061072757610100808354040283529160200191610752565b820191906000526020600020905b81548152906001019060200180831161073557829003601f168201915b505050505081565b600360009054906101000a900473ffffffffffffffffffffffffffffffffffffffff1673ffffffffffffffffffffffffffffffffffffffff163373ffffffffffffffffffffffffffffffffffffffff16146107ea576040517f08c379a00000000000000000000000000000000000000000000000000000000081526004016107e1906115d8565b60405180910390fd5b6107f2610449565b600760059054906101000a900460ff1615610842576040517f08c379a000000000000000000000000000000000000000000000000000000000815260040161083990610ddb565b60405180910390fd5b600760039054906101000a900460ff1615610892576040517f08c379a000000000000000000000000000000000000000000000000000000000815260040161088990610e47565b60405180910390fd5b6001600760036101000a81548160ff0219169083151502179055507fbfd71a145e2ba4dbe0080147a870f39d148c247cbf598a296653a0529599a94160405160405180910390a1600160009054906101000a900473ffffffffffffffffffffffffffffffffffffffff1673ffffffffffffffffffffffffffffffffffffffff166108fc479081150290604051600060405180830381858888f19350505050158015610941573d6000803e3d6000fd5b506001600760056101000a81548160ff02191690831515021790555061096561048f565b565b600360009054906101000a900473ffffffffffffffffffffffffffffffffffffffff1681565b600360009054906101000a900473ffffffffffffffffffffffffffffffffffffffff1673ffffffffffffffffffffffffffffffffffffffff163373ffffffffffffffffffffffffffffffffffffffff1614610a1d576040517f08c379a0000000000000000000000000000000000000000000000000000000008152600401610a14906115d8565b60405180910390fd5b610a25610449565b600760059054906101000a900460ff1615610a75576040517f08c379a0000000000000000000000000000000000000000000000000000000008152600401610a6c90610ddb565b60405180910390fd5b600760029054906101000a900460ff1615610ac5576040517f08c379a0000000000000000000000000000000000000000000000000000000008152600401610abc90610e47565b60405180910390fd5b6001600760026101000a81548160ff0219169083151502179055507f3814895bf18c63a650a394cbc8cab2bfe1e33b7879d6faea12ab624dfcd7e4eb81604051610b0f9190611187565b60405180910390a1600260009054906101000a900473ffffffffffffffffffffffffffffffffffffffff1673ffffffffffffffffffffffffffffffffffffffff166108fc479081150290604051600060405180830381858888f19350505050158015610b7f573d6000803e3d6000fd5b506001600760056101000a81548160ff021916908315150217905550610ba361048f565b50565b600760009054906101000a900460ff1615610bf6576040517f08c379a0000000000000000000000000000000000000000000000000000000008152600401610bed90611644565b60405180910390fd5b6001600760006101000a81548160ff02191690831515021790555084600160006101000a81548173ffffffffffffffffffffffffffffffffffffffff021916908373ffffffffffffffffffffffffffffffffffffffff1602179055508360049081610c619190611810565b5082600260006101000a81548173ffffffffffffffffffffffffffffffffffffffff021916908373ffffffffffffffffffffffffffffffffffffffff16021790555081600360006101000a81548173ffffffffffffffffffffffffffffffffffffffff021916908373ffffffffffffffffffffffffffffffffffffffff16021790555080600760066101000a81548173ffffffffffffffffffffffffffffffffffffffff021916908373ffffffffffffffffffffffffffffffffffffffff1602179055505050505050565b60055481565b600160009054906101000a900473ffffffffffffffffffffffffffffffffffffffff1681565b600260009054906101000a900473ffffffffffffffffffffffffffffffffffffffff1681565b600082825260208201905092915050565b7f436f6e74726163742069732064697361626c6564000000000000000000000000600082015250565b6000610dc5601483610d7e565b9150610dd082610d8f565b602082019050919050565b60006020820190508181036000830152610df481610db8565b9050919050565b7f46756e6374696f6e2063616e206f6e6c792062652063616c6c6564206f6e6365600082015250565b6000610e31602083610d7e565b9150610e3c82610dfb565b602082019050919050565b60006020820190508181036000830152610e6081610e24565b9050919050565b6000604051905090565b600080fd5b600080fd5b600069ffffffffffffffffffff82169050919050565b610e9a81610e7b565b8114610ea557600080fd5b50565b600081519050610eb781610e91565b92915050565b6000819050919050565b610ed081610ebd565b8114610edb57600080fd5b50565b600081519050610eed81610ec7565b92915050565b6000819050919050565b610f0681610ef3565b8114610f1157600080fd5b50565b600081519050610f2381610efd565b92915050565b600080600080600060a08688031215610f4557610f44610e71565b5b6000610f5388828901610ea8565b9550506020610f6488828901610ede565b9450506040610f7588828901610f14565b9350506060610f8688828901610f14565b9250506080610f9788828901610ea8565b9150509295509295909350565b7f496e76616c6964204554482f5553442070726963650000000000000000000000600082015250565b6000610fda601583610d7e565b9150610fe582610fa4565b602082019050919050565b6000602082019050818103600083015261100981610fcd565b9050919050565b7f4e487b7100000000000000000000000000000000000000000000000000000000600052601160045260246000fd5b600061104a82610ef3565b915061105583610ef3565b925082820261106381610ef3565b9150828204841483151761107a57611079611010565b5b5092915050565b600073ffffffffffffffffffffffffffffffffffffffff82169050919050565b60006110ac82611081565b9050919050565b6110bc816110a1565b82525050565b6110cb81610ef3565b82525050565b60006060820190506110e660008301866110b3565b6110f360208301856110c2565b61110060408301846110c2565b949350505050565b600081519050919050565b60005b83811015611131578082015181840152602081019050611116565b60008484015250505050565b6000601f19601f8301169050919050565b600061115982611108565b6111638185610d7e565b9350611173818560208601611113565b61117c8161113d565b840191505092915050565b600060208201905081810360008301526111a1818461114e565b905092915050565b60006020820190506111be60008301846110b3565b92915050565b600080fd5b600080fd5b7f4e487b7100000000000000000000000000000000000000000000000000000000600052604160045260246000fd5b6112068261113d565b810181811067ffffffffffffffff82111715611225576112246111ce565b5b80604052505050565b6000611238610e67565b905061124482826111fd565b919050565b600067ffffffffffffffff821115611264576112636111ce565b5b61126d8261113d565b9050602081019050919050565b82818337600083830152505050565b600061129c61129784611249565b61122e565b9050828152602081018484840111156112b8576112b76111c9565b5b6112c384828561127a565b509392505050565b600082601f8301126112e0576112df6111c4565b5b81356112f0848260208601611289565b91505092915050565b60006020828403121561130f5761130e610e71565b5b600082013567ffffffffffffffff81111561132d5761132c610e76565b5b611339848285016112cb565b91505092915050565b61134b816110a1565b811461135657600080fd5b50565b60008135905061136881611342565b92915050565b600080600080600060a0868803121561138a57611389610e71565b5b600061139888828901611359565b955050602086013567ffffffffffffffff8111156113b9576113b8610e76565b5b6113c5888289016112cb565b94505060406113d688828901611359565b93505060606113e788828901611359565b92505060806113f888828901611359565b9150509295509295909350565b600060208201905061141a60008301846110c2565b92915050565b7f43616c6c6572206973206e6f7420746865206465706f7369746f720000000000600082015250565b6000611456601b83610d7e565b915061146182611420565b602082019050919050565b6000602082019050818103600083015261148581611449565b9050919050565b600061149782610ef3565b91506114a283610ef3565b92508282019050808211156114ba576114b9611010565b5b92915050565b7f43616e6e6f74207265636c61696d207965740000000000000000000000000000600082015250565b60006114f6601283610d7e565b9150611501826114c0565b602082019050919050565b60006020820190508181036000830152611525816114e9565b9050919050565b7f4e487b7100000000000000000000000000000000000000000000000000000000600052602260045260246000fd5b6000600282049050600182168061157357607f821691505b6020821081036115865761158561152c565b5b50919050565b7f43616c6c6572206973206e6f7420746865206f7261636c650000000000000000600082015250565b60006115c2601883610d7e565b91506115cd8261158c565b602082019050919050565b600060208201905081810360008301526115f1816115b5565b9050919050565b7f416c726561647920696e697469616c697a656400000000000000000000000000600082015250565b600061162e601383610d7e565b9150611639826115f8565b602082019050919050565b6000602082019050818103600083015261165d81611621565b9050919050565b60008190508160005260206000209050919050565b60006020601f8301049050919050565b600082821b905092915050565b6000600883026116c67fffffffffffffffffffffffffffffffffffffffffffffffffffffffffffffffff82611689565b6116d08683611689565b95508019841693508086168417925050509392505050565b6000819050919050565b600061170d61170861170384610ef3565b6116e8565b610ef3565b9050919050565b6000819050919050565b611727836116f2565b61173b61173382611714565b848454611696565b825550505050565b600090565b611750611743565b61175b81848461171e565b505050565b5b8181101561177f57611774600082611748565b600181019050611761565b5050565b601f8211156117c45761179581611664565b61179e84611679565b810160208510156117ad578190505b6117c16117b985611679565b830182611760565b50505b505050565b600082821c905092915050565b60006117e7600019846008026117c9565b1980831691505092915050565b600061180083836117d6565b9150826002028217905092915050565b61181982611108565b67ffffffffffffffff811115611832576118316111ce565b5b61183c825461155b565b611847828285611783565b600060209050601f83116001811461187a5760008415611868578287015190505b61187285826117f4565b8655506118da565b601f19841661188886611664565b60005b828110156118b05784890151825560018201915060208501945060208101905061188b565b868310156118cd57848901516118c9601f8916826117d6565b8355505b6001600288020188555050505b50505050505056fea2646970667358221220ce3febe5a2568334a87098efd709eddc8fedad8617fe15910fcc5dd191f3fa5e64736f6c634300081b0033",
  "linkReferences": {},
  "deployedLinkReferences": {}
}