{
  "_format": "hh-sol-artifact-1",
  "contractName": "MASTER",
  "sourceName": "contracts/Master.sol",
  "abi": [
    {
      "inputs": [
        {
          "internalType": "address",
          "name": "_implementation1",
          "type": "address"
        },
        {
          "internalType": "address",
          "name": "_implementation2",
          "type": "address"
        },
        {
          "internalType": "address",
          "name": "_eth_usd_address",
          "type": "address"
        },
        {
          "internalType": "address",
          "name": "_xmr_usd_address",
          "type": "address"
        }
      ],
      "stateMutability": "nonpayable",
      "type": "constructor"
    },
    {
      "inputs": [],
      "name": "FailedDeployment",
      "type": "error"
    },
    {
      "inputs": [
        {
          "internalType": "uint256",
          "name": "balance",
          "type": "uint256"
        },
        {
          "internalType": "uint256",
          "name": "needed",
          "type": "uint256"
        }
      ],
      "name": "InsufficientBalance",
      "type": "error"
    },
    {
      "inputs": [],
      "name": "ReentrancyGuardReentrantCall",
      "type": "error"
    },
    {
      "anonymous": false,
      "inputs": [
        {
          "indexed": true,
          "internalType": "address",
          "name": "depositAddress",
          "type": "address"
        },
        {
          "indexed": false,
          "internalType": "uint256",
          "name": "amount",
          "type": "uint256"
        },
        {
          "indexed": false,
          "internalType": "string",
          "name": "encryptedMoneroAddress",
          "type": "string"
        },
        {
          "indexed": false,
          "internalType": "uint256",
          "name": "rate",
          "type": "uint256"
        }
      ],
      "name": "EthDeposit",
      "type": "event"
    },
    {
      "anonymous": false,
      "inputs": [
        {
          "indexed": true,
          "internalType": "address",
          "name": "depositAddress",
          "type": "address"
        },
        {
          "indexed": false,
          "internalType": "string",
          "name": "encryptedMoneroAddress",
          "type": "string"
        }
      ],
      "name": "EthXmrContractCreation",
      "type": "event"
    },
    {
      "anonymous": false,
      "inputs": [
        {
          "indexed": true,
          "internalType": "address",
          "name": "destination",
          "type": "address"
        },
        {
          "indexed": false,
          "internalType": "uint256",
          "name": "amount",
          "type": "uint256"
        }
      ],
      "name": "EthereumWithdrawal",
      "type": "event"
    },
    {
      "anonymous": false,
      "inputs": [
        {
          "indexed": true,
          "internalType": "address",
          "name": "subcontractAddress",
          "type": "address"
        },
        {
          "indexed": true,
          "internalType": "address",
          "name": "withdrawalAddress",
          "type": "address"
        }
      ],
      "name": "XmrEthContractCreation",
      "type": "event"
    },
    {
      "inputs": [],
      "name": "CalculateExchangeRate",
      "outputs": [
        {
          "internalType": "uint256",
          "name": "exchangeRate",
          "type": "uint256"
        }
      ],
      "stateMutability": "view",
      "type": "function"
    },
    {
      "inputs": [
        {
          "internalType": "string",
          "name": "hashedMoneroAddress",
          "type": "string"
        }
      ],
      "name": "CreateEthXmrContract",
      "outputs": [],
      "stateMutability": "nonpayable",
      "type": "function"
    },
    {
      "inputs": [
        {
          "internalType": "address",
          "name": "withdrawalAddress",
          "type": "address"
        }
      ],
      "name": "CreateXmrEthContract",
      "outputs": [],
      "stateMutability": "nonpayable",
      "type": "function"
    },
    {
      "inputs": [
        {
          "internalType": "address",
          "name": "",
          "type": "address"
        }
      ],
      "name": "ETH_XMR_CONTRACTS",
      "outputs": [
        {
          "internalType": "address",
          "name": "",
          "type": "address"
        }
      ],
      "stateMutability": "view",
      "type": "function"
    },
    {
      "inputs": [
        {
          "internalType": "address",
          "name": "depositAddress",
          "type": "address"
        },
        {
          "internalType": "uint256",
          "name": "amount",
          "type": "uint256"
        },
        {
          "internalType": "string",
          "name": "encryptedMoneroAddress",
          "type": "string"
        }
      ],
      "name": "EthereumReceived",
      "outputs": [],
      "stateMutability": "nonpayable",
      "type": "function"
    },
    {
      "inputs": [
        {
          "internalType": "uint256",
          "name": "amountReceived",
          "type": "uint256"
        },
        {
          "internalType": "address",
          "name": "withdrawalAddress",
          "type": "address"
        }
      ],
      "name": "MoneroReceived",
      "outputs": [
        {
          "internalType": "uint256",
          "name": "",
          "type": "uint256"
        }
      ],
      "stateMutability": "nonpayable",
      "type": "function"
    },
    {
      "inputs": [
        {
          "internalType": "address",
          "name": "withdrawalAddress",
          "type": "address"
        }
      ],
      "name": "USERWithdraw",
      "outputs": [],
      "stateMutability": "nonpayable",
      "type": "function"
    },
    {
      "inputs": [
        {
          "internalType": "address",
          "name": "",
          "type": "address"
        }
      ],
      "name": "XMR_ETH_CONTRACTS",
      "outputs": [
        {
          "internalType": "address",
          "name": "",
          "type": "address"
        }
      ],
      "stateMutability": "view",
      "type": "function"
    },
    {
      "inputs": [],
      "name": "eth_usd_price",
      "outputs": [
        {
          "internalType": "contract AggregatorV3Interface",
          "name": "",
          "type": "address"
        }
      ],
      "stateMutability": "view",
      "type": "function"
    },
    {
      "inputs": [],
      "name": "implementation1",
      "outputs": [
        {
          "internalType": "address",
          "name": "",
          "type": "address"
        }
      ],
      "stateMutability": "view",
      "type": "function"
    },
    {
      "inputs": [],
      "name": "implementation2",
      "outputs": [
        {
          "internalType": "address",
          "name": "",
          "type": "address"
        }
      ],
      "stateMutability": "view",
      "type": "function"
    },
    {
      "inputs": [],
      "name": "oracle",
      "outputs": [
        {
          "internalType": "address",
          "name": "",
          "type": "address"
        }
      ],
      "stateMutability": "view",
      "type": "function"
    },
    {
      "inputs": [],
      "name": "xmr_usd_price",
      "outputs": [
        {
          "internalType": "contract AggregatorV3Interface",
          "name": "",
          "type": "address"
        }
      ],
      "stateMutability": "view",
      "type": "function"
    },
    {
      "stateMutability": "payable",
      "type": "receive"
    }
  ],
  "bytecode": "0x608060405234801561001057600080fd5b5060405161209d38038061209d833981810160405281019061003291906101eb565b600160008190555083600160006101000a81548173ffffffffffffffffffffffffffffffffffffffff021916908373ffffffffffffffffffffffffffffffffffffffff16021790555082600260006101000a81548173ffffffffffffffffffffffffffffffffffffffff021916908373ffffffffffffffffffffffffffffffffffffffff16021790555081600360006101000a81548173ffffffffffffffffffffffffffffffffffffffff021916908373ffffffffffffffffffffffffffffffffffffffff16021790555080600460006101000a81548173ffffffffffffffffffffffffffffffffffffffff021916908373ffffffffffffffffffffffffffffffffffffffff16021790555033600560006101000a81548173ffffffffffffffffffffffffffffffffffffffff021916908373ffffffffffffffffffffffffffffffffffffffff16021790555050505050610252565b600080fd5b600073ffffffffffffffffffffffffffffffffffffffff82169050919050565b60006101b88261018d565b9050919050565b6101c8816101ad565b81146101d357600080fd5b50565b6000815190506101e5816101bf565b92915050565b6000806000806080858703121561020557610204610188565b5b6000610213878288016101d6565b9450506020610224878288016101d6565b9350506040610235878288016101d6565b9250506060610246878288016101d6565b91505092959194509250565b611e3c806102616000396000f3fe6080604052600436106100c65760003560e01c8063a3fba4911161007f578063d2007f1011610059578063d2007f1014610261578063d533a06b1461029e578063f948e51a146102db578063fad494cb14610306576100cd565b8063a3fba491146101e4578063b8d9093e1461020d578063d16b304a14610238576100cd565b80630f4273cb146100d2578063345ba24b146100fb57806349d19efe146101265780634f812858146101515780637dc0d1d01461018e5780638faba842146101b9576100cd565b366100cd57005b600080fd5b3480156100de57600080fd5b506100f960048036038101906100f49190611315565b61032f565b005b34801561010757600080fd5b506101106104e7565b60405161011d91906113e3565b60405180910390f35b34801561013257600080fd5b5061013b61050d565b60405161014891906113e3565b60405180910390f35b34801561015d57600080fd5b50610178600480360381019061017391906113fe565b610533565b604051610185919061143a565b60405180910390f35b34801561019a57600080fd5b506101a3610566565b6040516101b0919061143a565b60405180910390f35b3480156101c557600080fd5b506101ce61058c565b6040516101db9190611464565b60405180910390f35b3480156101f057600080fd5b5061020b600480360381019061020691906113fe565b6108b2565b005b34801561021957600080fd5b506102226109cf565b60405161022f919061143a565b60405180910390f35b34801561024457600080fd5b5061025f600480360381019061025a919061147f565b6109f5565b005b34801561026d57600080fd5b50610288600480360381019061028391906114c8565b610b87565b6040516102959190611464565b60405180910390f35b3480156102aa57600080fd5b506102c560048036038101906102c091906113fe565b610dd6565b6040516102d2919061143a565b60405180910390f35b3480156102e757600080fd5b506102f0610e09565b6040516102fd919061143a565b60405180910390f35b34801561031257600080fd5b5061032d600480360381019061032891906113fe565b610e2f565b005b600073ffffffffffffffffffffffffffffffffffffffff16600660003373ffffffffffffffffffffffffffffffffffffffff1673ffffffffffffffffffffffffffffffffffffffff16815260200190815260200160002060009054906101000a900473ffffffffffffffffffffffffffffffffffffffff1673ffffffffffffffffffffffffffffffffffffffff16036103fd576040517f08c379a00000000000000000000000000000000000000000000000000000000081526004016103f490611565565b60405180910390fd5b60008211610440576040517f08c379a0000000000000000000000000000000000000000000000000000000008152600401610437906115d1565b60405180910390fd5b600061044a61058c565b90506000811161048f576040517f08c379a00000000000000000000000000000000000000000000000000000000081526004016104869061163d565b60405180910390fd5b8373ffffffffffffffffffffffffffffffffffffffff167f836c043dd45879bec98712b94000af7b89d5b136a949ece2701c2a7468f09be18484846040516104d9939291906116cb565b60405180910390a250505050565b600360009054906101000a900473ffffffffffffffffffffffffffffffffffffffff1681565b600460009054906101000a900473ffffffffffffffffffffffffffffffffffffffff1681565b60076020528060005260406000206000915054906101000a900473ffffffffffffffffffffffffffffffffffffffff1681565b600560009054906101000a900473ffffffffffffffffffffffffffffffffffffffff1681565b600080600360009054906101000a900473ffffffffffffffffffffffffffffffffffffffff1673ffffffffffffffffffffffffffffffffffffffff1663feaf968c6040518163ffffffff1660e01b815260040160a060405180830381865afa1580156105fc573d6000803e3d6000fd5b505050506040513d601f19601f820116820180604052508101906106209190611796565b5050509150506000600460009054906101000a900473ffffffffffffffffffffffffffffffffffffffff1673ffffffffffffffffffffffffffffffffffffffff1663feaf968c6040518163ffffffff1660e01b815260040160a060405180830381865afa158015610695573d6000803e3d6000fd5b505050506040513d601f19601f820116820180604052508101906106b99190611796565b5050509150506000821380156106cf5750600081135b61070e576040517f08c379a00000000000000000000000000000000000000000000000000000000081526004016107059061185d565b60405180910390fd5b6000600360009054906101000a900473ffffffffffffffffffffffffffffffffffffffff1673ffffffffffffffffffffffffffffffffffffffff1663313ce5676040518163ffffffff1660e01b8152600401602060405180830381865afa15801561077d573d6000803e3d6000fd5b505050506040513d601f19601f820116820180604052508101906107a191906118b6565b90506000600460009054906101000a900473ffffffffffffffffffffffffffffffffffffffff1673ffffffffffffffffffffffffffffffffffffffff1663313ce5676040518163ffffffff1660e01b8152600401602060405180830381865afa158015610812573d6000803e3d6000fd5b505050506040513d601f19601f8201168201806040525081019061083691906118b6565b905060008260126108479190611912565b600a6108539190611a7a565b8561085e9190611ac5565b9050600082601261086f9190611912565b600a61087b9190611a7a565b856108869190611ac5565b905081670de0b6b3a76400008261089d9190611ac5565b6108a79190611b36565b965050505050505090565b600560009054906101000a900473ffffffffffffffffffffffffffffffffffffffff1673ffffffffffffffffffffffffffffffffffffffff163373ffffffffffffffffffffffffffffffffffffffff1614610942576040517f08c379a000000000000000000000000000000000000000000000000000000000815260040161093990611bb3565b60405180910390fd5b60004711610985576040517f08c379a000000000000000000000000000000000000000000000000000000000815260040161097c90611c1f565b60405180910390fd5b8073ffffffffffffffffffffffffffffffffffffffff166108fc479081150290604051600060405180830381858888f193505050501580156109cb573d6000803e3d6000fd5b5050565b600160009054906101000a900473ffffffffffffffffffffffffffffffffffffffff1681565b6000610a22600160009054906101000a900473ffffffffffffffffffffffffffffffffffffffff16610fcb565b905033600660008373ffffffffffffffffffffffffffffffffffffffff1673ffffffffffffffffffffffffffffffffffffffff16815260200190815260200160002060006101000a81548173ffffffffffffffffffffffffffffffffffffffff021916908373ffffffffffffffffffffffffffffffffffffffff1602179055508073ffffffffffffffffffffffffffffffffffffffff1663b8f88d64338430600560009054906101000a900473ffffffffffffffffffffffffffffffffffffffff166040518563ffffffff1660e01b8152600401610b039493929190611c60565b600060405180830381600087803b158015610b1d57600080fd5b505af1158015610b31573d6000803e3d6000fd5b505050508073ffffffffffffffffffffffffffffffffffffffff167fed9b820341d69b311d4b24c6b294fef4da3746d1bc99f3e93e92703f913d80b083604051610b7b9190611cac565b60405180910390a25050565b60008073ffffffffffffffffffffffffffffffffffffffff16600760003373ffffffffffffffffffffffffffffffffffffffff1673ffffffffffffffffffffffffffffffffffffffff16815260200190815260200160002060009054906101000a900473ffffffffffffffffffffffffffffffffffffffff1673ffffffffffffffffffffffffffffffffffffffff1603610c56576040517f08c379a0000000000000000000000000000000000000000000000000000000008152600401610c4d90611d1a565b60405180910390fd5b610c5e610fdf565b6000610c6861058c565b905060008111610cad576040517f08c379a0000000000000000000000000000000000000000000000000000000008152600401610ca49061163d565b60405180910390fd5b60006064606386610cbe9190611ac5565b610cc89190611b36565b9050600064e8d4a510008383610cde9190611ac5565b610ce89190611b36565b905080471015610d2d576040517f08c379a0000000000000000000000000000000000000000000000000000000008152600401610d2490611d86565b60405180910390fd5b8473ffffffffffffffffffffffffffffffffffffffff166108fc829081150290604051600060405180830381858888f19350505050158015610d73573d6000803e3d6000fd5b508473ffffffffffffffffffffffffffffffffffffffff167fc214b61456a4afa996b84ace2c1921a32f11ff0318e96b8ce1dfc2a3b0ab52f982604051610dba9190611464565b60405180910390a2809350505050610dd0611025565b92915050565b60066020528060005260406000206000915054906101000a900473ffffffffffffffffffffffffffffffffffffffff1681565b600260009054906101000a900473ffffffffffffffffffffffffffffffffffffffff1681565b6000610e5c600260009054906101000a900473ffffffffffffffffffffffffffffffffffffffff16610fcb565b905033600760008373ffffffffffffffffffffffffffffffffffffffff1673ffffffffffffffffffffffffffffffffffffffff16815260200190815260200160002060006101000a81548173ffffffffffffffffffffffffffffffffffffffff021916908373ffffffffffffffffffffffffffffffffffffffff1602179055508073ffffffffffffffffffffffffffffffffffffffff1663c0c53b8b8330600560009054906101000a900473ffffffffffffffffffffffffffffffffffffffff166040518463ffffffff1660e01b8152600401610f3b93929190611da6565b600060405180830381600087803b158015610f5557600080fd5b505af1158015610f69573d6000803e3d6000fd5b505050508173ffffffffffffffffffffffffffffffffffffffff168173ffffffffffffffffffffffffffffffffffffffff167fe79f779f4abbe35b362e83f3db412565bcb485e9c3acd4794e355034e8067b1060405160405180910390a35050565b6000610fd882600061102f565b9050919050565b60026000540361101b576040517f3ee5aeb500000000000000000000000000000000000000000000000000000000815260040160405180910390fd5b6002600081905550565b6001600081905550565b6000814710156110785747826040517fcf47918100000000000000000000000000000000000000000000000000000000815260040161106f929190611ddd565b60405180910390fd5b763d602d80600a3d3981f3363d3d373d3d3d363d730000008360601b60e81c176000526e5af43d82803e903d91602b57fd5bf38360781b176020526037600983f09050600073ffffffffffffffffffffffffffffffffffffffff168173ffffffffffffffffffffffffffffffffffffffff1603611121576040517fb06ebf3d00000000000000000000000000000000000000000000000000000000815260040160405180910390fd5b92915050565b6000604051905090565b600080fd5b600080fd5b600073ffffffffffffffffffffffffffffffffffffffff82169050919050565b60006111668261113b565b9050919050565b6111768161115b565b811461118157600080fd5b50565b6000813590506111938161116d565b92915050565b6000819050919050565b6111ac81611199565b81146111b757600080fd5b50565b6000813590506111c9816111a3565b92915050565b600080fd5b600080fd5b6000601f19601f8301169050919050565b7f4e487b7100000000000000000000000000000000000000000000000000000000600052604160045260246000fd5b611222826111d9565b810181811067ffffffffffffffff82111715611241576112406111ea565b5b80604052505050565b6000611254611127565b90506112608282611219565b919050565b600067ffffffffffffffff8211156112805761127f6111ea565b5b611289826111d9565b9050602081019050919050565b82818337600083830152505050565b60006112b86112b384611265565b61124a565b9050828152602081018484840111156112d4576112d36111d4565b5b6112df848285611296565b509392505050565b600082601f8301126112fc576112fb6111cf565b5b813561130c8482602086016112a5565b91505092915050565b60008060006060848603121561132e5761132d611131565b5b600061133c86828701611184565b935050602061134d868287016111ba565b925050604084013567ffffffffffffffff81111561136e5761136d611136565b5b61137a868287016112e7565b9150509250925092565b6000819050919050565b60006113a96113a461139f8461113b565b611384565b61113b565b9050919050565b60006113bb8261138e565b9050919050565b60006113cd826113b0565b9050919050565b6113dd816113c2565b82525050565b60006020820190506113f860008301846113d4565b92915050565b60006020828403121561141457611413611131565b5b600061142284828501611184565b91505092915050565b6114348161115b565b82525050565b600060208201905061144f600083018461142b565b92915050565b61145e81611199565b82525050565b60006020820190506114796000830184611455565b92915050565b60006020828403121561149557611494611131565b5b600082013567ffffffffffffffff8111156114b3576114b2611136565b5b6114bf848285016112e7565b91505092915050565b600080604083850312156114df576114de611131565b5b60006114ed858286016111ba565b92505060206114fe85828601611184565b9150509250929050565b600082825260208201905092915050565b7f4e6f7420612076616c6964204554482f584d5220636f6e747261637400000000600082015250565b600061154f601c83611508565b915061155a82611519565b602082019050919050565b6000602082019050818103600083015261157e81611542565b9050919050565b7f6e6f20657468206465706f736974656400000000000000000000000000000000600082015250565b60006115bb601083611508565b91506115c682611585565b602082019050919050565b600060208201905081810360008301526115ea816115ae565b9050919050565b7f6661696c656420746f206765742065786368616e676520726174650000000000600082015250565b6000611627601b83611508565b9150611632826115f1565b602082019050919050565b600060208201905081810360008301526116568161161a565b9050919050565b600081519050919050565b60005b8381101561168657808201518184015260208101905061166b565b60008484015250505050565b600061169d8261165d565b6116a78185611508565b93506116b7818560208601611668565b6116c0816111d9565b840191505092915050565b60006060820190506116e06000830186611455565b81810360208301526116f28185611692565b90506117016040830184611455565b949350505050565b600069ffffffffffffffffffff82169050919050565b61172881611709565b811461173357600080fd5b50565b6000815190506117458161171f565b92915050565b6000819050919050565b61175e8161174b565b811461176957600080fd5b50565b60008151905061177b81611755565b92915050565b600081519050611790816111a3565b92915050565b600080600080600060a086880312156117b2576117b1611131565b5b60006117c088828901611736565b95505060206117d18882890161176c565b94505060406117e288828901611781565b93505060606117f388828901611781565b925050608061180488828901611736565b9150509295509295909350565b7f496e76616c696420707269636520646174610000000000000000000000000000600082015250565b6000611847601283611508565b915061185282611811565b602082019050919050565b600060208201905081810360008301526118768161183a565b9050919050565b600060ff82169050919050565b6118938161187d565b811461189e57600080fd5b50565b6000815190506118b08161188a565b92915050565b6000602082840312156118cc576118cb611131565b5b60006118da848285016118a1565b91505092915050565b7f4e487b7100000000000000000000000000000000000000000000000000000000600052601160045260246000fd5b600061191d8261187d565b91506119288361187d565b9250828203905060ff811115611941576119406118e3565b5b92915050565b60008160011c9050919050565b6000808291508390505b600185111561199e5780860481111561197a576119796118e3565b5b60018516156119895780820291505b808102905061199785611947565b945061195e565b94509492505050565b6000826119b75760019050611a73565b816119c55760009050611a73565b81600181146119db57600281146119e557611a14565b6001915050611a73565b60ff8411156119f7576119f66118e3565b5b8360020a915084821115611a0e57611a0d6118e3565b5b50611a73565b5060208310610133831016604e8410600b8410161715611a495782820a905083811115611a4457611a436118e3565b5b611a73565b611a568484846001611954565b92509050818404811115611a6d57611a6c6118e3565b5b81810290505b9392505050565b6000611a8582611199565b9150611a908361187d565b9250611abd7fffffffffffffffffffffffffffffffffffffffffffffffffffffffffffffffff84846119a7565b905092915050565b6000611ad082611199565b9150611adb83611199565b9250828202611ae981611199565b91508282048414831517611b0057611aff6118e3565b5b5092915050565b7f4e487b7100000000000000000000000000000000000000000000000000000000600052601260045260246000fd5b6000611b4182611199565b9150611b4c83611199565b925082611b5c57611b5b611b07565b5b828204905092915050565b7f4e6f7420617574686f72697a6564000000000000000000000000000000000000600082015250565b6000611b9d600e83611508565b9150611ba882611b67565b602082019050919050565b60006020820190508181036000830152611bcc81611b90565b9050919050565b7f636f6e747261637420697320656d707479000000000000000000000000000000600082015250565b6000611c09601183611508565b9150611c1482611bd3565b602082019050919050565b60006020820190508181036000830152611c3881611bfc565b9050919050565b6000611c4a8261113b565b9050919050565b611c5a81611c3f565b82525050565b6000608082019050611c75600083018761142b565b8181036020830152611c878186611692565b9050611c966040830185611c51565b611ca3606083018461142b565b95945050505050565b60006020820190508181036000830152611cc68184611692565b905092915050565b7f4e6f7420612076616c696420584d522f45544820636f6e747261637400000000600082015250565b6000611d04601c83611508565b9150611d0f82611cce565b602082019050919050565b60006020820190508181036000830152611d3381611cf7565b9050919050565b7f496e73756666696369656e74204554482042616c616e63650000000000000000600082015250565b6000611d70601883611508565b9150611d7b82611d3a565b602082019050919050565b60006020820190508181036000830152611d9f81611d63565b9050919050565b6000606082019050611dbb600083018661142b565b611dc86020830185611c51565b611dd5604083018461142b565b949350505050565b6000604082019050611df26000830185611455565b611dff6020830184611455565b939250505056fea2646970667358221220adf77c010da87e2ed447f7a95a30548f1e8ffdf32f8c86792c0c4e11b6a5d78064736f6c634300081b0033",
  "linkReferences": {},
  "deployedLinkReferences": {}
}