{
  "_format": "hh-sol-artifact-1",
  "contractName": "ETH_XMR",
  "sourceName": "contracts/Master.sol",
  "abi": [
    {
      "inputs": [],
      "name": "ReentrancyGuardReentrantCall",
      "type": "error"
    },
    {
      "anonymous": false,
      "inputs": [],
      "name": "ConfirmSwapFailure",
      "type": "event"
    },
    {
      "anonymous": false,
      "inputs": [
        {
          "indexed": false,
          "internalType": "string",
          "name": "TxID",
          "type": "string"
        }
      ],
      "name": "ConfirmSwapSuccess",
      "type": "event"
    },
    {
      "inputs": [],
      "name": "ReclaimDeposit",
      "outputs": [],
      "stateMutability": "nonpayable",
      "type": "function"
    },
    {
      "inputs": [],
      "name": "SwapFailure",
      "outputs": [],
      "stateMutability": "nonpayable",
      "type": "function"
    },
    {
      "inputs": [
        {
          "internalType": "string",
          "name": "TxID",
          "type": "string"
        }
      ],
      "name": "SwapSuccess",
      "outputs": [],
      "stateMutability": "nonpayable",
      "type": "function"
    },
    {
      "inputs": [],
      "name": "depositTimestamp",
      "outputs": [
        {
          "internalType": "uint256",
          "name": "",
          "type": "uint256"
        }
      ],
      "stateMutability": "view",
      "type": "function"
    },
    {
      "inputs": [],
      "name": "depositor",
      "outputs": [
        {
          "internalType": "address",
          "name": "",
          "type": "address"
        }
      ],
      "stateMutability": "view",
      "type": "function"
    },
    {
      "inputs": [],
      "name": "ethUsdPrice",
      "outputs": [
        {
          "internalType": "int256",
          "name": "",
          "type": "int256"
        }
      ],
      "stateMutability": "view",
      "type": "function"
    },
    {
      "inputs": [],
      "name": "hashedMoneroAddress",
      "outputs": [
        {
          "internalType": "string",
          "name": "",
          "type": "string"
        }
      ],
      "stateMutability": "view",
      "type": "function"
    },
    {
      "inputs": [
        {
          "internalType": "address",
          "name": "_depositor",
          "type": "address"
        },
        {
          "internalType": "string",
          "name": "_hashedMoneroAddress",
          "type": "string"
        },
        {
          "internalType": "address",
          "name": "_master",
          "type": "address"
        },
        {
          "internalType": "address",
          "name": "_oracle",
          "type": "address"
        }
      ],
      "name": "initialize",
      "outputs": [],
      "stateMutability": "nonpayable",
      "type": "function"
    },
    {
      "inputs": [],
      "name": "master",
      "outputs": [
        {
          "internalType": "address",
          "name": "",
          "type": "address"
        }
      ],
      "stateMutability": "view",
      "type": "function"
    },
    {
      "inputs": [],
      "name": "oracle",
      "outputs": [
        {
          "internalType": "address",
          "name": "",
          "type": "address"
        }
      ],
      "stateMutability": "view",
      "type": "function"
    },
    {
      "stateMutability": "payable",
      "type": "receive"
    }
  ],
  "bytecode": "0x6080604052348015600f57600080fd5b5060016000819055506118b2806100276000396000f3fe6080604052600436106100955760003560e01c80639478ab8c116100595780639478ab8c146103b0578063a5854123146103db578063b8f88d6414610406578063c7c4ff461461042f578063ee97f7f31461045a576102fe565b8063085ff733146103035780633fb1c6a91461031a5780635c961e8d146103455780637dc0d1d01461035c578063937c19f614610387576102fe565b366102fe57600160009054906101000a900473ffffffffffffffffffffffffffffffffffffffff1673ffffffffffffffffffffffffffffffffffffffff163373ffffffffffffffffffffffffffffffffffffffff161461012a576040517f08c379a000000000000000000000000000000000000000000000000000000000815260040161012190610ddb565b60405180910390fd5b610132610485565b600860059054906101000a900460ff1615610182576040517f08c379a000000000000000000000000000000000000000000000000000000000815260040161017990610e47565b60405180910390fd5b600860019054906101000a900460ff16156101d2576040517f08c379a00000000000000000000000000000000000000000000000000000000081526004016101c990610eb3565b60405180910390fd5b6001600860016101000a81548160ff021916908315150217905550610dac60058190555060006005541361023b576040517f08c379a000000000000000000000000000000000000000000000000000000000815260040161023290610f1f565b60405180910390fd5b670de0b6b3a76400006005546102519190610f78565b60078190555042600681905550600260009054906101000a900473ffffffffffffffffffffffffffffffffffffffff1673ffffffffffffffffffffffffffffffffffffffff166365583f5f303460075460046040518563ffffffff1660e01b81526004016102c29493929190611103565b600060405180830381600087803b1580156102dc57600080fd5b505af11580156102f0573d6000803e3d6000fd5b505050506102fc6104cb565b005b600080fd5b34801561030f57600080fd5b506103186104d5565b005b34801561032657600080fd5b5061032f610708565b60405161033c91906111ce565b60405180910390f35b34801561035157600080fd5b5061035a610796565b005b34801561036857600080fd5b506103716109a3565b60405161037e91906111f0565b60405180910390f35b34801561039357600080fd5b506103ae60048036038101906103a99190611354565b6109c9565b005b3480156103bc57600080fd5b506103c5610be2565b6040516103d291906113b6565b60405180910390f35b3480156103e757600080fd5b506103f0610be8565b6040516103fd91906113d1565b60405180910390f35b34801561041257600080fd5b5061042d60048036038101906104289190611418565b610bee565b005b34801561043b57600080fd5b50610444610d32565b60405161045191906111f0565b60405180910390f35b34801561046657600080fd5b5061046f610d58565b60405161047c91906111f0565b60405180910390f35b6002600054036104c1576040517f3ee5aeb500000000000000000000000000000000000000000000000000000000815260040160405180910390fd5b6002600081905550565b6001600081905550565b600160009054906101000a900473ffffffffffffffffffffffffffffffffffffffff1673ffffffffffffffffffffffffffffffffffffffff163373ffffffffffffffffffffffffffffffffffffffff1614610565576040517f08c379a000000000000000000000000000000000000000000000000000000000815260040161055c90610ddb565b60405180910390fd5b61056d610485565b600860059054906101000a900460ff16156105bd576040517f08c379a00000000000000000000000000000000000000000000000000000000081526004016105b490610e47565b60405180910390fd5b600860049054906101000a900460ff161561060d576040517f08c379a000000000000000000000000000000000000000000000000000000000815260040161060490610eb3565b60405180910390fd5b610e1060065461061d919061149b565b42101561065f576040517f08c379a00000000000000000000000000000000000000000000000000000000081526004016106569061151b565b60405180910390fd5b6001600860046101000a81548160ff021916908315150217905550600160009054906101000a900473ffffffffffffffffffffffffffffffffffffffff1673ffffffffffffffffffffffffffffffffffffffff166108fc479081150290604051600060405180830381858888f193505050501580156106e2573d6000803e3d6000fd5b506001600860056101000a81548160ff0219169083151502179055506107066104cb565b565b6004805461071590611039565b80601f016020809104026020016040519081016040528092919081815260200182805461074190611039565b801561078e5780601f106107635761010080835404028352916020019161078e565b820191906000526020600020905b81548152906001019060200180831161077157829003601f168201915b505050505081565b600360009054906101000a900473ffffffffffffffffffffffffffffffffffffffff1673ffffffffffffffffffffffffffffffffffffffff163373ffffffffffffffffffffffffffffffffffffffff1614610826576040517f08c379a000000000000000000000000000000000000000000000000000000000815260040161081d90611587565b60405180910390fd5b61082e610485565b600860059054906101000a900460ff161561087e576040517f08c379a000000000000000000000000000000000000000000000000000000000815260040161087590610e47565b60405180910390fd5b600860039054906101000a900460ff16156108ce576040517f08c379a00000000000000000000000000000000000000000000000000000000081526004016108c590610eb3565b60405180910390fd5b6001600860036101000a81548160ff0219169083151502179055507fbfd71a145e2ba4dbe0080147a870f39d148c247cbf598a296653a0529599a94160405160405180910390a1600160009054906101000a900473ffffffffffffffffffffffffffffffffffffffff1673ffffffffffffffffffffffffffffffffffffffff166108fc479081150290604051600060405180830381858888f1935050505015801561097d573d6000803e3d6000fd5b506001600860056101000a81548160ff0219169083151502179055506109a16104cb565b565b600360009054906101000a900473ffffffffffffffffffffffffffffffffffffffff1681565b600360009054906101000a900473ffffffffffffffffffffffffffffffffffffffff1673ffffffffffffffffffffffffffffffffffffffff163373ffffffffffffffffffffffffffffffffffffffff1614610a59576040517f08c379a0000000000000000000000000000000000000000000000000000000008152600401610a5090611587565b60405180910390fd5b610a61610485565b600860059054906101000a900460ff1615610ab1576040517f08c379a0000000000000000000000000000000000000000000000000000000008152600401610aa890610e47565b60405180910390fd5b600860029054906101000a900460ff1615610b01576040517f08c379a0000000000000000000000000000000000000000000000000000000008152600401610af890610eb3565b60405180910390fd5b6001600860026101000a81548160ff0219169083151502179055507f3814895bf18c63a650a394cbc8cab2bfe1e33b7879d6faea12ab624dfcd7e4eb81604051610b4b91906111ce565b60405180910390a1600260009054906101000a900473ffffffffffffffffffffffffffffffffffffffff1673ffffffffffffffffffffffffffffffffffffffff166108fc479081150290604051600060405180830381858888f19350505050158015610bbb573d6000803e3d6000fd5b506001600860056101000a81548160ff021916908315150217905550610bdf6104cb565b50565b60055481565b60065481565b600860009054906101000a900460ff1615610c3e576040517f08c379a0000000000000000000000000000000000000000000000000000000008152600401610c35906115f3565b60405180910390fd5b6001600860006101000a81548160ff02191690831515021790555083600160006101000a81548173ffffffffffffffffffffffffffffffffffffffff021916908373ffffffffffffffffffffffffffffffffffffffff1602179055508260049081610ca991906117aa565b5081600260006101000a81548173ffffffffffffffffffffffffffffffffffffffff021916908373ffffffffffffffffffffffffffffffffffffffff16021790555080600360006101000a81548173ffffffffffffffffffffffffffffffffffffffff021916908373ffffffffffffffffffffffffffffffffffffffff16021790555050505050565b600160009054906101000a900473ffffffffffffffffffffffffffffffffffffffff1681565b600260009054906101000a900473ffffffffffffffffffffffffffffffffffffffff1681565b600082825260208201905092915050565b7f43616c6c6572206973206e6f7420746865206465706f7369746f720000000000600082015250565b6000610dc5601b83610d7e565b9150610dd082610d8f565b602082019050919050565b60006020820190508181036000830152610df481610db8565b9050919050565b7f436f6e74726163742069732064697361626c6564000000000000000000000000600082015250565b6000610e31601483610d7e565b9150610e3c82610dfb565b602082019050919050565b60006020820190508181036000830152610e6081610e24565b9050919050565b7f46756e6374696f6e2063616e206f6e6c792062652063616c6c6564206f6e6365600082015250565b6000610e9d602083610d7e565b9150610ea882610e67565b602082019050919050565b60006020820190508181036000830152610ecc81610e90565b9050919050565b7f496e76616c6964204554482f5553442070726963650000000000000000000000600082015250565b6000610f09601583610d7e565b9150610f1482610ed3565b602082019050919050565b60006020820190508181036000830152610f3881610efc565b9050919050565b6000819050919050565b7f4e487b7100000000000000000000000000000000000000000000000000000000600052601160045260246000fd5b6000610f8382610f3f565b9150610f8e83610f3f565b9250828202610f9c81610f3f565b91508282048414831517610fb357610fb2610f49565b5b5092915050565b600073ffffffffffffffffffffffffffffffffffffffff82169050919050565b6000610fe582610fba565b9050919050565b610ff581610fda565b82525050565b61100481610f3f565b82525050565b7f4e487b7100000000000000000000000000000000000000000000000000000000600052602260045260246000fd5b6000600282049050600182168061105157607f821691505b6020821081036110645761106361100a565b5b50919050565b60008190508160005260206000209050919050565b6000815461108c81611039565b6110968186610d7e565b945060018216600081146110b157600181146110c7576110fa565b60ff1983168652811515602002860193506110fa565b6110d08561106a565b60005b838110156110f2578154818901526001820191506020810190506110d3565b808801955050505b50505092915050565b60006080820190506111186000830187610fec565b6111256020830186610ffb565b6111326040830185610ffb565b8181036060830152611144818461107f565b905095945050505050565b600081519050919050565b60005b8381101561117857808201518184015260208101905061115d565b60008484015250505050565b6000601f19601f8301169050919050565b60006111a08261114f565b6111aa8185610d7e565b93506111ba81856020860161115a565b6111c381611184565b840191505092915050565b600060208201905081810360008301526111e88184611195565b905092915050565b60006020820190506112056000830184610fec565b92915050565b6000604051905090565b600080fd5b600080fd5b600080fd5b600080fd5b7f4e487b7100000000000000000000000000000000000000000000000000000000600052604160045260246000fd5b61126182611184565b810181811067ffffffffffffffff821117156112805761127f611229565b5b80604052505050565b600061129361120b565b905061129f8282611258565b919050565b600067ffffffffffffffff8211156112bf576112be611229565b5b6112c882611184565b9050602081019050919050565b82818337600083830152505050565b60006112f76112f2846112a4565b611289565b90508281526020810184848401111561131357611312611224565b5b61131e8482856112d5565b509392505050565b600082601f83011261133b5761133a61121f565b5b813561134b8482602086016112e4565b91505092915050565b60006020828403121561136a57611369611215565b5b600082013567ffffffffffffffff8111156113885761138761121a565b5b61139484828501611326565b91505092915050565b6000819050919050565b6113b08161139d565b82525050565b60006020820190506113cb60008301846113a7565b92915050565b60006020820190506113e66000830184610ffb565b92915050565b6113f581610fda565b811461140057600080fd5b50565b600081359050611412816113ec565b92915050565b6000806000806080858703121561143257611431611215565b5b600061144087828801611403565b945050602085013567ffffffffffffffff8111156114615761146061121a565b5b61146d87828801611326565b935050604061147e87828801611403565b925050606061148f87828801611403565b91505092959194509250565b60006114a682610f3f565b91506114b183610f3f565b92508282019050808211156114c9576114c8610f49565b5b92915050565b7f43616e6e6f74207265636c61696d207965740000000000000000000000000000600082015250565b6000611505601283610d7e565b9150611510826114cf565b602082019050919050565b60006020820190508181036000830152611534816114f8565b9050919050565b7f43616c6c6572206973206e6f7420746865206f7261636c650000000000000000600082015250565b6000611571601883610d7e565b915061157c8261153b565b602082019050919050565b600060208201905081810360008301526115a081611564565b9050919050565b7f416c726561647920696e697469616c697a656400000000000000000000000000600082015250565b60006115dd601383610d7e565b91506115e8826115a7565b602082019050919050565b6000602082019050818103600083015261160c816115d0565b9050919050565b60006020601f8301049050919050565b600082821b905092915050565b6000600883026116607fffffffffffffffffffffffffffffffffffffffffffffffffffffffffffffffff82611623565b61166a8683611623565b95508019841693508086168417925050509392505050565b6000819050919050565b60006116a76116a261169d84610f3f565b611682565b610f3f565b9050919050565b6000819050919050565b6116c18361168c565b6116d56116cd826116ae565b848454611630565b825550505050565b600090565b6116ea6116dd565b6116f58184846116b8565b505050565b5b818110156117195761170e6000826116e2565b6001810190506116fb565b5050565b601f82111561175e5761172f8161106a565b61173884611613565b81016020851015611747578190505b61175b61175385611613565b8301826116fa565b50505b505050565b600082821c905092915050565b600061178160001984600802611763565b1980831691505092915050565b600061179a8383611770565b9150826002028217905092915050565b6117b38261114f565b67ffffffffffffffff8111156117cc576117cb611229565b5b6117d68254611039565b6117e182828561171d565b600060209050601f8311600181146118145760008415611802578287015190505b61180c858261178e565b865550611874565b601f1984166118228661106a565b60005b8281101561184a57848901518255600182019150602085019450602081019050611825565b868310156118675784890151611863601f891682611770565b8355505b6001600288020188555050505b50505050505056fea26469706673582212201639255f1f339f8289640eb826c22b884c9e94ca5254217402db34c5b08ce3c264736f6c634300081b0033",
  "linkReferences": {},
  "deployedLinkReferences": {}
}