{
  "_format": "hh-sol-artifact-1",
  "contractName": "ETH_XMR",
  "sourceName": "contracts/Master.sol",
  "abi": [
    {
      "inputs": [],
      "name": "ReentrancyGuardReentrantCall",
      "type": "error"
    },
    {
      "anonymous": false,
      "inputs": [],
      "name": "ConfirmSwapFailure",
      "type": "event"
    },
    {
      "anonymous": false,
      "inputs": [
        {
          "indexed": false,
          "internalType": "string",
          "name": "TxID",
          "type": "string"
        }
      ],
      "name": "ConfirmSwapSuccess",
      "type": "event"
    },
    {
      "inputs": [],
      "name": "ReclaimDeposit",
      "outputs": [],
      "stateMutability": "nonpayable",
      "type": "function"
    },
    {
      "inputs": [],
      "name": "SwapFailure",
      "outputs": [],
      "stateMutability": "nonpayable",
      "type": "function"
    },
    {
      "inputs": [
        {
          "internalType": "string",
          "name": "TxID",
          "type": "string"
        }
      ],
      "name": "SwapSuccess",
      "outputs": [],
      "stateMutability": "nonpayable",
      "type": "function"
    },
    {
      "inputs": [],
      "name": "depositTimestamp",
      "outputs": [
        {
          "internalType": "uint256",
          "name": "",
          "type": "uint256"
        }
      ],
      "stateMutability": "view",
      "type": "function"
    },
    {
      "inputs": [],
      "name": "depositor",
      "outputs": [
        {
          "internalType": "address",
          "name": "",
          "type": "address"
        }
      ],
      "stateMutability": "view",
      "type": "function"
    },
    {
      "inputs": [],
      "name": "hashedMoneroAddress",
      "outputs": [
        {
          "internalType": "string",
          "name": "",
          "type": "string"
        }
      ],
      "stateMutability": "view",
      "type": "function"
    },
    {
      "inputs": [
        {
          "internalType": "address",
          "name": "_depositor",
          "type": "address"
        },
        {
          "internalType": "string",
          "name": "_hashedMoneroAddress",
          "type": "string"
        },
        {
          "internalType": "address",
          "name": "_master",
          "type": "address"
        },
        {
          "internalType": "address",
          "name": "_oracle",
          "type": "address"
        },
        {
          "internalType": "address",
          "name": "_ethUsdPriceFeed",
          "type": "address"
        }
      ],
      "name": "initialize",
      "outputs": [],
      "stateMutability": "nonpayable",
      "type": "function"
    },
    {
      "inputs": [],
      "name": "master",
      "outputs": [
        {
          "internalType": "address",
          "name": "",
          "type": "address"
        }
      ],
      "stateMutability": "view",
      "type": "function"
    },
    {
      "inputs": [],
      "name": "oracle",
      "outputs": [
        {
          "internalType": "address",
          "name": "",
          "type": "address"
        }
      ],
      "stateMutability": "view",
      "type": "function"
    },
    {
      "stateMutability": "payable",
      "type": "receive"
    }
  ],
  "bytecode": "0x6080604052348015600f57600080fd5b506001600081905550611a44806100276000396000f3fe60806040526004361061008a5760003560e01c8063937c19f611610059578063937c19f61461040957806397073ae614610432578063a58541231461045b578063c7c4ff4614610486578063ee97f7f3146104b157610380565b8063085ff733146103855780633fb1c6a91461039c5780635c961e8d146103c75780637dc0d1d0146103de57610380565b3661038057600160009054906101000a900473ffffffffffffffffffffffffffffffffffffffff1673ffffffffffffffffffffffffffffffffffffffff163373ffffffffffffffffffffffffffffffffffffffff161461011f576040517f08c379a000000000000000000000000000000000000000000000000000000000815260040161011690610e6e565b60405180910390fd5b6101276104dc565b600760059054906101000a900460ff1615610177576040517f08c379a000000000000000000000000000000000000000000000000000000000815260040161016e90610eda565b60405180910390fd5b600760019054906101000a900460ff16156101c7576040517f08c379a00000000000000000000000000000000000000000000000000000000081526004016101be90610f46565b60405180910390fd5b6001600760016101000a81548160ff0219169083151502179055506000600860009054906101000a900473ffffffffffffffffffffffffffffffffffffffff1673ffffffffffffffffffffffffffffffffffffffff1663feaf968c6040518163ffffffff1660e01b815260040160a060405180830381865afa158015610251573d6000803e3d6000fd5b505050506040513d601f19601f820116820180604052508101906102759190611028565b505050915050600081136102be576040517f08c379a00000000000000000000000000000000000000000000000000000000081526004016102b5906110ef565b60405180910390fd5b670de0b6b3a7640000816102d2919061113e565b60068190555042600581905550600260009054906101000a900473ffffffffffffffffffffffffffffffffffffffff1673ffffffffffffffffffffffffffffffffffffffff166365583f5f303460065460046040518563ffffffff1660e01b815260040161034394939291906112c9565b600060405180830381600087803b15801561035d57600080fd5b505af1158015610371573d6000803e3d6000fd5b505050505061037e610522565b005b600080fd5b34801561039157600080fd5b5061039a61052c565b005b3480156103a857600080fd5b506103b161075f565b6040516103be9190611394565b60405180910390f35b3480156103d357600080fd5b506103dc6107ed565b005b3480156103ea57600080fd5b506103f36109fa565b60405161040091906113b6565b60405180910390f35b34801561041557600080fd5b50610430600480360381019061042b9190611506565b610a20565b005b34801561043e57600080fd5b506104596004803603810190610454919061157b565b610c39565b005b34801561046757600080fd5b50610470610dbf565b60405161047d9190611612565b60405180910390f35b34801561049257600080fd5b5061049b610dc5565b6040516104a891906113b6565b60405180910390f35b3480156104bd57600080fd5b506104c6610deb565b6040516104d391906113b6565b60405180910390f35b600260005403610518576040517f3ee5aeb500000000000000000000000000000000000000000000000000000000815260040160405180910390fd5b6002600081905550565b6001600081905550565b600160009054906101000a900473ffffffffffffffffffffffffffffffffffffffff1673ffffffffffffffffffffffffffffffffffffffff163373ffffffffffffffffffffffffffffffffffffffff16146105bc576040517f08c379a00000000000000000000000000000000000000000000000000000000081526004016105b390610e6e565b60405180910390fd5b6105c46104dc565b600760059054906101000a900460ff1615610614576040517f08c379a000000000000000000000000000000000000000000000000000000000815260040161060b90610eda565b60405180910390fd5b600760049054906101000a900460ff1615610664576040517f08c379a000000000000000000000000000000000000000000000000000000000815260040161065b90610f46565b60405180910390fd5b610e10600554610674919061162d565b4210156106b6576040517f08c379a00000000000000000000000000000000000000000000000000000000081526004016106ad906116ad565b60405180910390fd5b6001600760046101000a81548160ff021916908315150217905550600160009054906101000a900473ffffffffffffffffffffffffffffffffffffffff1673ffffffffffffffffffffffffffffffffffffffff166108fc479081150290604051600060405180830381858888f19350505050158015610739573d6000803e3d6000fd5b506001600760056101000a81548160ff02191690831515021790555061075d610522565b565b6004805461076c906111ff565b80601f0160208091040260200160405190810160405280929190818152602001828054610798906111ff565b80156107e55780601f106107ba576101008083540402835291602001916107e5565b820191906000526020600020905b8154815290600101906020018083116107c857829003601f168201915b505050505081565b600360009054906101000a900473ffffffffffffffffffffffffffffffffffffffff1673ffffffffffffffffffffffffffffffffffffffff163373ffffffffffffffffffffffffffffffffffffffff161461087d576040517f08c379a000000000000000000000000000000000000000000000000000000000815260040161087490611719565b60405180910390fd5b6108856104dc565b600760059054906101000a900460ff16156108d5576040517f08c379a00000000000000000000000000000000000000000000000000000000081526004016108cc90610eda565b60405180910390fd5b600760039054906101000a900460ff1615610925576040517f08c379a000000000000000000000000000000000000000000000000000000000815260040161091c90610f46565b60405180910390fd5b6001600760036101000a81548160ff0219169083151502179055507fbfd71a145e2ba4dbe0080147a870f39d148c247cbf598a296653a0529599a94160405160405180910390a1600160009054906101000a900473ffffffffffffffffffffffffffffffffffffffff1673ffffffffffffffffffffffffffffffffffffffff166108fc479081150290604051600060405180830381858888f193505050501580156109d4573d6000803e3d6000fd5b506001600760056101000a81548160ff0219169083151502179055506109f8610522565b565b600360009054906101000a900473ffffffffffffffffffffffffffffffffffffffff1681565b600360009054906101000a900473ffffffffffffffffffffffffffffffffffffffff1673ffffffffffffffffffffffffffffffffffffffff163373ffffffffffffffffffffffffffffffffffffffff1614610ab0576040517f08c379a0000000000000000000000000000000000000000000000000000000008152600401610aa790611719565b60405180910390fd5b610ab86104dc565b600760059054906101000a900460ff1615610b08576040517f08c379a0000000000000000000000000000000000000000000000000000000008152600401610aff90610eda565b60405180910390fd5b600760029054906101000a900460ff1615610b58576040517f08c379a0000000000000000000000000000000000000000000000000000000008152600401610b4f90610f46565b60405180910390fd5b6001600760026101000a81548160ff0219169083151502179055507f3814895bf18c63a650a394cbc8cab2bfe1e33b7879d6faea12ab624dfcd7e4eb81604051610ba29190611394565b60405180910390a1600260009054906101000a900473ffffffffffffffffffffffffffffffffffffffff1673ffffffffffffffffffffffffffffffffffffffff166108fc479081150290604051600060405180830381858888f19350505050158015610c12573d6000803e3d6000fd5b506001600760056101000a81548160ff021916908315150217905550610c36610522565b50565b600760009054906101000a900460ff1615610c89576040517f08c379a0000000000000000000000000000000000000000000000000000000008152600401610c8090611785565b60405180910390fd5b6001600760006101000a81548160ff02191690831515021790555084600160006101000a81548173ffffffffffffffffffffffffffffffffffffffff021916908373ffffffffffffffffffffffffffffffffffffffff1602179055508360049081610cf4919061193c565b5082600260006101000a81548173ffffffffffffffffffffffffffffffffffffffff021916908373ffffffffffffffffffffffffffffffffffffffff16021790555081600360006101000a81548173ffffffffffffffffffffffffffffffffffffffff021916908373ffffffffffffffffffffffffffffffffffffffff16021790555080600860006101000a81548173ffffffffffffffffffffffffffffffffffffffff021916908373ffffffffffffffffffffffffffffffffffffffff1602179055505050505050565b60055481565b600160009054906101000a900473ffffffffffffffffffffffffffffffffffffffff1681565b600260009054906101000a900473ffffffffffffffffffffffffffffffffffffffff1681565b600082825260208201905092915050565b7f43616c6c6572206973206e6f7420746865206465706f7369746f720000000000600082015250565b6000610e58601b83610e11565b9150610e6382610e22565b602082019050919050565b60006020820190508181036000830152610e8781610e4b565b9050919050565b7f436f6e74726163742069732064697361626c6564000000000000000000000000600082015250565b6000610ec4601483610e11565b9150610ecf82610e8e565b602082019050919050565b60006020820190508181036000830152610ef381610eb7565b9050919050565b7f46756e6374696f6e2063616e206f6e6c792062652063616c6c6564206f6e6365600082015250565b6000610f30602083610e11565b9150610f3b82610efa565b602082019050919050565b60006020820190508181036000830152610f5f81610f23565b9050919050565b6000604051905090565b600080fd5b600080fd5b600069ffffffffffffffffffff82169050919050565b610f9981610f7a565b8114610fa457600080fd5b50565b600081519050610fb681610f90565b92915050565b6000819050919050565b610fcf81610fbc565b8114610fda57600080fd5b50565b600081519050610fec81610fc6565b92915050565b6000819050919050565b61100581610ff2565b811461101057600080fd5b50565b60008151905061102281610ffc565b92915050565b600080600080600060a0868803121561104457611043610f70565b5b600061105288828901610fa7565b955050602061106388828901610fdd565b945050604061107488828901611013565b935050606061108588828901611013565b925050608061109688828901610fa7565b9150509295509295909350565b7f496e76616c6964204554482f5553442070726963650000000000000000000000600082015250565b60006110d9601583610e11565b91506110e4826110a3565b602082019050919050565b60006020820190508181036000830152611108816110cc565b9050919050565b7f4e487b7100000000000000000000000000000000000000000000000000000000600052601160045260246000fd5b600061114982610ff2565b915061115483610ff2565b925082820261116281610ff2565b915082820484148315176111795761117861110f565b5b5092915050565b600073ffffffffffffffffffffffffffffffffffffffff82169050919050565b60006111ab82611180565b9050919050565b6111bb816111a0565b82525050565b6111ca81610ff2565b82525050565b7f4e487b7100000000000000000000000000000000000000000000000000000000600052602260045260246000fd5b6000600282049050600182168061121757607f821691505b60208210810361122a576112296111d0565b5b50919050565b60008190508160005260206000209050919050565b60008154611252816111ff565b61125c8186610e11565b94506001821660008114611277576001811461128d576112c0565b60ff1983168652811515602002860193506112c0565b61129685611230565b60005b838110156112b857815481890152600182019150602081019050611299565b808801955050505b50505092915050565b60006080820190506112de60008301876111b2565b6112eb60208301866111c1565b6112f860408301856111c1565b818103606083015261130a8184611245565b905095945050505050565b600081519050919050565b60005b8381101561133e578082015181840152602081019050611323565b60008484015250505050565b6000601f19601f8301169050919050565b600061136682611315565b6113708185610e11565b9350611380818560208601611320565b6113898161134a565b840191505092915050565b600060208201905081810360008301526113ae818461135b565b905092915050565b60006020820190506113cb60008301846111b2565b92915050565b600080fd5b600080fd5b7f4e487b7100000000000000000000000000000000000000000000000000000000600052604160045260246000fd5b6114138261134a565b810181811067ffffffffffffffff82111715611432576114316113db565b5b80604052505050565b6000611445610f66565b9050611451828261140a565b919050565b600067ffffffffffffffff821115611471576114706113db565b5b61147a8261134a565b9050602081019050919050565b82818337600083830152505050565b60006114a96114a484611456565b61143b565b9050828152602081018484840111156114c5576114c46113d6565b5b6114d0848285611487565b509392505050565b600082601f8301126114ed576114ec6113d1565b5b81356114fd848260208601611496565b91505092915050565b60006020828403121561151c5761151b610f70565b5b600082013567ffffffffffffffff81111561153a57611539610f75565b5b611546848285016114d8565b91505092915050565b611558816111a0565b811461156357600080fd5b50565b6000813590506115758161154f565b92915050565b600080600080600060a0868803121561159757611596610f70565b5b60006115a588828901611566565b955050602086013567ffffffffffffffff8111156115c6576115c5610f75565b5b6115d2888289016114d8565b94505060406115e388828901611566565b93505060606115f488828901611566565b925050608061160588828901611566565b9150509295509295909350565b600060208201905061162760008301846111c1565b92915050565b600061163882610ff2565b915061164383610ff2565b925082820190508082111561165b5761165a61110f565b5b92915050565b7f43616e6e6f74207265636c61696d207965740000000000000000000000000000600082015250565b6000611697601283610e11565b91506116a282611661565b602082019050919050565b600060208201905081810360008301526116c68161168a565b9050919050565b7f43616c6c6572206973206e6f7420746865206f7261636c650000000000000000600082015250565b6000611703601883610e11565b915061170e826116cd565b602082019050919050565b60006020820190508181036000830152611732816116f6565b9050919050565b7f416c726561647920696e697469616c697a656400000000000000000000000000600082015250565b600061176f601383610e11565b915061177a82611739565b602082019050919050565b6000602082019050818103600083015261179e81611762565b9050919050565b60006020601f8301049050919050565b600082821b905092915050565b6000600883026117f27fffffffffffffffffffffffffffffffffffffffffffffffffffffffffffffffff826117b5565b6117fc86836117b5565b95508019841693508086168417925050509392505050565b6000819050919050565b600061183961183461182f84610ff2565b611814565b610ff2565b9050919050565b6000819050919050565b6118538361181e565b61186761185f82611840565b8484546117c2565b825550505050565b600090565b61187c61186f565b61188781848461184a565b505050565b5b818110156118ab576118a0600082611874565b60018101905061188d565b5050565b601f8211156118f0576118c181611230565b6118ca846117a5565b810160208510156118d9578190505b6118ed6118e5856117a5565b83018261188c565b50505b505050565b600082821c905092915050565b6000611913600019846008026118f5565b1980831691505092915050565b600061192c8383611902565b9150826002028217905092915050565b61194582611315565b67ffffffffffffffff81111561195e5761195d6113db565b5b61196882546111ff565b6119738282856118af565b600060209050601f8311600181146119a65760008415611994578287015190505b61199e8582611920565b865550611a06565b601f1984166119b486611230565b60005b828110156119dc578489015182556001820191506020850194506020810190506119b7565b868310156119f957848901516119f5601f891682611902565b8355505b6001600288020188555050505b50505050505056fea2646970667358221220e6cb57b779dfccfd4fb0f2f72e04b6c268661217c2798cd92a13ce1ab590e2f664736f6c634300081b0033",
  "linkReferences": {},
  "deployedLinkReferences": {}
}