{
  "_format": "hh-sol-artifact-1",
  "contractName": "MASTER",
  "sourceName": "contracts/Master.sol",
  "abi": [
    {
      "inputs": [
        {
          "internalType": "address",
          "name": "_implementation1",
          "type": "address"
        },
        {
          "internalType": "address",
          "name": "_implementation2",
          "type": "address"
        },
        {
          "internalType": "address",
          "name": "_ethUsdPriceFeed",
          "type": "address"
        }
      ],
      "stateMutability": "nonpayable",
      "type": "constructor"
    },
    {
      "inputs": [],
      "name": "FailedDeployment",
      "type": "error"
    },
    {
      "inputs": [
        {
          "internalType": "uint256",
          "name": "balance",
          "type": "uint256"
        },
        {
          "internalType": "uint256",
          "name": "needed",
          "type": "uint256"
        }
      ],
      "name": "InsufficientBalance",
      "type": "error"
    },
    {
      "anonymous": false,
      "inputs": [
        {
          "indexed": false,
          "internalType": "address",
          "name": "depositAddress",
          "type": "address"
        },
        {
          "indexed": false,
          "internalType": "uint256",
          "name": "amount",
          "type": "uint256"
        },
        {
          "indexed": false,
          "internalType": "uint256",
          "name": "ethToXmrRate",
          "type": "uint256"
        },
        {
          "indexed": false,
          "internalType": "string",
          "name": "encryptedMoneroAddress",
          "type": "string"
        }
      ],
      "name": "EthReceivedEvent",
      "type": "event"
    },
    {
      "anonymous": false,
      "inputs": [
        {
          "indexed": true,
          "internalType": "address",
          "name": "caller",
          "type": "address"
        },
        {
          "indexed": true,
          "internalType": "address",
          "name": "depositAddress",
          "type": "address"
        },
        {
          "indexed": false,
          "internalType": "string",
          "name": "encryptedMoneroAddress",
          "type": "string"
        },
        {
          "indexed": false,
          "internalType": "uint256",
          "name": "ethToXmrRate",
          "type": "uint256"
        }
      ],
      "name": "EthXmrContractCreation",
      "type": "event"
    },
    {
      "anonymous": false,
      "inputs": [
        {
          "indexed": false,
          "internalType": "address",
          "name": "subcontractAddress",
          "type": "address"
        },
        {
          "indexed": false,
          "internalType": "address",
          "name": "ethereumAddress",
          "type": "address"
        }
      ],
      "name": "XmrEthContractCreation",
      "type": "event"
    },
    {
      "inputs": [
        {
          "internalType": "string",
          "name": "hashedMoneroAddress",
          "type": "string"
        }
      ],
      "name": "CreateEthXmrContract",
      "outputs": [
        {
          "internalType": "address",
          "name": "",
          "type": "address"
        },
        {
          "internalType": "address",
          "name": "",
          "type": "address"
        },
        {
          "internalType": "uint256",
          "name": "",
          "type": "uint256"
        }
      ],
      "stateMutability": "nonpayable",
      "type": "function"
    },
    {
      "inputs": [
        {
          "internalType": "address",
          "name": "EthereumAddress",
          "type": "address"
        }
      ],
      "name": "CreateXmrEthContract",
      "outputs": [],
      "stateMutability": "nonpayable",
      "type": "function"
    },
    {
      "inputs": [
        {
          "internalType": "address",
          "name": "depositAddress",
          "type": "address"
        },
        {
          "internalType": "uint256",
          "name": "amount",
          "type": "uint256"
        },
        {
          "internalType": "uint256",
          "name": "ethToXmrRate",
          "type": "uint256"
        },
        {
          "internalType": "string",
          "name": "encryptedMoneroAddress",
          "type": "string"
        }
      ],
      "name": "EthReceived",
      "outputs": [],
      "stateMutability": "nonpayable",
      "type": "function"
    },
    {
      "inputs": [
        {
          "internalType": "uint256",
          "name": "amount",
          "type": "uint256"
        },
        {
          "internalType": "address",
          "name": "withdrawalAddress",
          "type": "address"
        }
      ],
      "name": "MoneroReceived",
      "outputs": [],
      "stateMutability": "nonpayable",
      "type": "function"
    },
    {
      "inputs": [],
      "name": "implementation1",
      "outputs": [
        {
          "internalType": "address",
          "name": "",
          "type": "address"
        }
      ],
      "stateMutability": "view",
      "type": "function"
    },
    {
      "inputs": [],
      "name": "implementation2",
      "outputs": [
        {
          "internalType": "address",
          "name": "",
          "type": "address"
        }
      ],
      "stateMutability": "view",
      "type": "function"
    },
    {
      "inputs": [],
      "name": "oracle",
      "outputs": [
        {
          "internalType": "address",
          "name": "",
          "type": "address"
        }
      ],
      "stateMutability": "view",
      "type": "function"
    }
  ],
  "bytecode": "0x608060405234801561001057600080fd5b50604051611736380380611736833981810160405281019061003291906101a0565b826000806101000a81548173ffffffffffffffffffffffffffffffffffffffff021916908373ffffffffffffffffffffffffffffffffffffffff16021790555081600160006101000a81548173ffffffffffffffffffffffffffffffffffffffff021916908373ffffffffffffffffffffffffffffffffffffffff16021790555033600260006101000a81548173ffffffffffffffffffffffffffffffffffffffff021916908373ffffffffffffffffffffffffffffffffffffffff16021790555080600360006101000a81548173ffffffffffffffffffffffffffffffffffffffff021916908373ffffffffffffffffffffffffffffffffffffffff1602179055505050506101f3565b600080fd5b600073ffffffffffffffffffffffffffffffffffffffff82169050919050565b600061016d82610142565b9050919050565b61017d81610162565b811461018857600080fd5b50565b60008151905061019a81610174565b92915050565b6000806000606084860312156101b9576101b861013d565b5b60006101c78682870161018b565b93505060206101d88682870161018b565b92505060406101e98682870161018b565b9150509250925092565b611534806102026000396000f3fe608060405234801561001057600080fd5b506004361061007d5760003560e01c8063d16b304a1161005b578063d16b304a146100da578063d2007f101461010c578063f948e51a14610128578063fad494cb146101465761007d565b806365583f5f146100825780637dc0d1d01461009e578063b8d9093e146100bc575b600080fd5b61009c60048036038101906100979190610bcd565b610162565b005b6100a66101a5565b6040516100b39190610c5f565b60405180910390f35b6100c46101cb565b6040516100d19190610c5f565b60405180910390f35b6100f460048036038101906100ef9190610c7a565b6101ef565b60405161010393929190610cd2565b60405180910390f35b61012660048036038101906101219190610d09565b610492565b005b610130610648565b60405161013d9190610c5f565b60405180910390f35b610160600480360381019061015b9190610d49565b61066e565b005b7f2c46a3a48eedc5a95df95a1833cb2e40a5da3fbab4de4e79c4019faa0ab5f4dd848484846040516101979493929190610df5565b60405180910390a150505050565b600260009054906101000a900473ffffffffffffffffffffffffffffffffffffffff1681565b60008054906101000a900473ffffffffffffffffffffffffffffffffffffffff1681565b600080600080600360009054906101000a900473ffffffffffffffffffffffffffffffffffffffff1673ffffffffffffffffffffffffffffffffffffffff1663feaf968c6040518163ffffffff1660e01b815260040160a060405180830381865afa158015610262573d6000803e3d6000fd5b505050506040513d601f19601f820116820180604052508101906102869190610ece565b505050915050600081136102cf576040517f08c379a00000000000000000000000000000000000000000000000000000000081526004016102c690610f95565b60405180910390fd5b6000670de0b6b3a7640000826102e59190610fe4565b9050600061031260008054906101000a900473ffffffffffffffffffffffffffffffffffffffff166107e9565b905086600460008373ffffffffffffffffffffffffffffffffffffffff1673ffffffffffffffffffffffffffffffffffffffff16815260200190815260200160002090816103609190611232565b508073ffffffffffffffffffffffffffffffffffffffff166397073ae6338930600260009054906101000a900473ffffffffffffffffffffffffffffffffffffffff16600360009054906101000a900473ffffffffffffffffffffffffffffffffffffffff166040518663ffffffff1660e01b81526004016103e6959493929190611304565b600060405180830381600087803b15801561040057600080fd5b505af1158015610414573d6000803e3d6000fd5b505050508073ffffffffffffffffffffffffffffffffffffffff163373ffffffffffffffffffffffffffffffffffffffff167f690bc2b8d7c48b1d08015f3009d2d3c47ca96b7d66a4f9b79f86178738c4dbef898560405161047792919061135e565b60405180910390a33381839550955095505050509193909250565b600073ffffffffffffffffffffffffffffffffffffffff16600560003373ffffffffffffffffffffffffffffffffffffffff1673ffffffffffffffffffffffffffffffffffffffff16815260200190815260200160002060009054906101000a900473ffffffffffffffffffffffffffffffffffffffff1673ffffffffffffffffffffffffffffffffffffffff1603610560576040517f08c379a0000000000000000000000000000000000000000000000000000000008152600401610557906113da565b60405180910390fd5b60006103e86103d9846105716107fd565b61057b9190610fe4565b6105859190610fe4565b61058f9190611429565b90508173ffffffffffffffffffffffffffffffffffffffff166108fc829081150290604051600060405180830381858888f193505050501580156105d7573d6000803e3d6000fd5b503373ffffffffffffffffffffffffffffffffffffffff1663ab9a8152826040518263ffffffff1660e01b8152600401610611919061145a565b600060405180830381600087803b15801561062b57600080fd5b505af115801561063f573d6000803e3d6000fd5b50505050505050565b600160009054906101000a900473ffffffffffffffffffffffffffffffffffffffff1681565b600061069b600160009054906101000a900473ffffffffffffffffffffffffffffffffffffffff166107e9565b905081600560008373ffffffffffffffffffffffffffffffffffffffff1673ffffffffffffffffffffffffffffffffffffffff16815260200190815260200160002060006101000a81548173ffffffffffffffffffffffffffffffffffffffff021916908373ffffffffffffffffffffffffffffffffffffffff1602179055508073ffffffffffffffffffffffffffffffffffffffff1663c0c53b8b8330600260009054906101000a900473ffffffffffffffffffffffffffffffffffffffff166040518463ffffffff1660e01b815260040161077a93929190611475565b600060405180830381600087803b15801561079457600080fd5b505af11580156107a8573d6000803e3d6000fd5b505050507fe79f779f4abbe35b362e83f3db412565bcb485e9c3acd4794e355034e8067b1081836040516107dd9291906114ac565b60405180910390a15050565b60006107f68260006108e7565b9050919050565b600080600360009054906101000a900473ffffffffffffffffffffffffffffffffffffffff1673ffffffffffffffffffffffffffffffffffffffff1663feaf968c6040518163ffffffff1660e01b815260040160a060405180830381865afa15801561086d573d6000803e3d6000fd5b505050506040513d601f19601f820116820180604052508101906108919190610ece565b505050915050600081136108da576040517f08c379a00000000000000000000000000000000000000000000000000000000081526004016108d190610f95565b60405180910390fd5b6000819050809250505090565b6000814710156109305747826040517fcf4791810000000000000000000000000000000000000000000000000000000081526004016109279291906114d5565b60405180910390fd5b763d602d80600a3d3981f3363d3d373d3d3d363d730000008360601b60e81c176000526e5af43d82803e903d91602b57fd5bf38360781b176020526037600983f09050600073ffffffffffffffffffffffffffffffffffffffff168173ffffffffffffffffffffffffffffffffffffffff16036109d9576040517fb06ebf3d00000000000000000000000000000000000000000000000000000000815260040160405180910390fd5b92915050565b6000604051905090565b600080fd5b600080fd5b600073ffffffffffffffffffffffffffffffffffffffff82169050919050565b6000610a1e826109f3565b9050919050565b610a2e81610a13565b8114610a3957600080fd5b50565b600081359050610a4b81610a25565b92915050565b6000819050919050565b610a6481610a51565b8114610a6f57600080fd5b50565b600081359050610a8181610a5b565b92915050565b600080fd5b600080fd5b6000601f19601f8301169050919050565b7f4e487b7100000000000000000000000000000000000000000000000000000000600052604160045260246000fd5b610ada82610a91565b810181811067ffffffffffffffff82111715610af957610af8610aa2565b5b80604052505050565b6000610b0c6109df565b9050610b188282610ad1565b919050565b600067ffffffffffffffff821115610b3857610b37610aa2565b5b610b4182610a91565b9050602081019050919050565b82818337600083830152505050565b6000610b70610b6b84610b1d565b610b02565b905082815260208101848484011115610b8c57610b8b610a8c565b5b610b97848285610b4e565b509392505050565b600082601f830112610bb457610bb3610a87565b5b8135610bc4848260208601610b5d565b91505092915050565b60008060008060808587031215610be757610be66109e9565b5b6000610bf587828801610a3c565b9450506020610c0687828801610a72565b9350506040610c1787828801610a72565b925050606085013567ffffffffffffffff811115610c3857610c376109ee565b5b610c4487828801610b9f565b91505092959194509250565b610c5981610a13565b82525050565b6000602082019050610c746000830184610c50565b92915050565b600060208284031215610c9057610c8f6109e9565b5b600082013567ffffffffffffffff811115610cae57610cad6109ee565b5b610cba84828501610b9f565b91505092915050565b610ccc81610a51565b82525050565b6000606082019050610ce76000830186610c50565b610cf46020830185610c50565b610d016040830184610cc3565b949350505050565b60008060408385031215610d2057610d1f6109e9565b5b6000610d2e85828601610a72565b9250506020610d3f85828601610a3c565b9150509250929050565b600060208284031215610d5f57610d5e6109e9565b5b6000610d6d84828501610a3c565b91505092915050565b600081519050919050565b600082825260208201905092915050565b60005b83811015610db0578082015181840152602081019050610d95565b60008484015250505050565b6000610dc782610d76565b610dd18185610d81565b9350610de1818560208601610d92565b610dea81610a91565b840191505092915050565b6000608082019050610e0a6000830187610c50565b610e176020830186610cc3565b610e246040830185610cc3565b8181036060830152610e368184610dbc565b905095945050505050565b600069ffffffffffffffffffff82169050919050565b610e6081610e41565b8114610e6b57600080fd5b50565b600081519050610e7d81610e57565b92915050565b6000819050919050565b610e9681610e83565b8114610ea157600080fd5b50565b600081519050610eb381610e8d565b92915050565b600081519050610ec881610a5b565b92915050565b600080600080600060a08688031215610eea57610ee96109e9565b5b6000610ef888828901610e6e565b9550506020610f0988828901610ea4565b9450506040610f1a88828901610eb9565b9350506060610f2b88828901610eb9565b9250506080610f3c88828901610e6e565b9150509295509295909350565b7f496e76616c6964204554482f5553442070726963650000000000000000000000600082015250565b6000610f7f601583610d81565b9150610f8a82610f49565b602082019050919050565b60006020820190508181036000830152610fae81610f72565b9050919050565b7f4e487b7100000000000000000000000000000000000000000000000000000000600052601160045260246000fd5b6000610fef82610a51565b9150610ffa83610a51565b925082820261100881610a51565b9150828204841483151761101f5761101e610fb5565b5b5092915050565b7f4e487b7100000000000000000000000000000000000000000000000000000000600052602260045260246000fd5b6000600282049050600182168061106d57607f821691505b6020821081036110805761107f611026565b5b50919050565b60008190508160005260206000209050919050565b60006020601f8301049050919050565b600082821b905092915050565b6000600883026110e87fffffffffffffffffffffffffffffffffffffffffffffffffffffffffffffffff826110ab565b6110f286836110ab565b95508019841693508086168417925050509392505050565b6000819050919050565b600061112f61112a61112584610a51565b61110a565b610a51565b9050919050565b6000819050919050565b61114983611114565b61115d61115582611136565b8484546110b8565b825550505050565b600090565b611172611165565b61117d818484611140565b505050565b5b818110156111a15761119660008261116a565b600181019050611183565b5050565b601f8211156111e6576111b781611086565b6111c08461109b565b810160208510156111cf578190505b6111e36111db8561109b565b830182611182565b50505b505050565b600082821c905092915050565b6000611209600019846008026111eb565b1980831691505092915050565b600061122283836111f8565b9150826002028217905092915050565b61123b82610d76565b67ffffffffffffffff81111561125457611253610aa2565b5b61125e8254611055565b6112698282856111a5565b600060209050601f83116001811461129c576000841561128a578287015190505b6112948582611216565b8655506112fc565b601f1984166112aa86611086565b60005b828110156112d2578489015182556001820191506020850194506020810190506112ad565b868310156112ef57848901516112eb601f8916826111f8565b8355505b6001600288020188555050505b505050505050565b600060a0820190506113196000830188610c50565b818103602083015261132b8187610dbc565b905061133a6040830186610c50565b6113476060830185610c50565b6113546080830184610c50565b9695505050505050565b600060408201905081810360008301526113788185610dbc565b90506113876020830184610cc3565b9392505050565b7f4e6f7420612076616c696420636f6e7472616374000000000000000000000000600082015250565b60006113c4601483610d81565b91506113cf8261138e565b602082019050919050565b600060208201905081810360008301526113f3816113b7565b9050919050565b7f4e487b7100000000000000000000000000000000000000000000000000000000600052601260045260246000fd5b600061143482610a51565b915061143f83610a51565b92508261144f5761144e6113fa565b5b828204905092915050565b600060208201905061146f6000830184610cc3565b92915050565b600060608201905061148a6000830186610c50565b6114976020830185610c50565b6114a46040830184610c50565b949350505050565b60006040820190506114c16000830185610c50565b6114ce6020830184610c50565b9392505050565b60006040820190506114ea6000830185610cc3565b6114f76020830184610cc3565b939250505056fea26469706673582212203ebd00942f3f477b9ee2ff43deac17fae1c57c23f2a9e0202eff29fba308070564736f6c634300081b0033",
  "linkReferences": {},
  "deployedLinkReferences": {}
}