{
  "_format": "hh-sol-artifact-1",
  "contractName": "MASTER",
  "sourceName": "contracts/Master.sol",
  "abi": [
    {
      "inputs": [
        {
          "internalType": "address",
          "name": "_implementation1",
          "type": "address"
        },
        {
          "internalType": "address",
          "name": "_implementation2",
          "type": "address"
        }
      ],
      "stateMutability": "nonpayable",
      "type": "constructor"
    },
    {
      "inputs": [],
      "name": "FailedDeployment",
      "type": "error"
    },
    {
      "inputs": [
        {
          "internalType": "uint256",
          "name": "balance",
          "type": "uint256"
        },
        {
          "internalType": "uint256",
          "name": "needed",
          "type": "uint256"
        }
      ],
      "name": "InsufficientBalance",
      "type": "error"
    },
    {
      "anonymous": false,
      "inputs": [
        {
          "indexed": false,
          "internalType": "address",
          "name": "depositAddress",
          "type": "address"
        },
        {
          "indexed": false,
          "internalType": "uint256",
          "name": "amount",
          "type": "uint256"
        },
        {
          "indexed": false,
          "internalType": "uint256",
          "name": "ethToXmrRate",
          "type": "uint256"
        },
        {
          "indexed": false,
          "internalType": "string",
          "name": "encryptedMoneroAddress",
          "type": "string"
        }
      ],
      "name": "EthReceivedEvent",
      "type": "event"
    },
    {
      "anonymous": false,
      "inputs": [
        {
          "indexed": true,
          "internalType": "address",
          "name": "caller",
          "type": "address"
        },
        {
          "indexed": true,
          "internalType": "address",
          "name": "depositAddress",
          "type": "address"
        },
        {
          "indexed": false,
          "internalType": "string",
          "name": "encryptedMoneroAddress",
          "type": "string"
        },
        {
          "indexed": false,
          "internalType": "uint256",
          "name": "ethToXmrRate",
          "type": "uint256"
        }
      ],
      "name": "EthXmrContractCreation",
      "type": "event"
    },
    {
      "anonymous": false,
      "inputs": [
        {
          "indexed": false,
          "internalType": "address",
          "name": "subcontractAddress",
          "type": "address"
        },
        {
          "indexed": false,
          "internalType": "address",
          "name": "ethereumAddress",
          "type": "address"
        }
      ],
      "name": "XmrEthContractCreation",
      "type": "event"
    },
    {
      "inputs": [
        {
          "internalType": "string",
          "name": "hashedMoneroAddress",
          "type": "string"
        }
      ],
      "name": "CreateEthXmrContract",
      "outputs": [
        {
          "internalType": "address",
          "name": "",
          "type": "address"
        },
        {
          "internalType": "address",
          "name": "",
          "type": "address"
        },
        {
          "internalType": "uint256",
          "name": "",
          "type": "uint256"
        }
      ],
      "stateMutability": "nonpayable",
      "type": "function"
    },
    {
      "inputs": [
        {
          "internalType": "address",
          "name": "EthereumAddress",
          "type": "address"
        }
      ],
      "name": "CreateXmrEthContract",
      "outputs": [],
      "stateMutability": "nonpayable",
      "type": "function"
    },
    {
      "inputs": [
        {
          "internalType": "address",
          "name": "depositAddress",
          "type": "address"
        },
        {
          "internalType": "uint256",
          "name": "amount",
          "type": "uint256"
        },
        {
          "internalType": "uint256",
          "name": "ethToXmrRate",
          "type": "uint256"
        },
        {
          "internalType": "string",
          "name": "encryptedMoneroAddress",
          "type": "string"
        }
      ],
      "name": "EthReceived",
      "outputs": [],
      "stateMutability": "nonpayable",
      "type": "function"
    },
    {
      "inputs": [
        {
          "internalType": "uint256",
          "name": "amount",
          "type": "uint256"
        },
        {
          "internalType": "address",
          "name": "withdrawalAddress",
          "type": "address"
        }
      ],
      "name": "MoneroReceived",
      "outputs": [],
      "stateMutability": "nonpayable",
      "type": "function"
    },
    {
      "inputs": [],
      "name": "ethUsdPrice",
      "outputs": [
        {
          "internalType": "uint256",
          "name": "",
          "type": "uint256"
        }
      ],
      "stateMutability": "view",
      "type": "function"
    },
    {
      "inputs": [],
      "name": "implementation1",
      "outputs": [
        {
          "internalType": "address",
          "name": "",
          "type": "address"
        }
      ],
      "stateMutability": "view",
      "type": "function"
    },
    {
      "inputs": [],
      "name": "implementation2",
      "outputs": [
        {
          "internalType": "address",
          "name": "",
          "type": "address"
        }
      ],
      "stateMutability": "view",
      "type": "function"
    },
    {
      "inputs": [],
      "name": "oracle",
      "outputs": [
        {
          "internalType": "address",
          "name": "",
          "type": "address"
        }
      ],
      "stateMutability": "view",
      "type": "function"
    }
  ],
  "bytecode": "0x608060405234801561001057600080fd5b5060405161149c38038061149c83398181016040528101906100329190610167565b816000806101000a81548173ffffffffffffffffffffffffffffffffffffffff021916908373ffffffffffffffffffffffffffffffffffffffff16021790555080600160006101000a81548173ffffffffffffffffffffffffffffffffffffffff021916908373ffffffffffffffffffffffffffffffffffffffff16021790555033600260006101000a81548173ffffffffffffffffffffffffffffffffffffffff021916908373ffffffffffffffffffffffffffffffffffffffff160217905550610dac60038190555050506101a7565b600080fd5b600073ffffffffffffffffffffffffffffffffffffffff82169050919050565b600061013482610109565b9050919050565b61014481610129565b811461014f57600080fd5b50565b6000815190506101618161013b565b92915050565b6000806040838503121561017e5761017d610104565b5b600061018c85828601610152565b925050602061019d85828601610152565b9150509250929050565b6112e6806101b66000396000f3fe608060405234801561001057600080fd5b50600436106100885760003560e01c8063d16b304a1161005b578063d16b304a14610103578063d2007f1014610135578063f948e51a14610151578063fad494cb1461016f57610088565b806365583f5f1461008d5780637dc0d1d0146100a95780639478ab8c146100c7578063b8d9093e146100e5575b600080fd5b6100a760048036038101906100a29190610a95565b61018b565b005b6100b16101ce565b6040516100be9190610b27565b60405180910390f35b6100cf6101f4565b6040516100dc9190610b51565b60405180910390f35b6100ed6101fa565b6040516100fa9190610b27565b60405180910390f35b61011d60048036038101906101189190610b6c565b61021e565b60405161012c93929190610bb5565b60405180910390f35b61014f600480360381019061014a9190610bec565b6103f0565b005b6101596105a6565b6040516101669190610b27565b60405180910390f35b61018960048036038101906101849190610c2c565b6105cc565b005b7f2c46a3a48eedc5a95df95a1833cb2e40a5da3fbab4de4e79c4019faa0ab5f4dd848484846040516101c09493929190610cd8565b60405180910390a150505050565b600260009054906101000a900473ffffffffffffffffffffffffffffffffffffffff1681565b60035481565b60008054906101000a900473ffffffffffffffffffffffffffffffffffffffff1681565b60008060008060035411610267576040517f08c379a000000000000000000000000000000000000000000000000000000000815260040161025e90610d70565b60405180910390fd5b600061029260008054906101000a900473ffffffffffffffffffffffffffffffffffffffff16610747565b905084600460008373ffffffffffffffffffffffffffffffffffffffff1673ffffffffffffffffffffffffffffffffffffffff16815260200190815260200160002090816102e09190610f9c565b508073ffffffffffffffffffffffffffffffffffffffff1663b8f88d64338730600260009054906101000a900473ffffffffffffffffffffffffffffffffffffffff166040518563ffffffff1660e01b8152600401610342949392919061106e565b600060405180830381600087803b15801561035c57600080fd5b505af1158015610370573d6000803e3d6000fd5b505050508073ffffffffffffffffffffffffffffffffffffffff163373ffffffffffffffffffffffffffffffffffffffff167f690bc2b8d7c48b1d08015f3009d2d3c47ca96b7d66a4f9b79f86178738c4dbef876003546040516103d59291906110ba565b60405180910390a33381600354935093509350509193909250565b600073ffffffffffffffffffffffffffffffffffffffff16600560003373ffffffffffffffffffffffffffffffffffffffff1673ffffffffffffffffffffffffffffffffffffffff16815260200190815260200160002060009054906101000a900473ffffffffffffffffffffffffffffffffffffffff1673ffffffffffffffffffffffffffffffffffffffff16036104be576040517f08c379a00000000000000000000000000000000000000000000000000000000081526004016104b590611136565b60405180910390fd5b60006103e86103d9846104cf61075b565b6104d99190611185565b6104e39190611185565b6104ed91906111f6565b90508173ffffffffffffffffffffffffffffffffffffffff166108fc829081150290604051600060405180830381858888f19350505050158015610535573d6000803e3d6000fd5b503373ffffffffffffffffffffffffffffffffffffffff1663ab9a8152826040518263ffffffff1660e01b815260040161056f9190610b51565b600060405180830381600087803b15801561058957600080fd5b505af115801561059d573d6000803e3d6000fd5b50505050505050565b600160009054906101000a900473ffffffffffffffffffffffffffffffffffffffff1681565b60006105f9600160009054906101000a900473ffffffffffffffffffffffffffffffffffffffff16610747565b905081600560008373ffffffffffffffffffffffffffffffffffffffff1673ffffffffffffffffffffffffffffffffffffffff16815260200190815260200160002060006101000a81548173ffffffffffffffffffffffffffffffffffffffff021916908373ffffffffffffffffffffffffffffffffffffffff1602179055508073ffffffffffffffffffffffffffffffffffffffff1663c0c53b8b8330600260009054906101000a900473ffffffffffffffffffffffffffffffffffffffff166040518463ffffffff1660e01b81526004016106d893929190611227565b600060405180830381600087803b1580156106f257600080fd5b505af1158015610706573d6000803e3d6000fd5b505050507fe79f779f4abbe35b362e83f3db412565bcb485e9c3acd4794e355034e8067b10818360405161073b92919061125e565b60405180910390a15050565b60006107548260006107af565b9050919050565b600080600354116107a1576040517f08c379a000000000000000000000000000000000000000000000000000000000815260040161079890610d70565b60405180910390fd5b600060035490508091505090565b6000814710156107f85747826040517fcf4791810000000000000000000000000000000000000000000000000000000081526004016107ef929190611287565b60405180910390fd5b763d602d80600a3d3981f3363d3d373d3d3d363d730000008360601b60e81c176000526e5af43d82803e903d91602b57fd5bf38360781b176020526037600983f09050600073ffffffffffffffffffffffffffffffffffffffff168173ffffffffffffffffffffffffffffffffffffffff16036108a1576040517fb06ebf3d00000000000000000000000000000000000000000000000000000000815260040160405180910390fd5b92915050565b6000604051905090565b600080fd5b600080fd5b600073ffffffffffffffffffffffffffffffffffffffff82169050919050565b60006108e6826108bb565b9050919050565b6108f6816108db565b811461090157600080fd5b50565b600081359050610913816108ed565b92915050565b6000819050919050565b61092c81610919565b811461093757600080fd5b50565b60008135905061094981610923565b92915050565b600080fd5b600080fd5b6000601f19601f8301169050919050565b7f4e487b7100000000000000000000000000000000000000000000000000000000600052604160045260246000fd5b6109a282610959565b810181811067ffffffffffffffff821117156109c1576109c061096a565b5b80604052505050565b60006109d46108a7565b90506109e08282610999565b919050565b600067ffffffffffffffff821115610a00576109ff61096a565b5b610a0982610959565b9050602081019050919050565b82818337600083830152505050565b6000610a38610a33846109e5565b6109ca565b905082815260208101848484011115610a5457610a53610954565b5b610a5f848285610a16565b509392505050565b600082601f830112610a7c57610a7b61094f565b5b8135610a8c848260208601610a25565b91505092915050565b60008060008060808587031215610aaf57610aae6108b1565b5b6000610abd87828801610904565b9450506020610ace8782880161093a565b9350506040610adf8782880161093a565b925050606085013567ffffffffffffffff811115610b0057610aff6108b6565b5b610b0c87828801610a67565b91505092959194509250565b610b21816108db565b82525050565b6000602082019050610b3c6000830184610b18565b92915050565b610b4b81610919565b82525050565b6000602082019050610b666000830184610b42565b92915050565b600060208284031215610b8257610b816108b1565b5b600082013567ffffffffffffffff811115610ba057610b9f6108b6565b5b610bac84828501610a67565b91505092915050565b6000606082019050610bca6000830186610b18565b610bd76020830185610b18565b610be46040830184610b42565b949350505050565b60008060408385031215610c0357610c026108b1565b5b6000610c118582860161093a565b9250506020610c2285828601610904565b9150509250929050565b600060208284031215610c4257610c416108b1565b5b6000610c5084828501610904565b91505092915050565b600081519050919050565b600082825260208201905092915050565b60005b83811015610c93578082015181840152602081019050610c78565b60008484015250505050565b6000610caa82610c59565b610cb48185610c64565b9350610cc4818560208601610c75565b610ccd81610959565b840191505092915050565b6000608082019050610ced6000830187610b18565b610cfa6020830186610b42565b610d076040830185610b42565b8181036060830152610d198184610c9f565b905095945050505050565b7f496e76616c6964204554482f5553442070726963650000000000000000000000600082015250565b6000610d5a601583610c64565b9150610d6582610d24565b602082019050919050565b60006020820190508181036000830152610d8981610d4d565b9050919050565b7f4e487b7100000000000000000000000000000000000000000000000000000000600052602260045260246000fd5b60006002820490506001821680610dd757607f821691505b602082108103610dea57610de9610d90565b5b50919050565b60008190508160005260206000209050919050565b60006020601f8301049050919050565b600082821b905092915050565b600060088302610e527fffffffffffffffffffffffffffffffffffffffffffffffffffffffffffffffff82610e15565b610e5c8683610e15565b95508019841693508086168417925050509392505050565b6000819050919050565b6000610e99610e94610e8f84610919565b610e74565b610919565b9050919050565b6000819050919050565b610eb383610e7e565b610ec7610ebf82610ea0565b848454610e22565b825550505050565b600090565b610edc610ecf565b610ee7818484610eaa565b505050565b5b81811015610f0b57610f00600082610ed4565b600181019050610eed565b5050565b601f821115610f5057610f2181610df0565b610f2a84610e05565b81016020851015610f39578190505b610f4d610f4585610e05565b830182610eec565b50505b505050565b600082821c905092915050565b6000610f7360001984600802610f55565b1980831691505092915050565b6000610f8c8383610f62565b9150826002028217905092915050565b610fa582610c59565b67ffffffffffffffff811115610fbe57610fbd61096a565b5b610fc88254610dbf565b610fd3828285610f0f565b600060209050601f8311600181146110065760008415610ff4578287015190505b610ffe8582610f80565b865550611066565b601f19841661101486610df0565b60005b8281101561103c57848901518255600182019150602085019450602081019050611017565b868310156110595784890151611055601f891682610f62565b8355505b6001600288020188555050505b505050505050565b60006080820190506110836000830187610b18565b81810360208301526110958186610c9f565b90506110a46040830185610b18565b6110b16060830184610b18565b95945050505050565b600060408201905081810360008301526110d48185610c9f565b90506110e36020830184610b42565b9392505050565b7f4e6f7420612076616c696420636f6e7472616374000000000000000000000000600082015250565b6000611120601483610c64565b915061112b826110ea565b602082019050919050565b6000602082019050818103600083015261114f81611113565b9050919050565b7f4e487b7100000000000000000000000000000000000000000000000000000000600052601160045260246000fd5b600061119082610919565b915061119b83610919565b92508282026111a981610919565b915082820484148315176111c0576111bf611156565b5b5092915050565b7f4e487b7100000000000000000000000000000000000000000000000000000000600052601260045260246000fd5b600061120182610919565b915061120c83610919565b92508261121c5761121b6111c7565b5b828204905092915050565b600060608201905061123c6000830186610b18565b6112496020830185610b18565b6112566040830184610b18565b949350505050565b60006040820190506112736000830185610b18565b6112806020830184610b18565b9392505050565b600060408201905061129c6000830185610b42565b6112a96020830184610b42565b939250505056fea2646970667358221220271016fab171efc8d716af7f360fe446f9a8a68e1e139ebe78d904a3f5086ab164736f6c634300081b0033",
  "linkReferences": {},
  "deployedLinkReferences": {}
}