{
  "_format": "hh-sol-artifact-1",
  "contractName": "XMR_ETH",
  "sourceName": "contracts/Master.sol",
  "abi": [
    {
      "inputs": [],
      "name": "ReentrancyGuardReentrantCall",
      "type": "error"
    },
    {
      "anonymous": false,
      "inputs": [],
      "name": "dontHaveMoneroAddress",
      "type": "event"
    },
    {
      "anonymous": false,
      "inputs": [
        {
          "indexed": false,
          "internalType": "uint256",
          "name": "withdrawalAmount",
          "type": "uint256"
        },
        {
          "indexed": false,
          "internalType": "address",
          "name": "withdrawalAddress",
          "type": "address"
        }
      ],
      "name": "ethSent",
      "type": "event"
    },
    {
      "anonymous": false,
      "inputs": [
        {
          "indexed": false,
          "internalType": "string",
          "name": "encryptedMoneroAddress",
          "type": "string"
        }
      ],
      "name": "haveMoneroAddress",
      "type": "event"
    },
    {
      "anonymous": false,
      "inputs": [
        {
          "indexed": false,
          "internalType": "address",
          "name": "withdrawalConfirmation",
          "type": "address"
        }
      ],
      "name": "moneroReceived",
      "type": "event"
    },
    {
      "inputs": [],
      "name": "AddressGenerationFailure",
      "outputs": [],
      "stateMutability": "nonpayable",
      "type": "function"
    },
    {
      "inputs": [
        {
          "internalType": "string",
          "name": "_encryptedMoneroAddress",
          "type": "string"
        }
      ],
      "name": "AddressGenerationSuccess",
      "outputs": [],
      "stateMutability": "nonpayable",
      "type": "function"
    },
    {
      "inputs": [
        {
          "internalType": "uint256",
          "name": "withdrawalAmount",
          "type": "uint256"
        }
      ],
      "name": "EthSent",
      "outputs": [],
      "stateMutability": "nonpayable",
      "type": "function"
    },
    {
      "inputs": [
        {
          "internalType": "uint256",
          "name": "amount",
          "type": "uint256"
        }
      ],
      "name": "MoneroReceived",
      "outputs": [],
      "stateMutability": "nonpayable",
      "type": "function"
    },
    {
      "inputs": [],
      "name": "encryptedMoneroAddress",
      "outputs": [
        {
          "internalType": "string",
          "name": "",
          "type": "string"
        }
      ],
      "stateMutability": "view",
      "type": "function"
    },
    {
      "inputs": [
        {
          "internalType": "address",
          "name": "_withdrawalAddress",
          "type": "address"
        },
        {
          "internalType": "address",
          "name": "_master",
          "type": "address"
        },
        {
          "internalType": "address",
          "name": "_oracle",
          "type": "address"
        }
      ],
      "name": "initialize",
      "outputs": [],
      "stateMutability": "nonpayable",
      "type": "function"
    },
    {
      "inputs": [],
      "name": "master",
      "outputs": [
        {
          "internalType": "address",
          "name": "",
          "type": "address"
        }
      ],
      "stateMutability": "view",
      "type": "function"
    },
    {
      "inputs": [],
      "name": "oracle",
      "outputs": [
        {
          "internalType": "address",
          "name": "",
          "type": "address"
        }
      ],
      "stateMutability": "view",
      "type": "function"
    },
    {
      "inputs": [],
      "name": "withdrawalAddress",
      "outputs": [
        {
          "internalType": "address",
          "name": "",
          "type": "address"
        }
      ],
      "stateMutability": "view",
      "type": "function"
    },
    {
      "inputs": [],
      "name": "withdrawalConfirmation",
      "outputs": [
        {
          "internalType": "address",
          "name": "",
          "type": "address"
        }
      ],
      "stateMutability": "view",
      "type": "function"
    }
  ],
  "bytecode": "0x6080604052348015600f57600080fd5b506001600081905550611071806100276000396000f3fe608060405234801561001057600080fd5b506004361061009e5760003560e01c8063c66e903a11610066578063c66e903a1461011f578063d53b39f41461013b578063e4fd6a6c14610159578063ee97f7f314610177578063f2bcd022146101955761009e565b80632ce4322f146100a35780636ccfcb10146100bf5780637dc0d1d0146100c9578063ab9a8152146100e7578063c0c53b8b14610103575b600080fd5b6100bd60048036038101906100b8919061086f565b6101b3565b005b6100c7610360565b005b6100d161041e565b6040516100de91906108dd565b60405180910390f35b61010160048036038101906100fc919061086f565b610444565b005b61011d60048036038101906101189190610924565b610532565b005b61013960048036038101906101349190610abd565b6105fa565b005b6101436106d5565b6040516101509190610b85565b60405180910390f35b610161610763565b60405161016e91906108dd565b60405180910390f35b61017f610789565b60405161018c91906108dd565b60405180910390f35b61019d6107af565b6040516101aa91906108dd565b60405180910390f35b600560009054906101000a900473ffffffffffffffffffffffffffffffffffffffff1673ffffffffffffffffffffffffffffffffffffffff163373ffffffffffffffffffffffffffffffffffffffff1614610243576040517f08c379a000000000000000000000000000000000000000000000000000000000815260040161023a90610bf3565b60405180910390fd5b61024b6107d5565b600460009054906101000a900473ffffffffffffffffffffffffffffffffffffffff1673ffffffffffffffffffffffffffffffffffffffff1663d2007f1082600260009054906101000a900473ffffffffffffffffffffffffffffffffffffffff166040518363ffffffff1660e01b81526004016102ca929190610c22565b600060405180830381600087803b1580156102e457600080fd5b505af11580156102f8573d6000803e3d6000fd5b505050507f39f78af586d560ab1f8ab76201f98384578e853d8e4ba9b91388691ac8667563600360009054906101000a900473ffffffffffffffffffffffffffffffffffffffff1660405161034d91906108dd565b60405180910390a161035d61081b565b50565b600560009054906101000a900473ffffffffffffffffffffffffffffffffffffffff1673ffffffffffffffffffffffffffffffffffffffff163373ffffffffffffffffffffffffffffffffffffffff16146103f0576040517f08c379a00000000000000000000000000000000000000000000000000000000081526004016103e790610bf3565b60405180910390fd5b7f7066e098e8f5b392ea4f2540fd1f0e28b413b9b6153ae2a6603f1732841f546360405160405180910390a1565b600560009054906101000a900473ffffffffffffffffffffffffffffffffffffffff1681565b600460009054906101000a900473ffffffffffffffffffffffffffffffffffffffff1673ffffffffffffffffffffffffffffffffffffffff163373ffffffffffffffffffffffffffffffffffffffff16146104d4576040517f08c379a00000000000000000000000000000000000000000000000000000000081526004016104cb90610c97565b60405180910390fd5b7fdf4bc2b309ef51d4cef57dee06bd6b5eaf12eaa85f119784bca5efa95dc168de81600260009054906101000a900473ffffffffffffffffffffffffffffffffffffffff16604051610527929190610c22565b60405180910390a150565b82600260006101000a81548173ffffffffffffffffffffffffffffffffffffffff021916908373ffffffffffffffffffffffffffffffffffffffff16021790555081600460006101000a81548173ffffffffffffffffffffffffffffffffffffffff021916908373ffffffffffffffffffffffffffffffffffffffff16021790555080600560006101000a81548173ffffffffffffffffffffffffffffffffffffffff021916908373ffffffffffffffffffffffffffffffffffffffff160217905550505050565b600560009054906101000a900473ffffffffffffffffffffffffffffffffffffffff1673ffffffffffffffffffffffffffffffffffffffff163373ffffffffffffffffffffffffffffffffffffffff161461068a576040517f08c379a000000000000000000000000000000000000000000000000000000000815260040161068190610bf3565b60405180910390fd5b80600190816106999190610ec3565b507f404fb882b5998399c5a3a07e8fee8cdfdfc821aa079a2afef9ae39bf857dd10260016040516106ca9190611019565b60405180910390a150565b600180546106e290610ce6565b80601f016020809104026020016040519081016040528092919081815260200182805461070e90610ce6565b801561075b5780601f106107305761010080835404028352916020019161075b565b820191906000526020600020905b81548152906001019060200180831161073e57829003601f168201915b505050505081565b600360009054906101000a900473ffffffffffffffffffffffffffffffffffffffff1681565b600460009054906101000a900473ffffffffffffffffffffffffffffffffffffffff1681565b600260009054906101000a900473ffffffffffffffffffffffffffffffffffffffff1681565b600260005403610811576040517f3ee5aeb500000000000000000000000000000000000000000000000000000000815260040160405180910390fd5b6002600081905550565b6001600081905550565b6000604051905090565b600080fd5b600080fd5b6000819050919050565b61084c81610839565b811461085757600080fd5b50565b60008135905061086981610843565b92915050565b6000602082840312156108855761088461082f565b5b60006108938482850161085a565b91505092915050565b600073ffffffffffffffffffffffffffffffffffffffff82169050919050565b60006108c78261089c565b9050919050565b6108d7816108bc565b82525050565b60006020820190506108f260008301846108ce565b92915050565b610901816108bc565b811461090c57600080fd5b50565b60008135905061091e816108f8565b92915050565b60008060006060848603121561093d5761093c61082f565b5b600061094b8682870161090f565b935050602061095c8682870161090f565b925050604061096d8682870161090f565b9150509250925092565b600080fd5b600080fd5b6000601f19601f8301169050919050565b7f4e487b7100000000000000000000000000000000000000000000000000000000600052604160045260246000fd5b6109ca82610981565b810181811067ffffffffffffffff821117156109e9576109e8610992565b5b80604052505050565b60006109fc610825565b9050610a0882826109c1565b919050565b600067ffffffffffffffff821115610a2857610a27610992565b5b610a3182610981565b9050602081019050919050565b82818337600083830152505050565b6000610a60610a5b84610a0d565b6109f2565b905082815260208101848484011115610a7c57610a7b61097c565b5b610a87848285610a3e565b509392505050565b600082601f830112610aa457610aa3610977565b5b8135610ab4848260208601610a4d565b91505092915050565b600060208284031215610ad357610ad261082f565b5b600082013567ffffffffffffffff811115610af157610af0610834565b5b610afd84828501610a8f565b91505092915050565b600081519050919050565b600082825260208201905092915050565b60005b83811015610b40578082015181840152602081019050610b25565b60008484015250505050565b6000610b5782610b06565b610b618185610b11565b9350610b71818560208601610b22565b610b7a81610981565b840191505092915050565b60006020820190508181036000830152610b9f8184610b4c565b905092915050565b7f43616c6c6572206973206e6f7420746865206f7261636c650000000000000000600082015250565b6000610bdd601883610b11565b9150610be882610ba7565b602082019050919050565b60006020820190508181036000830152610c0c81610bd0565b9050919050565b610c1c81610839565b82525050565b6000604082019050610c376000830185610c13565b610c4460208301846108ce565b9392505050565b7f43616c6c6572206973206e6f7420746865206d61737465720000000000000000600082015250565b6000610c81601883610b11565b9150610c8c82610c4b565b602082019050919050565b60006020820190508181036000830152610cb081610c74565b9050919050565b7f4e487b7100000000000000000000000000000000000000000000000000000000600052602260045260246000fd5b60006002820490506001821680610cfe57607f821691505b602082108103610d1157610d10610cb7565b5b50919050565b60008190508160005260206000209050919050565b60006020601f8301049050919050565b600082821b905092915050565b600060088302610d797fffffffffffffffffffffffffffffffffffffffffffffffffffffffffffffffff82610d3c565b610d838683610d3c565b95508019841693508086168417925050509392505050565b6000819050919050565b6000610dc0610dbb610db684610839565b610d9b565b610839565b9050919050565b6000819050919050565b610dda83610da5565b610dee610de682610dc7565b848454610d49565b825550505050565b600090565b610e03610df6565b610e0e818484610dd1565b505050565b5b81811015610e3257610e27600082610dfb565b600181019050610e14565b5050565b601f821115610e7757610e4881610d17565b610e5184610d2c565b81016020851015610e60578190505b610e74610e6c85610d2c565b830182610e13565b50505b505050565b600082821c905092915050565b6000610e9a60001984600802610e7c565b1980831691505092915050565b6000610eb38383610e89565b9150826002028217905092915050565b610ecc82610b06565b67ffffffffffffffff811115610ee557610ee4610992565b5b610eef8254610ce6565b610efa828285610e36565b600060209050601f831160018114610f2d5760008415610f1b578287015190505b610f258582610ea7565b865550610f8d565b601f198416610f3b86610d17565b60005b82811015610f6357848901518255600182019150602085019450602081019050610f3e565b86831015610f805784890151610f7c601f891682610e89565b8355505b6001600288020188555050505b505050505050565b60008154610fa281610ce6565b610fac8186610b11565b94506001821660008114610fc75760018114610fdd57611010565b60ff198316865281151560200286019350611010565b610fe685610d17565b60005b8381101561100857815481890152600182019150602081019050610fe9565b808801955050505b50505092915050565b600060208201905081810360008301526110338184610f95565b90509291505056fea2646970667358221220185f88661113bbdfd2431feebda17ec21b3ef1e9560eff58eb23cf97687319ba64736f6c634300081b0033",
  "linkReferences": {},
  "deployedLinkReferences": {}
}