{
  "_format": "hh-sol-artifact-1",
  "contractName": "XMR_ETH",
  "sourceName": "contracts/Master.sol",
  "abi": [
    {
      "inputs": [],
      "name": "ReentrancyGuardReentrantCall",
      "type": "error"
    },
    {
      "anonymous": false,
      "inputs": [],
      "name": "dontHaveMoneroAddress",
      "type": "event"
    },
    {
      "anonymous": false,
      "inputs": [
        {
          "indexed": false,
          "internalType": "uint256",
          "name": "withdrawalAmount",
          "type": "uint256"
        },
        {
          "indexed": false,
          "internalType": "address",
          "name": "withdrawalAddress",
          "type": "address"
        }
      ],
      "name": "ethSent",
      "type": "event"
    },
    {
      "anonymous": false,
      "inputs": [
        {
          "indexed": false,
          "internalType": "string",
          "name": "encryptedMoneroAddress",
          "type": "string"
        }
      ],
      "name": "haveMoneroAddress",
      "type": "event"
    },
    {
      "anonymous": false,
      "inputs": [
        {
          "indexed": false,
          "internalType": "address",
          "name": "withdrawalConfirmation",
          "type": "address"
        }
      ],
      "name": "moneroReceived",
      "type": "event"
    },
    {
      "inputs": [],
      "name": "AddressGenerationFailure",
      "outputs": [],
      "stateMutability": "nonpayable",
      "type": "function"
    },
    {
      "inputs": [
        {
          "internalType": "string",
          "name": "_encryptedMoneroAddress",
          "type": "string"
        }
      ],
      "name": "AddressGenerationSuccess",
      "outputs": [],
      "stateMutability": "nonpayable",
      "type": "function"
    },
    {
      "inputs": [
        {
          "internalType": "uint256",
          "name": "withdrawalAmount",
          "type": "uint256"
        }
      ],
      "name": "EthSent",
      "outputs": [],
      "stateMutability": "nonpayable",
      "type": "function"
    },
    {
      "inputs": [
        {
          "internalType": "uint256",
          "name": "amount",
          "type": "uint256"
        }
      ],
      "name": "MoneroReceived",
      "outputs": [],
      "stateMutability": "nonpayable",
      "type": "function"
    },
    {
      "inputs": [
        {
          "internalType": "address",
          "name": "_withdrawalAddress",
          "type": "address"
        },
        {
          "internalType": "address",
          "name": "_oracle",
          "type": "address"
        },
        {
          "internalType": "address",
          "name": "_master",
          "type": "address"
        }
      ],
      "name": "initialize",
      "outputs": [],
      "stateMutability": "nonpayable",
      "type": "function"
    },
    {
      "inputs": [],
      "name": "master",
      "outputs": [
        {
          "internalType": "address",
          "name": "",
          "type": "address"
        }
      ],
      "stateMutability": "view",
      "type": "function"
    },
    {
      "inputs": [],
      "name": "oracle",
      "outputs": [
        {
          "internalType": "address",
          "name": "",
          "type": "address"
        }
      ],
      "stateMutability": "view",
      "type": "function"
    },
    {
      "inputs": [],
      "name": "withdrawalAddress",
      "outputs": [
        {
          "internalType": "address",
          "name": "",
          "type": "address"
        }
      ],
      "stateMutability": "view",
      "type": "function"
    },
    {
      "inputs": [],
      "name": "withdrawalConfirmation",
      "outputs": [
        {
          "internalType": "address",
          "name": "",
          "type": "address"
        }
      ],
      "stateMutability": "view",
      "type": "function"
    }
  ],
  "bytecode": "0x6080604052348015600f57600080fd5b506001600081905550610f35806100276000396000f3fe608060405234801561001057600080fd5b50600436106100935760003560e01c8063c0c53b8b11610066578063c0c53b8b146100f8578063c66e903a14610114578063e4fd6a6c14610130578063ee97f7f31461014e578063f2bcd0221461016c57610093565b80632ce4322f146100985780636ccfcb10146100b45780637dc0d1d0146100be578063ab9a8152146100dc575b600080fd5b6100b260048036038101906100ad91906107b8565b61018a565b005b6100bc610337565b005b6100c66103f5565b6040516100d39190610826565b60405180910390f35b6100f660048036038101906100f191906107b8565b61041b565b005b610112600480360381019061010d919061086d565b610509565b005b61012e60048036038101906101299190610a06565b6105d1565b005b6101386106ac565b6040516101459190610826565b60405180910390f35b6101566106d2565b6040516101639190610826565b60405180910390f35b6101746106f8565b6040516101819190610826565b60405180910390f35b600560009054906101000a900473ffffffffffffffffffffffffffffffffffffffff1673ffffffffffffffffffffffffffffffffffffffff163373ffffffffffffffffffffffffffffffffffffffff161461021a576040517f08c379a000000000000000000000000000000000000000000000000000000000815260040161021190610aac565b60405180910390fd5b61022261071e565b600460009054906101000a900473ffffffffffffffffffffffffffffffffffffffff1673ffffffffffffffffffffffffffffffffffffffff1663d2007f1082600260009054906101000a900473ffffffffffffffffffffffffffffffffffffffff166040518363ffffffff1660e01b81526004016102a1929190610adb565b600060405180830381600087803b1580156102bb57600080fd5b505af11580156102cf573d6000803e3d6000fd5b505050507f39f78af586d560ab1f8ab76201f98384578e853d8e4ba9b91388691ac8667563600360009054906101000a900473ffffffffffffffffffffffffffffffffffffffff166040516103249190610826565b60405180910390a1610334610764565b50565b600560009054906101000a900473ffffffffffffffffffffffffffffffffffffffff1673ffffffffffffffffffffffffffffffffffffffff163373ffffffffffffffffffffffffffffffffffffffff16146103c7576040517f08c379a00000000000000000000000000000000000000000000000000000000081526004016103be90610aac565b60405180910390fd5b7f7066e098e8f5b392ea4f2540fd1f0e28b413b9b6153ae2a6603f1732841f546360405160405180910390a1565b600560009054906101000a900473ffffffffffffffffffffffffffffffffffffffff1681565b600460009054906101000a900473ffffffffffffffffffffffffffffffffffffffff1673ffffffffffffffffffffffffffffffffffffffff163373ffffffffffffffffffffffffffffffffffffffff16146104ab576040517f08c379a00000000000000000000000000000000000000000000000000000000081526004016104a290610b50565b60405180910390fd5b7fdf4bc2b309ef51d4cef57dee06bd6b5eaf12eaa85f119784bca5efa95dc168de81600260009054906101000a900473ffffffffffffffffffffffffffffffffffffffff166040516104fe929190610adb565b60405180910390a150565b82600260006101000a81548173ffffffffffffffffffffffffffffffffffffffff021916908373ffffffffffffffffffffffffffffffffffffffff16021790555080600460006101000a81548173ffffffffffffffffffffffffffffffffffffffff021916908373ffffffffffffffffffffffffffffffffffffffff16021790555081600560006101000a81548173ffffffffffffffffffffffffffffffffffffffff021916908373ffffffffffffffffffffffffffffffffffffffff160217905550505050565b600560009054906101000a900473ffffffffffffffffffffffffffffffffffffffff1673ffffffffffffffffffffffffffffffffffffffff163373ffffffffffffffffffffffffffffffffffffffff1614610661576040517f08c379a000000000000000000000000000000000000000000000000000000000815260040161065890610aac565b60405180910390fd5b80600190816106709190610d87565b507f404fb882b5998399c5a3a07e8fee8cdfdfc821aa079a2afef9ae39bf857dd10260016040516106a19190610edd565b60405180910390a150565b600360009054906101000a900473ffffffffffffffffffffffffffffffffffffffff1681565b600460009054906101000a900473ffffffffffffffffffffffffffffffffffffffff1681565b600260009054906101000a900473ffffffffffffffffffffffffffffffffffffffff1681565b60026000540361075a576040517f3ee5aeb500000000000000000000000000000000000000000000000000000000815260040160405180910390fd5b6002600081905550565b6001600081905550565b6000604051905090565b600080fd5b600080fd5b6000819050919050565b61079581610782565b81146107a057600080fd5b50565b6000813590506107b28161078c565b92915050565b6000602082840312156107ce576107cd610778565b5b60006107dc848285016107a3565b91505092915050565b600073ffffffffffffffffffffffffffffffffffffffff82169050919050565b6000610810826107e5565b9050919050565b61082081610805565b82525050565b600060208201905061083b6000830184610817565b92915050565b61084a81610805565b811461085557600080fd5b50565b60008135905061086781610841565b92915050565b60008060006060848603121561088657610885610778565b5b600061089486828701610858565b93505060206108a586828701610858565b92505060406108b686828701610858565b9150509250925092565b600080fd5b600080fd5b6000601f19601f8301169050919050565b7f4e487b7100000000000000000000000000000000000000000000000000000000600052604160045260246000fd5b610913826108ca565b810181811067ffffffffffffffff82111715610932576109316108db565b5b80604052505050565b600061094561076e565b9050610951828261090a565b919050565b600067ffffffffffffffff821115610971576109706108db565b5b61097a826108ca565b9050602081019050919050565b82818337600083830152505050565b60006109a96109a484610956565b61093b565b9050828152602081018484840111156109c5576109c46108c5565b5b6109d0848285610987565b509392505050565b600082601f8301126109ed576109ec6108c0565b5b81356109fd848260208601610996565b91505092915050565b600060208284031215610a1c57610a1b610778565b5b600082013567ffffffffffffffff811115610a3a57610a3961077d565b5b610a46848285016109d8565b91505092915050565b600082825260208201905092915050565b7f43616c6c6572206973206e6f7420746865206f7261636c650000000000000000600082015250565b6000610a96601883610a4f565b9150610aa182610a60565b602082019050919050565b60006020820190508181036000830152610ac581610a89565b9050919050565b610ad581610782565b82525050565b6000604082019050610af06000830185610acc565b610afd6020830184610817565b9392505050565b7f43616c6c6572206973206e6f7420746865206d61737465720000000000000000600082015250565b6000610b3a601883610a4f565b9150610b4582610b04565b602082019050919050565b60006020820190508181036000830152610b6981610b2d565b9050919050565b600081519050919050565b7f4e487b7100000000000000000000000000000000000000000000000000000000600052602260045260246000fd5b60006002820490506001821680610bc257607f821691505b602082108103610bd557610bd4610b7b565b5b50919050565b60008190508160005260206000209050919050565b60006020601f8301049050919050565b600082821b905092915050565b600060088302610c3d7fffffffffffffffffffffffffffffffffffffffffffffffffffffffffffffffff82610c00565b610c478683610c00565b95508019841693508086168417925050509392505050565b6000819050919050565b6000610c84610c7f610c7a84610782565b610c5f565b610782565b9050919050565b6000819050919050565b610c9e83610c69565b610cb2610caa82610c8b565b848454610c0d565b825550505050565b600090565b610cc7610cba565b610cd2818484610c95565b505050565b5b81811015610cf657610ceb600082610cbf565b600181019050610cd8565b5050565b601f821115610d3b57610d0c81610bdb565b610d1584610bf0565b81016020851015610d24578190505b610d38610d3085610bf0565b830182610cd7565b50505b505050565b600082821c905092915050565b6000610d5e60001984600802610d40565b1980831691505092915050565b6000610d778383610d4d565b9150826002028217905092915050565b610d9082610b70565b67ffffffffffffffff811115610da957610da86108db565b5b610db38254610baa565b610dbe828285610cfa565b600060209050601f831160018114610df15760008415610ddf578287015190505b610de98582610d6b565b865550610e51565b601f198416610dff86610bdb565b60005b82811015610e2757848901518255600182019150602085019450602081019050610e02565b86831015610e445784890151610e40601f891682610d4d565b8355505b6001600288020188555050505b505050505050565b60008154610e6681610baa565b610e708186610a4f565b94506001821660008114610e8b5760018114610ea157610ed4565b60ff198316865281151560200286019350610ed4565b610eaa85610bdb565b60005b83811015610ecc57815481890152600182019150602081019050610ead565b808801955050505b50505092915050565b60006020820190508181036000830152610ef78184610e59565b90509291505056fea26469706673582212208cc4ee17a7686811b72eb31500c58ad00d961465c2f9b74055fc3835857b81d764736f6c634300081b0033",
  "linkReferences": {},
  "deployedLinkReferences": {}
}